:100000000C9467000C948F000C948F000C948F005C
:100010000C948F000C948F000C948F000C948F0024
:100020000C948F000C948F000C9431070C948F006B
:100030000C948F000C948F000C948F000C948F0004
:100040000C941C030C948F000C94A8040C94F604DC
:100050000C948F000C948F000C948F000C948F00E4
:100060000C948F000C948F000000000024002700E7
:100070002A0000000000250028002B0000000000DE
:1000800023002600290004040404040404040202DA
:100090000202020203030303030301020408102007
:1000A0004080010204081020010204081020000012
:1000B0000007000201000003040600000000000029
:1000C0000000E400BA01A502AE0262068508112410
:1000D0001FBECFEFD8E0DEBFCDBF11E0A0E0B1E0A2
:1000E000E2E0F6E102C005900D92A434B107D9F721
:1000F00012E0A4E4B1E001C01D92A935B107E1F717
:1001000010E0CEECD0E004C02297FE010E94FB0A72
:10011000C23CD107C9F70E940D030C94FF0A0C944E
:100120000000862F60E00E9400040895862F61E0A1
:100130000E9400040895FC01858160E00E94000493
:10014000089584E491E00E949B0085E292E064E1DE
:1001500070E041EA50E00E946A080895FC01858140
:1001600061E00E940004089584E491E00E94AE00E2
:1001700085E292E064E170E041EA50E00E94B70756
:1001800008950E94B4000895862F0E945404089593
:10019000FC0184810E949F0308950F931F938C019B
:1001A0008EE0F801848387E0858361E00E94C103CB
:1001B00088E090E0F8019183808388EC90E093835D
:1001C00082831F910F91089584E491E00E94CD00F5
:1001D00008950895CF93DF93EC0184E491E06D815D
:1001E0000E94C400892B31F48881882319F481E0AE
:1001F0008B8388838B81882349F084E491E06C8130
:100200000E9496001B821F821E821FC08881882345
:10021000B9F084E491E06C810E94960080914401E1
:10022000909145012E813F81820F931F9F838E8382
:1002300029813A818217930744F018821F821E8217
:1002400084E491E06C810E949100DF91CF91089548
:100250000F931F938C01822FF801728361831082A8
:100260001382248345831782168261E00E94C103B2
:10027000F801858160E00E94C1031F910F910895EC
:100280004F925F926F927F928F929F92AF92BF92A6
:10029000CF92DF92EF92FF920F931F936C0184E451
:1002A00091E00E94C8007C01F60162817381882779
:1002B00077FD8095982F0E9493092B013C01F60150
:1002C00064817581882777FD8095982F0E94930916
:1002D0004B015C010027F7FC0095102FC801B70106
:1002E0000E9493097B018C01F60166817781882742
:1002F00077FD8095982F0E9493099B01AC01C8015E
:10030000B7010E94F8089B01AC01C501B4010E942D
:10031000740A9B01AC01C301B2010E9493081F91B2
:100320000F91FF90EF90DF90CF90BF90AF909F9094
:100330008F907F906F905F904F9008950E94400142
:100340009B01AC0160E070E08AE794E40E94F80849
:1003500020E030E040E752E40E94740A20E030E000
:1003600040E05FE30E9494080E94CE090E94600969
:10037000CB01089580EF90E090934D0180934C0164
:10038000ECE4F1E088E290E09293829388EC90E0D4
:1003900090934F0180934E018CEF93E09093510125
:1003A00080935001CF010E949E019093550180934C
:1003B00054010895CF93DF9380915201909153019E
:1003C0002091440130914501820F931F9093530176
:1003D000809352018AE491E00E949E01EC01809199
:1003E000520190915301C817D90744F484E491E075
:1003F0000E94C1001092530110925201D0935501F6
:10040000C0935401DF91CF910895CF93DF93EC0116
:100410008A859B85892B29F584E491E068850E9473
:10042000C400892BF1F48A859B8520914401309189
:100430004501820F931F9B878A8781E00FC01B862F
:100440001A860BC01216130644F480914401909151
:100450004501820F931F9B878A8780E0DF91CF91B0
:1004600008952A853B858091460190914701281780
:10047000390744F3E4CFCF93DF93EC018E819F8162
:10048000892B29F584E491E06C810E94C400892BBA
:10049000F1F48E819F812091440130914501820FBA
:1004A000931F9F838E8381E00FC01F821E820BC02B
:1004B0001216130644F48091440190914501820F75
:1004C000931F9F838E8380E0DF91CF9108952E81CB
:1004D0003F8180914601909147012817390744F3E5
:1004E000E4CFCF93DF93EC010E943B02882331F0ED
:1004F00083E092E060E071E00E941E07CE010E945E
:100500000502882331F083E092E069E171E00E9406
:100510001E07DF91CF9108950F931F938C01862FB3
:10052000F801648375835187408760E00E94C103AE
:10053000F801808560E00E94C103F80113861286ED
:10054000178216821F910F91089586E591E066E06B
:1005500070E045E050E00E948C02089582E691E050
:100560000E94E9008AE691E00E94E900089585E290
:1005700092E00E946A0708958AE691E00E94EA00EC
:10058000089582E691E00E94EA0008950E94DA014F
:1005900086E591E00E94710208950F931F9383E016
:1005A00092E040E855E260E070E00E94310582E6AA
:1005B00091E064E670E04AE029E00E9428018AE6C2
:1005C00091E064E670E04DE02CE00E94280105E235
:1005D00012E0C8010E944F076091440170914501EB
:1005E000C80146EC52E00E94B70760914401709147
:1005F0004501C80141EC52E00E94B70760914401F7
:1006000070914501C8014CEB52E00E94B707C80148
:100610000E9464071F910F910895CF93DF930E946A
:1006200064030E94CD02C3EED4E00E94B70220977B
:10063000E1F30E94E304F9CF1F920F920FB60F92DD
:1006400011242F933F938F939F93AF93BF938091E8
:10065000760190917701A0917801B0917901309164
:100660007A010196A11DB11D232F2D5F2D3720F09A
:100670002D570196A11DB11D20937A01809376011B
:1006800090937701A0937801B093790180917201E2
:1006900090917301A0917401B09175010196A11D13
:1006A000B11D8093720190937301A0937401B09374
:1006B0007501BF91AF919F918F913F912F910F90B5
:1006C0000FBE0F901F901895789484B5826084BDFA
:1006D00084B5816084BD85B5826085BD85B5816046
:1006E00085BDEEE6F0E0808181608083E1E8F0E0A6
:1006F0001082808182608083808181608083E0E8D5
:10070000F0E0808181608083E1EBF0E080818460B3
:100710008083E0EBF0E0808181608083EAE7F0E0B5
:100720008081846080838081826080838081816019
:1007300080838081806880831092C1000895982F03
:100740008E3008F09E509770809132018295880F0C
:10075000880F807C892B80937C0080917A00806454
:1007600080937A0080917A0086FDFCCF20917800FA
:1007700040917900942F80E030E0282B392BC9017B
:100780000895CF93DF93482F50E0CA0186569F4FBC
:10079000FC0134914A575F4FFA018491882369F133
:1007A00090E0880F991FFC01E859FF4FA591B49183
:1007B000FC01EE58FF4FC591D491662351F42FB739
:1007C000F8948C91932F909589238C938881892319
:1007D0000BC0623061F42FB7F8948C91932F9095F1
:1007E00089238C938881832B88832FBF06C09FB772
:1007F000F8948C91832B8C939FBFDF91CF910895B8
:10080000482F50E0CA0182559F4FFC012491CA0134
:1008100086569F4FFC0194914A575F4FFA013491DD
:10082000332309F440C0222351F1233071F02430E6
:1008300028F42130A1F0223011F514C02630B1F097
:100840002730C1F02430D9F404C0809180008F7724
:1008500003C0809180008F7D8093800010C084B59C
:100860008F7702C084B58F7D84BD09C08091B000B0
:100870008F7703C08091B0008F7D8093B000E32F0D
:10088000F0E0EE0FFF1FEE58FF4FA591B4912FB788
:10089000F894662321F48C919095892302C08C9161
:1008A000892B8C932FBF0895682F70E0CB01825560
:1008B0009F4FFC012491CB0186569F4FFC01449130
:1008C0006A577F4FFB019491992319F420E030E09F
:1008D0003CC0222351F1233071F0243028F4213020
:1008E000A1F0223011F514C02630B1F02730C1F04C
:1008F0002430D9F404C0809180008F7703C08091A8
:1009000080008F7D8093800010C084B58F7702C0F7
:1009100084B58F7D84BD09C08091B0008F7703C0FE
:100920008091B0008F7D8093B000892F90E0880F78
:10093000991F84589F4FFC01A591B4918C9120E0A0
:1009400030E0842311F021E030E0C90108950895DA
:100950001F920F920FB60F9211242F933F934F9334
:100960008F939F93EF93FF938091C00082FD1DC0F2
:100970004091C6002091BB013091BC012F5F3F4FD9
:100980002F7330708091BD019091BE0128173907F7
:1009900071F0E091BB01F091BC01E558FE4F40833E
:1009A0003093BC012093BB0102C08091C600FF912F
:1009B000EF919F918F914F913F912F910F900FBE8B
:1009C0000F901F901895E0910F02F0911002E05CDB
:1009D000FF4F8191919120813181821B930B8F7305
:1009E0009070892B11F00E94A70408951F920F9216
:1009F0000FB60F9211242F933F938F939F93EF93F2
:100A0000FF932091FF0130910002809101029091AB
:100A100002022817390731F48091C1008F7D80933D
:100A2000C10014C0E0910102F0910202E154FE4FB6
:100A30002081809101029091020201968F73907043
:100A400090930202809301022093C600FF91EF91E0
:100A50009F918F913F912F910F900FBE0F901F90FC
:100A60001895AF92BF92DF92EF92FF920F931F9370
:100A7000CF93DF93EC017A018B01DD24403081EECE
:100A8000580780E0680780E0780711F0DD24D394F0
:100A900091E0A92EB12CEC89FD89DD2069F0C5011A
:100AA00008A002C0880F991F0A94E2F7808360E0D3
:100AB00079E08DE390E005C0108260E874E88EE193
:100AC00090E0A80197010E94D70A21503040404091
:100AD0005040569547953795279580E12030380747
:100AE00020F0DD2011F0DD24D6CFE889F9893083AC
:100AF000EA89FB89208319A2EE89FF89408121E0E0
:100B000030E0C9010C8C02C0880F991F0A94E2F7EB
:100B1000482B4083EE89FF894081C9010D8C02C0BA
:100B2000880F991F0A94E2F7482B4083EE89FF89CA
:100B30004081C9010E8C02C0880F991F0A94E2F708
:100B4000482B4083EE89FF8980810F8C02C0220FE1
:100B5000331F0A94E2F7209528232083DF91CF9159
:100B60001F910F91FF90EF90DF90BF90AF9008958D
:100B7000DC011C96ED91FC911D97E05CFF4F2191EB
:100B8000319180819181281B390B2F733070C901FD
:100B90000895DC011C96ED91FC911D97E05CFF4FE0
:100BA00020813181E054F040DF01AE5BBF4F8D9179
:100BB0009C9111972817390719F42FEF3FEF07C0C1
:100BC0008D919C91E80FF91F8081282F30E0C90199
:100BD0000895DC011C96ED91FC911D97E05CFF4FA0
:100BE00020813181E054F040DF01AE5BBF4F8D9139
:100BF0009C9111972817390719F42FEF3FEF10C078
:100C00008D919C911197E80FF91F20818D919C91F6
:100C1000119701968F73907011969C938E9330E08C
:100C2000C9010895DC0191968C919197882339F040
:100C30005496ED91FC915597808186FFF9CF91965E
:100C40001C920895CF93DF93EC01EE85FF85E05C65
:100C5000FF4F20813181E054F0402F5F3F4F2F73D1
:100C60003070DF01AE5BBF4F8D919C9111972817BB
:100C70003907D1F3E05CFF4F80819181E054F0406F
:100C8000E80FF91F6083EE85FF85E05CFF4F31833D
:100C90002083EE89FF89208181E090E00F8C02C0E3
:100CA000880F991F0A94E2F7282B208381E089A3FB
:100CB000EC89FD8980818064808381E090E0DF9110
:100CC000CF910895109206021092050288EE93E0EB
:100CD000A0E0B0E08093070290930802A09309027D
:100CE000B0930A0287E391E0909304028093030299
:100CF0008BE791E09093100280930F028FEB91E0CD
:100D0000909312028093110285EC90E0909314026C
:100D10008093130284EC90E0909316028093150266
:100D200080EC90E0909318028093170281EC90E0A1
:100D300090931A028093190282EC90E090931C0227
:100D400080931B0286EC90E090931E0280931D021C
:100D500084E080931F0283E08093200287E08093E9
:100D6000210285E08093220281E08093230208958E
:100D7000CF92DF92EF92FF920F931F93CF93DF9367
:100D80007C016B018A01C0E0D0E00FC0D6016D91FB
:100D90006D01D701ED91FC910190F081E02DC7012B
:100DA0000995C80FD91F015010400115110571F7A1
:100DB000CE01DF91CF911F910F91FF90EF90DF90C7
:100DC000CF900895EF92FF920F931F938C01DC0157
:100DD000ED91FC910190F081E02D6DE009957C0191
:100DE000D801ED91FC910190F081E02DC8016AE0FD
:100DF00009959C012E0D3F1DC9011F910F91FF9078
:100E0000EF900895CF93DF93EC016115710519F40C
:100E100020E030E00FC0DB010D900020E9F71197D2
:100E2000A61BB70BE881F9810280F381E02DAD01AB
:100E300009959C01C901DF91CF910895EF92FF922E
:100E40000F931F937C010E9402078C01C7010E942F
:100E5000E206080F191FC8011F910F91FF90EF9034
:100E600008951F920F920FB60F9211248F939F93A4
:100E7000EF93FF93809158028F5F80935802E5E2D1
:100E8000F2E080819181019691838083FF91EF91BF
:100E90009F918F910F900FBE0F901F901895F8940F
:100EA0001092800088E1809381008FE79EE3909309
:100EB00087008093860080E280936F001092850007
:100EC0001092840078940895E1E8F0E080818160D8
:100ED00080830895EF92FF921F93CF93DF93EC01ED
:100EE0008BA98823F1F1E82EFF241BAA10E036C05D
:100EF000412F50E0FA01EE0FFF1FE40FF51FDF0155
:100F0000AA0FBB1FAC0FBD1F14962D913C911597D6
:100F10002E193F0915963C932E931497121613061B
:100F2000E4F03196EE0FFF1FEC0FFD1F80819181E1
:100F3000280F391F15963C932E931497CA010196DA
:100F4000FC01EE0FFF1FE80FF91FEE0FFF1FEC0F64
:100F5000FD1F0190F081E02D09951F5F8AA91817E8
:100F600038F2DF91CF911F91FF90EF9008950F938A
:100F70001F93CF93DF93EC018A014AA910C0F901B6
:100F8000EE0FFF1FE20FF31F3196EE0FFF1FEC0F66
:100F9000FD1F86E00D9001928150E1F741504423FE
:100FA000A1F0242F30E0C9010197DC01AA0FBB1F7B
:100FB000A80FB91F1196AA0FBB1FAC0FBD1F8D91B3
:100FC0009C91119768177907D4F28AA98F5F8AAB31
:100FD000242F30E0C9010196FC01EE0FFF1FE80F3E
:100FE000F91FEE0FFF1FEC0FFD1F11830083F901A6
:100FF000EE0FFF1FE20FF31FDF01AA0FBB1FAC0FA5
:10100000BD1F15967C936E9314973196EE0FFF1FBC
:10101000EC0FFD1F71836083DF91CF911F910F91C2
:101020000895CF93DF93EC01DB017AA960E0462FAE
:1010300050E0FA01EE0FFF1FE40FF51F3196EE0F9F
:10104000FF1FEC0FFD1F2D913C9111978081918125
:1010500028173907A1F4CA010196FC01EE0FFF1F02
:10106000E80FF91FEE0FFF1FEC0FFD1F14962D91D7
:101070003C911597808191812817390719F06F5F8E
:101080007617A8F6671718F571507AAB1DC0862F32
:1010900090E0DC01AA0FBB1FA80FB91F1196AA0F81
:1010A000BB1F0196FC01EE0FFF1FE80FF91F3196E1
:1010B000EE0FFF1FAC0FBD1FEC0FFD1F86E0019070
:1010C0000D928150E1F76F5F8AA9681700F3DF91F5
:1010D000CF910895DF93CF9300D000D000D0CDB74B
:1010E000DEB77A8369837C836B835E834D83BE0125
:1010F0006F5F7F4F0E94110826960FB6F894DEBFEF
:101100000FBECDBFCF91DF910895E7E2F2E01182EB
:1011100010821382128215821482369682E0E7359D
:10112000F807A9F708955058BB27AA270ED08BC1FE
:101130007CD130F081D120F031F49F3F11F41EF4C6
:1011400071C10EF4E095E7FB3CC1E92F8DD180F32E
:10115000BA17620773078407950718F071F49EF5B4
:10116000BCC10EF4E0950B2EBA2FA02D0B01B901D6
:1011700090010C01CA01A0011124FF27591B99F00D
:10118000593F50F4503E68F11A16F040A22F232F19
:10119000342F4427585FF3CF469537952795A79569
:1011A000F0405395C9F77EF41F16BA0B620B730B10
:1011B000840BBAF09150A1F0FF0FBB1F661F771F81
:1011C000881FC2F70EC0BA0F621F731F841F48F436
:1011D000879577956795B795F7959E3F08F0B3CFBC
:1011E0009395880F08F09927EE0F979587950895A6
:1011F0000CD029C121D140F018D130F021F45F3F4B
:1012000019F0DFC051116AC10DC12ED198F3992395
:10121000C9F35523B1F3951B550BBB27AA276217BA
:101220007307840738F09F5F5F4F220F331F441FFF
:10123000AA1FA9F333D00E2E3AF0E0E830D0915037
:101240005040E695001CCAF729D0FE2F27D0660F24
:10125000771F881FBB1F261737074807AB07B0E863
:1012600009F0BB0B802DBF01FF2793585F4F2AF079
:101270009E3F510568F0A5C031C15F3FECF3983E39
:10128000DCF3869577956795B795F7959F5FC9F7D6
:10129000880F911D9695879597F90895E1E0660F5F
:1012A000771F881FBB1F621773078407BA0720F0D8
:1012B000621B730B840BBA0BEE1F88F7E095089541
:1012C00004D06894B1110AC10895D6D088F09F5710
:1012D00090F0B92F9927B751A0F0D1F0660F771F82
:1012E000881F991F1AF0BA95C9F712C0B13081F062
:1012F000F4D0B1E00895F1C0672F782F8827B85F48
:1013000039F0B93FCCF3869577956795B395D9F7C2
:101310003EF490958095709561957F4F8F4F9F4FCC
:101320000895E89409C097FB3EF4909580957095D8
:1013300061957F4F8F4F9F4F9923A9F0F92F96E921
:10134000BB279395F695879577956795B795F11196
:10135000F8CFFAF4BB0F11F460FF1BC06F5F7F4F33
:101360008F4F9F4F16C0882311F096E911C0772345
:1013700021F09EE8872F762F05C0662371F096E84E
:10138000862F70E060E02AF09A95660F771F881F1D
:10139000DAF7880F9695879597F9089587D080F0AA
:1013A0009F3740F491110EF099C060E070E080E842
:1013B0009FEB089526F41B16611D711D811D07C04A
:1013C00021C097F99F6780E870E060E00895882366
:1013D00071F4772321F09850872B762F07C066236E
:1013E00011F499270DC09051862B70E060E02AF02F
:1013F0009A95660F771F881FDAF7880F969587955D
:1014000097F908959F3F49F0915028F48695779574
:101410006795B7959F5F80389F4F880F9695879502
:1014200097F908959FEF80EC089500240A9416160A
:10143000170618060906089500240A9412161306C2
:10144000140605060895092E0394000C11F4882350
:1014500052F0BB0F40F4BF2B11F460FF04C06F5F6C
:101460007F4F8F4F9F4F089557FD9058440F551F42
:1014700059F05F3F71F04795880F97FB991F61F016
:101480009F3F79F087950895121613061406551F8D
:10149000F2CF4695F1DF08C0161617061806991FF9
:1014A000F1CF86957105610508940895E5DFA0F0F8
:1014B000BEE7B91788F4BB279F3860F41616B11D34
:1014C000672F782F8827985FF7CF86957795679550
:1014D000B11D93959639C8F30895E894BB27662704
:1014E0007727CB0197F908950BD0ADCF9EDF28F079
:1014F000A3DF18F0952309F064CF94CF1124EECF29
:10150000B3DFA0F3959FD1F3950F50E0551F629F75
:10151000F001729FBB27F00DB11D639FAA27F00D4C
:10152000B11DAA1F649F6627B00DA11D661F829F73
:101530002227B00DA11D621F739FB00DA11D621F58
:10154000839FA00D611D221F749F3327A00D611D75
:10155000231F849F600D211D822F762F6A2F112457
:101560009F5750408AF0E1F088234AF0EE0FFF1FAA
:10157000BB1F661F771F881F91505040A9F79E3FE1
:10158000510570F01ECFAACF5F3FECF3983EDCF31D
:10159000869577956795B795F795E7959F5FC1F71E
:1015A000FE2B880F911D9695879597F90895A1E2D6
:1015B0001A2EAA1BBB1BFD010DC0AA1FBB1FEE1FCD
:1015C000FF1FA217B307E407F50720F0A21BB30B18
:1015D000E40BF50B661F771F881F991F1A9469F794
:1015E00060957095809590959B01AC01BD01CF01F0
:1015F0000895EE0FFF1F0590F491E02D0994F894E3
:02160000FFCF1A
:1016020054696D656C696E652053746172742054FF
:1016120072696767657265640054696D656C696EAD
:101622006520436C656172205472696767657265F3
:10163200640001000000002206B806B805E905C9E9
:041642000512060087
:00000001FF
