:100000000C9467000C948F000C948F000C948F005C
:100010000C948F000C948F000C948F000C948F0024
:100020000C948F000C948F000C94160A0C948F0083
:100030000C948F000C948F000C948F000C948F0004
:100040000C9438040C948F000C94C4050C94120684
:100050000C948F000C948F000C948F000C948F00E4
:100060000C948F000C948F000000000024002700E7
:100070002A0000000000250028002B0000000000DE
:1000800023002600290004040404040404040202DA
:100090000202020203030303030301020408102007
:1000A0004080010204081020010204081020000012
:1000B0000007000201000003040600000000000029
:1000C0000000E400E101C103CA037E076A0B1124AA
:1000D0001FBECFEFD8E0DEBFCDBF11E0A0E0B1E0A2
:1000E000EAE6FCE102C005900D92AA37B107D9F704
:1000F00012E0AAE7B1E001C01D92AD39B107E1F706
:1001000010E0CEECD0E004C02297FE010E942F0E3A
:10011000C23CD107C9F70E9429040C94330E0C94F9
:100120000000862F60E00E941C050895862F61E084
:100130000E941C050895FC01858160E00E941C0559
:1001400008958AE791E00E949B0089E692E064E1CD
:1001500070E041EA50E00E944F0B0895FC01858158
:1001600061E00E941C0508958AE791E00E94AE00BC
:1001700089E692E064E170E041EA50E00E949C0A66
:1001800008950E94B4000895862F0E947005089576
:10019000FC0184810E94BB0408950F931F938C017E
:1001A0008EE0F801848387E0858361E00E94DD04AE
:1001B00088E090E0F8019183808388EC90E093835D
:1001C00082831F910F9108958AE791E00E94CD00EC
:1001D00008950F931F93CF93DF93EC0188818823B9
:1001E00071F48E01085F1F4FC8010E943C028823F2
:1001F00019F0C8010E94350281E08B838883DF916A
:10020000CF911F910F910895CF93DF93EC018AE76F
:1002100091E06D810E94C400892B19F4CE010E94E7
:10022000E9008B81882349F08AE791E06C810E9484
:1002300096001B821F821E821FC088818823B9F00E
:100240008AE791E06C810E94960080917A019091FA
:100250007B012E813F81820F931F9F838E83298193
:100260003A818217930744F018821F821E828AE720
:1002700091E06C810E949100DF91CF9108950F93DE
:100280001F938C01822FF801728361831082138285
:10029000248345831782168261E00E94DD04F80101
:1002A000858160E00E94DD041F910F910895DF9326
:1002B000CF930F92CDB7DEB708960E943402CE01DD
:1002C00001960E9434020F90CF91DF9108954F92D2
:1002D0005F926F927F928F929F92AF92BF92CF92D6
:1002E000DF92EF92FF920F931F936C018AE791E0E8
:1002F0000E94C8007C01F60163817481882777FD24
:100300008095982F0E947C0C2B013C01F6016581A1
:100310007681882777FD8095982F0E947C0C4B0171
:100320005C010027F7FC0095102FC801B7010E945F
:100330007C0C7B018C01F60167817085882777FD35
:100340008095982F0E947C0C9B01AC01C801B701DD
:100350000E94E10B9B01AC01C501B4010E94850D17
:100360009B01AC01C301B2010E94780B1F910F9158
:10037000FF90EF90DF90CF90BF90AF909F908F90C5
:100380007F906F905F904F9008950E9467019B014E
:10039000AC0160E070E08AE794E40E94E10B20E0A9
:1003A00030E040E752E40E94850D20E030E040E07C
:1003B0005FE30E94790B0E94B70C0E94490CCB01AD
:1003C000089580EF90E0909384018093830188E208
:1003D00090E0909382018093810188EC90E090936B
:1003E0008601809385018CEF93E090938801809340
:1003F0008701E0E8F1E01082CF010E94C5019093EF
:100400008C0180938B010895CF93DF9380918901B4
:1004100090918A0120917A0130917B01820F931F84
:1004200090938A01809389011092800180E891E085
:100430000E94C501EC018091890190918A01C81741
:10044000D9075CF48AE791E00E94C10081E08093C3
:10045000800110928A0110928901D0938C01C0937F
:100460008B01DF91CF910895089587E492E060E0D9
:1004700071E00E94030A08958DE891E00E94410214
:100480000895FC0180810895CF93DF93EC018B8563
:100490009C85892B29F58AE791E069850E94C40033
:1004A000892BF1F48B859C8520917A0130917B0119
:1004B000820F931F9C878B8781E00FC01C861B8651
:1004C0000BC01216130644F480917A0190917B01BF
:1004D000820F931F9C878B8780E0DF91CF910895D7
:1004E0002B853C8580917C0190917D0128173907EF
:1004F00044F3E4CFCF93DF93EC018F819885892B70
:1005000029F58AE791E06D810E94C400892BF1F4FE
:100510008F81988520917A0130917B01820F931F02
:1005200098878F8381E00FC018861F820BC0121638
:10053000130644F480917A0190917B01820F931FFE
:1005400098878F8380E0DF91CF9108952F81388540
:1005500080917C0190917D012817390744F3E4CF05
:10056000FC011686108A178687E492E06BE071E042
:100570000E94030A0895FC01158681E0868787E4BE
:1005800092E06AE171E00E94030A0895FC0185850A
:10059000882361F48685882361F481E0858787E478
:1005A00092E06DE271E00E94030A0895CF010E947B
:1005B000BB020895EF92FF920F931F938C01FC01F1
:1005C000128A118A87E4E82E82E0F82EC70161E4DE
:1005D00071E00E94030AF80143895489658976898C
:1005E000C70122E030E00E94F00980E090E0A0E046
:1005F000B0E0F801838B948BA58BB68B1F910F9184
:10060000FF90EF900895AF92BF92CF92DF92EF925A
:10061000FF920F931F93CF93DF93EC018D85882377
:1006200051F080918001882331F08F85988901965F
:10063000988B8F871FC0809180018823D9F08E8589
:100640008823C1F081E0888329893A898F85988938
:100650002817390719F4CE010E94DA0269897A89CC
:100660006F5F7F4F7A8B698B87E492E04AE050E0BE
:100670000E94ED088E858823D9F180E891E00E94E0
:10068000C5017C0160917A0170917B01882777FD1B
:100690008095982F0E947C0C5B016C010027F7FC71
:1006A0000095102FC801B7010E947C0C7B018C01C2
:1006B0006F857889882777FD8095982F0E947C0C1C
:1006C0009B01AC01C801B7010E94850D9B01AC01E3
:1006D000C601B5010E94E10B9B01AC016B897C89CD
:1006E0008D899E890E94790B6B8B7C8B8D8B9E8B69
:1006F000DF91CF911F910F91FF90EF90DF90CF90FE
:10070000BF90AF900895CF93DF93EC010E947A02DF
:10071000882319F0CE010E94C602CE010E94440235
:10072000882319F0CE010E94B002CE010E9403037B
:10073000DF91CF9108950F931F938C01862FF801BD
:10074000658376835287418760E00E94DD04F8016B
:10075000818560E00E94DD04F8011486138610860E
:1007600017821686108A1786128A118A80E090E016
:10077000A0E0B0E0838B948BA58BB68B1F910F917B
:1007800008958DE891E066E070E045E050E00E9459
:100790009B03089584EA91E00E9457018DEA91E05D
:1007A0000E945701089589E692E00E944F0A089539
:1007B0008DEA91E00E940401089584EA91E00E948C
:1007C000040108950E9404028DE891E00E948303D1
:1007D00008950F931F9387E492E040E855E260E0AC
:1007E00070E00E944D0684EA91E064E670E04AE021
:1007F00029E00E943F018DEA91E064E670E04DE05F
:100800002CE00E943F0109E612E0C8010E94340A70
:1008100060917A0170917B01C80142EE53E00E9421
:100820009C0A60917A0170917B01C8014DED53E003
:100830000E949C0A60917A0170917B01C80148ED89
:1008400053E00E949C0AC8010E94490A1F910F911F
:100850000895CF93DF930E9480040E94E903CFEFB5
:10086000D5E00E94D3032097E1F30E94FF05F9CF62
:100870001F920F920FB60F9211242F933F938F93D5
:100880009F93AF93BF938091BA019091BB01A091C8
:10089000BC01B091BD013091BE010196A11DB11DF9
:1008A000232F2D5F2D3720F02D570196A11DB11D4F
:1008B0002093BE018093BA019093BB01A093BC0129
:1008C000B093BD018091B6019091B701A091B8019C
:1008D000B091B9010196A11DB11D8093B60190930D
:1008E000B701A093B801B093B901BF91AF919F91A7
:1008F0008F913F912F910F900FBE0F901F901895E1
:10090000789484B5826084BD84B5816084BD85B5EA
:10091000826085BD85B5816085BDEEE6F0E08081B1
:1009200081608083E1E8F0E01082808182608083D2
:10093000808181608083E0E8F0E080818160808355
:10094000E1EBF0E0808184608083E0EBF0E0808187
:1009500081608083EAE7F0E0808184608083808129
:1009600082608083808181608083808180688083D1
:100970001092C1000895982F8E3008F09E50977005
:10098000809169018295880F880F807C892B8093E4
:100990007C0080917A00806480937A0080917A0054
:1009A00086FDFCCF2091780040917900942F80E063
:1009B00030E0282B392BC9010895CF93DF93482FBE
:1009C00050E0CA0186569F4FFC0134914A575F4F51
:1009D000FA018491882369F190E0880F991FFC0146
:1009E000E859FF4FA591B491FC01EE58FF4FC59116
:1009F000D491662351F42FB7F8948C91932F90954E
:100A000089238C93888189230BC0623061F42FB7CE
:100A1000F8948C91932F909589238C938881832BC4
:100A200088832FBF06C09FB7F8948C91832B8C933B
:100A30009FBFDF91CF910895482F50E0CA018255A2
:100A40009F4FFC012491CA0186569F4FFC0194914F
:100A50004A575F4FFA013491332309F440C02223EF
:100A600051F1233071F0243028F42130A1F02230EC
:100A700011F514C02630B1F02730C1F02430D9F47C
:100A800004C0809180008F7703C0809180008F7DAB
:100A90008093800010C084B58F7702C084B58F7DAD
:100AA00084BD09C08091B0008F7703C08091B000F1
:100AB0008F7D8093B000E32FF0E0EE0FFF1FEE5824
:100AC000FF4FA591B4912FB7F894662321F48C9130
:100AD0009095892302C08C91892B8C932FBF089508
:100AE000682F70E0CB0182559F4FFC012491CB0110
:100AF00086569F4FFC0144916A577F4FFB019491AA
:100B0000992319F420E030E03CC0222351F1233036
:100B100071F0243028F42130A1F0223011F514C0F6
:100B20002630B1F02730C1F02430D9F404C08091D0
:100B300080008F7703C0809180008F7D809380003C
:100B400010C084B58F7702C084B58F7D84BD09C085
:100B50008091B0008F7703C08091B0008F7D80932B
:100B6000B000892F90E0880F991F84589F4FFC0197
:100B7000A591B4918C9120E030E0842311F021E024
:100B800030E0C901089508951F920F920FB60F9299
:100B900011242F933F934F938F939F93EF93FF9342
:100BA0008091C00082FD1DC04091C6002091FF01D0
:100BB000309100022F5F3F4F2F7330708091010200
:100BC000909102022817390771F0E091FF01F0912E
:100BD0000002E154FE4F4083309300022093FF0156
:100BE00002C08091C600FF91EF919F918F914F912C
:100BF0003F912F910F900FBE0F901F901895E0918D
:100C00005302F0915402E05CFF4F81919191208159
:100C10003181821B930B8F739070892B11F00E948E
:100C2000C30508951F920F920FB60F9211242F93B0
:100C30003F938F939F93EF93FF93209143023091C3
:100C4000440280914502909146022817390731F4F9
:100C50008091C1008F7D8093C10014C0E091450256
:100C6000F0914602ED5FFD4F208180914502909109
:100C7000460201968F7390709093460280934502CE
:100C80002093C600FF91EF919F918F913F912F91FB
:100C90000F900FBE0F901F901895AF92BF92DF92EA
:100CA000EF92FF920F931F93CF93DF93EC017A01A2
:100CB0008B01DD24403081EE580780E0680780E03A
:100CC000780711F0DD24D39491E0A92EB12CEC89A2
:100CD000FD89DD2069F0C50108A002C0880F991FB9
:100CE0000A94E2F7808360E079E08DE390E005C04C
:100CF000108260E874E88EE190E0A80197010E94FC
:100D00000B0E215030404040504056954795379546
:100D1000279580E12030380720F0DD2011F0DD2418
:100D2000D6CFE889F9893083EA89FB89208319A223
:100D3000EE89FF89408121E030E0C9010C8C02C0BE
:100D4000880F991F0A94E2F7482B4083EE89FF89A8
:100D50004081C9010D8C02C0880F991F0A94E2F7E7
:100D6000482B4083EE89FF894081C9010E8C02C067
:100D7000880F991F0A94E2F7482B4083EE89FF8978
:100D800080810F8C02C0220F331F0A94E2F7209556
:100D900028232083DF91CF911F910F91FF90EF9037
:100DA000DF90BF90AF900895DC011C96ED91FC910F
:100DB0001D97E05CFF4F2191319180819181281B2B
:100DC000390B2F733070C9010895DC011C96ED9129
:100DD000FC911D97E05CFF4F20813181E054F04091
:100DE000DF01AE5BBF4F8D919C911197281739079A
:100DF00019F42FEF3FEF07C08D919C91E80FF91F79
:100E00008081282F30E0C9010895DC011C96ED9106
:100E1000FC911D97E05CFF4F20813181E054F04050
:100E2000DF01AE5BBF4F8D919C9111972817390759
:100E300019F42FEF3FEF10C08D919C911197E80F9F
:100E4000F91F20818D919C91119701968F7390705D
:100E500011969C938E9330E0C9010895DC01919620
:100E60008C919197882339F05496ED91FC91559788
:100E7000808186FFF9CF91961C920895CF93DF93DE
:100E8000EC01EE85FF85E05CFF4F20813181E0546D
:100E9000F0402F5F3F4F2F733070DF01AE5BBF4FCD
:100EA0008D919C91119728173907D1F3E05CFF4F82
:100EB00080819181E054F040E80FF91F6083EE8556
:100EC000FF85E05CFF4F31832083EE89FF8920811D
:100ED00081E090E00F8C02C0880F991F0A94E2F71E
:100EE000282B208381E089A3EC89FD89808180649F
:100EF000808381E090E0DF91CF91089510924A02C3
:100F00001092490288EE93E0A0E0B0E080934B029B
:100F100090934C02A0934D02B0934E028EE691E066
:100F200090934802809347028FEB91E09093540294
:100F30008093530283E092E090935602809355028F
:100F400085EC90E0909358028093570284EC90E0F7
:100F500090935A028093590280EC90E090935C0247
:100F600080935B0281EC90E090935E0280935D023F
:100F700082EC90E09093600280935F0286EC90E0B8
:100F8000909362028093610284E08093630283E025
:100F90008093640287E08093650285E08093660217
:100FA00081E0809367020895CF92DF92EF92FF92E3
:100FB0000F931F93CF93DF937C016B018A01C0E0F5
:100FC000D0E00FC0D6016D916D01D701ED91FC917C
:100FD0000190F081E02DC7010995C80FD91F01507C
:100FE00010400115110571F7CE01DF91CF911F91CE
:100FF0000F91FF90EF90DF90CF900895EF92FF92C6
:101000000F931F938C01DC01ED91FC910190F08115
:10101000E02D6DE009957C01D801ED91FC910190E6
:10102000F081E02DC8016AE009959C012E0D3F1D5D
:10103000C9011F910F91FF90EF900895CF93DF9317
:10104000EC016115710519F420E030E00FC0DB01FF
:101050000D900020E9F71197A61BB70BE881F981E5
:101060000280F381E02DAD0109959C01C901DF915A
:10107000CF9108954F925F927F928F929F92AF92FD
:10108000BF92CF92DF92EF92FF920F931F93DF9365
:10109000CF93CDB7DEB7A1970FB6F894DEBF0FBEE2
:1010A000CDBF2C01742ECB01223008F42AE019A206
:1010B00031E2C32ED12CCC0EDD1E822E9924AA241F
:1010C000BB24672D752FA50194010E940B0E790199
:1010D0008A01C801B701A50194010E94EC0D472DBA
:1010E000461B0894C108D1084A3014F4405D01C081
:1010F000495CF6014083E114F1040105110521F07A
:101100007E2C5F2DC801DDCFC201B6010E941E08F2
:10111000A1960FB6F894DEBF0FBECDBFCF91DF9181
:101120001F910F91FF90EF90DF90CF90BF90AF9005
:101130009F908F907F905F904F900895DC012115D4
:10114000310541F4ED91FC910190F081E02D642F87
:10115000099508950E943A080895CF92DF92EF9280
:10116000FF920F931F93CF93DF93EC016A017B01F2
:101170002115310541F4E881F9810190F081E02DDC
:10118000642F09951FC02A303105D1F477FF17C0AD
:10119000E881F9810190F081E02D6DE209958C01E3
:1011A00044275527BA014C195D096E097F09CE0104
:1011B0002AE00E943A089801280F391F04C02AE04B
:1011C0000E943A089C01C901DF91CF911F910F91B4
:1011D000FF90EF90DF90CF900895CF92DF92EF9243
:1011E000FF920F931F936C017B019A010027F7FC7C
:1011F0000095102FB801A7010E94AD088C01C6010F
:101200000E94FE07080F191FC8011F910F91FF9040
:10121000EF90DF90CF9008957F928F929F92AF9240
:10122000BF92CF92DF92EF92FF920F931F93CF93D3
:10123000DF934C017A018B01722ECB01BA01A80118
:1012400097010E94E80D882321F0C4016BE571E04D
:1012500021C0C0E0D0E057016801E894D7F8C6018A
:10126000B5012FEF3FEF4FE75FE70E94E80D8823BE
:1012700051F4C601B5012FEF3FEF4FE75FE70E9442
:10128000DD0B181614F0C1E0D0E0219739F0C4014D
:101290006FE571E00E941E08EC0193C0C801B70120
:1012A0002FEF3FEF4FE75FE40E94810D181654F0D7
:1012B000C801B7012FEF3FEF4FE75FEC0E94DD0B56
:1012C000882324F4C40163E671E0E4CFC801B701C8
:1012D00020E030E040E050E00E94DD0B87FD03C0DD
:1012E000C0E0D0E00EC0D401ED91FC910190F081FE
:1012F000E02DC4016DE20995EC0117FB109517F97B
:10130000109520E030E040E05FE3DD240BC0CA012F
:10131000B90120E030E040E251E40E94E10B9B0182
:10132000AC01D394D71498F3C801B7010E94790B8C
:101330005B016C010E944E0C7B018C01C401B80161
:10134000A7012AE030E00E949E08C80FD91F77202D
:1013500039F0C40167E671E00E941E08C80FD91F6A
:10136000C801B7010E947A0C9B01AC01C601B5010E
:101370000E94780B24C020E030E040E251E40E945B
:10138000850D7B018C010E94490C5B016C01CC2412
:10139000B7FCC094DC2CC401B601A5012AE030E002
:1013A0000E94AD08C80FD91FC601B5010E947C0C70
:1013B0009B01AC01C801B7010E94780B7A94772099
:1013C000D1F6CE01DF91CF911F910F91FF90EF9059
:1013D000DF90CF90BF90AF909F908F907F900895B7
:1013E000EF92FF920F931F937C010E940C098C01D6
:1013F000C7010E94FE07080F191FC8011F910F9116
:10140000FF90EF900895EF92FF920F931F937C014E
:101410000E941E088C01C7010E94FE07080F191FB9
:10142000C8011F910F91FF90EF9008951F920F92A6
:101430000FB60F9211248F939F93EF93FF93809198
:101440009C028F5F80939C02E9E6F2E080819181AB
:10145000019691838083FF91EF919F918F910F90DF
:101460000FBE0F901F901895F8941092800088E19D
:10147000809381008FE79EE390938700809386009E
:1014800080E280936F00109285001092840078941F
:101490000895E1E8F0E08081816080830895EF9213
:1014A000FF921F93CF93DF93EC018BA98823F1F177
:1014B000E82EFF241BAA10E036C0412F50E0FA01AD
:1014C000EE0FFF1FE40FF51FDF01AA0FBB1FAC0FCC
:1014D000BD1F14962D913C9115972E193F09159615
:1014E0003C932E93149712161306E4F03196EE0FE8
:1014F000FF1FEC0FFD1F80819181280F391F15966A
:101500003C932E931497CA010196FC01EE0FFF1F26
:10151000E80FF91FEE0FFF1FEC0FFD1F0190F08188
:10152000E02D09951F5F8AA9181738F2DF91CF9136
:101530001F91FF90EF9008950F931F93CF93DF9328
:10154000EC018A014AA910C0F901EE0FFF1FE20F5A
:10155000F31F3196EE0FFF1FEC0FFD1F86E00D907D
:1015600001928150E1F741504423A1F0242F30E053
:10157000C9010197DC01AA0FBB1FA80FB91F119663
:10158000AA0FBB1FAC0FBD1F8D919C9111976817BF
:101590007907D4F28AA98F5F8AAB242F30E0C90182
:1015A0000196FC01EE0FFF1FE80FF91FEE0FFF1F62
:1015B000EC0FFD1F11830083F901EE0FFF1FE20FF7
:1015C000F31FDF01AA0FBB1FAC0FBD1F15967C9345
:1015D0006E9314973196EE0FFF1FEC0FFD1F718372
:1015E0006083DF91CF911F910F910895CF93DF9387
:1015F000EC01DB017AA960E0462F50E0FA01EE0F22
:10160000FF1FE40FF51F3196EE0FFF1FEC0FFD1FBC
:101610002D913C9111978081918128173907A1F470
:10162000CA010196FC01EE0FFF1FE80FF91FEE0F34
:10163000FF1FEC0FFD1F14962D913C911597808193
:1016400091812817390719F06F5F7617A8F6671789
:1016500018F571507AAB1DC0862F90E0DC01AA0FFF
:10166000BB1FA80FB91F1196AA0FBB1F0196FC0143
:10167000EE0FFF1FE80FF91F3196EE0FFF1FAC0FA3
:10168000BD1FEC0FFD1F86E001900D928150E1F728
:101690006F5F8AA9681700F3DF91CF910895DF93F8
:1016A000CF9300D000D000D0CDB7DEB77A83698366
:1016B0007C836B835E834D83BE016F5F7F4F0E948F
:1016C000F60A26960FB6F894DEBF0FBECDBFCF91B7
:1016D000DF910895EBE6F2E011821082138212820C
:1016E00015821482369682E0EB39F807A9F708953F
:1016F0005058BB27AA270ED0B3C1A4D130F0A9D12E
:1017000020F031F49F3F11F41EF499C10EF4E095DE
:10171000E7FB64C1E92FB5D180F3BA1762077307FD
:101720008407950718F071F49EF5E4C10EF4E09576
:101730000B2EBA2FA02D0B01B90190010C01CA018B
:10174000A0011124FF27591B99F0593F50F4503E36
:1017500068F11A16F040A22F232F342F4427585F28
:10176000F3CF469537952795A795F0405395C9F740
:101770007EF41F16BA0B620B730B840BBAF09150F8
:10178000A1F0FF0FBB1F661F771F881FC2F70EC097
:10179000BA0F621F731F841F48F48795779567956A
:1017A000B795F7959E3F08F0B3CF9395880F08F053
:1017B0009927EE0F979587950895ECD008F481E06E
:1017C00008950CD04DC145D140F03CD130F021F40A
:1017D0005F3F19F003C151118EC131C152D198F34D
:1017E0009923C9F35523B1F3951B550BBB27AA27A2
:1017F00062177307840738F09F5F5F4F220F331F14
:10180000441FAA1FA9F333D00E2E3AF0E0E830D0DF
:1018100091505040E695001CCAF729D0FE2F27D0E2
:10182000660F771F881FBB1F261737074807AB07B0
:10183000B0E809F0BB0B802DBF01FF2793585F4F25
:101840002AF09E3F510568F0C9C055C15F3FECF3D7
:10185000983EDCF3869577956795B795F7959F5FEA
:10186000C9F7880F911D9695879597F90895E1E03E
:10187000660F771F881FBB1F621773078407BA079D
:1018800020F0621B730B840BBA0BEE1F88F7E095F8
:10189000089504D06894B1112EC10895FAD088F04B
:1018A0009F5790F0B92F9927B751A0F0D1F0660F4C
:1018B000771F881F991F1AF0BA95C9F712C0B13067
:1018C00081F018D1B1E0089515C1672F782F8827CE
:1018D000B85F39F0B93FCCF3869577956795B395A6
:1018E000D9F73EF490958095709561957F4F8F4F15
:1018F0009F4F0895E89409C097FB3EF4909580951A
:10190000709561957F4F8F4F9F4F9923A9F0F92FC5
:1019100096E9BB279395F695879577956795B79543
:10192000F111F8CFFAF4BB0F11F460FF1BC06F5F29
:101930007F4F8F4F9F4F16C0882311F096E911C03B
:10194000772321F09EE8872F762F05C0662371F05C
:1019500096E8862F70E060E02AF09A95660F771F70
:10196000881FDAF7880F9695879597F90895ABD079
:1019700080F09F3740F491110EF0BDC060E070E040
:1019800080E89FEB089526F41B16611D711D811DD3
:101990002BC045C0990F0008550FAA0BE0E8FEEFD9
:1019A00016161706E807F907C0F012161306E40723
:1019B000F50798F0621B730B840B950B39F40A261C
:1019C00061F0232B242B252B21F408950A2609F4FA
:1019D000A140A6958FEF811D811D089597F99F67FE
:1019E00080E870E060E00895882371F4772321F0A7
:1019F0009850872B762F07C0662311F499270DC0C6
:101A00009051862B70E060E02AF09A95660F771F60
:101A1000881FDAF7880F9695879597F908959F3F65
:101A200049F0915028F4869577956795B7959F5F13
:101A300080389F4F880F9695879597F908959FEF67
:101A400080EC089500240A94161617061806090655
:101A5000089500240A941216130614060506089524
:101A6000092E0394000C11F4882352F0BB0F40F4AC
:101A7000BF2B11F460FF04C06F5F7F4F8F4F9F4FEC
:101A8000089557FD9058440F551F59F05F3F71F06E
:101A90004795880F97FB991F61F09F3F79F08795D5
:101AA0000895121613061406551FF2CF4695F1DF5E
:101AB00008C0161617061806991FF1CF86957105EE
:101AC000610508940895E5DFA0F0BEE7B91788F432
:101AD000BB279F3860F41616B11D672F782F882713
:101AE000985FF7CF869577956795B11D9395963951
:101AF000C8F30895E894BB2766277727CB0197F9A9
:101B0000089548DF08F48FEF08950BD0A9CF9ADF2E
:101B100028F09FDF18F0952309F060CF90CF1124B3
:101B2000EACFAFDFA0F3959FD1F3950F50E0551F9B
:101B3000629FF001729FBB27F00DB11D639FAA2722
:101B4000F00DB11DAA1F649F6627B00DA11D661F71
:101B5000829F2227B00DA11D621F739FB00DA11D92
:101B6000621F839FA00D611D221F749F3327A00D4C
:101B7000611D231F849F600D211D822F762F6A2FE8
:101B800011249F5750408AF0E1F088234AF0EE0F6D
:101B9000FF1FBB1F661F771F881F91505040A9F77A
:101BA0009E3F510570F01ACFA6CF5F3FECF3983EF1
:101BB000DCF3869577956795B795F795E7959F5FE1
:101BC000C1F7FE2B880F911D9695879597F908957B
:101BD000E1DE880B990B0895629FD001739FF0019D
:101BE000829FE00DF11D649FE00DF11D929FF00DAD
:101BF000839FF00D749FF00D659FF00D9927729FE4
:101C0000B00DE11DF91F639FB00DE11DF91FBD016E
:101C1000CF0111240895A1E21A2EAA1BBB1BFD01BE
:101C20000DC0AA1FBB1FEE1FFF1FA217B307E407BB
:101C3000F50720F0A21BB30BE40BF50B661F771F13
:101C4000881F991F1A9469F76095709580959095F3
:101C50009B01AC01BD01CF010895EE0FFF1F059060
:0A1C6000F491E02D0994F894FFCFF1
:101C6A005265636F7264204869740054696D656CCB
:101C7A00696E6520436C6561720054696D656C69B3
:101C8A006E65204C6F6F70204C6F636B0054696DEA
:101C9A00656C696E65205374617274204C6F6F7045
:101CAA000050657263656E7420436F6D706C657465
:101CBA0065206F6E205265736574006E616E0069EF
:101CCA006E66006F7666002E0001000000003E0777
:0A1CDA00D407D4060507E5062E071F
:00000001FF
