:100000000C9409010C9436010C9436010C943601C1
:100010000C9436010C9436010C9436010C94360184
:100020000C9436010C9436010C9436010C94360174
:100030000C9436010C9436010C9436010C94360164
:100040000C9418120C9436010C9436010C94360161
:100050000C9436010C9436010C9436010C94320940
:100060000C9436010C94270B0C946F0C0C943601F5
:100070000C9436010C9436010C9436010C94360124
:100080000C9436010C9436010C9436010C94360114
:100090000C94670B0C94AE0C0C9436010C94360146
:1000A0000C9436010C9436010C9436010C943601F4
:1000B0000C9436010C9436010C9436010C943601E4
:1000C0000C9436010C9436010C9436010C94A70B59
:1000D0000C94ED0C0C9436010C94E70B0C942C0D45
:1000E0000C94360100002100240027002A002D0076
:1000F0003000330001010000040107010A01000083
:100100002200250028002B002E00310034000201BF
:100110000000050108010B0100002000230026005B
:1001200029002C002F00320000010000030106010D
:10013000090105050505070508080808020202026D
:100140000A0A080804040404010101010101010173
:100150000303030303030303040707070C0C0C0C3E
:100160000C0C0C0C02020202060606060606060627
:100170000B0B0B0B0B0B0B0B0102102020080810B4
:100180002040102040800201020108040201010207
:1001900004081020408080402010080402018004E0
:1001A000020180402010080402010804020101023B
:1001B0000408102040800102040810204080000044
:1001C000090A02080B0C0D070603040100000000D9
:1001D000000000000000000000000000000000001F
:1001E0000000000000000000000011100F000000DF
:1001F00000000000000000000000000000000000FF
:10020000000000008B019B038908C6089C0E6F1339
:10021000BF0811241FBECFEFD1E2DEBFCDBF00E08B
:100220000CBF12E0A0E0B2E0E4EFFEE200E00BBFA2
:1002300002C007900D92A234B107D9F71BBE15E09A
:10024000A2E4B2E001C01D92A838B107E1F712E0C4
:10025000C0E1D2E004C02297FE010E946917C430B9
:10026000D107C9F70E9423090C946D170C94000064
:10027000862F60E00E94C30A0895862F61E00E94E5
:10028000C30A0895FC01858160E00E94C30A0895B5
:1002900082E492E00E94420180E595E064E170E032
:1002A00048E451E00E9455130895FC01858161E006
:1002B0000E94C30A089582E492E00E94550180E5FD
:1002C00095E064E170E048E451E00E94A2120895D4
:1002D0000E945B010895862F0E94F60A0895FC0192
:1002E00084810E94DC0908950F931F938C0186E39B
:1002F000F801848387E0858361E00E94100A88E02A
:1003000090E0F8019183808388EC90E0938382836E
:100310001F910F91089582E492E00E947401089564
:100320000F931F93CF93DF93EC018881882371F49F
:100330008E01085F1F4FC8010E94EE03882319F049
:10034000C8010E94B80481E08B838883DF91CF913C
:100350001F910F9108950F931F938C0182E492E0F7
:10036000F80164810E943D01F80113821782168210
:100370001F910F910895CF93DF93EC0182E492E0F7
:100380006D810E946B01892B19F4CE010E949001AE
:100390008B81882349F4CE0108960E94AB068823FE
:1003A00021F18881882309F5CE010E94AB0121C08B
:1003B00082E492E06C810E943D0180914202909122
:1003C00043022E813F81820F931F9F838E83298159
:1003D0003A81821793076CF018821F821E8282E492
:1003E00092E06C810E94380104C08881882301F763
:1003F000F6CFDF91CF91089508960E9409040895E1
:10040000CF92DF92EF92FF920F931F93CF93DF93E0
:100410008C017B016817790709F4AEC0DB011496E3
:100420002D913C911597EC018A819B81821793074E
:1004300098F5C880D9803B832A83C901880F991F0A
:10044000880F991F0E9415129983888340E050E01D
:1004500020E030E016C0F801C081D181C20FD31F67
:10046000209759F0F601E20FF31F80819181A2815C
:10047000B38188839983AA83BB834F5F5F4F2C5FCF
:100480003F4FD80114968D919C91159748175907A5
:1004900010F3C6010E941212E8018C819D81F701C0
:1004A000648175818617970708F4BC0140E050E02D
:1004B00020E030E017C0D801ED91FC91E20FF31F6E
:1004C000E701A881B981A20FB31F8D919D910D9075
:1004D000BC91A02D80839183A283B3834F5F5F4F34
:1004E0002C5F3F4F4617570730F3F8014481558181
:1004F000D70114968D919C9115974817590750F57F
:100500009A01220F331F220F331F1EC0F801C08132
:10051000D181C20FD31FD701ED91FC91209751F0EB
:10052000E20FF31F80819181A281B3818883998337
:10053000AA83BB83E8018C819D8101969D838C8376
:100540004F5F5F4F2C5F3F4FF701848195814817C4
:100550005907E0F2D80114968D919C911597E70107
:100560006C817D816817790738F46817790720F462
:1005700015967C936E931497C801DF91CF911F91CC
:100580000F91FF90EF90DF90CF900895CF92DF9280
:10059000EF92FF920F931F93DF93CF93CDB7DEB708
:1005A00061970FB6F894DEBF0FBECDBF8C01822FCE
:1005B000F80172836183108213822483458317823A
:1005C000168261E00E94100AF801858160E00E94B5
:1005D000100A7E010894E11CF11CC7010E94090465
:1005E00038E0C32ED12CC00ED11EC601B7010E9427
:1005F0000002C8010F96BE01685F7F4F0E94000293
:100600008F859889F801978B868B8989808F88855B
:1006100099850E94121289819A810E941212C60144
:100620000E94FD0661960FB6F894DEBF0FBECDBFE7
:10063000CF91DF911F910F91FF90EF90DF90CF90BE
:1006400008954F925F926F927F928F929F92AF9296
:10065000BF92CF92DF92EF92FF920F931F936C01A4
:1006600082E492E00E946F017C01F6016381748153
:10067000882777FD8095982F0E94B6152B013C01A5
:10068000F60165817681882777FD8095982F0E94F5
:10069000B6154B015C010027F7FC0095102FC8012F
:1006A000B7010E94B6157B018C01F6016781708548
:1006B000882777FD8095982F0E94B6159B01AC0185
:1006C000C801B7010E941B159B01AC01C501B40113
:1006D0000E94BF169B01AC01C301B2010E94B2147B
:1006E0001F910F91FF90EF90DF90CF90BF90AF9050
:1006F0009F908F907F906F905F904F9008950E9491
:1007000021039B01AC0160E070E08AE794E40E9461
:100710001B1520E030E040E752E40E94BF1620E0C5
:1007200030E040E05FE30E94B3140E94F1150E94A4
:100730008315CB01089580EF90E090934C02809355
:100740004B0288E290E090934A028093490288EC41
:1007500090E090934E0280934D028CEF93E0909343
:10076000500280934F02E8E4F2E01082CF010E9431
:100770007F0390935402809353020895CF93DF93A5
:100780008091510290915202209142023091430295
:10079000820F931F9093520280935102109248024D
:1007A00088E492E00E947F03EC01809151029091D5
:1007B0005202C817D9075CF482E492E00E946801F3
:1007C00081E0809348021092520210925102D0931D
:1007D0005402C0935302DF91CF91089585E592E0D2
:1007E0000E94510708950F931F938C01FC01118201
:1007F000108288E090E0938382831582148280E2E5
:1008000090E00E941512F801918380831F910F914F
:1008100008950F931F93DF93CF930F920F92CDB74D
:10082000DEB78C01BE016F5F7F4F0E94F303C801EA
:100830000796BE016E5F7F4F0E94F3030F900F90EB
:10084000CF91DF911F910F9108950F931F93CF9335
:10085000DF93EC018A819B818617970760F51881E9
:1008600009817B836A83CB01880F991F880F991FA9
:100870000E941512888399836C817D81412F502FAE
:100880009A01E901FC0120E030E00EC0309741F010
:1008900088819981AA81BB8180839183A283B3835C
:1008A0002F5F3F4F249634962617370778F3812F12
:1008B000902F0E941212DF91CF911F910F910895F6
:1008C000AF92BF92CF92DF92EF92FF920F931F935E
:1008D000CF93DF938C01EB017A01DC0114968D91AB
:1008E0009C9115978617970780F512968D919C918C
:1008F00013978617970728F4685F7F4FC8010E94F7
:100900002504F80124813581A901440F551F440FA6
:10091000551F14C0D801ED91FC91E40FF51F3097DD
:1009200049F0D701AD90BD90CD90DC90A082B1820E
:10093000C282D3822F5F3F4F4C5F5F4F2C173D0722
:1009400048F3F801D583C48308C06817790728F4F1
:10095000D80115967C936E931497DF91CF911F91D8
:100960000F91FF90EF90DF90CF90BF90AF900895E0
:100970000F931F93DF93CF9300D00F92CDB7DEB7C5
:100980008C0185E592E00E94490769837A838B8315
:100990009C83F801638574856F5F7F4FC80107965C
:1009A000AE014F5F5F4F0E9460040F900F900F9059
:1009B0000F90CF91DF911F910F9108952F923F9249
:1009C0004F925F926F927F928F929F92AF92BF925F
:1009D000CF92DF92EF92FF920F931F93DF93CF930B
:1009E000CDB7DEB760970FB6F894DEBF0FBECDBFB0
:1009F0002C01DC011B968D919C911C97009709F4AA
:100A000091C114960D911C911597080F191F80E044
:100A100090E0A0E0B0E08A839B83AC83BD831F821B
:100A20001E821B861A86C801089699878887880FB8
:100A3000991F880F991F0E9415129F838E83CE01E4
:100A40000696B801AE014E5F5F4F0E946004F2014E
:100A50006080718084819581880F991F880F991F0C
:100A6000860D971D988B8F8787809084A385B4858A
:100A7000AA0FBB1FAA0FBB1FA80DB91DBE87AD874C
:100A80002E803F802AC0F401A080B180C280D38034
:100A9000D301ED90FD900D911C91C601B501A80107
:100AA00097010E941715882354F4F101A082B182A6
:100AB000C282D38284E090E0880E991E0AC0D101E0
:100AC000ED92FD920D931C931397E4E0F0E06E0E0F
:100AD0007F1E84E090E0280E391EAF85B8896A1623
:100AE0007B0619F4F301910110C0ED85FE858E1689
:100AF0009F0649F6F7CF4191519161917191D901CA
:100B00004D935D936D937D939D018F859889E81733
:100B1000F90789F7E619F709EC7FE20DF31D0AC022
:100B2000D4012D913D914D915D914D0121933193D2
:100B3000419351938D859E858816990689F788EC97
:100B400094E060E072E00E94FF11D20117960D91CF
:100B50001C9118970CC0F8014191519161917191CC
:100B60008F0188EC94E022E030E00E94EC11D20189
:100B70001B962D913C911C97220F331F220F331F80
:100B800017968D919C911897820F931F081719073C
:100B900011F788EC94E069E072E00E94FF11F20125
:100BA000008111810CC0D8014D915D916D917D91B5
:100BB0008D0188EC94E022E030E00E94EC11F2011B
:100BC00024813581220F331F220F331F80819181B1
:100BD000820F931F0817190731F788EC94E062E140
:100BE00072E00E94FF110E811F810CC0D8014D914F
:100BF0005D916D917D918D0188EC94E022E030E073
:100C00000E94EC116A857B859B01220F331F220F06
:100C1000331F8E819F81820F931F0817190731F7A9
:100C2000CE0106964816590609F46DC0C2010E940D
:100C30002504F201848195816A857B858617970753
:100C400008F4BC0140E050E020E030E016C0D201E2
:100C5000ED91FC91E20FF31FAE81BF81A20FB31F94
:100C60008D919D910D90BC91A02D80839183A28345
:100C7000B3834F5F5F4F2C5F3F4F4617570738F3E3
:100C8000F201648175818A859B856817790770F503
:100C9000AB01440F551F440F551F23C0D2012D91A6
:100CA0003C91240F351FEE81FF812115310559F04C
:100CB000E40FF51F80819181A281B381F9018083C6
:100CC0009183A283B383D20114968D919C91159741
:100CD000019615969C938E9314976F5F7F4F4C5F90
:100CE0005F4F8A859B8568177907C0F2F2012481DE
:100CF00035818A859B858217930728F4821793078D
:100D000010F495838483D2011B968D919C911C973E
:100D1000892B21F01C961C921E921B978E819F811D
:100D20000E94121260960FB6F894DEBF0FBECDBFC0
:100D3000CF91DF911F910F91FF90EF90DF90CF90B7
:100D4000BF90AF909F908F907F906F905F904F90EB
:100D50003F902F900895CF92DF92EF92FF920F93E2
:100D60001F93CF93DF93EC0185E592E00E9451073A
:100D70008823C9F185E592E00E9449076B017C0157
:100D80008E859F8597FF09C080915502882359F170
:100D90001F861E86CE010E94DE040E851F85C801B7
:100DA000880F991F880F991FE881F981E80FF91FB3
:100DB000C701B60120813181428153810E94BB1657
:100DC00088238CF08C819D8101970817190728F0E2
:100DD0008FEF9FEF9F878E8704C00F5F1F4F1F8786
:100DE0000E8781E001C080E0DF91CF911F910F91CC
:100DF000FF90EF90DF90CF9008950F931F93DF93B4
:100E0000CF93CDB7DEB728970FB6F894DEBF0FBEED
:100E1000CDBF8C0180E090E0A0E0B0E089839A83B0
:100E2000AB83BC83F801648175816F5F7F4FC8011C
:100E3000AE014F5F5F4F0E94600480E090E0A0E051
:100E4000BFE38D839E83AF83B887F801648175818A
:100E50006F5F7F4FC801AE014B5F5F4F0E94600420
:100E60008FEF9FEFF80197878687108A64817581DD
:100E700088EC94E04AE050E00E94AB1028960FB650
:100E8000F894DEBF0FBECDBFCF91DF911F910F91C0
:100E90000895FC012489358946895789B901CA0119
:100EA0000895FC0181810895CF93DF93EC018C8537
:100EB0009D85892B29F582E492E06A850E946B0169
:100EC000892BF1F48C859D8520914202309143025B
:100ED000820F931F9D878C8781E00FC01D861C8623
:100EE0000BC01216130644F4809142029091430203
:100EF000820F931F9D878C8780E0DF91CF910895AB
:100F00002C853D8580914402909145022817390730
:100F100044F3E4CFCF93DF93EC0188859985892B47
:100F200029F582E492E06E810E946B01892BF1F435
:100F3000888599852091420230914302820F931F48
:100F40009987888781E00FC0198618860BC0121612
:100F5000130644F48091420290914302820F931F42
:100F60009987888780E0DF91CF910895288539851A
:100F700080914402909145022817390744F3E4CF49
:100F8000CF92DF92EF92FF920F931F93CF93DF9355
:100F9000EC018981882391F188E492E00E947F032B
:100FA0006C016091420270914302882777FD809521
:100FB000982F0E94B6157B018C0188899989C89E5B
:100FC000B001C99E700DD89E700D1124882777FD41
:100FD0008095982F0E94B6159B01AC01C801B701FE
:100FE0000E941B159B01AC016C897D898E899F89AC
:100FF0000E94B3146C8B7D8B8E8B9F8BDF91CF9176
:101000001F910F91FF90EF90DF90CF900895FC011A
:1010100010828685882351F080914802882331F020
:10102000808991890196918B808B23C080914802A1
:101030008823F9F087858823E1F081E08183228984
:101040003389808991892817390711F037FF0CC03F
:10105000138A128A80E090E0A0E0B0E0848B958B48
:10106000A68BB78B81E08083828993890196938BCD
:10107000828B8785882319F0CF010E94C0070895CD
:10108000CF93DF93EC010E948A07882361F08E855D
:10109000882331F48F85882331F481E08E8703C063
:1010A0001E8681E08F87CE010E945407882319F0A5
:1010B0001F86198A188ACE010E940708DF91CF91F6
:1010C00008950F931F938C01862FF8016683778311
:1010D0005387428760E00E94100AF801828560E031
:1010E0000E94100AF801158614861186108617864C
:1010F000118A108A8FEF9FEF938B828B80E090E0B4
:10110000A0E0B0E0848B958BA68BB78B1F910F91DD
:10111000089585E592E066E070E045E050E00E94C9
:10112000610808950F931F938C01FC0187859089B6
:101130000E941212F801808591850E9412121F915F
:101140000F9108958130910561F46F5F7F4FB1F485
:101150008DE692E00E94FC0186E892E00E94FC018C
:101160000895892B59F46F5F7F4F41F486E892E030
:101170000E9492088DE692E00E949208089580E015
:1011800090E06FEF7FEF0E94A208089581E090E069
:101190006FEF7FEF0E94A208089580E595E00E941E
:1011A0005512089586E892E00E94BB0108958DE6ED
:1011B00092E00E94BB0108950E94BE0385E592E083
:1011C0000E94400808950F931F9388EC94E040E834
:1011D00055E260E070E00E946B0D8DE692E064E6FF
:1011E00070E04AE029E00E94C60286E892E064E6E8
:1011F00070E04DE02CE00E94C60200E515E0C80159
:101200000E943A126091420270914302C8014CED73
:1012100058E00E94A2126091420270914302C801FC
:1012200047ED58E00E94A212609142027091430281
:10123000C80142ED58E00E94A212C8010E944F125C
:101240001F910F910895CF93DF930E947A090E9416
:10125000E308C6E2DCE00E94CD082097E1F30E949B
:10126000260CF9CF1F920F920FB60F9211242F93D5
:101270003F938F939F93AF93BF938091A3029091DD
:10128000A402A091A502B091A6023091A7020196F6
:10129000A11DB11D232F2D5F2D3720F02D57019655
:1012A000A11DB11D2093A7028093A3029093A402D5
:1012B000A093A502B093A60280919F029091A002F4
:1012C000A091A102B091A2020196A11DB11D80932F
:1012D0009F029093A002A093A102B093A202BF919B
:1012E000AF919F918F913F912F910F900FBE0F90D3
:1012F0001F901895789484B5826084BD84B5816010
:1013000084BD85B5826085BD85B5816085BDEEE60D
:10131000F0E0808181608083E1E8F0E010828081EC
:1013200082608083808181608083E0E8F0E080815A
:1013300081608083E1EBF0E0808184608083E0EB7A
:10134000F0E0808181608083E1E9F0E0808182606B
:101350008083808181608083E0E9F0E0808181602A
:101360008083E1EAF0E08081826080838081816017
:101370008083E0EAF0E0808181608083E1E2F1E057
:10138000808182608083808181608083E0E2F1E0FF
:10139000808181608083EAE7F0E0808184608083DF
:1013A0008081826080838081816080838081806889
:1013B00080831092C1000895382F863308F0365389
:1013C00020917B00832F86958695869590E081708D
:1013D000907043E0880F991F4A95E1F7277F282BEB
:1013E00020937B00377080912B028295880F880FA5
:1013F000807C832B80937C0080917A008064809332
:101400007A0080917A0086FDFCCF2091780040918F
:101410007900942F80E030E0282B392BC901089502
:10142000CF93DF93482F50E0CA0188589E4FFC01AC
:1014300034914E5C5E4FFA018491882369F190E00B
:10144000880F991FFC01EC51FF4FA591B491FC014D
:10145000E250FF4FC591D491662351F42FB7F89411
:101460008C91932F909589238C93888189230BC02D
:10147000623061F42FB7F8948C91932F9095892363
:101480008C938881832B88832FBF06C09FB7F894E5
:101490008C91832B8C939FBFDF91CF9108958930DE
:1014A00009F449C08A30A0F4843051F1853040F409
:1014B000823079F1833000F5813009F063C026C0B5
:1014C000873079F1883098F5863009F05BC025C007
:1014D0008D3009F442C08E3028F48B30B1F18C305D
:1014E000C0F52DC0803109F442C0813109F445C0F6
:1014F0008F3009F047C037C0809180008F7703C0DC
:10150000809180008F7D80938000089584B58F77CF
:1015100002C084B58F7D84BD08958091B0008F771F
:1015200003C08091B0008F7D8093B00008958091BA
:1015300090008F7707C0809190008F7D03C08091CD
:101540009000877F8093900008958091A0008F770E
:1015500007C08091A0008F7D03C08091A000877F8D
:101560008093A0000895809120018F7703C080911F
:1015700020018F7D80932001089580912001877F35
:10158000809320010895FF920F931F93F62E482F0A
:1015900050E0CA0182549E4FFC012491CA01885830
:1015A0009E4FFC0114914E5C5E4FFA0104910023A2
:1015B000C9F0222319F0822F0E944F0AE02FF0E099
:1015C000EE0FFF1FE250FF4FA591B4919FB7F89423
:1015D000FF2021F48C911095812302C08C91812BE6
:1015E0008C939FBF1F910F91FF9008950F931F93AE
:1015F000482F50E0CA0182549E4FFC012491CA0139
:1016000088589E4FFC0104914E5C5E4FFA01149184
:10161000112319F420E030E015C0222319F0822FA5
:101620000E944F0A812F90E0880F991F885E9E4F7D
:10163000FC01A591B4918C9120E030E0802311F061
:1016400021E030E0C9011F910F91089508951F9284
:101650000F920FB60F920BB60F9211242F933F9358
:101660004F938F939F93EF93FF938091C00082FDE0
:101670001DC04091C6002091E8023091E9022F5F21
:101680003F4F2F7330708091EA029091EB02281740
:10169000390771F0E091E802F091E902E855FD4F59
:1016A00040833093E9022093E80202C08091C60093
:1016B000FF91EF919F918F914F913F912F910F90BB
:1016C0000BBE0F900FBE0F901F90189508951F929C
:1016D0000F920FB60F920BB60F9211242F933F93D8
:1016E0004F938F939F93EF93FF938091C80082FD58
:1016F0001DC04091CE0020917003309171032F5F87
:101700003F4F2F73307080917203909173032817AD
:10171000390771F0E0917003F0917103E05DFC4FC7
:101720004083309371032093700302C08091CE00F8
:10173000FF91EF919F918F914F913F912F910F903A
:101740000BBE0F900FBE0F901F90189508951F921B
:101750000F920FB60F920BB60F9211242F933F9357
:101760004F938F939F93EF93FF938091D00082FDCF
:101770001DC04091D6002091F8033091F9032F5FEE
:101780003F4F2F7330708091FA039091FB0328171D
:10179000390771F0E091F803F091F903E854FC4F38
:1017A00040833093F9032093F80302C08091D60060
:1017B000FF91EF919F918F914F913F912F910F90BA
:1017C0000BBE0F900FBE0F901F90189508951F929B
:1017D0000F920FB60F920BB60F9211242F933F93D7
:1017E0004F938F939F93EF93FF938091300182FDEE
:1017F0001DC04091360120918004309181042F5FFB
:101800003F4F2F733070809182049091830428178A
:10181000390771F0E0918004F0918104E05CFB4FA6
:101820004083309381042093800402C0809136016C
:10183000FF91EF919F918F914F913F912F910F9039
:101840000BBE0F900FBE0F901F901895E091D4041F
:10185000F091D504E05CFF4F81919191208131811D
:10186000821B930B8F739070892B11F00E94260BB3
:10187000E091F604F091F704E05CFF4F81919191C3
:1018800020813181821B930B8F739070892B11F013
:101890000E94660BE0911805F0911905E05CFF4F7E
:1018A0008191919120813181821B930B8F73907074
:1018B000892B11F00E94A60BE0913A05F0913B05AF
:1018C000E05CFF4F8191919120813181821B930BCC
:1018D0008F739070892B11F00E94E60B08951F9270
:1018E0000F920FB60F920BB60F9211242F933F93C6
:1018F0008F939F93EF93FF9320912C0330912D03AF
:1019000080912E0390912F032817390731F480918D
:10191000C1008F7D8093C10014C0E0912E03F0912F
:101920002F03E451FD4F208180912E0390912F03CE
:1019300001968F73907090932F0380932E032093C2
:10194000C600FF91EF919F918F913F912F910F9042
:101950000BBE0F900FBE0F901F9018951F920F9205
:101960000FB60F920BB60F9211242F933F938F93C4
:101970009F93EF93FF932091B4033091B50380912F
:10198000B6039091B7032817390731F48091C90045
:101990008F7D8093C90014C0E091B603F091B70326
:1019A000EC58FC4F20818091B6039091B7030196CB
:1019B0008F7390709093B7038093B6032093CE00FB
:1019C000FF91EF919F918F913F912F910F900BBEBF
:1019D0000F900FBE0F901F9018951F920F920FB689
:1019E0000F920BB60F9211242F933F938F939F93D7
:1019F000EF93FF9320913C0430913D0480913E048D
:101A000090913F042817390731F48091D1008F7DE0
:101A10008093D10014C0E0913E04F0913F04E45063
:101A2000FC4F208180913E0490913F0401968F737A
:101A3000907090933F0480933E042093D600FF91D2
:101A4000EF919F918F913F912F910F900BBE0F902F
:101A50000FBE0F901F9018951F920F920FB60F9206
:101A60000BB60F9211242F933F938F939F93EF9375
:101A7000FF932091C4043091C5048091C6049091D5
:101A8000C7042817390731F4809131018F7D809385
:101A9000310114C0E091C604F091C704EC57FB4F2C
:101AA00020818091C6049091C70401968F73907035
:101AB0009093C7048093C60420933601FF91EF9161
:101AC0009F918F913F912F910F900BBE0F900FBE62
:101AD0000F901F901895AF92BF92DF92EF92FF92F6
:101AE0000F931F93CF93DF93EC017A018B01DD24D9
:101AF000403081EE580780E0680780E0780711F0F9
:101B0000DD24D39491E0A92EB12CEC89FD89DD2050
:101B100069F0C50108A002C0880F991F0A94E2F776
:101B2000808360E079E08DE390E005C0108260E89A
:101B300074E88EE190E0A80197010E9445172150BA
:101B4000304040405040569547953795279580E165
:101B50002030380720F0DD2011F0DD24D6CFE889D1
:101B6000F9893083EA89FB89208319A2EE89FF89EC
:101B7000408121E030E0C9010C8C02C0880F991F20
:101B80000A94E2F7482B4083EE89FF894081C9011E
:101B90000D8C02C0880F991F0A94E2F7482B4083EE
:101BA000EE89FF894081C9010E8C02C0880F991F00
:101BB0000A94E2F7482B4083EE89FF8980810F8CDD
:101BC00002C0220F331F0A94E2F7209528232083B6
:101BD000DF91CF911F910F91FF90EF90DF90BF9019
:101BE000AF900895DC011C96ED91FC911D97E05C8F
:101BF000FF4F2191319180819181281B390B2F73E7
:101C00003070C9010895DC011C96ED91FC911D977F
:101C1000E05CFF4F20813181E054F040DF01AE5B9A
:101C2000BF4F8D919C9111972817390719F42FEF09
:101C30003FEF07C08D919C91E80FF91F8081282FFD
:101C400030E0C9010895DC011C96ED91FC911D97CF
:101C5000E05CFF4F20813181E054F040DF01AE5B5A
:101C6000BF4F8D919C9111972817390719F42FEFC9
:101C70003FEF10C08D919C911197E80FF91F2081C3
:101C80008D919C91119701968F73907011969C93F2
:101C90008E9330E0C9010895DC0191968C91919763
:101CA000882339F05496ED91FC915597808186FFF9
:101CB000F9CF91961C920895CF93DF93EC01EE85B6
:101CC000FF85E05CFF4F20813181E054F0402F5FC1
:101CD0003F4F2F733070DF01AE5BBF4F8D919C91F2
:101CE000119728173907D1F3E05CFF4F808191816C
:101CF000E054F040E80FF91F6083EE85FF85E05C5B
:101D0000FF4F31832083EE89FF89208181E090E0BD
:101D10000F8C02C0880F991F0A94E2F7282B2083AA
:101D200081E089A3EC89FD8980818064808381E0E2
:101D300090E0DF91CF9108951F931092CB04109201
:101D4000CA0428EE33E040E050E02093CC04309306
:101D5000CD044093CE045093CF0466E372E07093B9
:101D6000C9046093C80488EA92E09093D5048093F4
:101D7000D4048CEE92E09093D7048093D60485EC43
:101D800090E09093D9048093D80484EC90E09093F1
:101D9000DB048093DA0480EC90E09093DD04809380
:101DA000DC0481EC90E09093DF048093DE0482EC0D
:101DB00090E09093E1048093E00486EC90E09093AF
:101DC000E3048093E20414E01093E404B3E0B093DE
:101DD000E504A7E0A093E604F5E0F093E704E1E072
:101DE000E093E8041092ED041092EC042093EE04CA
:101DF0003093EF044093F0045093F1047093EB049C
:101E00006093EA0480E393E09093F7048093F604F0
:101E100084E793E09093F9048093F8048DEC90E0CC
:101E20009093FB048093FA048CEC90E09093FD0473
:101E30008093FC0488EC90E09093FF048093FE0470
:101E400089EC90E090930105809300058AEC90E086
:101E500090930305809302058EEC90E09093050526
:101E60008093040510930605B0930705A093080519
:101E7000F0930905E0930A0510920F0510920E05E4
:101E800020931005309311054093120550931305CC
:101E900070930D0560930C0588EB93E09093190502
:101EA000809318058CEF93E090931B0580931A059F
:101EB00085ED90E090931D0580931C0584ED90E0E6
:101EC00090931F0580931E0580ED90E0909321056F
:101ED0008093200581ED90E0909323058093220567
:101EE00082ED90E0909325058093240586ED90E0A7
:101EF000909327058093260510932805B093290514
:101F0000A0932A05F0932B05E0932C051092310540
:101F100010923005209332053093330540933405F9
:101F20005093350570932F0560932E0580E494E05F
:101F300090933B0580933A0584E894E090933D05A7
:101F400080933C0585E391E090933F0580933E05A7
:101F500084E391E0909341058093400580E391E014
:101F6000909343058093420581E391E0909345056A
:101F70008093440582E391E0909347058093460562
:101F800086E391E0909349058093480510934A05B4
:101F9000B0934B05A0934C05F0934D05E0934E058F
:101FA0001F910895CF92DF92EF92FF920F931F93AC
:101FB000CF93DF937C016B018A01C0E0D0E00FC0BA
:101FC000D6016D916D01D701ED91FC910190F081E9
:101FD000E02DC7011995C80FD91F015010400115F8
:101FE000110571F7CE01DF91CF911F910F91FF90F5
:101FF000EF90DF90CF900895EF92FF920F931F9391
:102000008C01DC01ED91FC910190F081E02D6DE0FF
:1020100019957C01D801ED91FC910190F081E02DA2
:10202000C8016AE019959C012E0D3F1DC9011F9141
:102030000F91FF90EF900895CF93DF93EC0161151E
:10204000710519F420E030E00FC0DB010D90002095
:10205000E9F71197A61BB70BE881F9810280F3819C
:10206000E02DAD0119959C01C901DF91CF91089533
:102070004F925F927F928F929F92AF92BF92CF9238
:10208000DF92EF92FF920F931F93DF93CF93CDB721
:10209000DEB7A1970FB6F894DEBF0FBECDBF2C01FF
:1020A000742ECB01223008F42AE019A231E2C32EAB
:1020B000D12CCC0EDD1E822E9924AA24BB24672DA0
:1020C000752FA50194010E94451779018A01C80165
:1020D000B701A50194010E942617472D461B0894BD
:1020E000C108D1084A3014F4405D01C0495CF601D2
:1020F0004083E114F1040105110521F07E2C5F2DD0
:10210000C801DDCFC201B6010E941C10A1960FB616
:10211000F894DEBF0FBECDBFCF91DF911F910F911D
:10212000FF90EF90DF90CF90BF90AF909F908F90F7
:102130007F905F904F900895DC012115310541F4A7
:10214000ED91FC910190F081E02D642F1995089597
:102150000E9438100895CF92DF92EF92FF920F9372
:102160001F936C017B019A0100E010E0B801A70108
:102170000E949C108C01C6010E94FC0F080F191FC1
:10218000C8011F910F91FF90EF90DF90CF900895BD
:10219000CF92DF92EF92FF920F931F93CF93DF9333
:1021A000EC016A017B012115310541F4E881F981D7
:1021B0000190F081E02D642F19951FC02A30310560
:1021C000D1F477FF17C0E881F9810190F081E02D0B
:1021D0006DE219958C0144275527BA014C195D0908
:1021E0006E097F09CE012AE00E9438109801280F5D
:1021F000391F04C02AE00E9438109C01C901DF91F8
:10220000CF911F910F91FF90EF90DF90CF900895A5
:102210007F928F929F92AF92BF92CF92DF92EF9276
:10222000FF920F931F93CF93DF934C017A018B01A1
:10223000722ECB01BA01A80197010E9422178823B0
:1022400021F0C4016DE172E021C0C0E0D0E057018F
:102250006801E894D7F8C601B5012FEF3FEF4FE7CB
:102260005FE70E942217882351F4C601B5012FEFC2
:102270003FEF4FE75FE70E941715181614F0C1E013
:10228000D0E0219739F0C40161E272E00E941C1095
:10229000EC0193C0C801B7012FEF3FEF4FE75FE4B8
:1022A0000E94BB16181654F0C801B7012FEF3FEF7C
:1022B0004FE75FEC0E941715882324F4C40165E200
:1022C00072E0E4CFC801B70120E030E040E050E028
:1022D0000E94171587FD03C0C0E0D0E00EC0D401F6
:1022E000ED91FC910190F081E02DC4016DE2199512
:1022F000EC0117FB109517F9109520E030E040E055
:102300005FE3DD240BC0CA01B90120E030E040E208
:1023100051E40E941B159B01AC01D394D71498F390
:10232000C801B7010E94B3145B016C010E948815BB
:102330007B018C01C401B801A7012AE030E00E94B2
:102340009C10C80FD91F772039F0C40169E272E0F0
:102350000E941C10C80FD91FC801B7010E94B415F4
:102360009B01AC01C601B5010E94B21424C020E05B
:1023700030E040E251E40E94BF167B018C010E94D4
:1023800083155B016C01CC24B7FCC094DC2CC40128
:10239000B601A5012AE030E00E94C810C80FD91F7D
:1023A000C601B5010E94B6159B01AC01C801B70179
:1023B0000E94B2147A947720D1F6CE01DF91CF91AA
:1023C0001F910F91FF90EF90DF90CF90BF90AF9053
:1023D0009F908F907F900895EF92FF920F931F939D
:1023E0007C010E9408118C01C7010E94FC0F080F9C
:1023F000191FC8011F910F91FF90EF900895EF9260
:10240000FF920F931F937C010E941C108C01C70147
:102410000E94FC0F080F191FC8011F910F91FF9018
:10242000EF9008950E941A1408950E947D13089554
:102430001F920F920FB60F920BB60F9211248F932B
:102440009F93EF93FF93809183058F5F8093830524
:10245000E0E5F5E080819181019691838083FF9191
:10246000EF919F918F910F900BBE0F900FBE0F9029
:102470001F901895F8941092800088E18093810055
:102480008FE79EE3909387008093860080E280939D
:102490006F00109285001092840078940895E1E80E
:1024A000F0E08081816080830895EF92FF921F9316
:1024B000CF93DF93EC018BA98823F1F1E82EFF2461
:1024C0001BAA10E036C0412F50E0FA01EE0FFF1FAB
:1024D000E40FF51FDF01AA0FBB1FAC0FBD1F149641
:1024E0002D913C9115972E193F0915963C932E93EB
:1024F000149712161306E4F03196EE0FFF1FEC0F3F
:10250000FD1F80819181280F391F15963C932E93D2
:102510001497CA010196FC01EE0FFF1FE80FF91F87
:10252000EE0FFF1FEC0FFD1F0190F081E02D1995BC
:102530001F5F8AA9181738F2DF91CF911F91FF9082
:10254000EF9008950F931F93CF93DF93EC018A01CF
:102550004AA910C0F901EE0FFF1FE20FF31F3196D9
:10256000EE0FFF1FEC0FFD1F86E00D9001928150D2
:10257000E1F741504423A1F0242F30E0C901019735
:10258000DC01AA0FBB1FA80FB91F1196AA0FBB1F12
:10259000AC0FBD1F8D919C91119768177907D4F2EC
:1025A0008AA98F5F8AAB242F30E0C9010196FC0114
:1025B000EE0FFF1FE80FF91FEE0FFF1FEC0FFD1FBF
:1025C00011830083F901EE0FFF1FE20FF31FDF01FC
:1025D000AA0FBB1FAC0FBD1F15967C936E9314976B
:1025E0003196EE0FFF1FEC0FFD1F71836083DF91AB
:1025F000CF911F910F910895CF93DF93EC01DB01F1
:102600007AA960E0462F50E0FA01EE0FFF1FE40FB9
:10261000F51F3196EE0FFF1FEC0FFD1F2D913C9122
:1026200011978081918128173907A1F4CA01019679
:10263000FC01EE0FFF1FE80FF91FEE0FFF1FEC0F5D
:10264000FD1F14962D913C9115978081918128173B
:10265000390719F06F5F7617A8F6671718F57150EC
:102660007AAB1DC0862F90E0DC01AA0FBB1FA80F1C
:10267000B91F1196AA0FBB1F0196FC01EE0FFF1F99
:10268000E80FF91F3196EE0FFF1FAC0FBD1FEC0FC7
:10269000FD1F86E001900D928150E1F76F5F8AA9DE
:1026A000681700F3DF91CF910895DF93CF9300D0A7
:1026B00000D0CDB7DEB77A8369837C836B835E837A
:1026C0004D83BE016F5F7F4F0E94FC1226960FB6AE
:1026D000F894DEBF0FBECDBFCF91DF910895E2E544
:1026E000F5E01182108213821282158214823696CE
:1026F00085E0E238F807A9F708950F931F93CF9369
:10270000DF93BC018230910510F462E070E0E0914B
:102710008605F0918705A0E0B0E040E050E024C0DD
:102720008081918186179707D0F08617970771F4FB
:1027300082819381109729F013969C938E93129720
:102740002CC0909387058093860527C041155105BD
:1027500019F08417950718F4EF018D01AC01DF0122
:10276000828193819C01F9013097D1F64115510581
:10277000F9F0CA01861B970B8430910580F48A8199
:102780009B810115110521F0F8019383828304C018
:102790009093870580938605FE01329645C0FE0121
:1027A000E80FF91F619371930297998388833CC066
:1027B0008091840590918505892B41F480912E02AA
:1027C00090912F029093850580938405409130026B
:1027D000509131024115510541F44DB75EB78091DA
:1027E0002C0290912D02481B590B209184053091A9
:1027F000850524173507B0F4CA01821B930B861791
:10280000970780F0AB014E5F5F4F8417950750F03C
:10281000420F531F5093850540938405F90161933E
:10282000719302C0E0E0F0E0CF01DF91CF911F9102
:102830000F910895CF93DF939C01009709F48FC007
:10284000EC0122971B821A826091860570918705A0
:102850006115710581F488819981820F931F209100
:102860008405309185052817390739F5D0938505FA
:10287000C093840574C0DB0140E050E0AC17BD0795
:1028800008F1BB83AA83FE0121913191E20FF31F6E
:10289000AE17BF0779F48D919C911197280F391FBE
:1028A0002E5F3F4F3983288312968D919C91139709
:1028B0009B838A834115510571F4D0938705C0939A
:1028C00086054DC012968D919C911397AD0100978E
:1028D00011F0DC01D3CFDA011396DC93CE9312977B
:1028E000FA0121913191E20FF31FCE17DF0769F44E
:1028F00088819981280F391F2E5F3F4FFA0131835C
:1029000020838A819B8193838283E0E0F0E0DB0176
:1029100012968D919C911397009719F0BC01FD01BF
:10292000F6CFAB014E5F5F4FDB018D919C91840F21
:10293000951F20918405309185052817390779F472
:10294000309729F4109287051092860502C01382F1
:102950001282425050405093850540938405DF9188
:10296000CF9108955058BB27AA270ED0B3C1A4D148
:1029700030F0A9D120F031F49F3F11F41EF499C139
:102980000EF4E095E7FB64C1E92FB5D180F3BA17E7
:10299000620773078407950718F071F49EF5E4C188
:1029A0000EF4E0950B2EBA2FA02D0B01B90190016A
:1029B0000C01CA01A0011124FF27591B99F0593FAE
:1029C00050F4503E68F11A16F040A22F232F342FF6
:1029D0004427585FF3CF469537952795A795F04044
:1029E0005395C9F77EF41F16BA0B620B730B840B59
:1029F000BAF09150A1F0FF0FBB1F661F771F881F11
:102A0000C2F70EC0BA0F621F731F841F48F4879568
:102A100077956795B795F7959E3F08F0B3CF939557
:102A2000880F08F09927EE0F979587950895ECD0B9
:102A300008F481E008950CD04DC145D140F03CD15F
:102A400030F021F45F3F19F003C151118EC131C143
:102A500052D198F39923C9F35523B1F3951B550B24
:102A6000BB27AA2762177307840738F09F5F5F4F61
:102A7000220F331F441FAA1FA9F333D00E2E3AF0A2
:102A8000E0E830D091505040E695001CCAF729D0BC
:102A9000FE2F27D0660F771F881FBB1F261737070B
:102AA0004807AB07B0E809F0BB0B802DBF01FF273B
:102AB00093585F4F2AF09E3F510568F0C9C055C139
:102AC0005F3FECF3983EDCF3869577956795B79575
:102AD000F7959F5FC9F7880F911D9695879597F990
:102AE0000895E1E0660F771F881FBB1F6217730709
:102AF0008407BA0720F0621B730B840BBA0BEE1F1E
:102B000088F7E095089504D06894B1112EC1089516
:102B1000FAD088F09F5790F0B92F9927B751A0F0BD
:102B2000D1F0660F771F881F991F1AF0BA95C9F761
:102B300012C0B13081F018D1B1E0089515C1672FEE
:102B4000782F8827B85F39F0B93FCCF38695779511
:102B50006795B395D9F73EF49095809570956195FA
:102B60007F4F8F4F9F4F0895E89409C097FB3EF425
:102B700090958095709561957F4F8F4F9F4F9923CA
:102B8000A9F0F92F96E9BB279395F6958795779548
:102B90006795B795F111F8CFFAF4BB0F11F460FF08
:102BA0001BC06F5F7F4F8F4F9F4F16C0882311F060
:102BB00096E911C0772321F09EE8872F762F05C074
:102BC000662371F096E8862F70E060E02AF09A950F
:102BD000660F771F881FDAF7880F9695879597F904
:102BE0000895ABD080F09F3740F491110EF0BDC036
:102BF00060E070E080E89FEB089526F41B16611DED
:102C0000711D811D2BC045C0990F0008550FAA0BDF
:102C1000E0E8FEEF16161706E807F907C0F01216EF
:102C20001306E407F50798F0621B730B840B950BF2
:102C300039F40A2661F0232B242B252B21F4089547
:102C40000A2609F4A140A6958FEF811D811D0895E4
:102C500097F99F6780E870E060E00895882371F439
:102C6000772321F09850872B762F07C0662311F425
:102C700099270DC09051862B70E060E02AF09A955C
:102C8000660F771F881FDAF7880F9695879597F953
:102C900008959F3F49F0915028F486957795679560
:102CA000B7959F5F80389F4F880F9695879597F9C6
:102CB00008959FEF80EC089500240A9416161706D5
:102CC00018060906089500240A941216130614061D
:102CD00005060895092E0394000C11F4882352F080
:102CE000BB0F40F4BF2B11F460FF04C06F5F7F4F38
:102CF0008F4F9F4F089557FD9058440F551F59F01F
:102D00005F3F71F04795880F97FB991F61F09F3FD8
:102D100079F087950895121613061406551FF2CF01
:102D20004695F1DF08C0161617061806991FF1CF51
:102D300086957105610508940895E5DFA0F0BEE76A
:102D4000B91788F4BB279F3860F41616B11D672F9A
:102D5000782F8827985FF7CF869577956795B11D6F
:102D600093959639C8F30895E894BB27662777278B
:102D7000CB0197F9089548DF08F48FEF08950BD041
:102D8000A9CF9ADF28F09FDF18F0952309F060CFD4
:102D900090CF1124EACFAFDFA0F3959FD1F3950F29
:102DA00050E0551F629FF001729FBB27F00DB11DCF
:102DB000639FAA27F00DB11DAA1F649F6627B00D5F
:102DC000A11D661F829F2227B00DA11D621F739F48
:102DD000B00DA11D621F839FA00D611D221F749F56
:102DE0003327A00D611D231F849F600D211D822F9D
:102DF000762F6A2F11249F5750408AF0E1F08823E4
:102E00004AF0EE0FFF1FBB1F661F771F881F9150F0
:102E10005040A9F79E3F510570F01ACFA6CF5F3FF3
:102E2000ECF3983EDCF3869577956795B795F79523
:102E3000E7959F5FC1F7FE2B880F911D96958795AB
:102E400097F90895E1DE880B990B0895629FD001F0
:102E5000739FF001829FE00DF11D649FE00DF11D55
:102E6000929FF00D839FF00D749FF00D659FF00D04
:102E70009927729FB00DE11DF91F639FB00DE11DF1
:102E8000F91FBD01CF0111240895A1E21A2EAA1B3A
:102E9000BB1BFD010DC0AA1FBB1FEE1FFF1FA2170A
:102EA000B307E407F50720F0A21BB30BE40BF50B07
:102EB000661F771F881F991F1A9469F76095709590
:102EC000809590959B01AC01BD01CF010895EE0F57
:102ED000FF1F0590F491E02D199412E0C0E1D2E0BB
:102EE00004C0FE010E9469172296C231D107C9F7BA
:042EF000F894FFCF84
:102EF4004E65772048697473004F6C642048697488
:102F04007300506F7374204D65726765006E616E57
:102F140000696E66006F7666002E000180008805E9
:102F24000000000000005C0ED20FF20D230E030E11
:022F34004C0E41
:00000001FF
