:100000000C9467000C948F000C948F000C948F005C
:100010000C948F000C948F000C948F000C948F0024
:100020000C948F000C948F000C94DF090C948F00BB
:100030000C948F000C948F000C948F000C948F0004
:100040000C9401040C948F000C948D050C94DB052A
:100050000C948F000C948F000C948F000C948F00E4
:100060000C948F000C948F000000000024002700E7
:100070002A0000000000250028002B0000000000DE
:1000800023002600290004040404040404040202DA
:100090000202020203030303030301020408102007
:1000A0004080010204081020010204081020000012
:1000B0000007000201000003040600000000000029
:1000C0000000E400BA018A0393034707330B1124AD
:1000D0001FBECFEFD8E0DEBFCDBF11E0A0E0B1E0A2
:1000E000ECEFFBE102C005900D92A037B107D9F704
:1000F00012E0A0E7B1E001C01D92A139B107E1F71C
:1001000010E0CEECD0E004C02297FE010E94F80D72
:10011000C23CD107C9F70E94F2030C94FC0D0C9469
:100120000000862F60E00E94E5040895862F61E0BC
:100130000E94E5040895FC01858160E00E94E504C9
:10014000089580E791E00E949B008DE592E064E1D4
:1001500070E041EA50E00E94180B0895FC0185818F
:1001600061E00E94E504089580E791E00E94AE00FE
:100170008DE592E064E170E041EA50E00E94650A9A
:1001800008950E94B4000895862F0E9439050895AD
:10019000FC0184810E94840408950F931F938C01B5
:1001A0008EE0F801848387E0858361E00E94A604E5
:1001B00088E090E0F8019183808388EC90E093835D
:1001C00082831F910F91089580E791E00E94CD00F6
:1001D00008950895CF93DF93EC0180E791E06D815E
:1001E0000E94C400892B31F48881882319F481E0AE
:1001F0008B8388838B81882349F080E791E06C8131
:100200000E9496001B821F821E821FC08881882345
:10021000B9F080E791E06C810E94960080917001B6
:10022000909171012E813F81820F931F9F838E8356
:1002300029813A818217930744F018821F821E8217
:1002400080E791E06C810E949100DF91CF91089549
:100250000F931F938C01822FF801728361831082A8
:100260001382248345831782168261E00E94A604CC
:10027000F801858160E00E94A6041F910F91089506
:100280004F925F926F927F928F929F92AF92BF92A6
:10029000CF92DF92EF92FF920F931F936C0180E752
:1002A00091E00E94C8007C01F60163817481882777
:1002B00077FD8095982F0E94450C2B013C01F6019B
:1002C00065817681882777FD8095982F0E94450C5F
:1002D0004B015C010027F7FC0095102FC801B70106
:1002E0000E94450C7B018C01F6016781708588278F
:1002F00077FD8095982F0E94450C9B01AC01C801A9
:10030000B7010E94AA0B9B01AC01C501B4010E9478
:100310004E0D9B01AC01C301B2010E94410B1F9124
:100320000F91FF90EF90DF90CF90BF90AF909F9094
:100330008F907F906F905F904F9008950E94400142
:100340009B01AC0160E070E08AE794E40E94AA0B94
:1003500020E030E040E752E40E944E0D20E030E023
:1003600040E05FE30E94420B0E94800C0E94120C4E
:10037000CB01089580EF90E090937A01809379010A
:1003800088E290E0909378018093770188EC90E088
:1003900090937C0180937B018CEF93E090937E019E
:1003A00080937D01E6E7F1E01082CF010E949E017B
:1003B00090938201809381010895CF93DF93809180
:1003C0007F01909180012091700130917101820F25
:1003D000931F9093800180937F011092760186E7AE
:1003E00091E00E949E01EC0180917F01909180013B
:1003F000C817D9075CF480E791E00E94C10081E052
:10040000809376011092800110927F01D093820137
:10041000C0938101DF91CF910895CF93DF93EC01D9
:100420008B859C85892B29F580E791E069850E9461
:10043000C400892BF1F48B859C852091700130914B
:100440007101820F931F9C878B8781E00FC01C86F0
:100450001B860BC01216130644F480917001909114
:100460007101820F931F9C878B8780E0DF91CF9172
:1004700008952B853C858091720190917301281716
:10048000390744F3E4CFCF93DF93EC018F81988554
:10049000892B29F580E791E06D810E94C400892BAA
:1004A000F1F48F8198852091700130917101820F54
:1004B000931F98878F8381E00FC018861F820BC01F
:1004C0001216130644F48091700190917101820F0D
:1004D000931F98878F8380E0DF91CF9108952F81BC
:1004E000388580917201909173012817390744F380
:1004F000E4CFFC011686108A17868BE392E060E059
:1005000071E00E94CC090895FC01158681E0868780
:100510008BE392E06FE071E00E94CC090895FC014A
:100520008585882361F48685882361F481E0858749
:100530008BE392E062E271E00E94CC090895CF0162
:100540000E9484020895EF92FF920F931F938C01F3
:10055000FC01128A118A8BE3E82E82E0F82EC70193
:1005600066E371E00E94CC09F801438954896589EA
:100570007689C70122E030E00E94B90980E090E06E
:10058000A0E0B0E0F801838B948BA58BB68B1F9114
:100590000F91FF90EF900895AF92BF92CF92DF92AC
:1005A000EF92FF920F931F93CF93DF93EC018D8512
:1005B000882351F080917601882331F08F859889C6
:1005C0000196988B8F871FC0809176018823D9F080
:1005D0008E858823C1F081E0888329893A898F85B7
:1005E00098892817390719F4CE010E94A302698956
:1005F0007A896F5F7F4F7A8B698B8BE392E04AE059
:1006000050E00E94B6088E858823D9F186E791E0F4
:100610000E949E017C016091700170917101882798
:1006200077FD8095982F0E94450C5B016C01002797
:10063000F7FC0095102FC801B7010E94450C7B0103
:100640008C016F857889882777FD8095982F0E9487
:10065000450C9B01AC01C801B7010E944E0D9B01E6
:10066000AC01C601B5010E94AA0B9B01AC016B89CC
:100670007C898D899E890E94420B6B8B7C8B8D8B34
:100680009E8BDF91CF911F910F91FF90EF90DF90A4
:10069000CF90BF90AF900895CF93DF93EC010E946D
:1006A0004302882319F0CE010E948F02CE010E94DE
:1006B0000D02882319F0CE010E947902CE010E941A
:1006C000CC02DF91CF9108950F931F938C01862F59
:1006D000F801658376835287418760E00E94A60413
:1006E000F801818560E00E94A604F8011486138653
:1006F000108617821686108A1786128A118A80E061
:1007000090E0A0E0B0E0838B948BA58BB68B1F911B
:100710000F91089583E891E066E070E045E050E0D5
:100720000E94640308958AE991E00E94E90082EA48
:1007300091E00E94E90008958DE592E00E94180A78
:10074000089582EA91E00E94EA0008958AE991E022
:100750000E94EA0008950E94DD0183E891E00E9472
:100760004C0308950F931F938BE392E040E855E20A
:1007700060E070E00E9416068AE991E064E670E0AD
:100780004AE029E00E94280182EA91E064E670E0F4
:100790004DE02CE00E9428010DE512E0C8010E9406
:1007A000FD096091700170917101C8014BEA53E03D
:1007B0000E94650A6091700170917101C80146EA5A
:1007C00053E00E94650A6091700170917101C80147
:1007D00041EA53E00E94650AC8010E94120A1F9173
:1007E0000F910895CF93DF930E9449040E94B203B2
:1007F000C8ECD5E00E949C032097E1F30E94C80555
:10080000F9CF1F920F920FB60F9211242F933F939F
:100810008F939F93AF93BF938091AE019091AF015F
:10082000A091B001B091B1013091B2010196A11D2A
:10083000B11D232F2D5F2D3720F02D570196A11DBF
:10084000B11D2093B2018093AE019093AF01A093AC
:10085000B001B093B1018091AA019091AB01A09138
:10086000AC01B091AD010196A11DB11D8093AA010B
:100870009093AB01A093AC01B093AD01BF91AF9148
:100880009F918F913F912F910F900FBE0F901F90CE
:100890001895789484B5826084BD84B5816084BDE8
:1008A00085B5826085BD85B5816085BDEEE6F0E0E9
:1008B000808181608083E1E8F0E010828081826045
:1008C0008083808181608083E0E8F0E080818160C6
:1008D0008083E1EBF0E0808184608083E0EBF0E0F6
:1008E000808181608083EAE7F0E08081846080839A
:1008F0008081826080838081816080838081806844
:1009000080831092C1000895982F8E3008F09E5079
:10091000977080915E018295880F880F807C892B6B
:1009200080937C0080917A00806480937A0080912B
:100930007A0086FDFCCF2091780040917900942FB9
:1009400080E030E0282B392BC9010895CF93DF9345
:10095000482F50E0CA0186569F4FFC0134914A57F8
:100960005F4FFA018491882369F190E0880F991F05
:10097000FC01E859FF4FA591B491FC01EE58FF4FDF
:10098000C591D491662351F42FB7F8948C91932F8D
:10099000909589238C93888189230BC0623061F400
:1009A0002FB7F8948C91932F909589238C938881FD
:1009B000832B88832FBF06C09FB7F8948C91832B1D
:1009C0008C939FBFDF91CF910895482F50E0CA01CB
:1009D00082559F4FFC012491CA0186569F4FFC010E
:1009E00094914A575F4FFA013491332309F440C080
:1009F000222351F1233071F0243028F42130A1F06A
:100A0000223011F514C02630B1F02730C1F0243067
:100A1000D9F404C0809180008F7703C0809180005A
:100A20008F7D8093800010C084B58F7702C084B51D
:100A30008F7D84BD09C08091B0008F7703C0809105
:100A4000B0008F7D8093B000E32FF0E0EE0FFF1F2A
:100A5000EE58FF4FA591B4912FB7F894662321F477
:100A60008C919095892302C08C91892B8C932FBFF8
:100A70000895682F70E0CB0182559F4FFC012491AF
:100A8000CB0186569F4FFC0144916A577F4FFB0173
:100A90009491992319F420E030E03CC0222351F1D5
:100AA000233071F0243028F42130A1F0223011F5E8
:100AB00014C02630B1F02730C1F02430D9F404C07E
:100AC000809180008F7703C0809180008F7D80931C
:100AD000800010C084B58F7702C084B58F7D84BD3F
:100AE00009C08091B0008F7703C08091B0008F7DE6
:100AF0008093B000892F90E0880F991F84589F4FF2
:100B0000FC01A591B4918C9120E030E0842311F098
:100B100021E030E0C901089508951F920F920FB6A9
:100B20000F9211242F933F934F938F939F93EF93A3
:100B3000FF938091C00082FD1DC04091C6002091AE
:100B4000F3013091F4012F5F3F4F2F73307080918C
:100B5000F5019091F6012817390771F0E091F30142
:100B6000F091F401ED54FE4F40833093F401209353
:100B7000F30102C08091C600FF91EF919F918F9188
:100B80004F913F912F910F900FBE0F901F9018958E
:100B9000E0914702F0914802E05CFF4F8191919112
:100BA00020813181821B930B8F739070892B11F000
:100BB0000E948C0508951F920F920FB60F92112478
:100BC0002F933F938F939F93EF93FF93209137023F
:100BD000309138028091390290913A0228173907F2
:100BE00031F48091C1008F7D8093C10014C0E091E9
:100BF0003902F0913A02E950FE4F2081809139028A
:100C000090913A0201968F73907090933A0280937C
:100C100039022093C600FF91EF919F918F913F91F0
:100C20002F910F900FBE0F901F901895AF92BF920B
:100C3000DF92EF92FF920F931F93CF93DF93EC011C
:100C40007A018B01DD24403081EE580780E068078F
:100C500080E0780711F0DD24D39491E0A92EB12C27
:100C6000EC89FD89DD2069F0C50108A002C0880F6C
:100C7000991F0A94E2F7808360E079E08DE390E0C9
:100C800005C0108260E874E88EE190E0A801970149
:100C90000E94D40D21503040404050405695479519
:100CA0003795279580E12030380720F0DD2011F0BE
:100CB000DD24D6CFE889F9893083EA89FB8920834E
:100CC00019A2EE89FF89408121E030E0C9010C8C36
:100CD00002C0880F991F0A94E2F7482B4083EE89DF
:100CE000FF894081C9010D8C02C0880F991F0A94A9
:100CF000E2F7482B4083EE89FF894081C9010E8CC1
:100D000002C0880F991F0A94E2F7482B4083EE89AE
:100D1000FF8980810F8C02C0220F331F0A94E2F7F3
:100D2000209528232083DF91CF911F910F91FF9071
:100D3000EF90DF90BF90AF900895DC011C96ED918D
:100D4000FC911D97E05CFF4F219131918081918151
:100D5000281B390B2F733070C9010895DC011C96D4
:100D6000ED91FC911D97E05CFF4F20813181E054B3
:100D7000F040DF01AE5BBF4F8D919C91119728171A
:100D8000390719F42FEF3FEF07C08D919C91E80FC1
:100D9000F91F8081282F30E0C9010895DC011C96DD
:100DA000ED91FC911D97E05CFF4F20813181E05473
:100DB000F040DF01AE5BBF4F8D919C9111972817DA
:100DC000390719F42FEF3FEF10C08D919C911197C7
:100DD000E80FF91F20818D919C91119701968F73D7
:100DE000907011969C938E9330E0C9010895DC01B8
:100DF00091968C919197882339F05496ED91FC91BE
:100E00005597808186FFF9CF91961C920895CF93D4
:100E1000DF93EC01EE85FF85E05CFF4F208131819F
:100E2000E054F0402F5F3F4F2F733070DF01AE5B17
:100E3000BF4F8D919C91119728173907D1F3E05C32
:100E4000FF4F80819181E054F040E80FF91F6083EB
:100E5000EE85FF85E05CFF4F31832083EE89FF89BB
:100E6000208181E090E00F8C02C0880F991F0A94C6
:100E7000E2F7282B208381E089A3EC89FD8980811A
:100E80008064808381E090E0DF91CF91089510929B
:100E90003E0210923D0288EE93E0A0E0B0E0809325
:100EA0003F0290934002A0934102B093420283E636
:100EB00091E090933C0280933B0283EB91E090930E
:100EC00048028093470287EF91E090934A02809313
:100ED000490285EC90E090934C0280934B0284ECA5
:100EE00090E090934E0280934D0280EC90E09093BE
:100EF000500280934F0281EC90E0909352028093D5
:100F0000510282EC90E0909354028093530286EC5D
:100F100090E0909356028093550284E080935702AC
:100F200083E08093580287E08093590285E08093A4
:100F30005A0281E080935B020895CF92DF92EF9294
:100F4000FF920F931F93CF93DF937C016B018A0174
:100F5000C0E0D0E00FC0D6016D916D01D701ED91D9
:100F6000FC910190F081E02DC7010995C80FD91FB0
:100F7000015010400115110571F7CE01DF91CF919D
:100F80001F910F91FF90EF90DF90CF900895EF9217
:100F9000FF920F931F938C01DC01ED91FC91019066
:100FA000F081E02D6DE009957C01D801ED91FC9177
:100FB0000190F081E02DC8016AE009959C012E0D99
:100FC0003F1DC9011F910F91FF90EF900895CF939E
:100FD000DF93EC016115710519F420E030E00FC0DA
:100FE000DB010D900020E9F71197A61BB70BE881F4
:100FF000F9810280F381E02DAD0109959C01C901C1
:10100000DF91CF9108954F925F927F928F929F923E
:10101000AF92BF92CF92DF92EF92FF920F931F9306
:10102000DF93CF93CDB7DEB7A1970FB6F894DEBFAD
:101030000FBECDBF2C01742ECB01223008F42AE064
:1010400019A231E2C32ED12CCC0EDD1E822E9924A2
:10105000AA24BB24672D752FA50194010E94D40DED
:1010600079018A01C801B701A50194010E94B50D5B
:10107000472D461B0894C108D1084A3014F4405D3E
:1010800001C0495CF6014083E114F104010511053A
:1010900021F07E2C5F2DC801DDCFC201B6010E9478
:1010A000E707A1960FB6F894DEBF0FBECDBFCF9174
:1010B000DF911F910F91FF90EF90DF90CF90BF9045
:1010C000AF909F908F907F905F904F900895DC013C
:1010D0002115310541F4ED91FC910190F081E02D55
:1010E000642F099508950E9403080895CF92DF9216
:1010F000EF92FF920F931F93CF93DF93EC016A015E
:101100007B012115310541F4E881F9810190F081DD
:10111000E02D642F09951FC02A303105D1F477FFE7
:1011200017C0E881F9810190F081E02D6DE2099509
:101130008C0144275527BA014C195D096E097F09B6
:10114000CE012AE00E9403089801280F391F04C02D
:101150002AE00E9403089C01C901DF91CF911F91F1
:101160000F91FF90EF90DF90CF900895CF92DF9294
:10117000EF92FF920F931F936C017B019A0100275E
:10118000F7FC0095102FB801A7010E9476088C018A
:10119000C6010E94C707080F191FC8011F910F91B0
:1011A000FF90EF90DF90CF9008957F928F929F9263
:1011B000AF92BF92CF92DF92EF92FF920F931F9365
:1011C000CF93DF934C017A018B01722ECB01BA01D0
:1011D000A80197010E94B10D882321F0C40160E5A8
:1011E00071E021C0C0E0D0E057016801E894D7F871
:1011F000C601B5012FEF3FEF4FE75FE70E94B10D4A
:10120000882351F4C601B5012FEF3FEF4FE75FE7A9
:101210000E94A60B181614F0C1E0D0E0219739F017
:10122000C40164E571E00E94E707EC0193C0C801C6
:10123000B7012FEF3FEF4FE75FE40E944A0D18160A
:1012400054F0C801B7012FEF3FEF4FE75FEC0E946A
:10125000A60B882324F4C40168E571E0E4CFC8013B
:10126000B70120E030E040E050E00E94A60B87FD8F
:1012700003C0C0E0D0E00EC0D401ED91FC9101901C
:10128000F081E02DC4016DE20995EC0117FB10958A
:1012900017F9109520E030E040E05FE3DD240BC05B
:1012A000CA01B90120E030E040E251E40E94AA0BFB
:1012B0009B01AC01D394D71498F3C801B7010E94E5
:1012C000420B5B016C010E94170C7B018C01C40175
:1012D000B801A7012AE030E00E946708C80FD91FB3
:1012E000772039F0C4016CE571E00E94E707C80F70
:1012F000D91FC801B7010E94430C9B01AC01C60174
:10130000B5010E94410B24C020E030E040E251E4EE
:101310000E944E0D7B018C010E94120C5B016C013E
:10132000CC24B7FCC094DC2CC401B601A5012AE092
:1013300030E00E947608C80FD91FC601B5010E948F
:10134000450C9B01AC01C801B7010E94410B7A9486
:101350007720D1F6CE01DF91CF911F910F91FF90B1
:10136000EF90DF90CF90BF90AF909F908F907F9045
:101370000895EF92FF920F931F937C010E94D5086E
:101380008C01C7010E94C707080F191FC8011F91D0
:101390000F91FF90EF900895EF92FF920F931F939C
:1013A0007C010E94E7078C01C7010E94C707080F54
:1013B000191FC8011F910F91FF90EF9008951F9280
:1013C0000F920FB60F9211248F939F93EF93FF9379
:1013D000809190028F5F80939002EDE5F2E0808132
:1013E0009181019691838083FF91EF919F918F91DD
:1013F0000F900FBE0F901F901895F89410928000D8
:1014000088E1809381008FE79EE39093870080932B
:10141000860080E280936F00109285001092840015
:1014200078940895E1E8F0E08081816080830895F8
:10143000EF92FF921F93CF93DF93EC018BA9882348
:10144000F1F1E82EFF241BAA10E036C0412F50E036
:10145000FA01EE0FFF1FE40FF51FDF01AA0FBB1FFC
:10146000AC0FBD1F14962D913C9115972E193F0975
:1014700015963C932E93149712161306E4F03196AA
:10148000EE0FFF1FEC0FFD1F80819181280F391F88
:1014900015963C932E931497CA010196FC01EE0F0A
:1014A000FF1FE80FF91FEE0FFF1FEC0FFD1F01904C
:1014B000F081E02D09951F5F8AA9181738F2DF9196
:1014C000CF911F91FF90EF9008950F931F93CF93AB
:1014D000DF93EC018A014AA910C0F901EE0FFF1F4A
:1014E000E20FF31F3196EE0FFF1FEC0FFD1F86E09A
:1014F0000D9001928150E1F741504423A1F0242F37
:1015000030E0C9010197DC01AA0FBB1FA80FB91F6A
:101510001196AA0FBB1FAC0FBD1F8D919C91119707
:1015200068177907D4F28AA98F5F8AAB242F30E03D
:10153000C9010196FC01EE0FFF1FE80FF91FEE0F26
:10154000FF1FEC0FFD1F11830083F901EE0FFF1F3A
:10155000E20FF31FDF01AA0FBB1FAC0FBD1F1596D3
:101560007C936E9314973196EE0FFF1FEC0FFD1FC7
:1015700071836083DF91CF911F910F910895CF9375
:10158000DF93EC01DB017AA960E0462F50E0FA011D
:10159000EE0FFF1FE40FF51F3196EE0FFF1FEC0F4C
:1015A000FD1F2D913C91119780819181281739075A
:1015B000A1F4CA010196FC01EE0FFF1FE80FF91F0D
:1015C000EE0FFF1FEC0FFD1F14962D913C91159708
:1015D000808191812817390719F06F5F7617A8F677
:1015E000671718F571507AAB1DC0862F90E0DC01AB
:1015F000AA0FBB1FA80FB91F1196AA0FBB1F0196F8
:10160000FC01EE0FFF1FE80FF91F3196EE0FFF1FD1
:10161000AC0FBD1FEC0FFD1F86E001900D928150B5
:10162000E1F76F5F8AA9681700F3DF91CF91089502
:10163000DF93CF9300D000D000D0CDB7DEB77A8350
:1016400069837C836B835E834D83BE016F5F7F4FB5
:101650000E94BF0A26960FB6F894DEBF0FBECDBF1C
:10166000CF91DF910895EFE5F2E0118210821382AD
:10167000128215821482369682E0EF38F807A9F7B5
:1016800008955058BB27AA270ED0B3C1A4D130F07B
:10169000A9D120F031F49F3F11F41EF499C10EF44A
:1016A000E095E7FB64C1E92FB5D180F3BA17620773
:1016B00073078407950718F071F49EF5E4C10EF4E2
:1016C000E0950B2EBA2FA02D0B01B90190010C0152
:1016D000CA01A0011124FF27591B99F0593F50F46A
:1016E000503E68F11A16F040A22F232F342F4427C2
:1016F000585FF3CF469537952795A795F0405395BA
:10170000C9F77EF41F16BA0B620B730B840BBAF089
:101710009150A1F0FF0FBB1F661F771F881FC2F7F4
:101720000EC0BA0F621F731F841F48F48795779508
:101730006795B795F7959E3F08F0B3CF9395880FBF
:1017400008F09927EE0F979587950895ECD008F447
:1017500081E008950CD04DC145D140F03CD130F02E
:1017600021F45F3F19F003C151118EC131C152D133
:1017700098F39923C9F35523B1F3951B550BBB2758
:10178000AA2762177307840738F09F5F5F4F220F05
:10179000331F441FAA1FA9F333D00E2E3AF0E0E8FE
:1017A00030D091505040E695001CCAF729D0FE2F4A
:1017B00027D0660F771F881FBB1F261737074807DC
:1017C000AB07B0E809F0BB0B802DBF01FF27935892
:1017D0005F4F2AF09E3F510568F0C9C055C15F3F79
:1017E000ECF3983EDCF3869577956795B795F7957A
:1017F0009F5FC9F7880F911D9695879597F9089572
:10180000E1E0660F771F881FBB1F6217730784070D
:10181000BA0720F0621B730B840BBA0BEE1F88F71C
:10182000E095089504D06894B1112EC10895FAD0BE
:1018300088F09F5790F0B92F9927B751A0F0D1F0B9
:10184000660F771F881F991F1AF0BA95C9F712C043
:10185000B13081F018D1B1E0089515C1672F782F0C
:101860008827B85F39F0B93FCCF3869577956795AF
:10187000B395D9F73EF490958095709561957F4F1B
:101880008F4F9F4F0895E89409C097FB3EF49095C1
:101890008095709561957F4F8F4F9F4F9923A9F049
:1018A000F92F96E9BB279395F695879577956795D8
:1018B000B795F111F8CFFAF4BB0F11F460FF1BC01C
:1018C0006F5F7F4F8F4F9F4F16C0882311F096E9AF
:1018D00011C0772321F09EE8872F762F05C066235D
:1018E00071F096E8862F70E060E02AF09A95660F16
:1018F000771F881FDAF7880F9695879597F90895CF
:10190000ABD080F09F3740F491110EF0BDC060E085
:1019100070E080E89FEB089526F41B16611D711D91
:10192000811D2BC045C0990F0008550FAA0BE0E898
:10193000FEEF16161706E807F907C0F01216130691
:10194000E407F50798F0621B730B840B950B39F4D1
:101950000A2661F0232B242B252B21F408950A2637
:1019600009F4A140A6958FEF811D811D089597F977
:101970009F6780E870E060E00895882371F4772322
:1019800021F09850872B762F07C0662311F49927F2
:101990000DC09051862B70E060E02AF09A95660F9A
:1019A000771F881FDAF7880F9695879597F908951E
:1019B0009F3F49F0915028F4869577956795B795A4
:1019C0009F5F80389F4F880F9695879597F9089568
:1019D0009FEF80EC089500240A9416161706180647
:1019E0000906089500240A94121613061406050623
:1019F0000895092E0394000C11F4882352F0BB0FB4
:101A000040F4BF2B11F460FF04C06F5F7F4F8F4F16
:101A10009F4F089557FD9058440F551F59F05F3F51
:101A200071F04795880F97FB991F61F09F3F79F000
:101A300087950895121613061406551FF2CF469582
:101A4000F1DF08C0161617061806991FF1CF869504
:101A50007105610508940895E5DFA0F0BEE7B917A8
:101A600088F4BB279F3860F41616B11D672F782FB6
:101A70008827985FF7CF869577956795B11D9395E1
:101A80009639C8F30895E894BB2766277727CB01DA
:101A900097F9089548DF08F48FEF08950BD0A9CF88
:101AA0009ADF28F09FDF18F0952309F060CF90CFE0
:101AB0001124EACFAFDFA0F3959FD1F3950F50E04B
:101AC000551F629FF001729FBB27F00DB11D639FF0
:101AD000AA27F00DB11DAA1F649F6627B00DA11D96
:101AE000661F829F2227B00DA11D621F739FB00D3C
:101AF000A11D621F839FA00D611D221F749F3327AC
:101B0000A00D611D231F849F600D211D822F762F44
:101B10006A2F11249F5750408AF0E1F088234AF041
:101B2000EE0FFF1FBB1F661F771F881F915050408D
:101B3000A9F79E3F510570F01ACFA6CF5F3FECF397
:101B4000983EDCF3869577956795B795F795E79579
:101B50009F5FC1F7FE2B880F911D9695879597F98A
:101B60000895E1DE880B990B0895629FD001739F61
:101B7000F001829FE00DF11D649FE00DF11D929F29
:101B8000F00D839FF00D749FF00D659FF00D992768
:101B9000729FB00DE11DF91F639FB00DE11DF91F8C
:101BA000BD01CF0111240895A1E21A2EAA1BBB1B6F
:101BB000FD010DC0AA1FBB1FEE1FFF1FA217B30719
:101BC000E407F50720F0A21BB30BE40BF50B661F2F
:101BD000771F881F991F1A9469F7609570958095F3
:101BE00090959B01AC01BD01CF010895EE0FFF1F41
:0C1BF0000590F491E02D0994F894FFCFCB
:101BFC0054696D656C696E6520436C656172005447
:101C0C00696D656C696E65204C6F6F70204C6F63ED
:101C1C006B0054696D656C696E65205374617274E8
:101C2C00204C6F6F700050657263656E7420436F4B
:101C3C006D706C657465206F6E20526573657400F1
:101C4C006E616E00696E66006F7666002E00010094
:101C5C0000000007079D079D06CE06AE06F706009E
:00000001FF
