:100000000C946A000C9492000C9492000C94920050
:100010000C9492000C9492000C9492000C94920018
:100020000C9492000C9492000C946F0F0C9492001C
:100030000C9492000C9492000C9492000C949200F8
:100040000C946A080C9492000C94310B0C947F0B66
:100050000C9492000C9492000C9492000C949200D8
:100060000C946F120C9492000000000024002700F2
:100070002A0000000000250028002B0000000000DE
:1000800023002600290004040404040404040202DA
:100090000202020203030303030301020408102007
:1000A0004080010204081020010204081020000012
:1000B0000007000201000003040600000000000029
:1000C000000094002C014103E3071008EB0CC3105F
:1000D0000B11090811241FBECFEFD8E0DEBFCDBF42
:1000E00011E0A0E0B1E0E4ECFDE202C005900D9269
:1000F000A03CB107D9F713E0A0ECB1E001C01D921C
:10010000A03BB107E1F710E0C2EDD0E004C02297B8
:10011000FE010E94D116C23CD107C9F70E945B08BC
:100120000C94D5160C94000080EC91E00E94500EC7
:1001300008951F93162F0E94C50E21E030E002C0E3
:10014000220F331F1A95E2F728233923C9011F9183
:1001500008950F931F93DF93CF930F92CDB7DEB720
:100160008C01CE0101960E94500E8981F801808396
:1001700086E992E060E071E00E94370EC8016AE50E
:100180000E94F80E882339F486E992E06DE271E06E
:100190000E94370EFFCF86E992E06DE471E00E9485
:1001A000370E0F90CF91DF911F910F910895862FF9
:1001B00060E00E94A7090895862F61E00E94A709C8
:1001C0000895FC01858160E00E94A709089581ECF3
:1001D00091E00E94E10088EB92E064E170E047EE7C
:1001E00050E00E94A8100895FC01858161E00E9402
:1001F000A709089581EC91E00E94F40088EB92E059
:1002000064E170E047EE50E00E94F50F08950E940F
:10021000FA00089580EC91E070E00E949900089542
:10022000FC0184810E94460908950F931F938C015D
:100230008EE0F801848387E0858361E00E9468098D
:1002400088E090E0F8019183808384EF91E09383CC
:1002500082831F910F91089581EC91E00E94150116
:1002600008950F931F93CF93DF93EC018881882328
:1002700071F48E01085F1F4FC8010E949403882308
:1002800019F0C8010E945D0481E08B838883DF91AF
:10029000CF911F910F9108950F931F938C0181ECC3
:1002A00091E0F80164810E94DC00F801138217825A
:1002B00016821F910F910895CF93DF93EC0181EC8B
:1002C00091E06D810E940A01892B19F0CE010E94F4
:1002D00031018B81882349F4CE0108960E94E30501
:1002E000882351F18881882339F586E992E06BE50E
:1002F00071E00E94370ECE010E944C0121C081ECBA
:1003000091E06C810E94DC008091C1019091C2015A
:100310002E813F81820F931F9F838E8329813A8193
:10032000821793076CF018821F821E8281EC91E085
:100330006C810E94D70004C08881882301F7F6CF22
:10034000DF91CF91089508960E94AF030895AF9270
:10035000BF92CF92DF92EF92FF920F931F93CF93B2
:10036000DF938C017B016817790709F4A9C0DB01D1
:1003700014962D913C911597FC01828193818217EF
:10038000930788F5D080C18033832283C901880F09
:10039000991F880F991F0E944D0ED8018C931196BA
:1003A0009C93119714964D915C911597EC012D2D0E
:1003B0003C2DC901FC0120E030E00EC0209741F047
:1003C00080819181A281B38188839983AA83BB8331
:1003D0002F5F3F4F249634962417350778F38D2DE1
:1003E0009C2D0E944A0EF80164817581D7011496F4
:1003F000CD91DC9115976E016C177D0708F46B01A8
:1004000040E050E020E030E018C0F801A080B1806A
:10041000A20EB31EF701A081B181A20FB31F8D916F
:100420009D910D90BC91A02DF50180839183A283B5
:10043000B3834F5F5F4F2C5F3F4F4C155D0528F333
:100440006C177D0768F59B01220F331F220F331FA6
:10045000AB011EC0D801CD91DC91C20FD31FD701D3
:10046000ED91FC91209751F0E20FF31F8081918173
:10047000A281B38188839983AA83BB83F801848195
:1004800095810196958384834F5F5F4F2C5F3F4F2B
:10049000D70114968D919C91159748175907D0F262
:1004A000F80184819581D70114966D917C911597FF
:1004B0006817790728F46817790710F4758364833F
:1004C000C801DF91CF911F910F91FF90EF90DF90C6
:1004D000CF90BF90AF900895CF92DF92EF92FF92AE
:1004E0000F931F93DF93CF93CDB7DEB761970FB60E
:1004F000F894DEBF0FBECDBF8C01822FF80172834E
:10050000618310821382248345831782168261E0FF
:100510000E946809F801858160E00E9468097E01F7
:100520000894E11CF11CC7010E94AF0338E0C32E00
:10053000D12CC00ED11EC601B7010E94A701C8016F
:100540000F96BE01685F7F4F0E94A7018F85988933
:10055000F801978B868B8989808F888599850E9481
:100560004A0E89819A810E944A0EC6010E943C0669
:1005700061960FB6F894DEBF0FBECDBFCF91DF916D
:100580001F910F91FF90EF90DF90CF9008954F92C1
:100590005F926F927F928F929F92AF92BF92CF9213
:1005A000DF92EF92FF920F931F936C0181EC91E029
:1005B0000E9410017C01F60163817481882777FD18
:1005C0008095982F0E9422152B013C01F601658130
:1005D0007681882777FD8095982F0E9422154B0100
:1005E0005C010027F7FC0095102FC801B7010E949D
:1005F00022157B018C01F60167817085882777FDC4
:100600008095982F0E9422159B01AC01C801B7016B
:100610000E9487149B01AC01C501B4010E942B16F6
:100620009B01AC01C301B2010E941E141F910F91E6
:10063000FF90EF90DF90CF90BF90AF909F908F9002
:100640007F906F905F904F9008950E94C7029B012A
:10065000AC0160E070E08AE794E40E94871420E037
:1006600030E040E752E40E942B1620E030E040E00A
:100670005FE30E941F140E945D150E94EF14CB01DE
:10068000089580EF90E09093CB018093CA0188E2B7
:1006900090E09093C9018093C80188EC90E090931A
:1006A000CD018093CC018CEF93E09093CF018093A8
:1006B000CE01E7ECF1E01082CF010E942503909378
:1006C000D3018093D2010895CF93DF938091D0011D
:1006D0009091D1012091C1013091C201820F931FED
:1006E0009093D1018093D0011092C70187EC91E0E3
:1006F0000E942503EC018091D0019091D101C8178F
:10070000D9075CF481EC91E00E94070181E08093BD
:10071000C7011092D1011092D001D093D301C093A0
:10072000D201DF91CF91089584ED91E00E9490066F
:1007300008950F931F938C01FC011182108288E0B1
:1007400090E0938382831582148280E290E00E947D
:100750004D0EF801918380831F910F9108950F939F
:100760001F93DF93CF9300D0CDB7DEB78C01BE01CE
:100770006F5F7F4F0E949903C8010796BE016E5FAD
:100780007F4F0E9499030F900F90CF91DF911F919F
:100790000F9108950F931F93CF93DF93EC018A81FC
:1007A0009B818617970760F5188109817B836A838F
:1007B000CB01880F991F880F991F0E944D0E8883C7
:1007C00099836C817D81412F502F9A01E901FC01B1
:1007D00020E030E00EC0309741F088819981AA81F5
:1007E000BB8180839183A283B3832F5F3F4F249685
:1007F00034962617370778F3812F902F0E944A0EE0
:10080000DF91CF911F910F910895AF92BF92CF9238
:10081000DF92EF92FF920F931F93CF93DF938C01A0
:10082000EB017A01DC0114968D919C911597861746
:10083000970780F512968D919C91139786179707CD
:1008400028F4685F7F4FC8010E94CA03F801248121
:100850003581A901440F551F440F551F14C0D801FD
:10086000ED91FC91E40FF51F309749F0D701AD9061
:10087000BD90CD90DC90A082B182C282D3822F5FE6
:100880003F4F4C5F5F4F2C173D0748F3F801D5836E
:10089000C48308C06817790728F4D80115967C939B
:1008A0006E931497DF91CF911F910F91FF90EF906E
:1008B000DF90CF90BF90AF9008950F931F93DF9379
:1008C000CF9300D000D0CDB7DEB78C0184ED91E09E
:1008D0000E94880669837A838B839C83F8016385F1
:1008E00074856F5F7F4FC8010796AE014F5F5F4F02
:1008F0000E9405040F900F900F900F90CF91DF9101
:100900001F910F9108952F923F924F925F926F9295
:100910007F928F929F92AF92BF92CF92DF92EF928F
:10092000FF920F931F93DF93CF93CDB7DEB76097FE
:100930000FB6F894DEBF0FBECDBF2C01DC011B96B5
:100940008D919C911C97009709F424C114960D91E8
:100950001C911597080F191F80E090E0A0E0B0E00F
:100960008A839B83AC83BD831F821E821B861A866B
:10097000C801089699878887880F991F880F991F43
:100980000E944D0E9F838E83CE010696B801AE0164
:100990004E5F5F4F0E940504F20160807180848188
:1009A0009581880F991F880F991F860D971D988B29
:1009B0008F8787809084A385B485AA0FBB1FAA0F59
:1009C000BB1FA80DB91DBE87AD872E803F802AC0F2
:1009D000F401A080B180C280D380D301ED90FD905E
:1009E0000D911C91C601B501A80197010E948314C5
:1009F000882354F4F101A082B182C282D38284E0C0
:100A000090E0880E991E0AC0D101ED92FD920D93DF
:100A10001C931397E4E0F0E06E0E7F1E84E090E0FC
:100A2000280E391EAF85B8896A167B0619F4F301C2
:100A3000910110C0ED85FE858E169F0649F6F7CF11
:100A40004191519161917191D9014D935D936D9354
:100A50007D939D018F859889E817F90789F7E61935
:100A6000F709EC7FE20DF31D0AC0D4012D913D91F1
:100A70004D915D914D0121933193419351938D851A
:100A80009E858816990689F7CE010696481659065E
:100A900009F471C06A857B85C2010E94CA03D20134
:100AA00014968D919C9115976A857B85861797077B
:100AB00008F4BC0140E050E020E030E016C0D20174
:100AC000ED91FC91E20FF31FAE81BF81A20FB31F26
:100AD0008D919D910D90BC91A02D80839183A283D7
:100AE000B3834F5F5F4F2C5F3F4F4617570738F375
:100AF000F201648175818A859B856817790770F595
:100B0000AB01440F551F440F551F23C0D2012D9137
:100B10003C91240F351FEE81FF812115310559F0DD
:100B2000E40FF51F80819181A281B381F901808357
:100B30009183A283B383D20114968D919C911597D2
:100B4000019615969C938E9314976F5F7F4F4C5F21
:100B50005F4F8A859B8568177907C0F2F20124816F
:100B600035818A859B858217930728F4821793071E
:100B700010F495838483D2011B968D919C911C97D0
:100B8000892B21F01C961C921E921B978E819F81AF
:100B90000E944A0E60960FB6F894DEBF0FBECDBF1E
:100BA000CF91DF911F910F91FF90EF90DF90CF9049
:100BB000BF90AF909F908F907F906F905F904F907D
:100BC0003F902F900895CF92DF92EF92FF920F9374
:100BD0001F93CF93DF93EC0184ED91E00E94900688
:100BE000882309F43FC084ED91E00E9488066B01E0
:100BF0007C018E859F8597FF09C08091D401882351
:100C000089F11F861E86CE010E9483040E851F85F2
:100C1000C801880F991F880F991FE881F981E80F93
:100C2000F91FC701B60120813181428153810E94A1
:100C300027168823BCF08C819D810197081719071E
:100C400028F08FEF9FEF9F878E8704C00F5F1F4FA5
:100C50001F870E8786E992E066E671E00E94370EF4
:100C600081E001C080E0DF91CF911F910F91FF9053
:100C7000EF90DF90CF9008950F931F93DF93CF9362
:100C8000CDB7DEB728970FB6F894DEBF0FBECDBF45
:100C90008C0180E090E0A0E0B0E089839A83AB8390
:100CA000BC83F801648175816F5F7F4FC801AE011D
:100CB0004F5F5F4F0E94050480E090E0A0E0BFE33B
:100CC0008D839E83AF83B887F801648175816F5FE0
:100CD0007F4FC801AE014B5F5F4F0E9405048FEF4D
:100CE0009FEFF80197878687108A6481758186E96E
:100CF00092E04AE050E00E941A0E28960FB6F8944F
:100D0000DEBF0FBECDBFCF91DF911F910F91089530
:100D1000FC012489358946895789B901CA0108959A
:100D2000FC0181810895CF93DF93EC018C859D8533
:100D3000892B29F581EC91E06A850E940A01892BB3
:100D4000F1F08C859D852091C1013091C201820F07
:100D5000931F9D878C8781E00FC01D861C860BC06A
:100D60001216130644F48091C1019091C201820FC2
:100D7000931F9D878C8780E0DF91CF9108952C850C
:100D80003D858091C3019091C4012817390744F330
:100D9000E4CFCF93DF93EC0188859985892B29F5E2
:100DA00081EC91E06E810E940A01892BF1F0888527
:100DB00099852091C1013091C201820F931F9987BB
:100DC000888781E00FC0198618860BC0121613069B
:100DD00044F48091C1019091C201820F931F9987C1
:100DE000888780E0DF91CF910895288539858091AB
:100DF000C3019091C4012817390744F3E4CF0F933E
:100E00001F938C0186E992E06BE771E00E94370E38
:100E1000F8011786118A108A1F910F910895FC011D
:100E20008685882361F48785882361F481E086873D
:100E300086E992E066E871E00E94370E0895168612
:100E400081E087870895CF92DF92EF92FF920F9310
:100E50001F93CF93DF93EC018981882391F187EC75
:100E600091E00E9425036C016091C1017091C20163
:100E7000882777FD8095982F0E9422157B018C0191
:100E800088899989C89EB001C99E700DD89E700D41
:100E90001124882777FD8095982F0E9422159B01A9
:100EA000AC01C801B7010E9487149B01AC016C8999
:100EB0007D898E899F890E941F146C8B7D8B8E8B00
:100EC0009F8BDF91CF911F910F91FF90EF90DF905B
:100ED000CF900895FC0110828685882351F080917F
:100EE000C701882331F0808991890196918B808B8D
:100EF00023C08091C7018823F9F087858823E1F01A
:100F000081E0818322893389808991892817390773
:100F100011F037FF0CC0138A128A80E090E0A0E045
:100F2000B0E0848B958BA68BB78B81E08083828920
:100F300093890196938B828B8785882319F0CF0143
:100F40000E9423070895CF93DF93EC010E94C90606
:100F5000882319F0CE010E940F07CE010E9493064C
:100F6000882319F0CE010E94FF06CE010E946A0775
:100F7000DF91CF9108950F931F938C01862FF80175
:100F8000668377835387428760E00E946809F8018F
:100F9000828560E00E946809F80115861486118632
:100FA00010861786118A108A8FEF9FEF938B828BA2
:100FB00080E090E0A0E0B0E0848B958BA68BB78BAF
:100FC0001F910F91089584ED91E06AE070E04BE08D
:100FD00050E00E94BB0708958130910541F46F5F96
:100FE0007F4FB1F48CEE91E00E94A3010895892B0C
:100FF00079F46F5F7F4F61F48091FB019091FC0168
:101000000E944A0E8091F4019091F5010E944A0ECF
:10101000089580E090E06FEF7FEF0E94EC07089565
:1010200081E090E06FEF7FEF0E94EC07089588EB7E
:1010300092E00E94A80F08958CEE91E00E945C015E
:1010400008950E94640384ED91E00E94A30708952F
:101050000F931F9386E992E040E855E260E070E06C
:101060000E94BA0B80EC91E00E94A9008CEE91E006
:1010700064E670E048E029E00E946C0208EB12E0B0
:10108000C8010E948D0F6091C1017091C201C80119
:1010900041E258E00E94F50F6091C1017091C201D8
:1010A000C8014CE158E00E94F50FC8010E94A20F50
:1010B0001F910F910895CF93DF930E940B090E9417
:1010C0002808CCE6DBE00E9417082097E1F30E9495
:1010D0006C0BF9CF1F920F920FB60F9211242F9322
:1010E0003F938F939F93AF93BF9380910902909109
:1010F0000A02A0910B02B0910C0230910D020196F0
:10110000A11DB11D232F2D5F2D3720F02D570196E6
:10111000A11DB11D20930D028093090290930A0234
:10112000A0930B02B0930C028091050290910602ED
:10113000A0910702B09108020196A11DB11D8093F4
:10114000050290930602A0930702B0930802BF9194
:10115000AF919F918F913F912F910F900FBE0F9064
:101160001F9018959B01AC017FB7F8948091050200
:1011700090910602A0910702B091080266B5A89B63
:1011800005C06F3F19F00196A11DB11D7FBFBA2F99
:10119000A92F982F8827860F911DA11DB11D62E0F0
:1011A000880F991FAA1FBB1F6A95D1F7BC012DC0DC
:1011B000FFB7F8948091050290910602A091070272
:1011C000B0910802E6B5A89B05C0EF3F19F0019663
:1011D000A11DB11DFFBFBA2FA92F982F88278E0FF1
:1011E000911DA11DB11DE2E0880F991FAA1FBB1F11
:1011F000EA95D1F7861B970B885E9340C8F2215081
:1012000030404040504068517C4F21153105410528
:10121000510571F60895789484B5826084BD84B5D3
:10122000816084BD85B5826085BD85B5816085BDE1
:10123000EEE6F0E0808181608083E1E8F0E01082FA
:10124000808182608083808181608083E0E8F0E03B
:10125000808181608083E1EBF0E080818460808325
:10126000E0EBF0E0808181608083EAE7F0E080815C
:1012700084608083808182608083808181608083BC
:101280008081806880831092C1000895982F8E30ED
:1012900008F09E509770809199018295880F880F71
:1012A000807C892B80937C0080917A00806480937D
:1012B0007A0080917A0086FDFCCF209178004091E1
:1012C0007900942F80E030E0282B392BC901089554
:1012D000CF93DF93482F50E0CA0186569F4FFC0101
:1012E00034914A575F4FFA018491882369F190E065
:1012F000880F991FFC01E859FF4FA591B491FC019B
:10130000EE58FF4FC591D491662351F42FB7F8944E
:101310008C91932F909589238C93888189230BC07E
:10132000623061F42FB7F8948C91932F90958923B4
:101330008C938881832B88832FBF06C09FB7F89436
:101340008C91832B8C939FBFDF91CF910895482F71
:1013500050E0CA0182559F4FFC012491CA01865674
:101360009F4FFC0194914A575F4FFA013491332308
:1013700009F440C0222351F1233071F0243028F4C5
:101380002130A1F0223011F514C02630B1F0273001
:10139000C1F02430D9F404C0809180008F7703C05D
:1013A000809180008F7D8093800010C084B58F77FE
:1013B00002C084B58F7D84BD09C08091B0008F7755
:1013C00003C08091B0008F7D8093B000E32FF0E0E8
:1013D000EE0FFF1FEE58FF4FA591B4912FB7F89471
:1013E000662321F48C919095892302C08C91892BDE
:1013F0008C932FBF08950F931F93CF93DF93BC015E
:101400008230910510F462E070E0E091AE03F0915B
:10141000AF03A0E0B0E040E050E024C080819181C3
:1014200086179707D0F08617970771F4828193810A
:10143000109729F013969C938E9312972CC090933B
:10144000AF038093AE0327C04115510519F08417EF
:10145000950718F4EF018D01AC01DF0182819381C2
:101460009C01F9013097D1F641155105F9F0CA01F7
:10147000861B970B8430910580F48A819B8101152E
:10148000110521F0F8019383828304C09093AF0388
:101490008093AE03FE01329645C0FE01E80FF91FAE
:1014A000619371930297998388833CC08091AC03C8
:1014B0009091AD03892B41F480919C0190919D0105
:1014C0009093AD038093AC0340919E0150919F0196
:1014D0004115510541F44DB75EB780919A01909145
:1014E0009B01481B590B2091AC033091AD0324178D
:1014F0003507B0F4CA01821B930B8617970780F05B
:10150000AB014E5F5F4F8417950750F0420F531F9A
:101510005093AD034093AC03F9016193719302C002
:10152000E0E0F0E0CF01DF91CF911F910F9108959E
:10153000CF93DF939C01009709F48FC0EC012297B1
:101540001B821A826091AE037091AF036115710521
:1015500081F488819981820F931F2091AC0330918F
:10156000AD032817390739F5D093AD03C093AC0309
:1015700074C0DB0140E050E0AC17BD0708F1BB834D
:10158000AA83FE0121913191E20FF31FAE17BF072D
:1015900079F48D919C911197280F391F2E5F3F4F41
:1015A0003983288312968D919C9113979B838A830C
:1015B0004115510571F4D093AF03C093AE034DC0F4
:1015C00012968D919C911397AD01009711F0DC015B
:1015D000D3CFDA011396DC93CE931297FA012191BF
:1015E0003191E20FF31FCE17DF0769F488819981EB
:1015F000280F391F2E5F3F4FFA01318320838A81E4
:101600009B8193838283E0E0F0E0DB0112968D9171
:101610009C911397009719F0BC01FD01F6CFAB0127
:101620004E5F5F4FDB018D919C91840F951F209140
:10163000AC033091AD032817390779F4309729F4BA
:101640001092AF031092AE0302C013821282425076
:1016500050405093AD034093AC03DF91CF91089578
:1016600008951F920F920FB60F9211242F933F935C
:101670004F938F939F93EF93FF938091C00082FDD0
:101680001DC04091C60020914E0230914F022F5F45
:101690003F4F2F7330708091500290915102281764
:1016A000390771F0E0914E02F0914F02E25FFD4F79
:1016B000408330934F0220934E0202C08091C600B7
:1016C000FF91EF919F918F914F913F912F910F90AB
:1016D0000FBE0F901F901895E091A202F091A30207
:1016E000E05CFF4F8191919120813181821B930BAE
:1016F0008F739070892B11F00E94300B08951F9208
:101700000F920FB60F9211242F933F938F939F93B5
:10171000EF93FF9320919202309193028091940273
:10172000909195022817390731F48091C1008F7D7F
:101730008093C10014C0E0919402F0919502EE5A9A
:10174000FD4F2081809194029091950201968F73B4
:10175000907090939502809394022093C600FF911D
:10176000EF919F918F913F912F910F900FBE0F900E
:101770001F901895AF92BF92DF92EF92FF920F9356
:101780001F93CF93DF93EC017A018B01DD2440306E
:1017900081EE580780E0680780E0780711F0DD24CB
:1017A000D39491E0A92EB12CEC89FD89DD2069F05C
:1017B000C50108A002C0880F991F0A94E2F7808330
:1017C00060E079E08DE390E005C0108260E874E8A5
:1017D0008EE190E0A80197010E94AD1621503040A3
:1017E00040405040569547953795279580E12030E9
:1017F000380720F0DD2011F0DD24D6CFE889F98903
:101800003083EA89FB89208319A2EE89FF89408110
:1018100021E030E0C9010C8C02C0880F991F0A94A6
:10182000E2F7482B4083EE89FF894081C9010D8C86
:1018300002C0880F991F0A94E2F7482B4083EE8973
:10184000FF894081C9010E8C02C0880F991F0A943C
:10185000E2F7482B4083EE89FF8980810F8C02C01C
:10186000220F331F0A94E2F7209528232083DF916B
:10187000CF911F910F91FF90EF90DF90BF90AF90AD
:101880000895DC011C96ED91FC911D97E05CFF4FE3
:101890002191319180819181281B390B2F733070F8
:1018A000C9010895DC011C96ED91FC911D97E05C47
:1018B000FF4F20813181E054F040DF01AE5BBF4F2C
:1018C0008D919C9111972817390719F42FEF3FEF4D
:1018D00007C08D919C91E80FF91F8081282F30E07F
:1018E000C9010895DC011C96ED91FC911D97E05C07
:1018F000FF4F20813181E054F040DF01AE5BBF4FEC
:101900008D919C9111972817390719F42FEF3FEF0C
:1019100010C08D919C911197E80FF91F20818D9136
:101920009C91119701968F73907011969C938E9352
:1019300030E0C9010895DC0191968C91919788233C
:1019400039F05496ED91FC915597808186FFF9CF3F
:1019500091961C920895CF93DF93EC01EE85FF855D
:10196000E05CFF4F20813181E054F0402F5F3F4F1A
:101970002F733070DF01AE5BBF4F8D919C9111973B
:1019800028173907D1F3E05CFF4F80819181E05443
:10199000F040E80FF91F6083EE85FF85E05CFF4FA4
:1019A00031832083EE89FF89208181E090E00F8CD4
:1019B00002C0880F991F0A94E2F7282B208381E048
:1019C00089A3EC89FD8980818064808381E090E037
:1019D000DF91CF910895109299021092980288EEAB
:1019E00093E0A0E0B0E080939A0290939B02A093D2
:1019F0009C02B0939D0284EA91E0909397028093B9
:101A000096028EE092E09093A3028093A20282E578
:101A100092E09093A5028093A40285EC90E09093CD
:101A2000A7028093A60284EC90E09093A902809391
:101A3000A80280EC90E09093AB028093AA0281EC24
:101A400090E09093AD028093AC0282EC90E0909392
:101A5000AF028093AE0286EC90E09093B102809347
:101A6000B00284E08093B20283E08093B30287E007
:101A70008093B40285E08093B50281E08093B60242
:101A80000895CF92DF92EF92FF920F931F93CF931F
:101A9000DF937C016B018A01C0E0D0E00FC0D6016A
:101AA0006D916D01D701ED91FC910190F081E02DD8
:101AB000C7010995C80FD91F015010400115110524
:101AC00071F7CE01DF91CF911F910F91FF90EF90B1
:101AD000DF90CF900895EF92FF920F931F938C01A8
:101AE000DC01ED91FC910190F081E02D6DE0099514
:101AF0007C01D801ED91FC910190F081E02DC801AD
:101B00006AE009959C012E0D3F1DC9011F910F919F
:101B1000FF90EF900895CF93DF93EC01611571056D
:101B200019F420E030E00FC0DB010D900020E9F750
:101B30001197A61BB70BE881F9810280F381E02D94
:101B4000AD0109959C01C901DF91CF9108954F9294
:101B50005F927F928F929F92AF92BF92CF92DF92CD
:101B6000EF92FF920F931F93DF93CF93CDB7DEB722
:101B7000A1970FB6F894DEBF0FBECDBF2C01742E17
:101B8000CB01223008F42AE019A231E2C32ED12C75
:101B9000CC0EDD1E822E9924AA24BB24672D752F1E
:101BA000A50194010E94AD1679018A01C801B7010F
:101BB000A50194010E948E16472D461B0894C1086A
:101BC000D1084A3014F4405D01C0495CF6014083FD
:101BD000E114F1040105110521F07E2C5F2DC801EF
:101BE000DDCFC201B6010E948B0DA1960FB6F8940D
:101BF000DEBF0FBECDBFCF91DF911F910F91FF9040
:101C0000EF90DF90CF90BF90AF909F908F907F909C
:101C10005F904F900895DC012115310541F4ED915D
:101C2000FC910190F081E02D642F099508950E94A8
:101C3000A70D0895CF92DF92EF92FF920F931F931B
:101C40006C017B019A0100E010E0B801A7010E943D
:101C50000B0E8C01C6010E946B0D080F191FC801E5
:101C60001F910F91FF90EF90DF90CF900895EF922A
:101C7000FF920F931F937C010E948B0D8C01C70173
:101C80000E946B0D080F191FC8011F910F91FF9043
:101C9000EF9008950E94980A08950E94FB09089504
:101CA0000895EF92FF920F931F93FC01F62EE42EFE
:101CB00002E313E06081772767FD7095C8010E94F9
:101CC000D110C8016F2D0E945311C8016E2D0E94C2
:101CD0005311C8010E9496111F910F91FF90EF9030
:101CE0000895FF920F931F93CF93DF93EC01F62E8D
:101CF000042F11E4CE01612F4F2D0E94510E1F5F62
:101D0000CE01612F402F0E94510E1F5F193591F7B0
:101D1000DF91CF911F910F91FF900895DF92EF9285
:101D2000FF920F931F938C01D62E82E3E82E83E05F
:101D3000F82EF8016081772767FD7095C7010E9432
:101D4000D110C7016D2D0E945311C70160E00E94A0
:101D50008311F8016081772767FD7095C70142E024
:101D600050E00E94A711C7010E94E4108C01C70136
:101D70000E94E410382F20E0202B312BC9011F9145
:101D80000F91FF90EF90DF90089560E00E948E0E1B
:101D90009C013F70C9010895DF92EF92FF920F936B
:101DA0001F937C01D62E02E313E0FC0160817727AC
:101DB00067FD7095C8010E94D110C8016D2D0E9469
:101DC0005311C80160E00E948311F70160817727F9
:101DD00067FD7095C80141E050E00E94A711C8015D
:101DE0000E94E4101F910F91FF90EF90DF900895F3
:101DF0001F93CF93DF93EC01162F82E393E00E94B1
:101E0000AB111883CE0160E843E60E94510E61E0F9
:101E100070E080E090E00E94B208CE016EE540E004
:101E20000E94510ECE016DE50E94CC0E843211F05D
:101E300080E051C0CE016CE046E00E94710ECE0100
:101E40006BE241E00E94510ECE016CE241E00E9443
:101E5000510ECE016DE24EE00E94510ECE016EE2B7
:101E600040E00E94510ECE016FE241E00E94510E0F
:101E7000CE0160E345E00E94510ECE0161E341E0F6
:101E80000E94510ECE0162E340E00E94510ECE014D
:101E900063E340E00E94510ECE0164E340E00E9403
:101EA000510ECE0165E340E00E94510ECE016BE57C
:101EB00040E00E94510ECE016CE540E10E94510EBF
:101EC000CE016DE540E20E94510ECE016EE54FE875
:101ED0000E94510E81E0DF91CF911F9108951F92D2
:101EE0000F920FB60F9211248F939F93EF93FF934E
:101EF0008091EB028F5F8093EB02E8EBF2E0808150
:101F00009181019691838083FF91EF919F918F91B1
:101F10000F900FBE0F901F901895F89410928000AC
:101F200088E1809381008FE79EE390938700809300
:101F3000860080E280936F001092850010928400EA
:101F400078940895E1E8F0E08081816080830895CD
:101F5000EF92FF921F93CF93DF93EC018BA988231D
:101F6000F1F1E82EFF241BAA10E036C0412F50E00B
:101F7000FA01EE0FFF1FE40FF51FDF01AA0FBB1FD1
:101F8000AC0FBD1F14962D913C9115972E193F094A
:101F900015963C932E93149712161306E4F031967F
:101FA000EE0FFF1FEC0FFD1F80819181280F391F5D
:101FB00015963C932E931497CA010196FC01EE0FDF
:101FC000FF1FE80FF91FEE0FFF1FEC0FFD1F019021
:101FD000F081E02D09951F5F8AA9181738F2DF916B
:101FE000CF911F91FF90EF9008950F931F93CF9380
:101FF000DF93EC018A014AA910C0F901EE0FFF1F1F
:10200000E20FF31F3196EE0FFF1FEC0FFD1F86E06E
:102010000D9001928150E1F741504423A1F0242F0B
:1020200030E0C9010197DC01AA0FBB1FA80FB91F3F
:102030001196AA0FBB1FAC0FBD1F8D919C911197DC
:1020400068177907D4F28AA98F5F8AAB242F30E012
:10205000C9010196FC01EE0FFF1FE80FF91FEE0FFB
:10206000FF1FEC0FFD1F11830083F901EE0FFF1F0F
:10207000E20FF31FDF01AA0FBB1FAC0FBD1F1596A8
:102080007C936E9314973196EE0FFF1FEC0FFD1F9C
:1020900071836083DF91CF911F910F910895CF934A
:1020A000DF93EC01DB017AA960E0462F50E0FA01F2
:1020B000EE0FFF1FE40FF51F3196EE0FFF1FEC0F21
:1020C000FD1F2D913C91119780819181281739072F
:1020D000A1F4CA010196FC01EE0FFF1FE80FF91FE2
:1020E000EE0FFF1FEC0FFD1F14962D913C911597DD
:1020F000808191812817390719F06F5F7617A8F64C
:10210000671718F571507AAB1DC0862F90E0DC017F
:10211000AA0FBB1FA80FB91F1196AA0FBB1F0196CC
:10212000FC01EE0FFF1FE80FF91F3196EE0FFF1FA6
:10213000AC0FBD1FEC0FFD1F86E001900D9281508A
:10214000E1F76F5F8AA9681700F3DF91CF910895D7
:10215000DF93CF9300D000D000D0CDB7DEB77A8325
:1021600069837C836B835E834D83BE016F5F7F4F8A
:102170000E944F1026960FB6F894DEBF0FBECDBF5B
:10218000CF91DF910895EAEBF2E011821082138281
:10219000128215821482369682E0EA3EF807A9F789
:1021A000089581E08093310360930E0310922F0312
:1021B00010923003089520910D0330E080910C03BC
:1021C000281B3109C901089540910C0380910D032A
:1021D000481718F02FEF3FEF0AC0E42FF0E0E4516A
:1021E000FD4F8081282F30E04F5F40930C03C901E1
:1021F0000895E0910C0380910D03E81718F0EFEFBC
:10220000FFEF06C0F0E0E451FD4F8081E82FF0E0E1
:10221000CF0108950895109235031092340388EE8B
:1022200093E0A0E0B0E08093360390933703A0934F
:102230003803B093390384EB91E090933303809398
:1022400032030895CF92DF92EF92FF920F931F9384
:10225000CF93DF937C016B018A0180913103882346
:10226000A1F0C0E0D0E00DC0D701ED91FC91D60106
:10227000AC0FBD1F0190F081E02DC7016C91099555
:102280002196C017D10780F304C0CB01642F0E94B0
:102290005412C801DF91CF911F910F91FF90EF90E1
:1022A000DF90CF900895DF93CF930F92CDB7DEB735
:1022B000FC016983809131038823C9F08091300348
:1022C000803238F081E090E09383828320E030E038
:1022D00015C080912F03E82FF0E0E15FFC4F99815A
:1022E00090838F5F80932F038093300305C0CE01CE
:1022F000019661E00E94541221E030E0C9010F9084
:10230000CF91DF9108950F93062F80910E036FE018
:1023100073E04091300321E00E94FF1110922F03DF
:1023200010923003109231030F91089561E00E94E2
:1023300083110895413208F040E2862F6CEE72E07E
:102340000E94B61110920C0380930D03089521E0B2
:102350000E949A11089510920C0310920D0310928E
:102360002F03109230030E9400140895382F413239
:1023700010F040E042C080913E038823E1F791E0F5
:1023800090933E03209340038FEF8093AB03109212
:1023900066034150409367034F5F90933F038091E2
:1023A0003F03330F832B80933F03809141038130A0
:1023B00041F41092410380913F038093BB0085EC70
:1023C00001C085EE8093BC0080913E038130E1F333
:1023D00080916603841710F44091660320E030E09A
:1023E0000AC0FB01E20FF31FD901AA5BBC4F8C911D
:1023F00080832F5F3F4F2417A0F3842F08950F93FE
:102400001F93582F122F413210F081E04AC0809163
:102410003E038823E1F782E080933E03009340036C
:102420008FEF8093AB031092660340936703A6E49B
:10243000B3E0FB0102C081918D938E2F861B841720
:10244000D0F310923F0380913F03550F852B80936B
:102450003F0380914103813041F410924103809108
:102460003F038093BB0085EC01C085EE8093BC00E8
:10247000112321F080913E038230E1F38091AB0380
:102480008F3F11F480E00DC08091AB03803211F4D6
:1024900082E007C08091AB03803311F084E001C07B
:1024A00083E01F910F910895482F613210F081E071
:1024B000089580913E03843011F082E00895609386
:1024C0008903A8E6B3E0842F9C01F90102C0819141
:1024D0008D938E2F841B8617D0F380E008951F9272
:1024E0000F920FB60F9211242F933F934F935F9348
:1024F0006F937F938F939F93AF93BF93EF93FF93CC
:102500008091B90090E0887F90708036910509F441
:10251000F2C081369105CCF58832910509F47BC073
:1025200089329105B4F48031910509F46FC081318D
:1025300091053CF4009709F447C1089709F04FC191
:1025400065C08831910509F466C0809709F047C1DC
:1025500082C08034910509F4A4C08134910544F40B
:102560008033910509F482C0C89709F038C189C049
:102570008035910509F489C08835910509F496C024
:102580008834910509F02BC1AEC08839910509F452
:1025900013C189399105ECF48837910509F4ABC072
:1025A000893791054CF48836910509F4A4C0803729
:1025B000910509F014C19FC08838910509F4FCC049
:1025C0008039910509F49DC08038910509F007C153
:1025D00098C0803B910509F4C6C0813B91054CF43D
:1025E000803A910509F49FC0883A910509F0F7C037
:1025F000BAC0803C910509F4E3C0883C910509F418
:10260000DFC0883B910509F0EAC0C2C080913F035A
:102610008093BB00CFC090916603809167039817A9
:1026200068F490916603E92FF0E0EA5BFC4F80814B
:102630008093BB009F5F90936603BCC08091400372
:10264000882309F44BC085ED8093BC008091BC00C9
:1026500084FDFCCFC2C080E28093AB0385ED809304
:10266000BC008091BC0084FDFCCFB7C080E38093A8
:10267000AB0385ED8093BC008091BC0084FDFCCF52
:10268000ACC088E38093AB039BC0809166039091BC
:10269000BB00E82FF0E0EA5BFC4F90838F5F8093F4
:1026A0006603909166038091670382C08091660300
:1026B0009091BB00E82FF0E0EA5BFC4F90838F5FC6
:1026C0008093660380914003882341F085ED8093D9
:1026D000BC008091BC0084FDFCCF7FC081E0809372
:1026E000410384EA6EC085ED8093BC008091BC00FC
:1026F00084FDFCCF72C083E080933E031092AA0356
:1027000059C08091AA03803208F056C08091AA0374
:102710009091BB00E82FF0E0E657FC4F90838F5F6D
:102720008093AA0347C08091AA03803230F4E091DD
:10273000AA03F0E0E657FC4F108285ED8093BC00C1
:102740008091BC0084FDFCCF10923E036091AA03EF
:10275000E0914403F09145038AE893E070E0099525
:102760001092AA032DC084E080933E031092880348
:1027700010928903E0914203F091430309958091FF
:102780008903882329F481E08093890310926803E8
:1027900090918803E92FF0E0E859FC4F8081809305
:1027A000BB009F5F90938803909188038091890379
:1027B000981710F485EC01C085E88093BC000FC029
:1027C00085EC8093BC0009C01092AB0385ED80932B
:1027D000BC008091BC0084FDFCCF10923E03FF91B1
:1027E000EF91BF91AF919F918F917F916F915F9189
:1027F0004F913F912F910F900FBE0F901F90189502
:1028000010923E0381E0809340031092410382E1E5
:1028100061E00E94A70983E161E00E94A709E9EB5A
:10282000F0E080818E7F808380818D7F808388E44B
:102830008093B80085E48093BC0008955058BB276E
:10284000AA270ED0B3C1A4D130F0A9D120F031F421
:102850009F3F11F41EF499C10EF4E095E7FB64C1AB
:10286000E92FB5D180F3BA1762077307840795077C
:1028700018F071F49EF5E4C10EF4E0950B2EBA2F1A
:10288000A02D0B01B90190010C01CA01A001112476
:10289000FF27591B99F0593F50F4503E68F11A1622
:1028A000F040A22F232F342F4427585FF3CF4695B3
:1028B00037952795A795F0405395C9F77EF41F16D5
:1028C000BA0B620B730B840BBAF09150A1F0FF0F9F
:1028D000BB1F661F771F881FC2F70EC0BA0F621F8B
:1028E000731F841F48F4879577956795B795F7957B
:1028F0009E3F08F0B3CF9395880F08F09927EE0F0D
:10290000979587950895ECD008F481E008950CD050
:102910004DC145D140F03CD130F021F45F3F19F07A
:1029200003C151118EC131C152D198F39923C9F31A
:102930005523B1F3951B550BBB27AA2762177307C5
:10294000840738F09F5F5F4F220F331F441FAA1F79
:10295000A9F333D00E2E3AF0E0E830D09150504039
:10296000E695001CCAF729D0FE2F27D0660F771FE7
:10297000881FBB1F261737074807AB07B0E809F0C9
:10298000BB0B802DBF01FF2793585F4F2AF09E3F5E
:10299000510568F0C9C055C15F3FECF3983EDCF3C8
:1029A000869577956795B795F7959F5FC9F7880FD7
:1029B000911D9695879597F90895E1E0660F771F29
:1029C000881FBB1F621773078407BA0720F0621BBA
:1029D000730B840BBA0BEE1F88F7E095089504D0B3
:1029E0006894B1112EC10895FAD088F09F5790F0E5
:1029F000B92F9927B751A0F0D1F0660F771F881F24
:102A0000991F1AF0BA95C9F712C0B13081F018D1E8
:102A1000B1E0089515C1672F782F8827B85F39F086
:102A2000B93FCCF3869577956795B395D9F73EF482
:102A300090958095709561957F4F8F4F9F4F08952A
:102A4000E89409C097FB3EF4909580957095619548
:102A50007F4F8F4F9F4F9923A9F0F92F96E9BB27FE
:102A60009395F695879577956795B795F111F8CF7A
:102A7000FAF4BB0F11F460FF1BC06F5F7F4F8F4FE5
:102A80009F4F16C0882311F096E911C0772321F0DB
:102A90009EE8872F762F05C0662371F096E8862F73
:102AA00070E060E02AF09A95660F771F881FDAF7CA
:102AB000880F9695879597F90895ABD080F09F374A
:102AC00040F491110EF0BDC060E070E080E89FEB33
:102AD000089526F41B16611D711D811D2BC045C074
:102AE000990F0008550FAA0BE0E8FEEF161617061F
:102AF000E807F907C0F012161306E407F50798F087
:102B0000621B730B840B950B39F40A2661F0232B9F
:102B1000242B252B21F408950A2609F4A140A6951B
:102B20008FEF811D811D089597F99F6780E870E000
:102B300060E00895882371F4772321F09850872B63
:102B4000762F07C0662311F499270DC09051862B6C
:102B500070E060E02AF09A95660F771F881FDAF719
:102B6000880F9695879597F908959F3F49F0915062
:102B700028F4869577956795B7959F5F80389F4F26
:102B8000880F9695879597F908959FEF80EC0895A3
:102B900000240A941616170618060906089500243C
:102BA0000A9412161306140605060895092E0394B6
:102BB000000C11F4882352F0BB0F40F4BF2B11F42A
:102BC00060FF04C06F5F7F4F8F4F9F4F089557FD89
:102BD0009058440F551F59F05F3F71F04795880F8B
:102BE00097FB991F61F09F3F79F087950895121622
:102BF00013061406551FF2CF4695F1DF08C01616CE
:102C000017061806991FF1CF86957105610508947E
:102C10000895E5DFA0F0BEE7B91788F4BB279F3819
:102C200060F41616B11D672F782F8827985FF7CFAD
:102C3000869577956795B11D93959639C8F3089554
:102C4000E894BB2766277727CB0197F9089548DFDB
:102C500008F48FEF08950BD0A9CF9ADF28F09FDFFB
:102C600018F0952309F060CF90CF1124EACFAFDFA1
:102C7000A0F3959FD1F3950F50E0551F629FF0018F
:102C8000729FBB27F00DB11D639FAA27F00DB11DE8
:102C9000AA1F649F6627B00DA11D661F829F222771
:102CA000B00DA11D621F739FB00DA11D621F839FF8
:102CB000A00D611D221F749F3327A00D611D231FCE
:102CC000849F600D211D822F762F6A2F11249F571C
:102CD00050408AF0E1F088234AF0EE0FFF1FBB1F3F
:102CE000661F771F881F91505040A9F79E3F5105DE
:102CF00070F01ACFA6CF5F3FECF3983EDCF38695D9
:102D000077956795B795F795E7959F5FC1F7FE2B88
:102D1000880F911D9695879597F90895629FD00128
:102D2000739FF001829FE00DF11D649FE00DF11D86
:102D3000929FF00D839FF00D749FF00D659FF00D35
:102D40009927729FB00DE11DF91F639FB00DE11D22
:102D5000F91FBD01CF0111240895A1E21A2EAA1B6B
:102D6000BB1BFD010DC0AA1FBB1FEE1FFF1FA2173B
:102D7000B307E407F50720F0A21BB30BE40BF50B38
:102D8000661F771F881F991F1A9469F760957095C1
:102D9000809590959B01AC01BD01CF010895EE0F88
:102DA000FF1F0590F491E02D099410E0C2EDD0E0F2
:102DB00004C0FE010E94D1162296C43DD107C9F776
:042DC000F894FFCFB5
:102DC4004164616672756974204D5052313231200C
:102DD4004361706163697469766520546F756368D3
:102DE4002073656E736F722074657374004D505256
:102DF400313231206E6F7420666F756E642C2063DF
:102E04006865636B20776972696E673F004D505245
:102E140031323120666F756E6421004F75747075A0
:102E2400742048697400547269676765722052653A
:102E3400636F726465642048697400436C656172F1
:102E4400204C6F6F700053746172742073657474D6
:102E5400696E67206C6F6F7000018000B003000022
:102E640000000000AB0C410D410C720C520C9B0C89
:102E74000000000053112211DB10E410F9100A11B4
:00000001FF
