:100000000C9468000C9490000C9490000C94900058
:100010000C9490000C9490000C9490000C94900020
:100020000C9490000C9490000C94E70A0C949000AF
:100030000C9490000C9490000C9490000C94900000
:100040000C943C060C9490000C94C8070C94160871
:100050000C9490000C9490000C9490000C949000E0
:100060000C9490000C9490000000000024002700E5
:100070002A0000000000250028002B0000000000DE
:1000800023002600290004040404040404040202DA
:100090000202020203030303030301020408102007
:1000A0004080010204081020010204081020000012
:1000B0000007000201000003040600000000000029
:1000C0000000E500D9029F05D00582093B0CC90557
:1000D00011241FBECFEFD8E0DEBFCDBF11E0A0E0FE
:1000E000B1E0ECE7F0E202C005900D92A632B10754
:1000F000D9F712E0A6E2B1E001C01D92A036B10727
:10010000E1F710E0CEECD0E004C02297FE010E949F
:100110002D10C23CD107C9F70E942D060C94311056
:100120000C940000862F60E00E9420070895862F1F
:1001300061E00E9420070895FC01858160E00E9433
:100140002007089586E291E00E949C0088E292E0F8
:1001500064E170E042EA50E00E94200C0895FC0146
:10016000858161E00E942007089586E291E00E9467
:10017000AF0088E292E064E170E042EA50E00E9461
:100180006D0B08950E94B5000895862F0E94740794
:100190000895FC0184810E94BF0608950F931F9368
:1001A0008C018EE0F801848387E0858361E00E9402
:1001B000E10688E090E0F8019183808388EC90E08C
:1001C000938382831F910F91089586E291E00E94AC
:1001D000CE0008950F931F93CF93DF93EC01888196
:1001E000882371F48E01085F1F4FC8010E942D0300
:1001F000882319F0C8010E942C0381E08B83888337
:10020000DF91CF911F910F9108950F931F938C0150
:1002100086E291E0F80164810E949700F801138260
:10022000178216821F910F910895CF93DF93EC01EF
:1002300086E291E06D810E94C500892B19F4CE0100
:100240000E94EA008B81882331F4CE0108960E9437
:100250003203882309F1CE010E94050121C086E204
:1002600091E06C810E949700809126019091270176
:100270002E813F81820F931F9F838E8329813A8134
:10028000821793076CF018821F821E8286E291E02B
:100290006C810E94920004C08881882301F7F6CF08
:1002A000DF91CF91089508960E9474030895CF922C
:1002B000DF92EF92FF920F931F93DF93CF93CDB70F
:1002C000DEB72A970FB6F894DEBF0FBECDBF7C0114
:1002D000822FD70112967C936E9311971C921396DE
:1002E0001C92139714962C93149715964C9315976C
:1002F00017961C921E92169761E00E94E106F70184
:10030000858160E00E94E1068E010F5F1F4FC801EA
:100310000E947403C70108960817190709F4AEC0B4
:100320002D813E81D7011A968D919C911B97821742
:100330009307C8F518960D911C9119971B963C933D
:100340002E931A97C901880F991F880F991F0E9431
:10035000E40AF70191878087C484D58460E070E067
:1003600040E050E01AC0D70118962D913C911997A2
:10037000240F351F2115310561F0F801E40FF51F39
:1003800080819181A281B381F90180839183A283CD
:10039000B3836F5F7F4F4C5F5F4F6C157D0518F324
:1003A000C8010E94E10AD7011C964D915C911D97EE
:1003B0000D811E814017510708F48A0160E070E04A
:1003C00020E030E018C0D7011896ED91FC91199704
:1003D000E20FF31FA981BA81A20FB31F8D919D91E6
:1003E0000D90BC91A02D80839183A283B3836F5F16
:1003F0007F4F2C5F3F4F6017710728F38D819E81DF
:100400004817590770F5BA01660F771F660F771FF7
:1004100023C0F70120853185260F371FE981FA8136
:100420002115310559F0E60FF71F80819181A281D6
:10043000B381F90180839183A283B383D7011C9692
:100440008D919C911D9701961D969C938E931C9760
:100450004F5F5F4F6C5F7F4F8D819E8148175907BB
:10046000C0F2F701248535858D819E81821793071F
:1004700028F48217930710F49587848788859985D7
:10048000D70150969C938E931F978A8551968C9393
:1004900089819A810E94E10AC70108960E9412048C
:1004A0002A960FB6F894DEBF0FBECDBFCF91DF9175
:1004B0001F910F91FF90EF90DF90CF9008954F9292
:1004C0005F926F927F928F929F92AF92BF92CF92E4
:1004D000DF92EF92FF920F931F936C0186E291E0FF
:1004E0000E94C9007C01F60163817481882777FD31
:1004F0008095982F0E947E0E2B013C01F6016581AC
:100500007681882777FD8095982F0E947E0E4B017B
:100510005C010027F7FC0095102FC801B7010E946D
:100520007E0E7B018C01F60167817085882777FD3F
:100530008095982F0E947E0E9B01AC01C801B701E7
:100540000E94E30D9B01AC01C501B4010E94870F1D
:100550009B01AC01C301B2010E947E0D1F910F915E
:10056000FF90EF90DF90CF90BF90AF909F908F90D3
:100570007F906F905F904F9008950E945F029B0163
:10058000AC0160E070E08AE794E40E94E30D20E0B3
:1005900030E040E752E40E94870F20E030E040E086
:1005A0005FE30E947F0D0E94B90E0E944B0ECB01AB
:1005B000089580EF90E09093300180932F0188E2BE
:1005C00090E090932E0180932D0188EC90E0909321
:1005D0003201809331018CEF93E09093340180934A
:1005E0003301ECE2F1E01082CF010E94BD02909352
:1005F0003801809337010895CF93DF9380913501BF
:10060000909136012091260130912701820F931F8E
:10061000909336018093350110922C018CE291E089
:100620000E94BD02EC018091350190913601C817FE
:10063000D9075CF486E291E00E94C20081E08093D9
:100640002C011092360110923501D0933801C093DD
:100650003701DF91CF910895089589E391E00E94D9
:10066000670408950F931F93CF93DF938C0189E361
:1006700091E00E946704882389F189E391E00E9458
:100680005F04D8011796CD91DC9118979E01220F37
:10069000331F220F331FED91FC91E20FF31F2081D6
:1006A0003181428153810E94830F8823BCF0F8017D
:1006B000848195810197C817D90750F0809139013D
:1006C000882351F0D80118961C921E92179704C0E7
:1006D0002196F801D087C78381E001C080E0DF91D7
:1006E000CF911F910F9108950F931F93DF93CF9395
:1006F0000F92CDB7DEB78C01FC011182108288E029
:1007000090E0938382831582148280E290E00E94BD
:10071000E40AF801918380830F90CF91DF911F91BC
:100720000F9108958F929F92AF92BF92CF92DF92D6
:10073000EF92FF920F931F93CF93DF93EC016B0126
:100740008C819D818C010F5F1F4F8017910708F0EE
:1007500057C02A813B812017310798F50996281741
:10076000390778F5F880E9809B838A83880F991F81
:10077000880F991F0E94E40A888399836C817D8188
:10078000AC012F2D3E2DC901FC0120E030E012C04C
:100790004115510551F080809180A280B380DA012B
:1007A0008D929D92AD92BC9213972F5F3F4F4C5FFD
:1007B0005F4F34962617370758F38F2D9E2D0E94D2
:1007C000E10A2C813D81A901440F551F440F551F9B
:1007D00013C0E881F981E40FF51F309749F0D60185
:1007E0008D909D90AD90BC9080829182A282B382C8
:1007F0002F5F3F4F4C5F5F4F2017310750F303C00F
:100800000817190710F41D830C83DF91CF911F91F6
:100810000F91FF90EF90DF90CF90BF90AF909F909F
:100820008F900895EF92FF920F931F93DF93CF93D2
:10083000CDB7DEB728970FB6F894DEBF0FBECDBF99
:100840008C0180E090E0A0E0B0E089839A83AB83E4
:10085000BC83C801BE016F5F7F4F0E94920380E09E
:1008600090E0A0E0BFE38D839E83AF83B887C8018B
:10087000BE016B5F7F4F0E949203F80110861782C2
:100880001186E6E0EE2EE2E0FE2EC70160E071E0A8
:100890000E94CE0AF80164817581C7014AE050E0E8
:1008A0000E94B10A28960FB6F894DEBF0FBECDBFE6
:1008B000CF91DF911F910F91FF90EF900895FC0170
:1008C0002489358946895789B901CA010895FC01EF
:1008D00081810895CF93DF93EC018C859D85892BD1
:1008E00029F586E291E06A850E94C500892BF1F422
:1008F0008C859D852091260130912701820F931FC1
:100900009D878C8781E00FC01D861C860BC0121648
:10091000130644F48091260190912701820F931FC2
:100920009D878C8780E0DF91CF9108952C853D8550
:1009300080912801909129012817390744F3E4CFC9
:10094000CF93DF93EC0188859985892B29F586E281
:1009500091E06E810E94C500892BF1F4888599850C
:100960002091260130912701820F931F9987888754
:1009700081E00FC0198618860BC01216130644F4C6
:100980008091260190912701820F931F9987888774
:1009900080E0DF91CF9108952885398580912801E5
:1009A000909129012817390744F3E4CFCF92DF92C1
:1009B000EF92FF920F931F93CF93DF93EC01898106
:1009C000882391F18CE291E00E94BD026C0160915C
:1009D000260170912701882777FD8095982F0E9426
:1009E0007E0E7B018C0188899989C89EB001C99EC1
:1009F000700DD89E700D1124882777FD8095982F53
:100A00000E947E0E9B01AC01C801B7010E94E30D5C
:100A10009B01AC016C897D898E899F890E947F0D25
:100A20006C8B7D8B8E8B9F8BDF91CF911F910F9164
:100A3000FF90EF90DF90CF900895FC0110828685A3
:100A4000882351F080912C01882331F0808991898D
:100A50000196918B808B23C080912C018823F9F023
:100A600087858823E1F081E0818322893389808929
:100A700091892817390711F037FF0CC0138A128AA1
:100A800080E090E0A0E0B0E0848B958BA68BB78BE4
:100A900081E08083828993890196938B828B8785FD
:100AA000882319F0CF010E94D6040895CF93DF93D5
:100AB000EC010E94A004882361F08E85882331F424
:100AC0008F85882331F481E08E8703C01E8681E004
:100AD0008F87CE010E946A04882319F01F86198A25
:100AE000188ACE010E941D05DF91CF9108950F93C2
:100AF0001F938C01862FF801668377835387428783
:100B000060E00E94E106F801828560E00E94E10653
:100B1000F80115861486118610861786118A108AA8
:100B20008FEF9FEF938B828B80E090E0A0E0B0E0AE
:100B3000848B958BA68BB78B1F910F91089589E3BA
:100B400091E066E070E045E050E00E94770508958E
:100B50008130910561F46F5F7F4FD1F481E591E0C1
:100B60000E94530183E691E00E9453010895892B6E
:100B700079F46F5F7F4F61F480916B0190916C010C
:100B80000E94E10A8091590190915A010E94E10A64
:100B9000089580E090E06FEF7FEF0E94A805089530
:100BA00081E090E06FEF7FEF0E94A805089588E252
:100BB00092E00E94200B089583E691E00E941501C7
:100BC000089581E591E00E94150108950E94FC02BC
:100BD00089E391E00E94560508950F931F9386E0E4
:100BE00092E040E855E260E070E00E94510881E543
:100BF00091E064E670E04AE029E00E94570183E654
:100C000091E064E670E04DE02CE00E94570108E2BC
:100C100012E0C8010E94050B609126017091270126
:100C2000C80146EE55E00E946D0B6091260170915F
:100C30002701C80141EE55E00E946D0B609126012D
:100C400070912701C8014CED55E00E946D0BC80161
:100C50000E941A0B1F910F910895CF93DF930E946A
:100C600084060E94ED05C3E0D8E00E94D7052097D6
:100C7000E1F30E940308F9CF1F920F920FB60F9273
:100C800011242F933F938F939F93AF93BF938091A2
:100C9000790190917A01A0917B01B0917C01309112
:100CA0007D010196A11DB11D232F2D5F2D3720F051
:100CB0002D570196A11DB11D20937D0180937901CF
:100CC00090937A01A0937B01B0937C018091750190
:100CD00090917601A0917701B09178010196A11DC4
:100CE000B11D8093750190937601A0937701B09325
:100CF0007801BF91AF919F918F913F912F910F906C
:100D00000FBE0F901F901895789484B5826084BDB3
:100D100084B5816084BD85B5826085BD85B58160FF
:100D200085BDEEE6F0E0808181608083E1E8F0E05F
:100D30001082808182608083808181608083E0E88E
:100D4000F0E0808181608083E1EBF0E0808184606D
:100D50008083E0EBF0E0808181608083EAE7F0E06F
:100D600080818460808380818260808380818160D3
:100D700080838081806880831092C1000895982FBD
:100D80008E3008F09E50977080910E018295880FEA
:100D9000880F807C892B80937C0080917A0080640E
:100DA00080937A0080917A0086FDFCCF20917800B4
:100DB00040917900942F80E030E0282B392BC90135
:100DC0000895CF93DF93482F50E0CA0186569F4F76
:100DD000FC0134914A575F4FFA018491882369F1ED
:100DE00090E0880F991FFC01E859FF4FA591B4913D
:100DF000FC01EE58FF4FC591D491662351F42FB7F3
:100E0000F8948C91932F909589238C9388818923D2
:100E10000BC0623061F42FB7F8948C91932F9095AA
:100E200089238C938881832B88832FBF06C09FB72B
:100E3000F8948C91832B8C939FBFDF91CF91089571
:100E4000482F50E0CA0182559F4FFC012491CA01EE
:100E500086569F4FFC0194914A575F4FFA01349197
:100E6000332309F440C0222351F1233071F02430A0
:100E700028F42130A1F0223011F514C02630B1F051
:100E80002730C1F02430D9F404C0809180008F77DE
:100E900003C0809180008F7D8093800010C084B556
:100EA0008F7702C084B58F7D84BD09C08091B0006A
:100EB0008F7703C08091B0008F7D8093B000E32FC7
:100EC000F0E0EE0FFF1FEE58FF4FA591B4912FB742
:100ED000F894662321F48C919095892302C08C911B
:100EE000892B8C932FBF0895682F70E0CB0182551A
:100EF0009F4FFC012491CB0186569F4FFC014491EA
:100F00006A577F4FFB019491992319F420E030E058
:100F10003CC0222351F1233071F0243028F42130D9
:100F2000A1F0223011F514C02630B1F02730C1F005
:100F30002430D9F404C0809180008F7703C0809161
:100F400080008F7D8093800010C084B58F7702C0B1
:100F500084B58F7D84BD09C08091B0008F7703C0B8
:100F60008091B0008F7D8093B000892F90E0880F32
:100F7000991F84589F4FFC01A591B4918C9120E05A
:100F800030E0842311F021E030E0C9010895089594
:100F90001F920F920FB60F9211242F933F934F93EE
:100FA0008F939F93EF93FF938091C00082FD1DC0AC
:100FB0004091C6002091BE013091BF012F5F3F4F8D
:100FC0002F7330708091C0019091C10128173907AB
:100FD00071F0E091BE01F091BF01E258FE4F4083F5
:100FE0003093BF012093BE0102C08091C600FF91E3
:100FF000EF919F918F914F913F912F910F900FBE45
:101000000F901F901895E0911202F0911302E05C8E
:10101000FF4F8191919120813181821B930B8F73BE
:101020009070892B11F00E94C70708951F920F92AC
:101030000FB60F9211242F933F938F939F93EF93AB
:10104000FF9320910202309103028091040290915B
:1010500005022817390731F48091C1008F7D8093F4
:10106000C10014C0E0910402F0910502EE53FE4F5E
:101070002081809104029091050201968F739070F7
:1010800090930502809304022093C600FF91EF9194
:101090009F918F913F912F910F900FBE0F901F90B6
:1010A0001895AF92BF92DF92EF92FF920F931F932A
:1010B000CF93DF93EC017A018B01DD24403081EE88
:1010C000580780E0680780E0780711F0DD24D394AA
:1010D00091E0A92EB12CEC89FD89DD2069F0C501D4
:1010E00008A002C0880F991F0A94E2F7808360E08D
:1010F00079E08DE390E005C0108260E874E88EE14D
:1011000090E0A80197010E94091021503040404012
:101110005040569547953795279580E12030380700
:1011200020F0DD2011F0DD24D6CFE889F989308365
:10113000EA89FB89208319A2EE89FF89408121E099
:1011400030E0C9010C8C02C0880F991F0A94E2F7A5
:10115000482B4083EE89FF894081C9010D8C02C074
:10116000880F991F0A94E2F7482B4083EE89FF8984
:101170004081C9010E8C02C0880F991F0A94E2F7C2
:10118000482B4083EE89FF8980810F8C02C0220F9B
:10119000331F0A94E2F7209528232083DF91CF9113
:1011A0001F910F91FF90EF90DF90BF90AF90089547
:1011B000DC011C96ED91FC911D97E05CFF4F2191A5
:1011C000319180819181281B390B2F733070C901B7
:1011D0000895DC011C96ED91FC911D97E05CFF4F9A
:1011E00020813181E054F040DF01AE5BBF4F8D9133
:1011F0009C9111972817390719F42FEF3FEF07C07B
:101200008D919C91E80FF91F8081282F30E0C90152
:101210000895DC011C96ED91FC911D97E05CFF4F59
:1012200020813181E054F040DF01AE5BBF4F8D91F2
:101230009C9111972817390719F42FEF3FEF10C031
:101240008D919C911197E80FF91F20818D919C91B0
:10125000119701968F73907011969C938E9330E046
:10126000C9010895DC0191968C919197882339F0FA
:101270005496ED91FC915597808186FFF9CF919618
:101280001C920895CF93DF93EC01EE85FF85E05C1F
:10129000FF4F20813181E054F0402F5F3F4F2F738B
:1012A0003070DF01AE5BBF4F8D919C911197281775
:1012B0003907D1F3E05CFF4F80819181E054F04029
:1012C000E80FF91F6083EE85FF85E05CFF4F3183F7
:1012D0002083EE89FF89208181E090E00F8C02C09D
:1012E000880F991F0A94E2F7282B208381E089A3B5
:1012F000EC89FD8980818064808381E090E0DF91CA
:10130000CF910895109209021092080288EE93E09E
:10131000A0E0B0E080930A0290930B02A0930C022D
:10132000B0930D0289E191E0909307028093060249
:101330008EE791E0909313028093120282EC91E089
:10134000909315028093140285EC90E0909317021D
:101350008093160284EC90E0909319028093180217
:1013600080EC90E090931B0280931A0281EC90E055
:1013700090931D0280931C0282EC90E090931F02D8
:1013800080931E0286EC90E09093210280932002CD
:1013900084E08093220283E08093230287E080939D
:1013A000240285E08093250281E08093260208953F
:1013B000CF92DF92EF92FF920F931F93CF93DF9321
:1013C0007C016B018A01C0E0D0E00FC0D6016D91B5
:1013D0006D01D701ED91FC910190F081E02DC701E5
:1013E0000995C80FD91F015010400115110571F75B
:1013F000CE01DF91CF911F910F91FF90EF90DF9081
:10140000CF900895EF92FF920F931F938C01DC0110
:10141000ED91FC910190F081E02D6DE009957C014A
:10142000D801ED91FC910190F081E02DC8016AE0B6
:1014300009959C012E0D3F1DC9011F910F91FF9031
:10144000EF900895CF93DF93EC016115710519F4C6
:1014500020E030E00FC0DB010D900020E9F711978C
:10146000A61BB70BE881F9810280F381E02DAD0165
:1014700009959C01C901DF91CF9108954F925F9228
:101480007F928F929F92AF92BF92CF92DF92EF9214
:10149000FF920F931F93DF93CF93CDB7DEB7A19742
:1014A0000FB6F894DEBF0FBECDBF2C01742ECB015A
:1014B000223008F42AE019A231E2C32ED12CCC0E3E
:1014C000DD1E822E9924AA24BB24672D752FA50129
:1014D00094010E94091079018A01C801B701A50190
:1014E00094010E94EA0F472D461B0894C108D108B9
:1014F0004A3014F4405D01C0495CF6014083E114B8
:10150000F1040105110521F07E2C5F2DC801DDCF0E
:10151000C201B6010E94220AA1960FB6F894DEBF5E
:101520000FBECDBFCF91DF911F910F91FF90EF9034
:10153000DF90CF90BF90AF909F908F907F905F9003
:101540004F900895DC012115310541F4ED91FC9196
:101550000190F081E02D642F099508950E943E0AC4
:101560000895CF92DF92EF92FF920F931F936C0139
:101570007B019A0100E010E0B801A7010E94A20AD5
:101580008C01C6010E94020A080F191FC8011F9191
:101590000F91FF90EF90DF90CF900895EF92FF9220
:1015A0000F931F937C010E94220A8C01C7010E94A5
:1015B000020A080F191FC8011F910F91FF90EF90A9
:1015C00008950E94E60C08950E94490C08951F9208
:1015D0000F920FB60F9211248F939F93EF93FF9367
:1015E00080915B028F5F80935B02E8E2F2E0808192
:1015F0009181019691838083FF91EF919F918F91CB
:101600000F900FBE0F901F901895F89410928000C5
:1016100088E1809381008FE79EE390938700809319
:10162000860080E280936F00109285001092840003
:1016300078940895E1E8F0E08081816080830895E6
:10164000EF92FF921F93CF93DF93EC018BA9882336
:10165000F1F1E82EFF241BAA10E036C0412F50E024
:10166000FA01EE0FFF1FE40FF51FDF01AA0FBB1FEA
:10167000AC0FBD1F14962D913C9115972E193F0963
:1016800015963C932E93149712161306E4F0319698
:10169000EE0FFF1FEC0FFD1F80819181280F391F76
:1016A00015963C932E931497CA010196FC01EE0FF8
:1016B000FF1FE80FF91FEE0FFF1FEC0FFD1F01903A
:1016C000F081E02D09951F5F8AA9181738F2DF9184
:1016D000CF911F91FF90EF9008950F931F93CF9399
:1016E000DF93EC018A014AA910C0F901EE0FFF1F38
:1016F000E20FF31F3196EE0FFF1FEC0FFD1F86E088
:101700000D9001928150E1F741504423A1F0242F24
:1017100030E0C9010197DC01AA0FBB1FA80FB91F58
:101720001196AA0FBB1FAC0FBD1F8D919C911197F5
:1017300068177907D4F28AA98F5F8AAB242F30E02B
:10174000C9010196FC01EE0FFF1FE80FF91FEE0F14
:10175000FF1FEC0FFD1F11830083F901EE0FFF1F28
:10176000E20FF31FDF01AA0FBB1FAC0FBD1F1596C1
:101770007C936E9314973196EE0FFF1FEC0FFD1FB5
:1017800071836083DF91CF911F910F910895CF9363
:10179000DF93EC01DB017AA960E0462F50E0FA010B
:1017A000EE0FFF1FE40FF51F3196EE0FFF1FEC0F3A
:1017B000FD1F2D913C911197808191812817390748
:1017C000A1F4CA010196FC01EE0FFF1FE80FF91FFB
:1017D000EE0FFF1FEC0FFD1F14962D913C911597F6
:1017E000808191812817390719F06F5F7617A8F665
:1017F000671718F571507AAB1DC0862F90E0DC0199
:10180000AA0FBB1FA80FB91F1196AA0FBB1F0196E5
:10181000FC01EE0FFF1FE80FF91F3196EE0FFF1FBF
:10182000AC0FBD1FEC0FFD1F86E001900D928150A3
:10183000E1F76F5F8AA9681700F3DF91CF910895F0
:10184000DF93CF9300D000D000D0CDB7DEB77A833E
:1018500069837C836B835E834D83BE016F5F7F4FA3
:101860000E94C70B26960FB6F894DEBF0FBECDBF01
:10187000CF91DF910895EAE2F2E0118210821382A3
:10188000128215821482369682E0EA35F807A9F7AB
:1018900008950F931F93CF93DF93BC01823091057E
:1018A00010F462E070E0E0915E02F0915F02A0E06F
:1018B000B0E040E050E024C0808191818617970716
:1018C000D0F08617970771F482819381109729F0E1
:1018D00013969C938E9312972CC090935F028093E3
:1018E0005E0227C04115510519F08417950718F4B9
:1018F000EF018D01AC01DF01828193819C01F9012F
:101900003097D1F641155105F9F0CA01861B970BA6
:101910008430910580F48A819B810115110521F0A5
:10192000F8019383828304C090935F0280935E02E8
:10193000FE01329645C0FE01E80FF91F61937193D5
:101940000297998388833CC080915C0290915D02EC
:10195000892B41F4809111019091120190935D02C5
:1019600080935C024091130150911401411551057F
:1019700041F44DB75EB780910F0190911001481B63
:10198000590B20915C0230915D0224173507B0F4A9
:10199000CA01821B930B8617970780F0AB014E5F3D
:1019A0005F4F8417950750F0420F531F50935D020D
:1019B00040935C02F9016193719302C0E0E0F0E0B2
:1019C000CF01DF91CF911F910F910895CF93DF93B6
:1019D0009C01009709F48FC0EC0122971B821A82A8
:1019E00060915E0270915F026115710581F48881DA
:1019F0009981820F931F20915C0230915D0228171C
:101A0000390739F5D0935D02C0935C0274C0DB01E5
:101A100040E050E0AC17BD0708F1BB83AA83FE018C
:101A200021913191E20FF31FAE17BF0779F48D9129
:101A30009C911197280F391F2E5F3F4F39832883C0
:101A400012968D919C9113979B838A834115510522
:101A500071F4D0935F02C0935E024DC012968D91D7
:101A60009C911397AD01009711F0DC01D3CFDA01FF
:101A70001396DC93CE931297FA0121913191E20FE4
:101A8000F31FCE17DF0769F488819981280F391F6A
:101A90002E5F3F4FFA01318320838A819B8193839C
:101AA0008283E0E0F0E0DB0112968D919C91139728
:101AB000009719F0BC01FD01F6CFAB014E5F5F4FFF
:101AC000DB018D919C91840F951F20915C023091D8
:101AD0005D022817390779F4309729F410925F02D4
:101AE00010925E0202C01382128242505040509304
:101AF0005D0240935C02DF91CF9108955058BB275F
:101B0000AA270ED0AFC1A0D130F0A5D120F031F47A
:101B10009F3F11F41EF495C10EF4E095E7FB60C100
:101B2000E92FB1D180F3BA176207730784079507CD
:101B300018F071F49EF5E0C10EF4E0950B2EBA2F6B
:101B4000A02D0B01B90190010C01CA01A0011124C3
:101B5000FF27591B99F0593F50F4503E68F11A166F
:101B6000F040A22F232F342F4427585FF3CF469500
:101B700037952795A795F0405395C9F77EF41F1622
:101B8000BA0B620B730B840BBAF09150A1F0FF0FEC
:101B9000BB1F661F771F881FC2F70EC0BA0F621FD8
:101BA000731F841F48F4879577956795B795F795C8
:101BB0009E3F08F0B3CF9395880F08F09927EE0F5A
:101BC0009795879508950CD04DC145D140F03CD1F3
:101BD00030F021F45F3F19F003C151118EC131C1C2
:101BE00052D198F39923C9F35523B1F3951B550BA3
:101BF000BB27AA2762177307840738F09F5F5F4FE0
:101C0000220F331F441FAA1FA9F333D00E2E3AF020
:101C1000E0E830D091505040E695001CCAF729D03A
:101C2000FE2F27D0660F771F881FBB1F2617370789
:101C30004807AB07B0E809F0BB0B802DBF01FF27B9
:101C400093585F4F2AF09E3F510568F0C9C055C1B7
:101C50005F3FECF3983EDCF3869577956795B795F3
:101C6000F7959F5FC9F7880F911D9695879597F90E
:101C70000895E1E0660F771F881FBB1F6217730787
:101C80008407BA0720F0621B730B840BBA0BEE1F9C
:101C900088F7E095089504D06894B1112EC1089595
:101CA000FAD088F09F5790F0B92F9927B751A0F03C
:101CB000D1F0660F771F881F991F1AF0BA95C9F7E0
:101CC00012C0B13081F018D1B1E0089515C1672F6D
:101CD000782F8827B85F39F0B93FCCF38695779590
:101CE0006795B395D9F73EF4909580957095619579
:101CF0007F4F8F4F9F4F0895E89409C097FB3EF4A4
:101D000090958095709561957F4F8F4F9F4F992348
:101D1000A9F0F92F96E9BB279395F69587957795C6
:101D20006795B795F111F8CFFAF4BB0F11F460FF86
:101D30001BC06F5F7F4F8F4F9F4F16C0882311F0DE
:101D400096E911C0772321F09EE8872F762F05C0F2
:101D5000662371F096E8862F70E060E02AF09A958D
:101D6000660F771F881FDAF7880F9695879597F982
:101D70000895ABD080F09F3740F491110EF0BDC0B4
:101D800060E070E080E89FEB089526F41B16611D6B
:101D9000711D811D2BC045C0990F0008550FAA0B5E
:101DA000E0E8FEEF16161706E807F907C0F012166E
:101DB0001306E407F50798F0621B730B840B950B71
:101DC00039F40A2661F0232B242B252B21F40895C6
:101DD0000A2609F4A140A6958FEF811D811D089563
:101DE00097F99F6780E870E060E00895882371F4B8
:101DF000772321F09850872B762F07C0662311F4A4
:101E000099270DC09051862B70E060E02AF09A95DA
:101E1000660F771F881FDAF7880F9695879597F9D1
:101E200008959F3F49F0915028F4869577956795DE
:101E3000B7959F5F80389F4F880F9695879597F944
:101E400008959FEF80EC089500240A941616170653
:101E500018060906089500240A941216130614069B
:101E600005060895092E0394000C11F4882352F0FE
:101E7000BB0F40F4BF2B11F460FF04C06F5F7F4FB6
:101E80008F4F9F4F089557FD9058440F551F59F09D
:101E90005F3F71F04795880F97FB991F61F09F3F57
:101EA00079F087950895121613061406551FF2CF80
:101EB0004695F1DF08C0161617061806991FF1CFD0
:101EC00086957105610508940895E5DFA0F0BEE7E9
:101ED000B91788F4BB279F3860F41616B11D672F19
:101EE000782F8827985FF7CF869577956795B11DEE
:101EF00093959639C8F30895E894BB27662777270A
:101F0000CB0197F9089548DF08F48FEF08950BD0BF
:101F1000A9CF9ADF28F09FDF18F0952309F060CF52
:101F200090CF1124EACFAFDFA0F3959FD1F3950FA7
:101F300050E0551F629FF001729FBB27F00DB11D4D
:101F4000639FAA27F00DB11DAA1F649F6627B00DDD
:101F5000A11D661F829F2227B00DA11D621F739FC6
:101F6000B00DA11D621F839FA00D611D221F749FD4
:101F70003327A00D611D231F849F600D211D822F1B
:101F8000762F6A2F11249F5750408AF0E1F0882362
:101F90004AF0EE0FFF1FBB1F661F771F881F91506F
:101FA0005040A9F79E3F510570F01ACFA6CF5F3F72
:101FB000ECF3983EDCF3869577956795B795F795A2
:101FC000E7959F5FC1F7FE2B880F911D969587952A
:101FD00097F90895629FD001739FF001829FE00DF1
:101FE000F11D649FE00DF11D929FF00D839FF00D98
:101FF000749FF00D659FF00D9927729FB00DE11D44
:10200000F91F639FB00DE11DF91FBD01CF01112420
:102010000895A1E21A2EAA1BBB1BFD010DC0AA1F29
:10202000BB1FEE1FFF1FA217B307E407F50720F041
:10203000A21BB30BE40BF50B661F771F881F991FBC
:102040001A9469F760957095809590959B01AC0105
:10205000BD01CF010895EE0FFF1F0590F491E02D13
:10206000099410E0CEECD0E004C0FE010E942D10D7
:0C2070002296C03DD107C9F7F894FFCFBD
:10207C00496E6974205265636F72646572000180E9
:10208C000060020000000000004209D809D80809CD
:06209C0009E90832090009
:00000001FF
