:100000000C9468000C9490000C9490000C94900058
:100010000C9490000C9490000C9490000C94900020
:100020000C9490000C9490000C94750B0C94900020
:100030000C9490000C9490000C9490000C94900000
:100040000C94C3050C9490000C944F070C949D07DE
:100050000C9490000C9490000C9490000C949000E0
:100060000C9490000C9490000000000024002700E5
:100070002A0000000000250028002B0000000000DE
:1000800023002600290004040404040404040202DA
:100090000202020203030303030301020408102007
:1000A0004080010204081020010204081020000012
:1000B0000007000201000003040600000000000029
:1000C0000000E500C902260557050909C90C5005BD
:1000D00011241FBECFEFD8E0DEBFCDBF11E0A0E0FE
:1000E000B1E0E8EAF1E202C005900D92A632B10754
:1000F000D9F712E0A6E2B1E001C01D92A935B1071F
:10010000E1F710E0CEECD0E004C02297FE010E949F
:10011000C310C23CD107C9F70E94B4050C94C710A4
:100120000C940000862F60E00E94A7060895862F99
:1001300061E00E94A7060895FC01858160E00E94AD
:10014000A706089586E291E00E949C0081E292E079
:1001500064E170E042EA50E00E94AE0C0895FC01B8
:10016000858161E00E94A706089586E291E00E94E1
:10017000AF0081E292E064E170E042EA50E00E9468
:10018000FB0B08950E94B5000895862F0E94FB0680
:100190000895FC0184810E94460608950F931F93E1
:1001A0008C018EE0F801848387E0858361E00E9402
:1001B000680688E090E0F8019183808388EC90E005
:1001C000938382831F910F91089586E291E00E94AC
:1001D000CE0008950F931F93CF93DF93EC01888196
:1001E000882371F48E01085F1F4FC8010E94DF034E
:1001F000882319F0C8010E94570381E08B8388830C
:10020000DF91CF911F910F910895CF93DF93EC0170
:1002100086E291E06D810E94C500892B19F4CE0120
:100220000E94EA008B81882349F086E291E06C818C
:100230000E9497001B821F821E821FC08881882314
:10024000B9F086E291E06C810E94970080912601CE
:10025000909127012E813F81820F931F9F838E8370
:1002600029813A818217930744F018821F821E82E7
:1002700086E291E06C810E949200DF91CF91089517
:100280000F931F938C01822FF80172836183108278
:100290001382248345831782168261E00E946806D8
:1002A000F801858160E00E9468061F910F91089512
:1002B000CF92DF92EF92FF920F931F93CF93DF9332
:1002C0008C017B016817790709F4AEC0DB01149635
:1002D0002D913C911597EC018A819B8182179307A0
:1002E00098F5C880D9803B832A83C901880F991F5C
:1002F000880F991F0E94720B9983888340E050E019
:1003000020E030E016C0F801C081D181C20FD31FB8
:10031000209759F0F601E20FF31F80819181A281AD
:10032000B38188839983AA83BB834F5F5F4F2C5F20
:100330003F4FD80114968D919C91159748175907F6
:1003400010F3C6010E946F0BE8018C819D81F701BB
:10035000648175818617970708F4BC0140E050E07E
:1003600020E030E017C0D801ED91FC91E20FF31FBF
:10037000E701A881B981A20FB31F8D919D910D90C6
:10038000BC91A02D80839183A283B3834F5F5F4F85
:100390002C5F3F4F4617570730F3F80144815581D2
:1003A000D70114968D919C9115974817590750F5D0
:1003B0009A01220F331F220F331F1EC0F801C08184
:1003C000D181C20FD31FD701ED91FC91209751F03D
:1003D000E20FF31F80819181A281B3818883998389
:1003E000AA83BB83E8018C819D8101969D838C83C8
:1003F0004F5F5F4F2C5F3F4FF70184819581481716
:100400005907E0F2D80114968D919C911597E70158
:100410006C817D816817790738F46817790720F4B3
:1004200015967C936E931497C801DF91CF911F911D
:100430000F91FF90EF90DF90CF900895EF92FF9291
:100440000F931F93DF93CF93CDB7DEB727970FB6E8
:10045000F894DEBF0FBECDBF38E0E32EF12CE80EDE
:10046000F91EC7010E94BC038E010F5F1F4FC80118
:100470000E94BC03C701B8010E94580189819A817A
:100480000E946F0B27960FB6F894DEBF0FBECDBF4C
:10049000CF91DF911F910F91FF90EF9008954F92B0
:1004A0005F926F927F928F929F92AF92BF92CF9204
:1004B000DF92EF92FF920F931F936C0186E291E01F
:1004C0000E94C9007C01F60163817481882777FD51
:1004D0008095982F0E94100F2B013C01F601658139
:1004E0007681882777FD8095982F0E94100F4B0109
:1004F0005C010027F7FC0095102FC801B7010E948E
:10050000100F7B018C01F60167817085882777FDCC
:100510008095982F0E94100F9B01AC01C801B70174
:100520000E94750E9B01AC01C501B4010E94191017
:100530009B01AC01C301B2010E940C0E1F910F91EF
:10054000FF90EF90DF90CF90BF90AF909F908F90F3
:100550007F906F905F904F9008950E944F029B0193
:10056000AC0160E070E08AE794E40E94750E20E040
:1005700030E040E752E40E94191020E030E040E013
:100580005FE30E940D0E0E944B0F0E94DD0ECB0117
:10059000089580EF90E09093300180932F0188E2DE
:1005A00090E090932E0180932D0188EC90E0909341
:1005B0003201809331018CEF93E09093340180936A
:1005C0003301ECE2F1E01082CF010E94AD02909382
:1005D0003801809337010895CF93DF9380913501DF
:1005E000909136012091260130912701820F931FAF
:1005F000909336018093350110922C018CE291E0AA
:100600000E94AD02EC018091350190913601C8172E
:10061000D9075CF486E291E00E94C20081E08093F9
:100620002C011092360110923501D0933801C093FD
:100630003701DF91CF9108950F931F93CF93DF93ED
:10064000EC018A819B818617970760F518810981E3
:100650007B836A83CB01880F991F880F991F0E94A3
:10066000720B888399836C817D81412F502F9A0171
:10067000E901FC0120E030E00EC0309741F08881B4
:100680009981AA81BB8180839183A283B3832F5FE9
:100690003F4F249634962617370778F3812F902FF3
:1006A0000E946F0BDF91CF911F910F910895CF9210
:1006B000DF92EF92FF920F931F93CF93DF93EC01A2
:1006C00089E391E00E94E4036B017C016C817D81F0
:1006D0008B010F5F1F4F6017710748F58A819B815F
:1006E0008017910728F4675F7F4FCE010E941C039B
:1006F0008C819D819C01220F331F220F331F0DC05F
:10070000E881F981E20FF31F309721F0C082D18296
:10071000E282F38201962C5F3F4F8017910780F3AE
:100720001D830C83EE24FF2400E010E017C00617A1
:100730001707C0F7F5CFE881F981E00FF11F40817D
:100740005181628173818FEF91E022E030E00E945D
:100750005C0B0894E11CF11C0C5F1F4F8C819D8188
:10076000E816F90640F3DF91CF911F910F91FF90AA
:10077000EF90DF90CF9008950F931F93DF93CF9367
:100780000F92CDB7DEB78C01FC011182108288E098
:1007900090E0938382831582148280E290E00E942D
:1007A000720BF80191838083C80160E971E00E94B7
:1007B0001C030F90CF91DF911F910F91089589E352
:1007C00091E00E94EC030895FC0123893489458956
:1007D0005689B901CA010895FC0180810895CF931B
:1007E000DF93EC018B859C85892B29F586E291E0CE
:1007F00069850E94C500892BF1F48B859C85209129
:10080000260130912701820F931F9C878B8781E0FF
:100810000FC01C861B860BC01216130644F4809171
:10082000260190912701820F931F9C878B8780E080
:10083000DF91CF9108952B853C858091280190917F
:1008400029012817390744F3E4CFCF93DF93EC0154
:100850008F819885892B29F586E291E06D810E9430
:10086000C500892BF1F48F81988520912601309164
:100870002701820F931F98878F8381E00FC018860E
:100880001F820BC01216130644F48091260190912A
:100890002701820F931F98878F8380E0DF91CF918C
:1008A00008952F813885809128019091290128177A
:1008B000390744F3E4CFAF92BF92CF92DF92EF9229
:1008C000FF920F931F93CF93DF93EC018D858823C5
:1008D00051F080912C01882331F08F859889019601
:1008E000988B8F8721C080912C018823E9F08E8519
:1008F0008823D1F081E0888329893A898F85988976
:100900002817390711F037FF0AC01A8A198A80E0C0
:1009100090E0A0E0B0E08B8B9C8BAD8BBE8B898987
:100920009A8901969A8B898B8E858823D9F18CE2DE
:1009300091E00E94AD027C01609126017091270137
:10094000882777FD8095982F0E94100F5B016C011E
:100950000027F7FC0095102FC801B7010E94100F67
:100960007B018C016F857889882777FD8095982F8A
:100970000E94100F9B01AC01C801B7010E94191021
:100980009B01AC01C601B5010E94750E9B01AC0133
:100990006B897C898D899E890E940D0E6B8B7C8B67
:1009A0008D8B9E8BDF91CF911F910F91FF90EF90D8
:1009B000DF90CF90BF90AF900895CF93DF93EC017D
:1009C0000E942504882361F08D85882331F48E856B
:1009D000882331F481E08D8703C01D8681E08E87F6
:1009E000CE010E94EF03882319F01E86188A1F8605
:1009F000CE010E945B04DF91CF9108950F931F9366
:100A00008C01862FF801658376835287418760E0E9
:100A10000E946806F801818560E00E946806F8017E
:100A200014861386108617821686108A17868FEF13
:100A30009FEF928B818B80E090E0A0E0B0E0838B11
:100A4000948BA58BB68B1F910F91089589E391E04C
:100A500066E070E045E050E00E94FE0408958130B9
:100A6000910561F46F5F7F4FD1F480E591E00E94C2
:100A70001E028FE591E00E941E020895892B79F4F1
:100A80006F5F7F4F61F480916701909168010E94D0
:100A90006F0B80915801909159010E946F0B08953E
:100AA00080E090E06FEF7FEF0E942F05089581E0D6
:100AB00090E06FEF7FEF0E942F05089581E292E0B2
:100AC0000E94AE0B08958FE591E00E940501089504
:100AD00080E591E00E94050108950E94EC0289E3FF
:100AE00091E00E94DD0408950F931F938FEF91E032
:100AF00040E855E260E070E00E94D80780E591E0B0
:100B000064E670E04AE029E00E9440018FE591E050
:100B100064E670E04DE02CE00E94400101E212E04A
:100B2000C8010E94930B6091260170912701C801B2
:100B30004DE655E00E94FB0B609126017091270164
:100B4000C80148E655E00E94FB0B609126017091B8
:100B50002701C80143E655E00E94FB0BC8010E9433
:100B6000A80B1F910F910895CF93DF930E940B065E
:100B70000E947405CAE8D7E00E945E052097E1F361
:100B80000E948A07F9CF1F920F920FB60F9211247D
:100B90002F933F938F939F93AF93BF938091720155
:100BA00090917301A0917401B0917501309176011B
:100BB0000196A11DB11D232F2D5F2D3720F02D573C
:100BC0000196A11DB11D209376018093720190932F
:100BD0007301A0937401B093750180916E0190919F
:100BE0006F01A0917001B09171010196A11DB11D1D
:100BF00080936E0190936F01A0937001B093710187
:100C0000BF91AF919F918F913F912F910F900FBE08
:100C10000F901F901895789484B5826084BD84B538
:100C2000816084BD85B5826085BD85B5816085BDE7
:100C3000EEE6F0E0808181608083E1E8F0E0108200
:100C4000808182608083808181608083E0E8F0E041
:100C5000808181608083E1EBF0E08081846080832B
:100C6000E0EBF0E0808181608083EAE7F0E0808162
:100C700084608083808182608083808181608083C2
:100C80008081806880831092C1000895982F8E30F3
:100C900008F09E50977080910E018295880F880F02
:100CA000807C892B80937C0080917A008064809383
:100CB0007A0080917A0086FDFCCF209178004091E7
:100CC0007900942F80E030E0282B392BC90108955A
:100CD000CF93DF93482F50E0CA0186569F4FFC0107
:100CE00034914A575F4FFA018491882369F190E06B
:100CF000880F991FFC01E859FF4FA591B491FC01A1
:100D0000EE58FF4FC591D491662351F42FB7F89454
:100D10008C91932F909589238C93888189230BC084
:100D2000623061F42FB7F8948C91932F90958923BA
:100D30008C938881832B88832FBF06C09FB7F8943C
:100D40008C91832B8C939FBFDF91CF910895482F77
:100D500050E0CA0182559F4FFC012491CA0186567A
:100D60009F4FFC0194914A575F4FFA01349133230E
:100D700009F440C0222351F1233071F0243028F4CB
:100D80002130A1F0223011F514C02630B1F0273007
:100D9000C1F02430D9F404C0809180008F7703C063
:100DA000809180008F7D8093800010C084B58F7704
:100DB00002C084B58F7D84BD09C08091B0008F775B
:100DC00003C08091B0008F7D8093B000E32FF0E0EE
:100DD000EE0FFF1FEE58FF4FA591B4912FB7F89477
:100DE000662321F48C919095892302C08C91892BE4
:100DF0008C932FBF0895682F70E0CB0182559F4FD1
:100E0000FC012491CB0186569F4FFC0144916A5707
:100E10007F4FFB019491992319F420E030E03CC00E
:100E2000222351F1233071F0243028F42130A1F035
:100E3000223011F514C02630B1F02730C1F0243033
:100E4000D9F404C0809180008F7703C08091800026
:100E50008F7D8093800010C084B58F7702C084B5E9
:100E60008F7D84BD09C08091B0008F7703C08091D1
:100E7000B0008F7D8093B000892F90E0880F991F7C
:100E800084589F4FFC01A591B4918C9120E030E0F3
:100E9000842311F021E030E0C901089508951F92E4
:100EA0000F920FB60F9211242F933F934F938F936E
:100EB0009F93EF93FF938091C00082FD1DC04091EE
:100EC000C6002091B7013091B8012F5F3F4F2F73BB
:100ED00030708091B9019091BA012817390771F0EB
:100EE000E091B701F091B801E958FE4F408330938B
:100EF000B8012093B70102C08091C600FF91EF9125
:100F00009F918F914F913F912F910F900FBE0F9016
:100F10001F901895E0910B02F0910C02E05CFF4FDE
:100F20008191919120813181821B930B8F739070FD
:100F3000892B11F00E944E0708951F920F920FB651
:100F40000F9211242F933F938F939F93EF93FF93CF
:100F50002091FB013091FC018091FD019091FE01F7
:100F60002817390731F48091C1008F7D8093C1002B
:100F700014C0E091FD01F091FE01E554FE4F208187
:100F80008091FD019091FE0101968F739070909376
:100F9000FE018093FD012093C600FF91EF919F9188
:100FA0008F913F912F910F900FBE0F901F9018952A
:100FB000AF92BF92DF92EF92FF920F931F93CF9366
:100FC000DF93EC017A018B01DD24403081EE58077C
:100FD00080E0680780E0780711F0DD24D39491E089
:100FE000A92EB12CEC89FD89DD2069F0C50108A08E
:100FF00002C0880F991F0A94E2F7808360E079E0CD
:101000008DE390E005C0108260E874E88EE190E026
:10101000A80197010E949F1021503040404050404D
:10102000569547953795279580E12030380720F071
:10103000DD2011F0DD24D6CFE889F9893083EA89F3
:10104000FB89208319A2EE89FF89408121E030E0ED
:10105000C9010C8C02C0880F991F0A94E2F7482B33
:101060004083EE89FF894081C9010D8C02C0880F41
:10107000991F0A94E2F7482B4083EE89FF8940814B
:10108000C9010E8C02C0880F991F0A94E2F7482B01
:101090004083EE89FF8980810F8C02C0220F331FAD
:1010A0000A94E2F7209528232083DF91CF911F91A6
:1010B0000F91FF90EF90DF90BF90AF900895DC010B
:1010C0001C96ED91FC911D97E05CFF4F21913191B1
:1010D00080819181281B390B2F733070C9010895CD
:1010E000DC011C96ED91FC911D97E05CFF4F208187
:1010F0003181E054F040DF01AE5BBF4F8D919C9198
:1011000011972817390719F42FEF3FEF07C08D917A
:101110009C91E80FF91F8081282F30E0C9010895C4
:10112000DC011C96ED91FC911D97E05CFF4F208146
:101130003181E054F040DF01AE5BBF4F8D919C9157
:1011400011972817390719F42FEF3FEF10C08D9131
:101150009C911197E80FF91F20818D919C91119717
:1011600001968F73907011969C938E9330E0C90115
:101170000895DC0191968C919197882339F05496CB
:10118000ED91FC915597808186FFF9CF91961C9245
:101190000895CF93DF93EC01EE85FF85E05CFF4F70
:1011A00020813181E054F0402F5F3F4F2F7330702A
:1011B000DF01AE5BBF4F8D919C91119728173907C6
:1011C000D1F3E05CFF4F80819181E054F040E80F63
:1011D000F91F6083EE85FF85E05CFF4F318320833C
:1011E000EE89FF89208181E090E00F8C02C0880F9A
:1011F000991F0A94E2F7282B208381E089A3EC89C8
:10120000FD8980818064808381E090E0DF91CF91CF
:101210000895109202021092010288EE93E0A0E07D
:10122000B0E08093030290930402A0930502B09370
:10123000060289E191E0909300028093FF0187E725
:1012400091E090930C0280930B028BEB91E09093D2
:101250000E0280930D0285EC90E090931002809333
:101260000F0284EC90E0909312028093110280ECC4
:1012700090E0909314028093130281EC90E090939D
:1012800016028093150282EC90E0909318028093EE
:10129000170286EC90E090931A028093190284E082
:1012A00080931B0283E080931C0287E080931D02E1
:1012B00085E080931E0281E080931F020895CF9203
:1012C000DF92EF92FF920F931F93CF93DF937C01F6
:1012D0006B018A01C0E0D0E00FC0D6016D916D01B5
:1012E000D701ED91FC910190F081E02DC7010995A6
:1012F000C80FD91F015010400115110571F7CE011B
:10130000DF91CF911F910F91FF90EF90DF90CF90E1
:101310000895EF92FF920F931F938C01DC01ED91E2
:10132000FC910190F081E02D6DE009957C01D801E0
:10133000ED91FC910190F081E02DC8016AE00995E2
:101340009C012E0D3F1DC9011F910F91FF90EF9041
:101350000895CF93DF93EC016115710519F420E036
:1013600030E00FC0DB010D900020E9F71197A61BBC
:10137000B70BE881F9810280F381E02DAD01099579
:101380009C01C901DF91CF9108954F925F927F92A6
:101390008F929F92AF92BF92CF92DF92EF92FF9285
:1013A0000F931F93DF93CF93CDB7DEB7A1970FB6FF
:1013B000F894DEBF0FBECDBF2C01742ECB012230BE
:1013C00008F42AE019A231E2C32ED12CCC0EDD1E86
:1013D000822E9924AA24BB24672D752FA501940180
:1013E0000E949F1079018A01C801B701A5019401EB
:1013F0000E948010472D461B0894C108D1084A302E
:1014000014F4405D01C0495CF6014083E114F1042D
:101410000105110521F07E2C5F2DC801DDCFC20131
:10142000B6010E94A909A1960FB6F894DEBF0FBEBF
:10143000CDBFCF91DF911F910F91FF90EF90DF9083
:10144000CF90BF90AF909F908F907F905F904F9084
:101450000895DC012115310541F4ED91FC910190D5
:10146000F081E02D642F099508950E94C509089523
:10147000CF92DF92EF92FF920F931F93CF93DF9360
:10148000EC016A017B012115310541F4E881F98104
:101490000190F081E02D642F09951FC02A3031059D
:1014A000D1F477FF17C0E881F9810190F081E02D38
:1014B0006DE209958C0144275527BA014C195D0945
:1014C0006E097F09CE012AE00E94C5099801280F04
:1014D000391F04C02AE00E94C5099C01C901DF919F
:1014E000CF911F910F91FF90EF90DF90CF900895D3
:1014F0007F928F929F92AF92BF92CF92DF92EF92A4
:10150000FF920F931F93CF93DF934C017A018B01CE
:10151000722ECB01BA01A80197010E947C1088238A
:1015200021F0C40160E071E021C0C0E0D0E05701CB
:101530006801E894D7F8C601B5012FEF3FEF4FE7F8
:101540005FE70E947C10882351F4C601B5012FEF9C
:101550003FEF4FE75FE70E94710E181614F0C1E0ED
:10156000D0E0219739F0C40164E071E00E94A9093C
:10157000EC0193C0C801B7012FEF3FEF4FE75FE4E5
:101580000E941510181654F0C801B7012FEF3FEF55
:101590004FE75FEC0E94710E882324F4C40168E0D9
:1015A00071E0E4CFC801B70120E030E040E050E056
:1015B0000E94710E87FD03C0C0E0D0E00EC0D401D0
:1015C000ED91FC910190F081E02DC4016DE209954F
:1015D000EC0117FB109517F9109520E030E040E082
:1015E0005FE3DD240BC0CA01B90120E030E040E236
:1015F00051E40E94750E9B01AC01D394D71498F36B
:10160000C801B7010E940D0E5B016C010E94E20E41
:101610007B018C01C401B801A7012AE030E00E94DF
:10162000290AC80FD91F772039F0C4016CE071E096
:101630000E94A909C80FD91FC801B7010E940E0F47
:101640009B01AC01C601B5010E940C0E24C020E034
:1016500030E040E251E40E9419107B018C010E94AD
:10166000DD0E5B016C01CC24B7FCC094DC2CC40102
:10167000B601A5012AE030E00E94380AC80FD91F40
:10168000C601B5010E94100F9B01AC01C801B70152
:101690000E940C0E7A947720D1F6CE01DF91CF9183
:1016A0001F910F91FF90EF90DF90CF90BF90AF9080
:1016B0009F908F907F900895EF92FF920F931F93CA
:1016C0007C010E94780A8C01C7010E948909080FD9
:1016D000191FC8011F910F91FF90EF9008950E946C
:1016E000740D08950E94D70C08951F920F920FB6A3
:1016F0000F9211248F939F93EF93FF938091540245
:101700008F5F80935402E1E2F2E080819181019643
:1017100091838083FF91EF919F918F910F900FBEE6
:101720000F901F901895F8941092800088E1809394
:1017300081008FE79EE3909387008093860080E28C
:1017400080936F0010928500109284007894089521
:10175000E1E8F0E08081816080830895EF92FF925C
:101760001F93CF93DF93EC018BA98823F1F1E82E2F
:10177000FF241BAA10E036C0412F50E0FA01EE0F03
:10178000FF1FE40FF51FDF01AA0FBB1FAC0FBD1F2A
:1017900014962D913C9115972E193F0915963C935F
:1017A0002E93149712161306E4F03196EE0FFF1FD6
:1017B000EC0FFD1F80819181280F391F15963C93F6
:1017C0002E931497CA010196FC01EE0FFF1FE80F3C
:1017D000F91FEE0FFF1FEC0FFD1F0190F081E02DB0
:1017E00009951F5F8AA9181738F2DF91CF911F91D1
:1017F000FF90EF9008950F931F93CF93DF93EC0129
:101800008A014AA910C0F901EE0FFF1FE20FF31F72
:101810003196EE0FFF1FEC0FFD1F86E00D90019239
:101820008150E1F741504423A1F0242F30E0C90159
:101830000197DC01AA0FBB1FA80FB91F1196AA0FB1
:10184000BB1FAC0FBD1F8D919C9111976817790735
:10185000D4F28AA98F5F8AAB242F30E0C9010196A8
:10186000FC01EE0FFF1FE80FF91FEE0FFF1FEC0F3B
:10187000FD1F11830083F901EE0FFF1FE20FF31F1D
:10188000DF01AA0FBB1FAC0FBD1F15967C936E9393
:1018900014973196EE0FFF1FEC0FFD1F71836083CD
:1018A000DF91CF911F910F910895CF93DF93EC01BA
:1018B000DB017AA960E0462F50E0FA01EE0FFF1F2E
:1018C000E40FF51F3196EE0FFF1FEC0FFD1F2D915A
:1018D0003C9111978081918128173907A1F4CA01A1
:1018E0000196FC01EE0FFF1FE80FF91FEE0FFF1F1F
:1018F000EC0FFD1F14962D913C91159780819181DD
:101900002817390719F06F5F7617A8F6671718F5CB
:1019100071507AAB1DC0862F90E0DC01AA0FBB1F6F
:10192000A80FB91F1196AA0FBB1F0196FC01EE0F5D
:10193000FF1FE80FF91F3196EE0FFF1FAC0FBD1F01
:10194000EC0FFD1F86E001900D928150E1F76F5F73
:101950008AA9681700F3DF91CF910895DF93CF93A1
:1019600000D000D000D0CDB7DEB77A8369837C8306
:101970006B835E834D83BE016F5F7F4F0E94550C6A
:1019800026960FB6F894DEBF0FBECDBFCF91DF9184
:101990000895E3E2F2E0118210821382128215822E
:1019A0001482369682E0E335F807A9F708950F937D
:1019B0001F93CF93DF93BC018230910510F462E056
:1019C00070E0E0915702F0915802A0E0B0E040E0F2
:1019D00050E024C08081918186179707D0F0861748
:1019E000970771F482819381109729F013969C9345
:1019F0008E9312972CC0909358028093570227C061
:101A00004115510519F08417950718F4EF018D0160
:101A1000AC01DF01828193819C01F9013097D1F6FD
:101A200041155105F9F0CA01861B970B84309105C9
:101A300080F48A819B810115110521F0F8019383BF
:101A4000828304C09093580280935702FE0132961D
:101A500045C0FE01E80FF91F6193719302979983C6
:101A600088833CC08091550290915602892B41F4A5
:101A7000809111019091120190935602809355022A
:101A800040911301509114014115510541F44DB796
:101A90005EB780910F0190911001481B590B209166
:101AA00055023091560224173507B0F4CA01821B43
:101AB000930B8617970780F0AB014E5F5F4F84173B
:101AC000950750F0420F531F509356024093550212
:101AD000F9016193719302C0E0E0F0E0CF01DF9182
:101AE000CF911F910F910895CF93DF939C010097A1
:101AF00009F48FC0EC0122971B821A826091570271
:101B0000709158026115710581F488819981820F65
:101B1000931F20915502309156022817390739F545
:101B2000D0935602C093550274C0DB0140E050E0F0
:101B3000AC17BD0708F1BB83AA83FE012191319147
:101B4000E20FF31FAE17BF0779F48D919C911197A7
:101B5000280F391F2E5F3F4F3983288312968D91AE
:101B60009C9113979B838A834115510571F4D093FF
:101B70005802C09357024DC012968D919C911397B5
:101B8000AD01009711F0DC01D3CFDA011396DC939D
:101B9000CE931297FA0121913191E20FF31FCE17E4
:101BA000DF0769F488819981280F391F2E5F3F4F25
:101BB000FA01318320838A819B8193838283E0E0D1
:101BC000F0E0DB0112968D919C911397009719F02C
:101BD000BC01FD01F6CFAB014E5F5F4FDB018D9184
:101BE0009C91840F951F2091550230915602281721
:101BF000390779F4309729F410925802109257025D
:101C000002C01382128242505040509356024093B9
:101C10005502DF91CF9108955058BB27AA270ED0C7
:101C2000B3C1A4D130F0A9D120F031F49F3F11F419
:101C30001EF499C10EF4E095E7FB64C1E92FB5D11C
:101C400080F3BA17620773078407950718F071F4D9
:101C50009EF5E4C10EF4E0950B2EBA2FA02D0B01DA
:101C6000B90190010C01CA01A0011124FF27591BE1
:101C700099F0593F50F4503E68F11A16F040A22FE7
:101C8000232F342F4427585FF3CF46953795279558
:101C9000A795F0405395C9F77EF41F16BA0B620B57
:101CA000730B840BBAF09150A1F0FF0FBB1F661F9E
:101CB000771F881FC2F70EC0BA0F621F731F841FE1
:101CC00048F4879577956795B795F7959E3F08F007
:101CD000B3CF9395880F08F09927EE0F97958795C6
:101CE0000895ECD008F481E008950CD04DC145D1A1
:101CF00040F03CD130F021F45F3F19F003C15111A5
:101D00008EC131C152D198F39923C9F35523B1F350
:101D1000951B550BBB27AA2762177307840738F05A
:101D20009F5F5F4F220F331F441FAA1FA9F333D0B9
:101D30000E2E3AF0E0E830D091505040E695001C6D
:101D4000CAF729D0FE2F27D0660F771F881FBB1F29
:101D5000261737074807AB07B0E809F0BB0B802D03
:101D6000BF01FF2793585F4F2AF09E3F510568F04F
:101D7000C9C055C15F3FECF3983EDCF3869577957B
:101D80006795B795F7959F5FC9F7880F911D969551
:101D9000879597F90895E1E0660F771F881FBB1FAD
:101DA000621773078407BA0720F0621B730B840B5A
:101DB000BA0BEE1F88F7E095089504D06894B1112E
:101DC0002EC10895FAD088F09F5790F0B92F992727
:101DD000B751A0F0D1F0660F771F881F991F1AF036
:101DE000BA95C9F712C0B13081F018D1B1E00895A9
:101DF00015C1672F782F8827B85F39F0B93FCCF32A
:101E0000869577956795B395D9F73EF4909580952B
:101E1000709561957F4F8F4F9F4F0895E89409C04B
:101E200097FB3EF490958095709561957F4F8F4F0D
:101E30009F4F9923A9F0F92F96E9BB279395F69523
:101E4000879577956795B795F111F8CFFAF4BB0FA1
:101E500011F460FF1BC06F5F7F4F8F4F9F4F16C005
:101E6000882311F096E911C0772321F09EE8872F8F
:101E7000762F05C0662371F096E8862F70E060E04B
:101E80002AF09A95660F771F881FDAF7880F9695C4
:101E9000879597F90895ABD080F09F3740F4911162
:101EA0000EF0BDC060E070E080E89FEB089526F47E
:101EB0001B16611D711D811D2BC045C0990F0008A7
:101EC000550FAA0BE0E8FEEF16161706E807F9070C
:101ED000C0F012161306E407F50798F0621B730BA7
:101EE000840B950B39F40A2661F0232B242B252B28
:101EF00021F408950A2609F4A140A6958FEF811DCB
:101F0000811D089597F99F6780E870E060E008956B
:101F1000882371F4772321F09850872B762F07C000
:101F2000662311F499270DC09051862B70E060E074
:101F30002AF09A95660F771F881FDAF7880F969513
:101F4000879597F908959F3F49F0915028F4869519
:101F500077956795B7959F5F80389F4F880F9695C7
:101F6000879597F908959FEF80EC089500240A94CF
:101F70001616170618060906089500240A94121664
:101F80001306140605060895092E0394000C11F497
:101F9000882352F0BB0F40F4BF2B11F460FF04C044
:101FA0006F5F7F4F8F4F9F4F089557FD9058440F9D
:101FB000551F59F05F3F71F04795880F97FB991FA8
:101FC00061F09F3F79F08795089512161306140665
:101FD000551FF2CF4695F1DF08C0161617061806F2
:101FE000991FF1CF86957105610508940895E5DF85
:101FF000A0F0BEE7B91788F4BB279F3860F4161627
:10200000B11D672F782F8827985FF7CF8695779532
:102010006795B11D93959639C8F30895E894BB2749
:1020200066277727CB0197F9089548DF08F48FEFEB
:1020300008950BD0A9CF9ADF28F09FDF18F09523E1
:1020400009F060CF90CF1124EACFAFDFA0F3959FC6
:10205000D1F3950F50E0551F629FF001729FBB278F
:10206000F00DB11D639FAA27F00DB11DAA1F649F3B
:102070006627B00DA11D661F829F2227B00DA11DEE
:10208000621F739FB00DA11D621F839FA00D611D74
:10209000221F749F3327A00D611D231F849F600D95
:1020A000211D822F762F6A2F11249F5750408AF0CE
:1020B000E1F088234AF0EE0FFF1FBB1F661F771F5A
:1020C000881F91505040A9F79E3F510570F01ACFDC
:1020D000A6CF5F3FECF3983EDCF386957795679546
:1020E000B795F795E7959F5FC1F7FE2B880F911D78
:1020F0009695879597F90895E1DE880B990B0895D9
:10210000629FD001739FF001829FE00DF11D649FDB
:10211000E00DF11D929FF00D839FF00D749FF00D67
:10212000659FF00D9927729FB00DE11DF91F639F08
:10213000B00DE11DF91FBD01CF0111240895A1E2E9
:102140001A2EAA1BBB1BFD010DC0AA1FBB1FEE1F31
:10215000FF1FA217B307E407F50720F0A21BB30B7C
:10216000E40BF50B661F771F881F991F1A9469F7F8
:1021700060957095809590959B01AC01BD01CF0154
:102180000895EE0FFF1F0590F491E02D099410E0E3
:10219000CEECD0E004C0FE010E94C3102296C03DE8
:0821A000D107C9F7F894FFCF45
:1021A8006E616E00696E66006F7666002E000180B3
:1021B800005902000000000000C9085F095F08908C
:0621C800087008B90800D0
:00000001FF
