:100000000C9466000C948E000C948E000C948E0060
:100010000C948E000C948E000C948E000C948E0028
:100020000C948E000C948E000C9430060C948E0070
:100030000C948E000C948E000C948E000C948E0008
:100040000C946A020C948E000C94F6030C944404F5
:100050000C948E000C948E000C948E000C948E00E8
:100060000C948E000C948E000000000024002700E9
:100070002A0000000000250028002B0000000000DE
:1000800023002600290004040404040404040202DA
:100090000202020203030303030301020408102007
:1000A0004080010204081020010204081020000012
:1000B0000007000201000003040600000000000029
:1000C0000000DF00B5010002B005840711241FBE47
:1000D000CFEFD8E0DEBFCDBF11E0A0E0B1E0E0E0BF
:1000E000F4E102C005900D92A231B107D9F712E0F8
:1000F000A2E1B1E001C01D92A931B107E1F710E022
:10010000CCECD0E004C02297FE010E94FA09C23C68
:10011000D107C9F70E945B020C94FE090C94000001
:10012000862F60E00E944E030895862F61E00E94B2
:100130004E030895FC01838160E00E944E03089500
:1001400082E191E00E949A0085EE91E064E170E026
:1001500040EA50E00E9469070895FC01838161E054
:100160000E944E03089582E191E00E94AD0085EE69
:1001700091E064E170E040EA50E00E94B606089524
:100180000E94B3000895862F0E94A2030895FC01E7
:1001900082810E94ED0208950F931F938C018EE0DF
:1001A000F801828387E0838361E00E940F0388E087
:1001B00090E0F801918380831F910F91089582E16F
:1001C00091E00E94CC0008950895CF93DF93EC0155
:1001D00082E191E06D810E94C300892B31F4888116
:1001E000882319F481E08B8388838B81882349F0ED
:1001F00082E191E06C810E9495001B821F821E8229
:100200001FC088818823B9F082E191E06C810E944F
:10021000950080911201909113012E813F81820FF0
:10022000931F9F838E8329813A818217930744F01D
:1002300018821F821E8282E191E06C810E949000F0
:10024000DF91CF9108950F931F938C01822FF801B6
:1002500072836183108213822483458317821682FE
:1002600061E00E940F03F801858160E00E940F03A6
:100270001F910F9108954F925F926F927F928F928C
:100280009F92AF92BF92CF92DF92EF92FF920F9325
:100290001F936C0182E191E00E94C7007C01F6018E
:1002A00062817381882777FD8095982F0E9492083C
:1002B0002B013C01F60164817581882777FD8095CB
:1002C000982F0E9492084B015C010027F7FC0095D3
:1002D000102FC801B7010E9492087B018C01F60122
:1002E00066817781882777FD8095982F0E949208F4
:1002F0009B01AC01C801B7010E94F7079B01AC014B
:10030000C501B4010E9473099B01AC01C301B20194
:100310000E9492071F910F91FF90EF90DF90CF9076
:10032000BF90AF909F908F907F906F905F904F9015
:1003300008950E943B019B01AC0160E070E08AE7F8
:1003400094E40E94F70720E030E040E752E40E9486
:10035000730920E030E040E05FE30E9493070E94D1
:10036000CD080E945F08CB01089580EF90E0909344
:10037000190180931801E8E1F1E088E290E092939E
:10038000829388EC90E090931B0180931A018CEF8C
:1003900093E090931D0180931C01CF010E9499016D
:1003A00090932101809320010895CF93DF93809152
:1003B0001E0190911F012091120130911301820FB3
:1003C000931F90931F0180931E0186E191E00E948C
:1003D0009901EC0180911E0190911F01C817D90766
:1003E00044F482E191E00E94C00010921F0110923B
:1003F0001E01D0932101C0932001DF91CF91089578
:1004000082E291E00E94E4008AE291E00E94E4002E
:10041000089585EE91E00E94690608958AE291E0D0
:100420000E94E500089582E291E00E94E5000895AF
:100430000E94D50108950F931F9383EC91E040E84B
:1004400055E260E070E00E947F0482E291E064E6A1
:1004500070E04AE029E00E9423018AE291E064E62C
:1004600070E04DE02CE00E94230105EE11E0C80190
:100470000E944E066091120170911301C80148E17B
:1004800052E00E94B6066091120170911301C801FA
:1004900043E152E00E94B60660911201709113018F
:1004A000C8014EE052E00E94B606C8010E946306F1
:1004B0001F910F910895CF93DF930E94B2020E9483
:1004C0001B02C1E3D4E00E9409022097E1F30E94DD
:1004D0003104F9CF1F920F920FB60F9211242F9370
:1004E0003F938F939F93AF93BF93809136019091E9
:1004F0003701A0913801B091390130913A0101964C
:10050000A11DB11D232F2D5F2D3720F02D570196F2
:10051000A11DB11D20933A018093360190933701BC
:10052000A0933801B0933901809132019091330149
:10053000A0913401B09135010196A11DB11D8093A8
:10054000320190933301A0933401B0933501BF91F0
:10055000AF919F918F913F912F910F900FBE0F9070
:100560001F901895789484B5826084BD84B58160AD
:1005700084BD85B5826085BD85B5816085BDEEE6AB
:10058000F0E0808181608083E1E8F0E0108280818A
:1005900082608083808181608083E0E8F0E08081F8
:1005A00081608083E1EBF0E0808184608083E0EB18
:1005B000F0E0808181608083EAE7F0E08081846000
:1005C000808380818260808380818160808380815C
:1005D000806880831092C1000895982F8E3008F0B3
:1005E0009E509770809100018295880F880F807CC3
:1005F000892B80937C0080917A00806480937A00BC
:1006000080917A0086FDFCCF20917800409179009E
:10061000942F80E030E0282B392BC9010895CF9327
:10062000DF93482F50E0CA0186569F4FFC0134915A
:100630004A575F4FFA018491882369F190E0880F4F
:10064000991FFC01E859FF4FA591B491FC01EE58A8
:10065000FF4FC591D491662351F42FB7F8948C9134
:10066000932F909589238C93888189230BC06230C6
:1006700061F42FB7F8948C91932F909589238C93E4
:100680008881832B88832FBF06C09FB7F8948C91F5
:10069000832B8C939FBFDF91CF910895482F50E01B
:1006A000CA0182559F4FFC012491CA0186569F4F73
:1006B000FC0194914A575F4FFA013491332309F4B6
:1006C00040C0222351F1233071F0243028F421302E
:1006D000A1F0223011F514C02630B1F02730C1F05E
:1006E0002430D9F404C0809180008F7703C08091BA
:1006F00080008F7D8093800010C084B58F7702C00A
:1007000084B58F7D84BD09C08091B0008F7703C010
:100710008091B0008F7D8093B000E32FF0E0EE0F6A
:10072000FF1FEE58FF4FA591B4912FB7F8946623A1
:1007300021F48C919095892302C08C91892B8C9304
:100740002FBF0895682F70E0CB0182559F4FFC01A9
:100750002491CB0186569F4FFC0144916A577F4FED
:10076000FB019491992319F420E030E03CC022234E
:1007700051F1233071F0243028F42130A1F02230DF
:1007800011F514C02630B1F02730C1F02430D9F46F
:1007900004C0809180008F7703C0809180008F7D9E
:1007A0008093800010C084B58F7702C084B58F7DA0
:1007B00084BD09C08091B0008F7703C08091B000E4
:1007C0008F7D8093B000892F90E0880F991F845807
:1007D0009F4FFC01A591B4918C9120E030E08423DF
:1007E00011F021E030E0C901089508951F920F92A1
:1007F0000FB60F9211242F933F934F938F939F9394
:10080000EF93FF938091C00082FD1DC04091C60010
:1008100020917B0130917C012F5F3F4F2F7330700F
:1008200080917D0190917E012817390771F0E09148
:100830007B01F0917C01E55CFE4F408330937C01AD
:1008400020937B0102C08091C600FF91EF919F91A0
:100850008F914F913F912F910F900FBE0F901F904E
:100860001895E091CF01F091D001E05CFF4F8191AC
:10087000919120813181821B930B8F739070892B12
:1008800011F00E94F50308951F920F920FB60F9278
:1008900011242F933F938F939F93EF93FF93209176
:1008A000BF013091C0018091C1019091C201281710
:1008B000390731F48091C1008F7D8093C10014C04D
:1008C000E091C101F091C201E158FE4F2081809179
:1008D000C1019091C20101968F7390709093C201F3
:1008E0008093C1012093C600FF91EF919F918F915A
:1008F0003F912F910F900FBE0F901F901895AF92C0
:10090000BF92DF92EF92FF920F931F93CF93DF93EB
:10091000EC017A018B01DD24403081EE580780E044
:10092000680780E0780711F0DD24D39491E0A92EC8
:10093000B12CEC89FD89DD2069F0C50108A002C059
:10094000880F991F0A94E2F7808360E079E08DE3D5
:1009500090E005C0108260E874E88EE190E0A801A4
:1009600097010E94D6092150304040405040569592
:1009700047953795279580E12030380720F0DD2016
:1009800011F0DD24D6CFE889F9893083EA89FB8923
:10099000208319A2EE89FF89408121E030E0C9015E
:1009A0000C8C02C0880F991F0A94E2F7482B4083F1
:1009B000EE89FF894081C9010D8C02C0880F991F03
:1009C0000A94E2F7482B4083EE89FF894081C901F0
:1009D0000E8C02C0880F991F0A94E2F7482B4083BF
:1009E000EE89FF8980810F8C02C0220F331F0A9489
:1009F000E2F7209528232083DF91CF911F910F915B
:100A0000FF90EF90DF90BF90AF900895DC011C96AF
:100A1000ED91FC911D97E05CFF4F21913191808118
:100A20009181281B390B2F733070C9010895DC01A7
:100A30001C96ED91FC911D97E05CFF4F2081318168
:100A4000E054F040DF01AE5BBF4F8D919C91119758
:100A50002817390719F42FEF3FEF07C08D919C91AC
:100A6000E80FF91F8081282F30E0C9010895DC01CB
:100A70001C96ED91FC911D97E05CFF4F2081318128
:100A8000E054F040DF01AE5BBF4F8D919C91119718
:100A90002817390719F42FEF3FEF10C08D919C9163
:100AA0001197E80FF91F20818D919C911197019664
:100AB0008F73907011969C938E9330E0C9010895C6
:100AC000DC0191968C919197882339F05496ED91A1
:100AD000FC915597808186FFF9CF91961C920895DD
:100AE000CF93DF93EC01EE85FF85E05CFF4F208123
:100AF0003181E054F0402F5F3F4F2F733070DF01A2
:100B0000AE5BBF4F8D919C91119728173907D1F398
:100B1000E05CFF4F80819181E054F040E80FF91FC5
:100B20006083EE85FF85E05CFF4F31832083EE8993
:100B3000FF89208181E090E00F8C02C0880F991F0F
:100B40000A94E2F7282B208381E089A3EC89FD89B0
:100B500080818064808381E090E0DF91CF9108956F
:100B60001092C6011092C50188EE93E0A0E0B0E0BB
:100B70008093C7019093C801A093C901B093CA01A3
:100B800085E091E09093C4018093C3018BE391E0F1
:100B90009093D0018093CF018FE791E09093D201A1
:100BA0008093D10185EC90E09093D4018093D301A0
:100BB00084EC90E09093D6018093D50180EC90E096
:100BC0009093D8018093D70181EC90E09093DA0163
:100BD0008093D90182EC90E09093DC018093DB015B
:100BE00086EC90E09093DE018093DD0184E08093B9
:100BF000DF0183E08093E00187E08093E10185E0FD
:100C00008093E20181E08093E3010895CF92DF9227
:100C1000EF92FF920F931F93CF93DF937C016B01B1
:100C20008A01C0E0D0E00FC0D6016D916D01D701FF
:100C3000ED91FC910190F081E02DC7010995C80F5D
:100C4000D91F015010400115110571F7CE01DF9138
:100C5000CF911F910F91FF90EF90DF90CF9008956B
:100C60001F920F920FB60F9211248F939F93EF93C1
:100C7000FF93809118028F5F80931802E5EEF1E0F8
:100C800080819181019691838083FF91EF919F9163
:100C90008F910F900FBE0F901F901895F89410929F
:100CA000800088E1809381008FE79EE39093870026
:100CB0008093860080E280936F00109285001092EE
:100CC000840078940895E1E8F0E080818160808379
:100CD0000895EF92FF921F93CF93DF93EC018BA9BE
:100CE0008823F1F1E82EFF241BAA10E036C0412F23
:100CF00050E0FA01EE0FFF1FE40FF51FDF01AA0F0E
:100D0000BB1FAC0FBD1F14962D913C9115972E194A
:100D10003F0915963C932E93149712161306E4F090
:100D20003196EE0FFF1FEC0FFD1F80819181280F80
:100D3000391F15963C932E931497CA010196FC0116
:100D4000EE0FFF1FE80FF91FEE0FFF1FEC0FFD1F47
:100D50000190F081E02D09951F5F8AA9181738F2DC
:100D6000DF91CF911F91FF90EF9008950F931F9304
:100D7000CF93DF93EC018A014AA910C0F901EE0F6D
:100D8000FF1FE20FF31F3196EE0FFF1FEC0FFD1F49
:100D900086E00D9001928150E1F741504423A1F08B
:100DA000242F30E0C9010197DC01AA0FBB1FA80F57
:100DB000B91F1196AA0FBB1FAC0FBD1F8D919C913F
:100DC000119768177907D4F28AA98F5F8AAB242F0D
:100DD00030E0C9010196FC01EE0FFF1FE80FF91F7B
:100DE000EE0FFF1FEC0FFD1F11830083F901EE0FC3
:100DF000FF1FE20FF31FDF01AA0FBB1FAC0FBD1FC8
:100E000015967C936E9314973196EE0FFF1FEC0F9F
:100E1000FD1F71836083DF91CF911F910F91089522
:100E2000CF93DF93EC01DB017AA960E0462F50E01D
:100E3000FA01EE0FFF1FE40FF51F3196EE0FFF1FB3
:100E4000EC0FFD1F2D913C91119780819181281706
:100E50003907A1F4CA010196FC01EE0FFF1FE80F4C
:100E6000F91FEE0FFF1FEC0FFD1F14962D913C9103
:100E70001597808191812817390719F06F5F7617D0
:100E8000A8F6671718F571507AAB1DC0862F90E051
:100E9000DC01AA0FBB1FA80FB91F1196AA0FBB1F19
:100EA0000196FC01EE0FFF1FE80FF91F3196EE0FC0
:100EB000FF1FAC0FBD1FEC0FFD1F86E001900D92D0
:100EC0008150E1F76F5F8AA9681700F3DF91CF9136
:100ED0000895DF93CF9300D000D000D0CDB7DEB718
:100EE0007A8369837C836B835E834D83BE016F5FEE
:100EF0007F4F0E94100726960FB6F894DEBF0FBEF4
:100F0000CDBFCF91DF910895E7EEF1E0118210821D
:100F10001382128215821482369682E0E731F80736
:100F2000A9F708955058BB27AA270ED08BC17CD1B2
:100F300030F081D120F031F49F3F11F41EF471C1E3
:100F40000EF4E095E7FB3CC1E92F8DD180F3BA1791
:100F5000620773078407950718F071F49EF5BCC10A
:100F60000EF4E0950B2EBA2FA02D0B01B9019001C4
:100F70000C01CA01A0011124FF27591B99F0593F08
:100F800050F4503E68F11A16F040A22F232F342F50
:100F90004427585FF3CF469537952795A795F0409E
:100FA0005395C9F77EF41F16BA0B620B730B840BB3
:100FB000BAF09150A1F0FF0FBB1F661F771F881F6B
:100FC000C2F70EC0BA0F621F731F841F48F48795C3
:100FD00077956795B795F7959E3F08F0B3CF9395B2
:100FE000880F08F09927EE0F9795879508950CD0F4
:100FF00029C121D140F018D130F021F45F3F19F020
:10100000DFC051116AC10DC12ED198F39923C9F3E4
:101010005523B1F3951B550BBB27AA2762177307FE
:10102000840738F09F5F5F4F220F331F441FAA1FB2
:10103000A9F333D00E2E3AF0E0E830D09150504072
:10104000E695001CCAF729D0FE2F27D0660F771F20
:10105000881FBB1F261737074807AB07B0E809F002
:10106000BB0B802DBF01FF2793585F4F2AF09E3F97
:10107000510568F0A5C031C15F3FECF3983EDCF349
:10108000869577956795B795F7959F5FC9F7880F10
:10109000911D9695879597F90895E1E0660F771F62
:1010A000881FBB1F621773078407BA0720F0621BF3
:1010B000730B840BBA0BEE1F88F7E095089504D0EC
:1010C0006894B1110AC10895D6D088F09F5790F066
:1010D000B92F9927B751A0F0D1F0660F771F881F5D
:1010E000991F1AF0BA95C9F712C0B13081F0F4D047
:1010F000B1E00895F1C0672F782F8827B85F39F0E5
:10110000B93FCCF3869577956795B395D9F73EF4BB
:1011100090958095709561957F4F8F4F9F4F089563
:10112000E89409C097FB3EF4909580957095619581
:101130007F4F8F4F9F4F9923A9F0F92F96E9BB2737
:101140009395F695879577956795B795F111F8CFB3
:10115000FAF4BB0F11F460FF1BC06F5F7F4F8F4F1E
:101160009F4F16C0882311F096E911C0772321F014
:101170009EE8872F762F05C0662371F096E8862FAC
:1011800070E060E02AF09A95660F771F881FDAF703
:10119000880F9695879597F9089587D080F09F37A7
:1011A00040F491110EF099C060E070E080E89FEB90
:1011B000089526F41B16611D711D811D07C021C0F5
:1011C00097F99F6780E870E060E00895882371F4E4
:1011D000772321F09850872B762F07C0662311F4D0
:1011E00099270DC09051862B70E060E02AF09A9507
:1011F000660F771F881FDAF7880F9695879597F9FE
:1012000008959F3F49F0915028F48695779567950A
:10121000B7959F5F80389F4F880F9695879597F970
:1012200008959FEF80EC089500240A94161617067F
:1012300018060906089500240A94121613061406C7
:1012400005060895092E0394000C11F4882352F02A
:10125000BB0F40F4BF2B11F460FF04C06F5F7F4FE2
:101260008F4F9F4F089557FD9058440F551F59F0C9
:101270005F3F71F04795880F97FB991F61F09F3F83
:1012800079F087950895121613061406551FF2CFAC
:101290004695F1DF08C0161617061806991FF1CFFC
:1012A00086957105610508940895E5DFA0F0BEE715
:1012B000B91788F4BB279F3860F41616B11D672F45
:1012C000782F8827985FF7CF869577956795B11D1A
:1012D00093959639C8F30895E894BB276627772736
:1012E000CB0197F908950BD0ADCF9EDF28F0A3DF97
:1012F00018F0952309F064CF94CF1124EECFB3DF1B
:10130000A0F3959FD1F3950F50E0551F629FF00118
:10131000729FBB27F00DB11D639FAA27F00DB11D71
:10132000AA1F649F6627B00DA11D661F829F2227FA
:10133000B00DA11D621F739FB00DA11D621F839F81
:10134000A00D611D221F749F3327A00D611D231F57
:10135000849F600D211D822F762F6A2F11249F57A5
:1013600050408AF0E1F088234AF0EE0FFF1FBB1FC8
:10137000661F771F881F91505040A9F79E3F510567
:1013800070F01ECFAACF5F3FECF3983EDCF386955A
:1013900077956795B795F795E7959F5FC1F7FE2B12
:1013A000880F911D9695879597F90895A1E21A2EB9
:1013B000AA1BBB1BFD010DC0AA1FBB1FEE1FFF1FF9
:1013C000A217B307E407F50720F0A21BB30BE40B49
:1013D000F50B661F771F881F991F1A9469F7609590
:1013E0007095809590959B01AC01BD01CF0108954A
:1013F000EE0FFF1F0590F491E02D0994F894FFCFB4
:101400000100000000700506060605370517056097
:021410000500D5
:00000001FF
