:100000000C9468000C9490000C9490000C94900058
:100010000C9490000C9490000C9490000C94900020
:100020000C9490000C9490000C94750E0C9490001D
:100030000C9490000C9490000C9490000C94900000
:100040000C9493080C9490000C941F0A0C946D0A65
:100050000C9490000C9490000C9490000C949000E0
:100060000C9490000C9490000000000024002700E5
:100070002A0000000000250028002B0000000000DE
:1000800023002600290004040404040404040202DA
:100090000202020203030303030301020408102007
:1000A0004080010204081020010204081020000012
:1000B0000007000201000003040600000000000029
:1000C0000000E500F202EA072708D90BC90F200853
:1000D00011241FBECFEFD8E0DEBFCDBF11E0A0E0FE
:1000E000B1E0E8EAF7E202C005900D92A234B10750
:1000F000D9F712E0A2E4B1E001C01D92AA38B1071D
:10010000E1F710E0CEECD0E004C02297FE010E949F
:10011000C313C23CD107C9F70E9484080C94C713CB
:100120000C940000862F60E00E9477090895862FC6
:1001300061E00E9477090895FC01858160E00E94DA
:100140007709089582E491E00E949C0082E592E0A4
:1001500064E170E042EA50E00E94AE0F0895FC01B5
:10016000858161E00E947709089582E491E00E9410
:10017000AF0082E592E064E170E042EA50E00E9464
:10018000FB0E08950E94B5000895862F0E94CB09AA
:100190000895FC0184810E94160908950F931F930E
:1001A0008C018EE0F801848387E0858361E00E9402
:1001B000380988E090E0F8019183808388EC90E032
:1001C000938382831F910F91089582E491E00E94AE
:1001D000CE0008950F931F93CF93DF93EC01888196
:1001E000882371F48E01085F1F4FC8010E944503E8
:1001F000882319F0C8010E94190481E08B83888349
:10020000DF91CF911F910F9108950F931F938C0150
:1002100082E491E0F80164810E949700F801138262
:10022000178216821F910F910895CF93DF93EC01EF
:1002300082E491E06D810E94C500892B19F4CE0102
:100240000E94EA008B81882331F4CE0108960E9437
:100250000C06882309F1CE010E94050121C082E429
:1002600091E06C810E94970080914201909143013E
:100270002E813F81820F931F9F838E8329813A8134
:10028000821793076CF018821F821E8282E491E02D
:100290006C810E94920004C08881882301F7F6CF08
:1002A000DF91CF91089508960E9460030895CF9240
:1002B000DF92EF92FF920F931F93CF93DF938C0106
:1002C0007B016817790709F4AEC0DB0114962D9104
:1002D0003C911597EC018A819B818217930798F5D1
:1002E000C880D9803B832A83C901880F991F880F52
:1002F000991F0E94720E9983888340E050E020E0AD
:1003000030E016C0F801C081D181C20FD31F209701
:1003100059F0F601E20FF31F80819181A281B38130
:1003200088839983AA83BB834F5F5F4F2C5F3F4FC6
:10033000D80114968D919C9115974817590710F381
:10034000C6010E946F0EE8018C819D81F7016481D6
:1003500075818617970708F4BC0140E050E020E063
:1003600030E017C0D801ED91FC91E20FF31FE701D7
:10037000A881B981A20FB31F8D919D910D90BC9161
:10038000A02D80839183A283B3834F5F5F4F2C5F47
:100390003F4F4617570730F3F80144815581D70185
:1003A00014968D919C9115974817590750F59A010D
:1003B000220F331F220F331F1EC0F801C081D181CD
:1003C000C20FD31FD701ED91FC91209751F0E20F9E
:1003D000F31F80819181A281B38188839983AA834D
:1003E000BB83E8018C819D8101969D838C834F5F47
:1003F0005F4F2C5F3F4FF701848195814817590764
:10040000E0F2D80114968D919C911597E7016C81CB
:100410007D816817790738F46817790720F41596F5
:100420007C936E931497C801DF91CF911F910F9128
:10043000FF90EF90DF90CF900895CF92DF92EF92F0
:10044000FF920F931F93DF93CF93CDB7DEB76197E2
:100450000FB6F894DEBF0FBECDBF8C01822FF8011E
:1004600072836183108213822483458317821682EC
:1004700061E00E943809F801858160E00E94380936
:100480007E010894E11CF11CC7010E94600338E062
:10049000C32ED12CC00ED11EC601B7010E94570138
:1004A000C8010F96BE01685F7F4F0E9457018F857C
:1004B0009889F801978B868B8989808F88859985A3
:1004C0000E946F0E89819A810E946F0EC6010E9460
:1004D0005E0661960FB6F894DEBF0FBECDBFCF911A
:1004E000DF911F910F91FF90EF90DF90CF900895D3
:1004F0004F925F926F927F928F929F92AF92BF9234
:10050000CF92DF92EF92FF920F931F936C0182E4E0
:1005100091E00E94C9007C01F60163817481882703
:1005200077FD8095982F0E9410122B013C01F60157
:1005300065817681882777FD8095982F0E9410121B
:100540004B015C010027F7FC0095102FC801B70193
:100550000E9410127B018C01F6016781708588274B
:1005600077FD8095982F0E9410129B01AC01C80165
:10057000B7010E9475119B01AC01C501B4010E9435
:1005800019139B01AC01C301B2010E940C111F9110
:100590000F91FF90EF90DF90CF90BF90AF909F9022
:1005A0008F907F906F905F904F9008950E94780297
:1005B0009B01AC0160E070E08AE794E40E94751151
:1005C00020E030E040E752E40E94191320E030E0E0
:1005D00040E05FE30E940D110E944B120E94DD116A
:1005E000CB01089580EF90E090934C0180934B01F4
:1005F00088E290E090934A018093490188EC90E072
:1006000090934E0180934D018CEF93E090935001B5
:1006100080934F01E8E4F1E01082CF010E94D602FE
:1006200090935401809353010895CF93DF93809169
:100630005101909152012091420130914301820F6A
:10064000931F90935201809351011092480188E4C6
:1006500091E00E94D602EC018091510190915201EB
:10066000C817D9075CF482E491E00E94C20081E0DF
:10067000809348011092520110925101D09354017D
:10068000C0935301DF91CF91089585E591E00E94D9
:10069000B20608950F931F938C01FC011182108202
:1006A00088E090E0938382831582148280E290E058
:1006B0000E94720EF801918380831F910F9108951B
:1006C0000F931F93DF93CF9300D0CDB7DEB78C018C
:1006D000BE016F5F7F4F0E944A03C8010796BE01AB
:1006E0006E5F7F4F0E944A030F900F90CF91DF9172
:1006F0001F910F910895EF92FF920F931F93CF9345
:10070000DF938C01FC01828193818617970790F516
:10071000E080F18073836283CB01880F991F880F7B
:10072000991F0E94720EF8019183808340E050E08F
:1007300020E030E016C0F801C081D181C20FD31F84
:10074000209759F0F701E20FF31F80819181A28178
:10075000B38188839983AA83BB834F5F5F4F2C5FEC
:100760003F4FF801848195814817590720F3C7014D
:100770000E946F0EDF91CF911F910F91FF90EF902C
:100780000895AF92BF92CF92DF92EF92FF920F93B4
:100790001F93CF93DF938C01EB017A01DC01149658
:1007A0008D919C9115978617970780F512968D91DC
:1007B0009C9113978617970728F4685F7F4FC801AD
:1007C0000E947B03F80124813581A901440F551F44
:1007D000440F551F14C0D801ED91FC91E40FF51F93
:1007E000309749F0D701AD90BD90CD90DC90A082BC
:1007F000B182C282D3822F5F3F4F4C5F5F4F2C1775
:100800003D0748F3F801D583C48308C0681779070A
:1008100028F4D80115967C936E931497DF91CF91AD
:100820001F910F91FF90EF90DF90CF90BF90AF900E
:1008300008950F931F93DF93CF9300D000D0CDB7CF
:10084000DEB78C0185E591E00E94AA0669837A8370
:100850008B839C83F801638574856F5F7F4FC8012C
:100860000796AE014F5F5F4F0E94C1030F900F903C
:100870000F900F90CF91DF911F910F9108952F92BC
:100880003F924F925F926F927F928F929F92AF9220
:10089000BF92CF92DF92EF92FF920F931F93DF935D
:1008A000CF93CDB7DEB760970FB6F894DEBF0FBE1B
:1008B000CDBF2C01DC011B968D919C911C9700975C
:1008C00009F491C114960D911C911597080F191FE9
:1008D00080E090E0A0E0B0E08A839B83AC83BD839E
:1008E0001F821E821B861A86C801089699878887F0
:1008F000880F991F880F991F0E94720E9F838E8305
:10090000CE010696B801AE014E5F5F4F0E94C10353
:10091000F2016080718084819581880F991F880F12
:10092000991F860D971D988B8F8787809084A3854C
:10093000B485AA0FBB1FAA0FBB1FA80DB91DBE8788
:10094000AD872E803F802AC0F401A080B180C28094
:10095000D380D301ED90FD900D911C91C601B5019E
:10096000A80197010E947111882354F4F101A0821B
:10097000B182C282D38284E090E0880E991E0AC0C0
:10098000D101ED92FD920D931C931397E4E0F0E0FA
:100990006E0E7F1E84E090E0280E391EAF85B88968
:1009A0006A167B0619F4F301910110C0ED85FE85EE
:1009B0008E169F0649F6F7CF419151916191719141
:1009C000D9014D935D936D937D939D018F8598899A
:1009D000E817F90789F7E619F709EC7FE20DF31D2F
:1009E0000AC0D4012D913D914D915D914D0121930E
:1009F0003193419351938D859E858816990689F789
:100A000080E392E060E071E00E945C0ED2011796F4
:100A10000D911C9118970CC0F80141915191619171
:100A200071918F0180E392E022E030E00E94490E54
:100A3000D2011B962D913C911C97220F331F220F40
:100A4000331F17968D919C911897820F931F08174B
:100A5000190711F780E392E069E071E00E945C0EF3
:100A6000F201008111810CC0D8014D915D916D9111
:100A70007D918D0180E392E022E030E00E94490EFA
:100A8000F20124813581220F331F220F331F808111
:100A90009181820F931F0817190731F780E392E0C5
:100AA00062E171E00E945C0E0E811F810CC0D801D2
:100AB0004D915D916D917D918D0180E392E022E0F9
:100AC00030E00E94490E6A857B859B01220F331F0F
:100AD000220F331F8E819F81820F931F08171907E2
:100AE00031F7CE0106964816590609F46DC0C201C9
:100AF0000E947B03F201848195816A857B8586173C
:100B0000970708F4BC0140E050E020E030E016C058
:100B1000D201ED91FC91E20FF31FAE81BF81A20FD4
:100B2000B31F8D919D910D90BC91A02D80839183D9
:100B3000A283B3834F5F5F4F2C5F3F4F461757072A
:100B400038F3F201648175818A859B85681779077E
:100B500070F5AB01440F551F440F551F23C0D20140
:100B60002D913C91240F351FEE81FF812115310518
:100B700059F0E40FF51F80819181A281B381F901C1
:100B800080839183A283B383D20114968D919C912B
:100B90001597019615969C938E9314976F5F7F4FD0
:100BA0004C5F5F4F8A859B8568177907C0F2F20119
:100BB000248135818A859B858217930728F48217C3
:100BC000930710F495838483D2011B968D919C9199
:100BD0001C97892B21F01C961C921E921B978E81CC
:100BE0009F810E946F0E60960FB6F894DEBF0FBE15
:100BF000CDBFCF91DF911F910F91FF90EF90DF90CC
:100C0000CF90BF90AF909F908F907F906F905F90AC
:100C10004F903F902F900895CF92DF92EF92FF92E6
:100C20000F931F93CF93DF93EC0185E591E00E9432
:100C3000B2068823C9F185E591E00E94AA066B01FE
:100C40007C018E859F8597FF09C08091550188237F
:100C500059F11F861E86CE010E943F040E851F8516
:100C6000C801880F991F880F991FE881F981E80F43
:100C7000F91FC701B60120813181428153810E9451
:100C8000151388238CF08C819D8101970817190713
:100C900028F08FEF9FEF9F878E8704C00F5F1F4F55
:100CA0001F870E8781E001C080E0DF91CF911F9107
:100CB0000F91FF90EF90DF90CF9008950F931F93C7
:100CC000DF93CF93CDB7DEB728970FB6F894DEBF8A
:100CD0000FBECDBF8C0180E090E0A0E0B0E0898342
:100CE0009A83AB83BC83F801648175816F5F7F4F0A
:100CF000C801AE014F5F5F4F0E94C10380E090E0EA
:100D0000A0E0BFE38D839E83AF83B887F801648141
:100D100075816F5F7F4FC801AE014B5F5F4F0E94CF
:100D2000C1038FEF9FEFF80197878687108A648150
:100D3000758180E392E04AE050E00E94080D289619
:100D40000FB6F894DEBF0FBECDBFCF91DF911F91DC
:100D50000F910895FC012489358946895789B90185
:100D6000CA010895FC0181810895CF93DF93EC01BE
:100D70008C859D85892B29F582E491E06A850E9406
:100D8000C500892BF1F48C859D852091420130911D
:100D90004301820F931F9D878C8781E00FC01D86C2
:100DA0001C860BC01216130644F4809142019091E8
:100DB0004301820F931F9D878C8780E0DF91CF9145
:100DC00008952C853D858091440190914501281717
:100DD000390744F3E4CFCF93DF93EC0188859985FD
:100DE000892B29F582E491E06E810E94C500892B50
:100DF000F1F4888599852091420130914301820F59
:100E0000931F9987888781E00FC0198618860BC0C9
:100E10001216130644F48091420190914301820F0F
:100E2000931F9987888780E0DF91CF910895288567
:100E3000398580914401909145012817390744F381
:100E4000E4CFCF92DF92EF92FF920F931F93CF9355
:100E5000DF93EC018981882391F188E491E00E947D
:100E6000D6026C016091420170914301882777FDA1
:100E70008095982F0E9410127B018C018889998996
:100E8000C89EB001C99E700DD89E700D1124882790
:100E900077FD8095982F0E9410129B01AC01C8012C
:100EA000B7010E9475119B01AC016C897D898E8907
:100EB0009F890E940D116C8B7D8B8E8B9F8BDF9198
:100EC000CF911F910F91FF90EF90DF90CF900895F9
:100ED000FC0110828685882351F080914801882387
:100EE00031F0808991890196918B808B23C080910C
:100EF00048018823F9F087858823E1F081E0818328
:100F000022893389808991892817390711F037FFA1
:100F10000CC0138A128A80E090E0A0E0B0E0848BDD
:100F2000958BA68BB78B81E080838289938901960C
:100F3000938B828B8785882319F0CF010E9421072C
:100F40000895CF93DF93EC010E94EB06882361F0B4
:100F50008E85882331F48F85882331F481E08E8754
:100F600003C01E8681E08F87CE010E94B5068823CC
:100F700019F01F86198A188ACE010E946807DF912E
:100F8000CF9108950F931F938C01862FF8016683EC
:100F900077835387428760E00E943809F801828591
:100FA00060E00E943809F8011586148611861086C3
:100FB0001786118A108A8FEF9FEF938B828B80E0C8
:100FC00090E0A0E0B0E0848B958BA68BB78B1F914F
:100FD0000F91089585E591E066E070E045E050E00E
:100FE0000E94C20708950F931F938C01FC0187850F
:100FF00090890E946F0EF801808591850E946F0E86
:101000001F910F9108958130910561F46F5F7F4FBB
:10101000B1F48DE691E00E94530186E891E00E94D0
:1010200053010895892B59F46F5F7F4F41F486E88F
:1010300091E00E94F3078DE691E00E94F307089586
:1010400080E090E06FEF7FEF0E940308089581E059
:1010500090E06FEF7FEF0E940308089582E592E031
:101060000E94AE0E089586E891E00E941501089551
:101070008DE691E00E94150108950E94150385E513
:1010800091E00E94A10708950F931F9380E392E0DF
:1010900040E855E260E070E00E94A80A8DE691E029
:1010A00064E670E04AE029E00E941D0286E891E0D3
:1010B00064E670E04DE02CE00E941D0202E512E0C3
:1010C000C8010E94930E6091420170914301C801D2
:1010D0004DE358E00E94FB0E609142017091430184
:1010E000C80148E358E00E94FB0E609142017091F4
:1010F0004301C80143E358E00E94FB0EC8010E946F
:10110000A80E1F910F910895CF93DF930E94DB08E3
:101110000E944408CAE5DAE00E942E082097E1F315
:101120000E945A0AF9CF1F920F920FB60F92112404
:101130002F933F938F939F93AF93BF938091A3017E
:101140009091A401A091A501B091A6013091A701B1
:101150000196A11DB11D232F2D5F2D3720F02D5796
:101160000196A11DB11D2093A7018093A301909327
:10117000A401A093A501B093A60180919F01909135
:10118000A001A091A101B091A2010196A11DB11DE4
:1011900080939F019093A001A093A101B093A2011D
:1011A000BF91AF919F918F913F912F910F900FBE63
:1011B0000F901F901895789484B5826084BD84B593
:1011C000816084BD85B5826085BD85B5816085BD42
:1011D000EEE6F0E0808181608083E1E8F0E010825B
:1011E000808182608083808181608083E0E8F0E09C
:1011F000808181608083E1EBF0E080818460808386
:10120000E0EBF0E0808181608083EAE7F0E08081BC
:10121000846080838081826080838081816080831C
:101220008081806880831092C1000895982F8E304D
:1012300008F09E50977080912B018295880F880F3F
:10124000807C892B80937C0080917A0080648093DD
:101250007A0080917A0086FDFCCF20917800409141
:101260007900942F80E030E0282B392BC9010895B4
:10127000CF93DF93482F50E0CA0186569F4FFC0161
:1012800034914A575F4FFA018491882369F190E0C5
:10129000880F991FFC01E859FF4FA591B491FC01FB
:1012A000EE58FF4FC591D491662351F42FB7F894AF
:1012B0008C91932F909589238C93888189230BC0DF
:1012C000623061F42FB7F8948C91932F9095892315
:1012D0008C938881832B88832FBF06C09FB7F89497
:1012E0008C91832B8C939FBFDF91CF910895482FD2
:1012F00050E0CA0182559F4FFC012491CA018656D5
:101300009F4FFC0194914A575F4FFA013491332368
:1013100009F440C0222351F1233071F0243028F425
:101320002130A1F0223011F514C02630B1F0273061
:10133000C1F02430D9F404C0809180008F7703C0BD
:10134000809180008F7D8093800010C084B58F775E
:1013500002C084B58F7D84BD09C08091B0008F77B5
:1013600003C08091B0008F7D8093B000E32FF0E048
:10137000EE0FFF1FEE58FF4FA591B4912FB7F894D1
:10138000662321F48C919095892302C08C91892B3E
:101390008C932FBF0895682F70E0CB0182559F4F2B
:1013A000FC012491CB0186569F4FFC0144916A5762
:1013B0007F4FFB019491992319F420E030E03CC069
:1013C000222351F1233071F0243028F42130A1F090
:1013D000223011F514C02630B1F02730C1F024308E
:1013E000D9F404C0809180008F7703C08091800081
:1013F0008F7D8093800010C084B58F7702C084B544
:101400008F7D84BD09C08091B0008F7703C080912B
:10141000B0008F7D8093B000892F90E0880F991FD6
:1014200084589F4FFC01A591B4918C9120E030E04D
:10143000842311F021E030E0C901089508951F923E
:101440000F920FB60F9211242F933F934F938F93C8
:101450009F93EF93FF938091C00082FD1DC0409148
:10146000C6002091E8013091E9012F5F3F4F2F73B3
:1014700030708091EA019091EB012817390771F0E3
:10148000E091E801F091E901E855FE4F4083309387
:10149000E9012093E80102C08091C600FF91EF911D
:1014A0009F918F914F913F912F910F900FBE0F9071
:1014B0001F901895E0913C02F0913D02E05CFF4FD7
:1014C0008191919120813181821B930B8F73907058
:1014D000892B11F00E941E0A08951F920F920FB6D9
:1014E0000F9211242F933F938F939F93EF93FF932A
:1014F00020912C0230912D0280912E0290912F028A
:101500002817390731F48091C1008F7D8093C10085
:1015100014C0E0912E02F0912F02E451FE4F208181
:1015200080912E0290912F0201968F73907090936C
:101530002F0280932E022093C600FF91EF919F917E
:101540008F913F912F910F900FBE0F901F90189584
:10155000AF92BF92DF92EF92FF920F931F93CF93C0
:10156000DF93EC017A018B01DD24403081EE5807D6
:1015700080E0680780E0780711F0DD24D39491E0E3
:10158000A92EB12CEC89FD89DD2069F0C50108A0E8
:1015900002C0880F991F0A94E2F7808360E079E027
:1015A0008DE390E005C0108260E874E88EE190E081
:1015B000A80197010E949F132150304040405040A5
:1015C000569547953795279580E12030380720F0CC
:1015D000DD2011F0DD24D6CFE889F9893083EA894E
:1015E000FB89208319A2EE89FF89408121E030E048
:1015F000C9010C8C02C0880F991F0A94E2F7482B8E
:101600004083EE89FF894081C9010D8C02C0880F9B
:10161000991F0A94E2F7482B4083EE89FF894081A5
:10162000C9010E8C02C0880F991F0A94E2F7482B5B
:101630004083EE89FF8980810F8C02C0220F331F07
:101640000A94E2F7209528232083DF91CF911F9100
:101650000F91FF90EF90DF90BF90AF900895DC0165
:101660001C96ED91FC911D97E05CFF4F219131910B
:1016700080819181281B390B2F733070C901089527
:10168000DC011C96ED91FC911D97E05CFF4F2081E1
:101690003181E054F040DF01AE5BBF4F8D919C91F2
:1016A00011972817390719F42FEF3FEF07C08D91D5
:1016B0009C91E80FF91F8081282F30E0C90108951F
:1016C000DC011C96ED91FC911D97E05CFF4F2081A1
:1016D0003181E054F040DF01AE5BBF4F8D919C91B2
:1016E00011972817390719F42FEF3FEF10C08D918C
:1016F0009C911197E80FF91F20818D919C91119772
:1017000001968F73907011969C938E9330E0C9016F
:101710000895DC0191968C919197882339F0549625
:10172000ED91FC915597808186FFF9CF91961C929F
:101730000895CF93DF93EC01EE85FF85E05CFF4FCA
:1017400020813181E054F0402F5F3F4F2F73307084
:10175000DF01AE5BBF4F8D919C9111972817390720
:10176000D1F3E05CFF4F80819181E054F040E80FBD
:10177000F91F6083EE85FF85E05CFF4F3183208396
:10178000EE89FF89208181E090E00F8C02C0880FF4
:10179000991F0A94E2F7282B208381E089A3EC8922
:1017A000FD8980818064808381E090E0DF91CF912A
:1017B0000895109233021092320288EE93E0A0E076
:1017C000B0E08093340290933502A0933602B09338
:1017D000370286E391E0909331028093300288EAE9
:1017E00091E090933D0280933C028CEE91E09093C7
:1017F0003F0280933E0285EC90E0909341028093FB
:10180000400284EC90E0909343028093420280EC8B
:1018100090E0909345028093440281EC90E0909395
:1018200047028093460282EC90E0909349028093B5
:10183000480286EC90E090934B0280934A0284E049
:1018400080934C0283E080934D0287E080934E02A8
:1018500085E080934F0281E0809350020895CF92FB
:10186000DF92EF92FF920F931F93CF93DF937C0150
:101870006B018A01C0E0D0E00FC0D6016D916D010F
:10188000D701ED91FC910190F081E02DC701099500
:10189000C80FD91F015010400115110571F7CE0175
:1018A000DF91CF911F910F91FF90EF90DF90CF903C
:1018B0000895EF92FF920F931F938C01DC01ED913D
:1018C000FC910190F081E02D6DE009957C01D8013B
:1018D000ED91FC910190F081E02DC8016AE009953D
:1018E0009C012E0D3F1DC9011F910F91FF90EF909C
:1018F0000895CF93DF93EC016115710519F420E091
:1019000030E00FC0DB010D900020E9F71197A61B16
:10191000B70BE881F9810280F381E02DAD010995D3
:101920009C01C901DF91CF9108954F925F927F9200
:101930008F929F92AF92BF92CF92DF92EF92FF92DF
:101940000F931F93DF93CF93CDB7DEB7A1970FB659
:10195000F894DEBF0FBECDBF2C01742ECB01223018
:1019600008F42AE019A231E2C32ED12CCC0EDD1EE0
:10197000822E9924AA24BB24672D752FA5019401DA
:101980000E949F1379018A01C801B701A501940142
:101990000E948013472D461B0894C108D1084A3085
:1019A00014F4405D01C0495CF6014083E114F10488
:1019B0000105110521F07E2C5F2DC801DDCFC2018C
:1019C000B6010E94790CA1960FB6F894DEBF0FBE47
:1019D000CDBFCF91DF911F910F91FF90EF90DF90DE
:1019E000CF90BF90AF909F908F907F905F904F90DF
:1019F0000895DC012115310541F4ED91FC91019030
:101A0000F081E02D642F099508950E94950C0895AA
:101A1000CF92DF92EF92FF920F931F936C017B01A5
:101A20009A0100E010E0B801A7010E94F90C8C01B6
:101A3000C6010E94590C080F191FC8011F910F9170
:101A4000FF90EF90DF90CF900895CF92DF92EF92CA
:101A5000FF920F931F93CF93DF93EC016A017B01F9
:101A60002115310541F4E881F9810190F081E02DE3
:101A7000642F09951FC02A303105D1F477FF17C0B4
:101A8000E881F9810190F081E02D6DE209958C01EA
:101A900044275527BA014C195D096E097F09CE010B
:101AA0002AE00E94950C9801280F391F04C02AE0F3
:101AB0000E94950C9C01C901DF91CF911F910F915C
:101AC000FF90EF90DF90CF9008957F928F929F923A
:101AD000AF92BF92CF92DF92EF92FF920F931F933C
:101AE000CF93DF934C017A018B01722ECB01BA01A7
:101AF000A80197010E947C13882321F0C4016DE1A5
:101B000071E021C0C0E0D0E057016801E894D7F847
:101B1000C601B5012FEF3FEF4FE75FE70E947C134F
:101B2000882351F4C601B5012FEF3FEF4FE75FE780
:101B30000E947111181614F0C1E0D0E0219739F01D
:101B4000C40161E271E00E94790CEC0193C0C8010C
:101B5000B7012FEF3FEF4FE75FE40E941513181610
:101B600054F0C801B7012FEF3FEF4FE75FEC0E9441
:101B70007111882324F4C40165E271E0E4CFC80147
:101B8000B70120E030E040E050E00E94711187FD95
:101B900003C0C0E0D0E00EC0D401ED91FC910190F3
:101BA000F081E02DC4016DE20995EC0117FB109561
:101BB00017F9109520E030E040E05FE3DD240BC032
:101BC000CA01B90120E030E040E251E40E94751101
:101BD0009B01AC01D394D71498F3C801B7010E94BC
:101BE0000D115B016C010E94E2117B018C01C401AB
:101BF000B801A7012AE030E00E94F90CC80FD91FF4
:101C0000772039F0C40169E271E00E94790CC80FB5
:101C1000D91FC801B7010E940E129B01AC01C60179
:101C2000B5010E940C1124C020E030E040E251E4F4
:101C30000E9419137B018C010E94DD115B016C0174
:101C4000CC24B7FCC094DC2CC401B601A5012AE069
:101C500030E00E94250DC80FD91FC601B5010E94B2
:101C600010129B01AC01C801B7010E940C117A94BB
:101C70007720D1F6CE01DF91CF911F910F91FF9088
:101C8000EF90DF90CF90BF90AF909F908F907F901C
:101C90000895EF92FF920F931F937C010E94650DB0
:101CA0008C01C7010E94590C080F191FC8011F9110
:101CB0000F91FF90EF900895EF92FF920F931F9373
:101CC0007C010E94790C8C01C7010E94590C080FFD
:101CD000191FC8011F910F91FF90EF9008950E9466
:101CE000741008950E94D70F08951F920F920FB697
:101CF0000F9211248F939F93EF93FF93809185020E
:101D00008F5F80938502E2E5F2E080819181019608
:101D100091838083FF91EF919F918F910F900FBEE0
:101D20000F901F901895F8941092800088E180938E
:101D300081008FE79EE3909387008093860080E286
:101D400080936F001092850010928400789408951B
:101D5000E1E8F0E08081816080830895EF92FF9256
:101D60001F93CF93DF93EC018BA98823F1F1E82E29
:101D7000FF241BAA10E036C0412F50E0FA01EE0FFD
:101D8000FF1FE40FF51FDF01AA0FBB1FAC0FBD1F24
:101D900014962D913C9115972E193F0915963C9359
:101DA0002E93149712161306E4F03196EE0FFF1FD0
:101DB000EC0FFD1F80819181280F391F15963C93F0
:101DC0002E931497CA010196FC01EE0FFF1FE80F36
:101DD000F91FEE0FFF1FEC0FFD1F0190F081E02DAA
:101DE00009951F5F8AA9181738F2DF91CF911F91CB
:101DF000FF90EF9008950F931F93CF93DF93EC0123
:101E00008A014AA910C0F901EE0FFF1FE20FF31F6C
:101E10003196EE0FFF1FEC0FFD1F86E00D90019233
:101E20008150E1F741504423A1F0242F30E0C90153
:101E30000197DC01AA0FBB1FA80FB91F1196AA0FAB
:101E4000BB1FAC0FBD1F8D919C911197681779072F
:101E5000D4F28AA98F5F8AAB242F30E0C9010196A2
:101E6000FC01EE0FFF1FE80FF91FEE0FFF1FEC0F35
:101E7000FD1F11830083F901EE0FFF1FE20FF31F17
:101E8000DF01AA0FBB1FAC0FBD1F15967C936E938D
:101E900014973196EE0FFF1FEC0FFD1F71836083C7
:101EA000DF91CF911F910F910895CF93DF93EC01B4
:101EB000DB017AA960E0462F50E0FA01EE0FFF1F28
:101EC000E40FF51F3196EE0FFF1FEC0FFD1F2D9154
:101ED0003C9111978081918128173907A1F4CA019B
:101EE0000196FC01EE0FFF1FE80FF91FEE0FFF1F19
:101EF000EC0FFD1F14962D913C91159780819181D7
:101F00002817390719F06F5F7617A8F6671718F5C5
:101F100071507AAB1DC0862F90E0DC01AA0FBB1F69
:101F2000A80FB91F1196AA0FBB1F0196FC01EE0F57
:101F3000FF1FE80FF91F3196EE0FFF1FAC0FBD1FFB
:101F4000EC0FFD1F86E001900D928150E1F76F5F6D
:101F50008AA9681700F3DF91CF910895DF93CF939B
:101F600000D000D000D0CDB7DEB77A8369837C8300
:101F70006B835E834D83BE016F5F7F4F0E94550F61
:101F800026960FB6F894DEBF0FBECDBFCF91DF917E
:101F90000895E4E5F2E01182108213821282158224
:101FA0001482369682E0E438F807A9F708950F9373
:101FB0001F93CF93DF93BC018230910510F462E050
:101FC00070E0E0918802F0918902A0E0B0E040E08A
:101FD00050E024C08081918186179707D0F0861742
:101FE000970771F482819381109729F013969C933F
:101FF0008E9312972CC0909389028093880227C0F9
:102000004115510519F08417950718F4EF018D015A
:10201000AC01DF01828193819C01F9013097D1F6F7
:1020200041155105F9F0CA01861B970B84309105C3
:1020300080F48A819B810115110521F0F8019383B9
:10204000828304C09093890280938802FE013296B5
:1020500045C0FE01E80FF91F6193719302979983C0
:1020600088833CC08091860290918702892B41F43D
:1020700080912E0190912F01909387028093860288
:1020800040913001509131014115510541F44DB756
:102090005EB780912C0190912D01481B590B209126
:1020A00086023091870224173507B0F4CA01821BDB
:1020B000930B8617970780F0AB014E5F5F4F841735
:1020C000950750F0420F531F5093870240938602AA
:1020D000F9016193719302C0E0E0F0E0CF01DF917C
:1020E000CF911F910F910895CF93DF939C0100979B
:1020F00009F48FC0EC0122971B821A82609188023A
:10210000709189026115710581F488819981820F2E
:10211000931F20918602309187022817390739F5DD
:10212000D0938702C093860274C0DB0140E050E088
:10213000AC17BD0708F1BB83AA83FE012191319141
:10214000E20FF31FAE17BF0779F48D919C911197A1
:10215000280F391F2E5F3F4F3983288312968D91A8
:102160009C9113979B838A834115510571F4D093F9
:102170008902C09388024DC012968D919C9113974D
:10218000AD01009711F0DC01D3CFDA011396DC9397
:10219000CE931297FA0121913191E20FF31FCE17DE
:1021A000DF0769F488819981280F391F2E5F3F4F1F
:1021B000FA01318320838A819B8193838283E0E0CB
:1021C000F0E0DB0112968D919C911397009719F026
:1021D000BC01FD01F6CFAB014E5F5F4FDB018D917E
:1021E0009C91840F951F20918602309187022817B9
:1021F000390779F4309729F41092890210928802F5
:1022000002C0138212824250504050938702409382
:102210008602DF91CF9108955058BB27AA270ED090
:10222000B3C1A4D130F0A9D120F031F49F3F11F413
:102230001EF499C10EF4E095E7FB64C1E92FB5D116
:1022400080F3BA17620773078407950718F071F4D3
:102250009EF5E4C10EF4E0950B2EBA2FA02D0B01D4
:10226000B90190010C01CA01A0011124FF27591BDB
:1022700099F0593F50F4503E68F11A16F040A22FE1
:10228000232F342F4427585FF3CF46953795279552
:10229000A795F0405395C9F77EF41F16BA0B620B51
:1022A000730B840BBAF09150A1F0FF0FBB1F661F98
:1022B000771F881FC2F70EC0BA0F621F731F841FDB
:1022C00048F4879577956795B795F7959E3F08F001
:1022D000B3CF9395880F08F09927EE0F97958795C0
:1022E0000895ECD008F481E008950CD04DC145D19B
:1022F00040F03CD130F021F45F3F19F003C151119F
:102300008EC131C152D198F39923C9F35523B1F34A
:10231000951B550BBB27AA2762177307840738F054
:102320009F5F5F4F220F331F441FAA1FA9F333D0B3
:102330000E2E3AF0E0E830D091505040E695001C67
:10234000CAF729D0FE2F27D0660F771F881FBB1F23
:10235000261737074807AB07B0E809F0BB0B802DFD
:10236000BF01FF2793585F4F2AF09E3F510568F049
:10237000C9C055C15F3FECF3983EDCF38695779575
:102380006795B795F7959F5FC9F7880F911D96954B
:10239000879597F90895E1E0660F771F881FBB1FA7
:1023A000621773078407BA0720F0621B730B840B54
:1023B000BA0BEE1F88F7E095089504D06894B11128
:1023C0002EC10895FAD088F09F5790F0B92F992721
:1023D000B751A0F0D1F0660F771F881F991F1AF030
:1023E000BA95C9F712C0B13081F018D1B1E00895A3
:1023F00015C1672F782F8827B85F39F0B93FCCF324
:10240000869577956795B395D9F73EF49095809525
:10241000709561957F4F8F4F9F4F0895E89409C045
:1024200097FB3EF490958095709561957F4F8F4F07
:102430009F4F9923A9F0F92F96E9BB279395F6951D
:10244000879577956795B795F111F8CFFAF4BB0F9B
:1024500011F460FF1BC06F5F7F4F8F4F9F4F16C0FF
:10246000882311F096E911C0772321F09EE8872F89
:10247000762F05C0662371F096E8862F70E060E045
:102480002AF09A95660F771F881FDAF7880F9695BE
:10249000879597F90895ABD080F09F3740F491115C
:1024A0000EF0BDC060E070E080E89FEB089526F478
:1024B0001B16611D711D811D2BC045C0990F0008A1
:1024C000550FAA0BE0E8FEEF16161706E807F90706
:1024D000C0F012161306E407F50798F0621B730BA1
:1024E000840B950B39F40A2661F0232B242B252B22
:1024F00021F408950A2609F4A140A6958FEF811DC5
:10250000811D089597F99F6780E870E060E0089565
:10251000882371F4772321F09850872B762F07C0FA
:10252000662311F499270DC09051862B70E060E06E
:102530002AF09A95660F771F881FDAF7880F96950D
:10254000879597F908959F3F49F0915028F4869513
:1025500077956795B7959F5F80389F4F880F9695C1
:10256000879597F908959FEF80EC089500240A94C9
:102570001616170618060906089500240A9412165E
:102580001306140605060895092E0394000C11F491
:10259000882352F0BB0F40F4BF2B11F460FF04C03E
:1025A0006F5F7F4F8F4F9F4F089557FD9058440F97
:1025B000551F59F05F3F71F04795880F97FB991FA2
:1025C00061F09F3F79F0879508951216130614065F
:1025D000551FF2CF4695F1DF08C0161617061806EC
:1025E000991FF1CF86957105610508940895E5DF7F
:1025F000A0F0BEE7B91788F4BB279F3860F4161621
:10260000B11D672F782F8827985FF7CF869577952C
:102610006795B11D93959639C8F30895E894BB2743
:1026200066277727CB0197F9089548DF08F48FEFE5
:1026300008950BD0A9CF9ADF28F09FDF18F09523DB
:1026400009F060CF90CF1124EACFAFDFA0F3959FC0
:10265000D1F3950F50E0551F629FF001729FBB2789
:10266000F00DB11D639FAA27F00DB11DAA1F649F35
:102670006627B00DA11D661F829F2227B00DA11DE8
:10268000621F739FB00DA11D621F839FA00D611D6E
:10269000221F749F3327A00D611D231F849F600D8F
:1026A000211D822F762F6A2F11249F5750408AF0C8
:1026B000E1F088234AF0EE0FFF1FBB1F661F771F54
:1026C000881F91505040A9F79E3F510570F01ACFD6
:1026D000A6CF5F3FECF3983EDCF386957795679540
:1026E000B795F795E7959F5FC1F7FE2B880F911D72
:1026F0009695879597F90895E1DE880B990B0895D3
:10270000629FD001739FF001829FE00DF11D649FD5
:10271000E00DF11D929FF00D839FF00D749FF00D61
:10272000659FF00D9927729FB00DE11DF91F639F02
:10273000B00DE11DF91FBD01CF0111240895A1E2E3
:102740001A2EAA1BBB1BFD010DC0AA1FBB1FEE1F2B
:10275000FF1FA217B307E407F50720F0A21BB30B76
:10276000E40BF50B661F771F881F991F1A9469F7F2
:1027700060957095809590959B01AC01BD01CF014E
:102780000895EE0FFF1F0590F491E02D099410E0DD
:10279000CEECD0E004C0FE010E94C3132296C03DDF
:0827A000D107C9F7F894FFCF3F
:1027A8004E65772048697473004F6C6420486974DB
:1027B8007300506F7374204D65726765006E616EAB
:1027C80000696E66006F7666002E000180008A023E
:1027D800000000000000990B2F0C2F0B600B400B22
:0227E800890B5B
:00000001FF
