:100000000C946A000C9492000C9492000C94920050
:100010000C9492000C9492000C9492000C94920018
:100020000C9492000C9492000C946F100C9492001B
:100030000C9492000C9492000C9492000C949200F8
:100040000C9453090C9492000C94380B0C94860B6E
:100050000C9492000C9492000C9492000C949200D8
:100060000C94A4140C9492000000000024002700BB
:100070002A0000000000250028002B0000000000DE
:1000800023002600290004040404040404040202DA
:100090000202020203030303030301020408102007
:1000A0004080010204081020010204081020000012
:1000B0000007000201000003040600000000000029
:1000C0000000940014013D036D08BF08F20CC31139
:1000D0004013B80811241FBECFEFD8E0DEBFCDBF5C
:1000E00011E0A0E0B1E0E6E3F2E302C005900D927A
:1000F000AC38B107D9F713E0ACE8B1E001C01D920C
:10010000A43EB107E1F710E0C2EDD0E004C02297B1
:10011000FE010E940A19C23CD107C9F70E94440996
:100120000C940E190C9400008CE891E00E948E0F44
:1001300008950F931F93DF93CF930F92CDB7DEB740
:100140008C01CE0101960E948E0F8981F801808377
:10015000C8016AE50E94F80F882339F48AEC92E01E
:1001600060E071E00E94750FFFCF8AEC92E060E2E0
:1001700071E00E94750F0F90CF91DF911F910F9149
:100180000895862F60E00E94900A0895862F61E00E
:100190000E94900A0895FC01858160E00E94900A07
:1001A00008958DE891E00E94CB008CEE92E064E12E
:1001B00070E041ED50E00E94A8110895FC01858196
:1001C00061E00E94900A08958DE891E00E94DE00AF
:1001D0008CEE92E064E170E041ED50E00E94F51099
:1001E00008950E94E4000895862F0E94E40A08956D
:1001F000FC0184810E942F0A08950F931F938C01A4
:100200008EE0F801848387E0858361E00E94510AD3
:1002100088E090E0F8019183808388EC90E09383FC
:1002200082831F910F9108958DE891E00E94FD0057
:1002300008950F931F93CF93DF93EC018881882358
:1002400071F48E01085F1F4FC8010E94900388233C
:1002500019F0C8010E946D0481E08B838883DF91CF
:10026000CF911F910F9108950F931F938C018DE8EB
:1002700091E0F80164810E94C600F80113821782A0
:1002800016821F910F910895CF93DF93EC01809117
:10029000A201882351F08AEC92E06EE271E00E94A4
:1002A000750FCE0108960E9493048DE891E06D8150
:1002B0000E94F400892B19F4CE010E9419018B8150
:1002C000882349F4CE0108960E948F06882321F1E5
:1002D0008881882309F5CE010E94340121C08DE870
:1002E00091E06C810E94C60080918D0190918E01F9
:1002F0002E813F81820F931F9F838E8329813A81B4
:10030000821793076CF018821F821E828DE891E09D
:100310006C810E94C10004C08881882301F7F6CF58
:10032000DF91CF91089508960E94AB030895CF9274
:10033000DF92EF92FF920F931F93CF93DF938C0185
:100340007B016817790709F4AEC0DB0114962D9183
:100350003C911597EC018A819B818217930798F550
:10036000C880D9803B832A83C901880F991F880FD1
:10037000991F0E948B0F9983888340E050E020E012
:1003800030E016C0F801C081D181C20FD31F209781
:1003900059F0F601E20FF31F80819181A281B381B0
:1003A00088839983AA83BB834F5F5F4F2C5F3F4F46
:1003B000D80114968D919C9115974817590710F301
:1003C000C6010E94880FE8018C819D81F70164813C
:1003D00075818617970708F4BC0140E050E020E0E3
:1003E00030E017C0D801ED91FC91E20FF31FE70157
:1003F000A881B981A20FB31F8D919D910D90BC91E1
:10040000A02D80839183A283B3834F5F5F4F2C5FC6
:100410003F4F4617570730F3F80144815581D70104
:1004200014968D919C9115974817590750F59A018C
:10043000220F331F220F331F1EC0F801C081D1814C
:10044000C20FD31FD701ED91FC91209751F0E20F1D
:10045000F31F80819181A281B38188839983AA83CC
:10046000BB83E8018C819D8101969D838C834F5FC6
:100470005F4F2C5F3F4FF7018481958148175907E3
:10048000E0F2D80114968D919C911597E7016C814B
:100490007D816817790738F46817790720F4159675
:1004A0007C936E931497C801DF91CF911F910F91A8
:1004B000FF90EF90DF90CF900895CF92DF92EF9270
:1004C000FF920F931F93DF93CF93CDB7DEB768975B
:1004D0000FB6F894DEBF0FBECDBF8C01822FF8019E
:1004E000728361831082138224834583178216826C
:1004F00061E00E94510AF801858160E00E94510A82
:100500007E010894E11CF11CC7010E94AB0338E096
:10051000C32ED12CC00ED11EC601B7010E94970177
:10052000C8010F96BE01685F7F4F0E949701C80106
:100530004696BE01615F7F4F0E9497018E899F8919
:10054000F801968F858F888D878F8F8598890E9477
:10055000880F888599850E94880F89819A810E94D9
:10056000880FC6010E94F70668960FB6F894DEBFA2
:100570000FBECDBFCF91DF911F910F91FF90EF90F4
:10058000DF90CF9008954F925F926F927F928F92FB
:100590009F92AF92BF92CF92DF92EF92FF920F9312
:1005A0001F936C018DE891E00E94F8007C01F60138
:1005B00063817481882777FD8095982F0E94571753
:1005C0002B013C01F60165817681882777FD8095B6
:1005D000982F0E9457174B015C010027F7FC0095EC
:1005E000102FC801B7010E9457177B018C01F6013B
:1005F00067817085882777FD8095982F0E9457170F
:100600009B01AC01C801B7010E94BC169B01AC0163
:10061000C501B4010E9460189B01AC01C301B20185
:100620000E9453161F910F91FF90EF90DF90CF9093
:10063000BF90AF909F908F907F906F905F904F9002
:1006400008950E94C3029B01AC0160E070E08AE75C
:1006500094E40E94BC1620E030E040E752E40E949F
:10066000601820E030E040E05FE30E9454160E94F2
:1006700092170E942417CB01089580EF90E0909389
:1006800097018093960188E290E090939501809382
:10069000940188EC90E090939901809398018CEFFD
:1006A00093E090939B0180939A01E3E9F1E010823B
:1006B000CF010E94210390939F0180939E01089592
:1006C000CF93DF9380919C0190919D0120918D01AA
:1006D00030918E01820F931F90939D0180939C0116
:1006E0001092930183E991E00E942103EC01809133
:1006F0009C0190919D01C817D9075CF48DE891E0A9
:100700000E94F10081E08093930110929D0110926C
:100710009C01D0939F01C0939E01DF91CF910895DA
:1007200080EA91E00E94320708950F931F938C0195
:10073000FC011182108288E090E09383828315820D
:10074000148280E290E00E948B0FF80191838083F5
:100750001F910F9108950F931F93DF93CF9300D0B4
:100760000F92CDB7DEB78C01BE016F5F7F4F0E9445
:100770009503C8010796BE016E5F7F4F0E949503E7
:10078000C8010E96BE016D5F7F4F0E9495030F90CA
:100790000F900F90CF91DF911F910F910895EF92DD
:1007A000FF920F931F93CF93DF938C01FC01828103
:1007B00093818617970790F5E080F18073836283B9
:1007C000CB01880F991F880F991F0E948B0FF8018A
:1007D0009183808340E050E020E030E016C0F801D3
:1007E000C081D181C20FD31F209759F0F701E20FCA
:1007F000F31F80819181A281B38188839983AA8329
:10080000BB834F5F5F4F2C5F3F4FF8018481958121
:100810004817590720F3C7010E94880FDF91CF9135
:100820001F910F91FF90EF900895AF92BF92CF92DA
:10083000DF92EF92FF920F931F93CF93DF938C0180
:10084000EB017A01DC0114968D919C911597861726
:10085000970780F512968D919C91139786179707AD
:1008600028F4685F7F4FC8010E94CF03F8012481FC
:100870003581A901440F551F440F551F14C0D801DD
:10088000ED91FC91E40FF51F309749F0D701AD9041
:10089000BD90CD90DC90A082B182C282D3822F5FC6
:1008A0003F4F4C5F5F4F2C173D0748F3F801D5834E
:1008B000C48308C06817790728F4D80115967C937B
:1008C0006E931497DF91CF911F910F91FF90EF904E
:1008D000DF90CF90BF90AF9008950F931F93DF9359
:1008E000CF9300D000D0CDB7DEB78C0180EA91E085
:1008F0000E942A0769837A838B839C83F80162892B
:1009000073896F5F7F4FC8010E96AE014F5F5F4FD7
:100910000E9415040F900F900F900F90CF91DF91D0
:100920001F910F9108950F931F93DF93CF9300D0E2
:1009300000D0CDB7DEB78C01FC0184819581892B75
:1009400011F01582148280E090E0A0E8BFEB89836B
:100950009A83AB83BC83F801648175816F5F7F4F9D
:10096000C801AE014F5F5F4F0E941504F8018289F4
:100970009389892B11F0138A128A0F900F900F9090
:100980000F90CF91DF911F910F9108952F923F9279
:100990004F925F926F927F928F929F92AF92BF928F
:1009A000CF92DF92EF92FF920F931F93DF93CF933B
:1009B000CDB7DEB760970FB6F894DEBF0FBECDBFE0
:1009C0002C01DC0152968D919C915397009709F46C
:1009D0008DC114960D911C911597080F191F80E079
:1009E00090E0A0E0B0E08A839B83AC83BD831F824C
:1009F0001E821B861A86C801089699878887880FE9
:100A0000991F880F991F0E948B0F9F838E83CE01A1
:100A10000696B801AE014E5F5F4F0E941504F201C9
:100A20006080718084819581880F991F880F991F3C
:100A3000860D971D988B8F8786849784A289B389AA
:100A4000AA0FBB1FAA0FBB1FA80DB91DBE87AD877C
:100A50002E803F802AC0F401A080B180C280D38064
:100A6000D301ED90FD900D911C91C601B501A80137
:100A700097010E94B816882354F4F101A082B18234
:100A8000C282D38284E090E0880E991E0AC0D10110
:100A9000ED92FD920D931C931397E4E0F0E06E0E3F
:100AA0007F1E84E090E0280E391EAF85B8896A1653
:100AB0007B0619F4F301910110C0ED85FE858E16B9
:100AC0009F0649F6F7CF4191519161917191D901FA
:100AD0004D935D936D937D939D018F859889E81764
:100AE000F90789F7E619F709EC7FE20DF31D0AC053
:100AF000D4012D913D914D915D914D012193319303
:100B0000419351938D859E858816990689F78AECC5
:100B100092E06AE371E00E94750FD2011E960D917A
:100B20001C911F970CC0F8014191519161917191F5
:100B30008F018AEC92E022E030E00E94620FD20145
:100B400052962D913C915397220F331F220F331F42
:100B50001E968D919C911F97820F931F081719075E
:100B600011F78AEC92E063E471E00E94750FF201E4
:100B7000008111810CC0D8014D915D916D917D91E5
:100B80008D018AEC92E022E030E00E94620FF201D7
:100B900024813581220F331F220F331F80819181E1
:100BA000820F931F0817190731F78AEC92E06CE463
:100BB00071E00E94750F0E811F810CC0D8014D910C
:100BC0005D916D917D918D018AEC92E022E030E0A3
:100BD0000E94620F6A857B859B01220F331F220FC3
:100BE000331F8E819F81820F931F0817190731F7DA
:100BF000CE0106964816590609F46DC0C2010E943E
:100C0000CF03F201848195816A857B858B018617EC
:100C1000970708F48C01EE80FF8040E050E020E070
:100C200030E015C0D201ED91FC91E20FF31FD70126
:100C3000A20FB31F8D919D910D90BC91A02D80832B
:100C40009183A283B3834F5F5F4F2C5F3F4F401769
:100C5000510740F3F201248135812617370750F5FB
:100C6000A901440F551F440F551FB701640F751F8D
:100C70001CC0D201ED91FC91E40FF51F309749F0B3
:100C8000DB01ED90FD900D911C91E082F1820283D9
:100C90001383F201848195810196958384832F5F6C
:100CA0003F4F4C5F5F4F6C5F7F4F8A859B85281756
:100CB0003907F8F2D20114962D913C9115978A8547
:100CC0009B858217930738F48217930720F41596B3
:100CD0009C938E931497F20182899389892B11F04A
:100CE000138A128A8E819F810E94880F60960FB6A8
:100CF000F894DEBF0FBECDBFCF91DF911F910F9152
:100D0000FF90EF90DF90CF90BF90AF909F908F902B
:100D10007F906F905F904F903F902F9008958F92AB
:100D20009F92AF92BF92CF92DF92EF92FF920F937A
:100D30001F93CF93DF93EC0180EA91E00E9432078A
:100D4000882309F446C080EA91E00E942A074B01FB
:100D50005C018D899E8997FF09C08091A00188233D
:100D6000C1F11E8A1D8ACE010E94C604CD88DE888C
:100D7000C601880F991F880F991FE881F981E80F34
:100D8000F91FE080F18002811381C501B401A8013F
:100D900097010E945C188823E4F0C801B70120E0A5
:100DA00030E040E85FEB0E945C18882394F08C816F
:100DB0009D810197C816D90628F08FEF9FEF9E8B73
:100DC0008D8B05C00894C11CD11CDE8ACD8A81E0C0
:100DD00001C080E0DF91CF911F910F91FF90EF90C4
:100DE000DF90CF90BF90AF909F908F9008950F931A
:100DF0001F93DF93CF9300D000D0CDB7DEB78C0127
:100E000080E090E0A0E8BFEB89839A83AB83BC834A
:100E1000F801648175816F5F7F4FC801AE014F5F3C
:100E20005F4F0E9415048FEF9FEFF801968B858B23
:100E3000178A648175818AEC92E04AE050E00E9452
:100E4000210E0F900F900F900F90CF91DF911F9177
:100E50000F910895FC01258936894789508DB90184
:100E6000CA010895FC0183810895CF93DF93EC01BB
:100E70008E859F85892B29F58DE891E06C850E94F0
:100E8000F400892BF1F48E859F8520918D0130919E
:100E90008E01820F931F9F878E8781E00FC01F8670
:100EA0001E860BC01216130644F480918D0190919A
:100EB0008E01820F931F9F878E8780E0DF91CF91F5
:100EC00008952E853F8580918F019091900128177C
:100ED000390744F3E4CFCF93DF93EC018A859B85F8
:100EE000892B29F58DE891E068850E94F400892B13
:100EF000F1F48A859B8520918D0130918E01820FBE
:100F0000931F9B878A8781E00FC01B861A860BC0C0
:100F10001216130644F480918D0190918E01820F78
:100F2000931F9B878A8780E0DF91CF9108952A8560
:100F30003B8580918F01909190012817390744F3E8
:100F4000E4CFCF92DF92EF92FF920F931F93CF9354
:100F5000DF93EC018B81882391F183E991E00E947A
:100F600021036C0160918D0170918E01882777FDBE
:100F70008095982F0E9457177B018C0189899A8947
:100F8000C89EB001C99E700DD89E700D112488278F
:100F900077FD8095982F0E9457179B01AC01C801DF
:100FA000B7010E94BC169B01AC016D897E898F89B7
:100FB000988D0E9454166D8B7E8B8F8B988FDF914E
:100FC000CF911F910F91FF90EF90DF90CF900895F8
:100FD000FC0110828089882351F08091930188233D
:100FE00031F0818992890196928B818B23C0809107
:100FF00093018823F9F081818823E1F081E08383E4
:1010000023893489818992892817390711F037FF9C
:101010000CC0148A138A80E090E0A0E0B0E0858BD9
:10102000968BA78BB08F81E080838389948901960A
:10103000948B838B8181882319F0CF010E94A107B3
:101040000895CF93DF93EC011A820E946B078823E7
:1010500061F08889882331F48981882331F481E023
:10106000888B03C0188A81E08983CE010E943507EE
:10107000882329F019821A8A198A81E08A83CE018D
:101080000E94E807DF91CF9108950F931F938C0181
:10109000862FF801608771875587448760E00E943A
:1010A000510AF801848560E00E94510AF801178610
:1010B0001686138612861182128A118A8FEF9FEF8D
:1010C000948B838B80E090E0A0E0B0E0858B968BE2
:1010D000A78BB08F1F910F91089580EA91E066E091
:1010E00070E045E050E00E94450808950F931F937B
:1010F0008C01FC01868997890E94880FF8018785F9
:1011000090890E94880FF801808591850E94880F40
:101110001F910F91089581309105A1F46F5F7F4F6A
:1011200031F589EB91E00E94930189ED91E00E94F5
:10113000930189EF91E00E94930189E192E00E947E
:1011400093010895892B99F46F5F7F4F81F489E1B2
:1011500092E00E94760889EF91E00E94760889ED7E
:1011600091E00E94760889EB91E00E94760808954C
:1011700080E090E06FEF7FEF0E948B08089581E0A0
:1011800090E06FEF7FEF0E948B0808958CEE92E065
:101190000E94A810089589E192E00E9444010895F8
:1011A00089EF91E00E944401089589ED91E00E9449
:1011B0004401089589EB91E00E94440108950E9442
:1011C000600380EA91E00E94210808950F931F9325
:1011D0008AEC92E040E855E260E070E00E94C10BCA
:1011E0008CE891E00E94990089EB91E064E670E060
:1011F0004AE029E00E945D0289ED91E064E670E03A
:101200004DE02CE00E945D0289EF91E064E670E021
:1012100044E023E00E945D020CEE12E0C8010E944F
:101220008D1060918D0170918E01C8014FED58E0D5
:101230000E94F51060918D0170918E01C8014AEDF8
:1012400058E00E94F51060918D0170918E01C801E7
:1012500045ED58E00E94F51060918D0170918E016E
:10126000C80140ED58E00E94F51060918D01709129
:101270008E01C8014BEC58E00E94F510C8010E9495
:10128000A2101F910F910895CF93DF930E94F4094C
:101290000E94E608C3E7DBE00E94C6082097E1F35E
:1012A0000E94730BF9CF1F920F920FB60F92112469
:1012B0002F933F938F939F93AF93BF9380913D0262
:1012C00090913E02A0913F02B091400230914102C4
:1012D0000196A11DB11D232F2D5F2D3720F02D5715
:1012E0000196A11DB11D2093410280933D02909370
:1012F0003E02A0933F02B093400280913902909148
:101300003A02A0913B02B0913C020196A11DB11D91
:101310008093390290933A02A0933B02B0933C022F
:10132000BF91AF919F918F913F912F910F900FBEE1
:101330000F901F9018959B01AC017FB7F894809196
:10134000390290913A02A0913B02B0913C0266B5FD
:10135000A89B05C06F3F19F00196A11DB11D7FBF6D
:10136000BA2FA92F982F8827860F911DA11DB11D77
:1013700062E0880F991FAA1FBB1F6A95D1F7BC01B5
:101380002DC0FFB7F8948091390290913A02A09154
:101390003B02B0913C02E6B5A89B05C0EF3F19F0B7
:1013A0000196A11DB11DFFBFBA2FA92F982F882725
:1013B0008E0F911DA11DB11DE2E0880F991FAA1F7C
:1013C000BB1FEA95D1F7861B970B885E9340C8F246
:1013D000215030404040504068517C4F211531052C
:1013E0004105510571F60895789484B5826084BDF5
:1013F00084B5816084BD85B5826085BD85B5816019
:1014000085BDEEE6F0E0808181608083E1E8F0E078
:101410001082808182608083808181608083E0E8A7
:10142000F0E0808181608083E1EBF0E08081846086
:101430008083E0EBF0E0808181608083EAE7F0E088
:1014400080818460808380818260808380818160EC
:1014500080838081806880831092C1000895982FD6
:101460008E3008F09E509770809165018295880FAC
:10147000880F807C892B80937C0080917A00806427
:1014800080937A0080917A0086FDFCCF20917800CD
:1014900040917900942F80E030E0282B392BC9014E
:1014A0000895CF93DF93482F50E0CA0186569F4F8F
:1014B000FC0134914A575F4FFA018491882369F106
:1014C00090E0880F991FFC01E859FF4FA591B49156
:1014D000FC01EE58FF4FC591D491662351F42FB70C
:1014E000F8948C91932F909589238C9388818923EC
:1014F0000BC0623061F42FB7F8948C91932F9095C4
:1015000089238C938881832B88832FBF06C09FB744
:10151000F8948C91832B8C939FBFDF91CF9108958A
:10152000482F50E0CA0182559F4FFC012491CA0107
:1015300086569F4FFC0194914A575F4FFA013491B0
:10154000332309F440C0222351F1233071F02430B9
:1015500028F42130A1F0223011F514C02630B1F06A
:101560002730C1F02430D9F404C0809180008F77F7
:1015700003C0809180008F7D8093800010C084B56F
:101580008F7702C084B58F7D84BD09C08091B00083
:101590008F7703C08091B0008F7D8093B000E32FE0
:1015A000F0E0EE0FFF1FEE58FF4FA591B4912FB75B
:1015B000F894662321F48C919095892302C08C9134
:1015C000892B8C932FBF0895682F70E0CB01825533
:1015D0009F4FFC012491CB0186569F4FFC01449103
:1015E0006A577F4FFB019491992319F420E030E072
:1015F0003CC0222351F1233071F0243028F42130F3
:10160000A1F0223011F514C02630B1F02730C1F01E
:101610002430D9F404C0809180008F7703C080917A
:1016200080008F7D8093800010C084B58F7702C0CA
:1016300084B58F7D84BD09C08091B0008F7703C0D1
:101640008091B0008F7D8093B000892F90E0880F4B
:10165000991F84589F4FFC01A591B4918C9120E073
:1016600030E0842311F021E030E0C90108950895AD
:101670001F920F920FB60F9211242F933F934F9307
:101680008F939F93EF93FF938091C00082FD1DC0C5
:101690004091C60020918202309183022F5F3F4F1C
:1016A0002F7330708091840290918502281739073A
:1016B00071F0E0918202F0918302EE5BFD4F408376
:1016C000309383022093820202C08091C600FF9172
:1016D000EF919F918F914F913F912F910F900FBE5E
:1016E0000F901F901895E091D602F091D702E05C20
:1016F000FF4F8191919120813181821B930B8F73D8
:101700009070892B11F00E94370B08951F920F9251
:101710000FB60F9211242F933F938F939F93EF93C4
:10172000FF932091C6023091C7028091C802909128
:10173000C9022817390731F48091C1008F7D809349
:10174000C10014C0E091C802F091C902EA57FD4FF0
:1017500020818091C8029091C90201968F73907088
:101760009093C9028093C8022093C600FF91EF9125
:101770009F918F913F912F910F900FBE0F901F90CF
:101780001895AF92BF92DF92EF92FF920F931F9343
:10179000CF93DF93EC017A018B01DD24403081EEA1
:1017A000580780E0680780E0780711F0DD24D394C3
:1017B00091E0A92EB12CEC89FD89DD2069F0C501ED
:1017C00008A002C0880F991F0A94E2F7808360E0A6
:1017D00079E08DE390E005C0108260E874E88EE166
:1017E00090E0A80197010E94E61821503040404047
:1017F0005040569547953795279580E1203038071A
:1018000020F0DD2011F0DD24D6CFE889F98930837E
:10181000EA89FB89208319A2EE89FF89408121E0B2
:1018200030E0C9010C8C02C0880F991F0A94E2F7BE
:10183000482B4083EE89FF894081C9010D8C02C08D
:10184000880F991F0A94E2F7482B4083EE89FF899D
:101850004081C9010E8C02C0880F991F0A94E2F7DB
:10186000482B4083EE89FF8980810F8C02C0220FB4
:10187000331F0A94E2F7209528232083DF91CF912C
:101880001F910F91FF90EF90DF90BF90AF90089560
:10189000DC011C96ED91FC911D97E05CFF4F2191BE
:1018A000319180819181281B390B2F733070C901D0
:1018B0000895DC011C96ED91FC911D97E05CFF4FB3
:1018C00020813181E054F040DF01AE5BBF4F8D914C
:1018D0009C9111972817390719F42FEF3FEF07C094
:1018E0008D919C91E80FF91F8081282F30E0C9016C
:1018F0000895DC011C96ED91FC911D97E05CFF4F73
:1019000020813181E054F040DF01AE5BBF4F8D910B
:101910009C9111972817390719F42FEF3FEF10C04A
:101920008D919C911197E80FF91F20818D919C91C9
:10193000119701968F73907011969C938E9330E05F
:10194000C9010895DC0191968C919197882339F013
:101950005496ED91FC915597808186FFF9CF919631
:101960001C920895CF93DF93EC01EE85FF85E05C38
:10197000FF4F20813181E054F0402F5F3F4F2F73A4
:101980003070DF01AE5BBF4F8D919C91119728178E
:101990003907D1F3E05CFF4F80819181E054F04042
:1019A000E80FF91F6083EE85FF85E05CFF4F318310
:1019B0002083EE89FF89208181E090E00F8C02C0B6
:1019C000880F991F0A94E2F7282B208381E089A3CE
:1019D000EC89FD8980818064808381E090E0DF91E3
:1019E000CF9108951092CD021092CC0288EE93E030
:1019F000A0E0B0E08093CE029093CF02A093D002FB
:101A0000B093D10280E791E09093CB028093CA0219
:101A100082E492E09093D7028093D60286E892E027
:101A20009093D9028093D80285EC90E09093DB02EA
:101A30008093DA0284EC90E09093DD028093DC02E4
:101A400080EC90E09093DF028093DE0281EC90E0E6
:101A50009093E1028093E00282EC90E09093E302A5
:101A60008093E20286EC90E09093E5028093E4029A
:101A700084E08093E60283E08093E70287E080932E
:101A8000E80285E08093E90281E08093EA0208950C
:101A9000CF92DF92EF92FF920F931F93CF93DF933A
:101AA0007C016B018A01C0E0D0E00FC0D6016D91CE
:101AB0006D01D701ED91FC910190F081E02DC701FE
:101AC0000995C80FD91F015010400115110571F774
:101AD000CE01DF91CF911F910F91FF90EF90DF909A
:101AE000CF900895EF92FF920F931F938C01DC012A
:101AF000ED91FC910190F081E02D6DE009957C0164
:101B0000D801ED91FC910190F081E02DC8016AE0CF
:101B100009959C012E0D3F1DC9011F910F91FF904A
:101B2000EF900895CF93DF93EC016115710519F4DF
:101B300020E030E00FC0DB010D900020E9F71197A5
:101B4000A61BB70BE881F9810280F381E02DAD017E
:101B500009959C01C901DF91CF9108954F925F9241
:101B60007F928F929F92AF92BF92CF92DF92EF922D
:101B7000FF920F931F93DF93CF93CDB7DEB7A1975B
:101B80000FB6F894DEBF0FBECDBF2C01742ECB0173
:101B9000223008F42AE019A231E2C32ED12CCC0E57
:101BA000DD1E822E9924AA24BB24672D752FA50142
:101BB00094010E94E61879018A01C801B701A501C4
:101BC00094010E94C718472D461B0894C108D108EC
:101BD0004A3014F4405D01C0495CF6014083E114D1
:101BE000F1040105110521F07E2C5F2DC801DDCF28
:101BF000C201B6010E94920DA1960FB6F894DEBF05
:101C00000FBECDBFCF91DF911F910F91FF90EF904D
:101C1000DF90CF90BF90AF909F908F907F905F901C
:101C20004F900895DC012115310541F4ED91FC91AF
:101C30000190F081E02D642F099508950E94AE0D6A
:101C40000895CF92DF92EF92FF920F931F936C0152
:101C50007B019A0100E010E0B801A7010E94120E7A
:101C60008C01C6010E94720D080F191FC8011F9137
:101C70000F91FF90EF90DF90CF900895CF92DF9279
:101C8000EF92FF920F931F93CF93DF93EC016A01C2
:101C90007B012115310541F4E881F9810190F08142
:101CA000E02D642F09951FC02A303105D1F477FF4C
:101CB00017C0E881F9810190F081E02D6DE209956E
:101CC0008C0144275527BA014C195D096E097F091B
:101CD000CE012AE00E94AE0D9801280F391F04C0E2
:101CE0002AE00E94AE0D9C01C901DF91CF911F91A6
:101CF0000F91FF90EF90DF90CF9008957F928F9299
:101D00009F92AF92BF92CF92DF92EF92FF920F938A
:101D10001F93CF93DF934C017A018B01722ECB017D
:101D2000BA01A80197010E94C318882321F0C401B9
:101D300067E571E021C0C0E0D0E057016801E89498
:101D4000D7F8C601B5012FEF3FEF4FE75FE70E94DD
:101D5000C318882351F4C601B5012FEF3FEF4FE7B9
:101D60005FE70E94B816181614F0C1E0D0E0219782
:101D700039F0C4016BE571E00E94920DEC0193C053
:101D8000C801B7012FEF3FEF4FE75FE40E945C18F7
:101D9000181654F0C801B7012FEF3FEF4FE75FEC83
:101DA0000E94B816882324F4C4016FE571E0E4CFE3
:101DB000C801B70120E030E040E050E00E94B816D2
:101DC00087FD03C0C0E0D0E00EC0D401ED91FC91CE
:101DD0000190F081E02DC4016DE20995EC0117FB43
:101DE000109517F9109520E030E040E05FE3DD2426
:101DF0000BC0CA01B90120E030E040E251E40E948A
:101E0000BC169B01AC01D394D71498F3C801B70159
:101E10000E9454165B016C010E9429177B018C0102
:101E2000C401B801A7012AE030E00E94120EC80FD9
:101E3000D91F772039F0C40163E671E00E94920D4A
:101E4000C80FD91FC801B7010E9455179B01AC01EB
:101E5000C601B5010E94531624C020E030E040E2E4
:101E600051E40E9460187B018C010E9424175B01E1
:101E70006C01CC24B7FCC094DC2CC401B601A501D4
:101E80002AE030E00E943E0EC80FD91FC601B501FE
:101E90000E9457179B01AC01C801B7010E9453165D
:101EA0007A947720D1F6CE01DF91CF911F910F91D7
:101EB000FF90EF90DF90CF90BF90AF909F908F906A
:101EC0007F900895EF92FF920F931F937C010E94E1
:101ED0007E0E8C01C7010E94720D080F191FC801E8
:101EE0001F910F91FF90EF900895EF92FF920F9343
:101EF0001F937C010E94920D8C01C7010E94720DFC
:101F0000080F191FC8011F910F91FF90EF900895BE
:101F10000E946E1208950E94D11108950895EF92C3
:101F2000FF920F931F93FC01F62EE42E06E613E0BA
:101F30006081772767FD7095C8010E940613C8016C
:101F40006F2D0E948813C8016E2D0E948813C8014E
:101F50000E94CB131F910F91FF90EF900895FF9275
:101F60000F931F93CF93DF93EC01F62E042F11E410
:101F7000CE01612F4F2D0E948F0F1F5FCE01612F69
:101F8000402F0E948F0F1F5F193591F7DF91CF917E
:101F90001F910F91FF900895DF92EF92FF920F93A0
:101FA0001F937C01D62E06E613E0FC0160817727A3
:101FB00067FD7095C8010E940613C8016D2D0E942F
:101FC0008813C80160E00E94B813F7016081772789
:101FD00067FD7095C80141E050E00E94DC13C80124
:101FE0000E9419131F910F91FF90EF90DF900895B9
:101FF0001F93CF93DF93EC01162F86E693E00E94A8
:10200000E0131883CE0160E843E60E948F0F61E081
:1020100070E080E090E00E949B09CE016EE540E018
:102020000E948F0FCE016DE50E94CC0F843211F01B
:1020300080E051C0CE016CE046E00E94AF0FCE01BF
:102040006BE241E00E948F0FCE016CE241E00E9402
:102050008F0FCE016DE24EE00E948F0FCE016EE237
:1020600040E00E948F0FCE016FE241E00E948F0F8F
:10207000CE0160E345E00E948F0FCE0161E341E0B5
:102080000E948F0FCE0162E340E00E948F0FCE01CD
:1020900063E340E00E948F0FCE0164E340E00E94C2
:1020A0008F0FCE0165E340E00E948F0FCE016BE5FC
:1020B00040E00E948F0FCE016CE540E10E948F0F3F
:1020C000CE016DE540E20E948F0FCE016EE54FE834
:1020D0000E948F0F81E0DF91CF911F9108951F9291
:1020E0000F920FB60F9211248F939F93EF93FF934C
:1020F00080911F038F5F80931F03ECEEF2E08081DD
:102100009181019691838083FF91EF919F918F91AF
:102110000F900FBE0F901F901895F89410928000AA
:1021200088E1809381008FE79EE3909387008093FE
:10213000860080E280936F001092850010928400E8
:1021400078940895E1E8F0E08081816080830895CB
:10215000EF92FF921F93CF93DF93EC018BA988231B
:10216000F1F1E82EFF241BAA10E036C0412F50E009
:10217000FA01EE0FFF1FE40FF51FDF01AA0FBB1FCF
:10218000AC0FBD1F14962D913C9115972E193F0948
:1021900015963C932E93149712161306E4F031967D
:1021A000EE0FFF1FEC0FFD1F80819181280F391F5B
:1021B00015963C932E931497CA010196FC01EE0FDD
:1021C000FF1FE80FF91FEE0FFF1FEC0FFD1F01901F
:1021D000F081E02D09951F5F8AA9181738F2DF9169
:1021E000CF911F91FF90EF9008950F931F93CF937E
:1021F000DF93EC018A014AA910C0F901EE0FFF1F1D
:10220000E20FF31F3196EE0FFF1FEC0FFD1F86E06C
:102210000D9001928150E1F741504423A1F0242F09
:1022200030E0C9010197DC01AA0FBB1FA80FB91F3D
:102230001196AA0FBB1FAC0FBD1F8D919C911197DA
:1022400068177907D4F28AA98F5F8AAB242F30E010
:10225000C9010196FC01EE0FFF1FE80FF91FEE0FF9
:10226000FF1FEC0FFD1F11830083F901EE0FFF1F0D
:10227000E20FF31FDF01AA0FBB1FAC0FBD1F1596A6
:102280007C936E9314973196EE0FFF1FEC0FFD1F9A
:1022900071836083DF91CF911F910F910895CF9348
:1022A000DF93EC01DB017AA960E0462F50E0FA01F0
:1022B000EE0FFF1FE40FF51F3196EE0FFF1FEC0F1F
:1022C000FD1F2D913C91119780819181281739072D
:1022D000A1F4CA010196FC01EE0FFF1FE80FF91FE0
:1022E000EE0FFF1FEC0FFD1F14962D913C911597DB
:1022F000808191812817390719F06F5F7617A8F64A
:10230000671718F571507AAB1DC0862F90E0DC017D
:10231000AA0FBB1FA80FB91F1196AA0FBB1F0196CA
:10232000FC01EE0FFF1FE80FF91F3196EE0FFF1FA4
:10233000AC0FBD1FEC0FFD1F86E001900D92815088
:10234000E1F76F5F8AA9681700F3DF91CF910895D5
:10235000DF93CF9300D000D000D0CDB7DEB77A8323
:1023600069837C836B835E834D83BE016F5F7F4F88
:102370000E944F1126960FB6F894DEBF0FBECDBF58
:10238000CF91DF910895EEEEF2E011821082138278
:10239000128215821482369683E0EE31F807A9F78F
:1023A00008950F931F93CF93DF93BC018230910563
:1023B00010F462E070E0E091E203F091E303A0E04A
:1023C000B0E040E050E024C08081918186179707FB
:1023D000D0F08617970771F482819381109729F0C6
:1023E00013969C938E9312972CC09093E303809343
:1023F000E20327C04115510519F08417950718F419
:10240000EF018D01AC01DF01828193819C01F90113
:102410003097D1F641155105F9F0CA01861B970B8B
:102420008430910580F48A819B810115110521F08A
:10243000F8019383828304C09093E3038093E203C3
:10244000FE01329645C0FE01E80FF91F61937193BA
:102450000297998388833CC08091E0039091E103C7
:10246000892B41F480916801909169019093E10377
:102470008093E00340916A0150916B014115510531
:1024800041F44DB75EB78091660190916701481B9A
:10249000590B2091E0033091E10324173507B0F484
:1024A000CA01821B930B8617970780F0AB014E5F22
:1024B0005F4F8417950750F0420F531F5093E1036D
:1024C0004093E003F9016193719302C0E0E0F0E012
:1024D000CF01DF91CF911F910F910895CF93DF939B
:1024E0009C01009709F48FC0EC0122971B821A828D
:1024F0006091E2037091E3036115710581F48881B5
:102500009981820F931F2091E0033091E1032817F6
:10251000390739F5D093E103C093E00374C0DB01C0
:1025200040E050E0AC17BD0708F1BB83AA83FE0171
:1025300021913191E20FF31FAE17BF0779F48D910E
:102540009C911197280F391F2E5F3F4F39832883A5
:1025500012968D919C9113979B838A834115510507
:1025600071F4D093E303C093E2034DC012968D91B2
:102570009C911397AD01009711F0DC01D3CFDA01E4
:102580001396DC93CE931297FA0121913191E20FC9
:10259000F31FCE17DF0769F488819981280F391F4F
:1025A0002E5F3F4FFA01318320838A819B81938381
:1025B0008283E0E0F0E0DB0112968D919C9113970D
:1025C000009719F0BC01FD01F6CFAB014E5F5F4FE4
:1025D000DB018D919C91840F951F2091E003309138
:1025E000E1032817390779F4309729F41092E303AF
:1025F0001092E20302C01382128242505040509364
:10260000E1034093E003DF91CF91089581E080934F
:10261000650360934203109263031092640308956C
:102620002091410330E080914003281B3109C9010A
:1026300008954091400380914103481718F02FEF0F
:102640003FEF0AC0E42FF0E0E05EFC4F8081282FCE
:1026500030E04F5F40934003C9010895E09140038B
:1026600080914103E81718F0EFEFFFEF06C0F0E0AC
:10267000E05EFC4F8081E82FF0E0CF0108950895DF
:10268000109269031092680388EE93E0A0E0B0E036
:1026900080936A0390936B03A0936C03B0936D03D4
:1026A00080E891E090936703809366030895CF924A
:1026B000DF92EF92FF920F931F93CF93DF937C01F2
:1026C0006B018A01809165038823A1F0C0E0D0E00E
:1026D0000DC0D701ED91FC91D601AC0FBD1F01904B
:1026E000F081E02DC7016C9109952196C017D107A3
:1026F00080F304C0CB01642F0E948914C801DF91CC
:10270000CF911F910F91FF90EF90DF90CF900895A0
:10271000DF93CF930F92CDB7DEB7FC016983809131
:1027200065038823C9F080916403803238F081E02A
:1027300090E09383828320E030E015C080916303B2
:10274000E82FF0E0ED5BFC4F998190838F5F8093E1
:1027500063038093640305C0CE01019661E00E948B
:10276000891421E030E0C9010F90CF91DF910895E5
:102770000F93062F8091420363E473E0409164035A
:1027800021E00E94341410926303109264031092AB
:1027900065030F91089561E00E94B81308954132D6
:1027A00008F040E2862F60E273E00E94EB13109283
:1027B000400380934103089521E00E94CF130895C0
:1027C000109240031092410310926303109264032D
:1027D0000E9435160895382F413210F040E042C073
:1027E000809172038823E1F791E090937203209324
:1027F00074038FEF8093DF0310929A03415040934C
:102800009B034F5F9093730380917303330F832B6C
:102810008093730380917503813041F410927503A6
:10282000809173038093BB0085EC01C085EE80939B
:10283000BC00809172038130E1F380919A03841788
:1028400010F440919A0320E030E00AC0FB01E20F4F
:10285000F31FD901A658BC4F8C9180832F5F3F4F47
:102860002417A0F3842F08950F931F93582F122F2E
:10287000413210F081E04AC0809172038823E1F771
:1028800082E080937203009374038FEF8093DF03E1
:1028900010929A0340939B03AAE7B3E0FB0102C0A6
:1028A00081918D938E2F861B8417D0F31092730322
:1028B00080917303550F852B80937303809175036B
:1028C000813041F410927503809173038093BB00B3
:1028D00085EC01C085EE8093BC00112321F080912E
:1028E00072038230E1F38091DF038F3F11F480E0C7
:1028F0000DC08091DF03803211F482E007C0809127
:10290000DF03803311F084E001C083E01F910F9159
:102910000895482F613210F081E00895809172038C
:10292000843011F082E008956093BD03ACE9B3E018
:10293000842F9C01F90102C081918D938E2F841BFD
:102940008617D0F380E008951F920F920FB60F9272
:1029500011242F933F934F935F936F937F938F93A4
:102960009F93AF93BF93EF93FF938091B90090E053
:10297000887F90708036910509F4F2C08136910508
:10298000CCF58832910509F47BC089329105B4F405
:102990008031910509F46FC0813191053CF40097B5
:1029A00009F447C1089709F04FC165C08831910506
:1029B00009F466C0809709F047C182C08034910550
:1029C00009F4A4C08134910544F48033910509F4DD
:1029D00082C0C89709F038C189C08035910509F4D3
:1029E00089C08835910509F496C08834910509F0AD
:1029F0002BC1AEC08839910509F413C189399105FD
:102A0000ECF48837910509F4ABC0893791054CF493
:102A10008836910509F4A4C08037910509F014C1E6
:102A20009FC08838910509F4FCC08039910509F4EC
:102A30009DC08038910509F007C198C0803B910581
:102A400009F4C6C0813B91054CF4803A910509F424
:102A50009FC0883A910509F0F7C0BAC0803C910543
:102A600009F4E3C0883C910509F4DFC0883B910577
:102A700009F0EAC0C2C0809173038093BB00CFC04D
:102A800090919A0380919B03981768F490919A0310
:102A9000E92FF0E0E658FC4F80818093BB009F5FF8
:102AA00090939A03BCC080917403882309F44BC0AF
:102AB00085ED8093BC008091BC0084FDFCCFC2C03A
:102AC00080E28093DF0385ED8093BC008091BC00A1
:102AD00084FDFCCFB7C080E38093DF0385ED809356
:102AE000BC008091BC0084FDFCCFACC088E3809327
:102AF000DF039BC080919A039091BB00E82FF0E028
:102B0000E658FC4F90838F5F80939A0390919A03CD
:102B100080919B0382C080919A039091BB00E82F23
:102B2000F0E0E658FC4F90838F5F80939A0380918A
:102B30007403882341F085ED8093BC008091BC0034
:102B400084FDFCCF7FC081E08093750384EA6EC072
:102B500085ED8093BC008091BC0084FDFCCF72C0E9
:102B600083E0809372031092DE0359C08091DE03EC
:102B7000803208F056C08091DE039091BB00E82FB0
:102B8000F0E0E254FC4F90838F5F8093DE0347C0F8
:102B90008091DE03803230F4E091DE03F0E0E25415
:102BA000FC4F108285ED8093BC008091BC0084FDB9
:102BB000FCCF109272036091DE03E0917803F091F4
:102BC00079038EEB93E070E009951092DE032DC03F
:102BD00084E0809372031092BC031092BD03E091D5
:102BE0007603F091770309958091BD03882329F43A
:102BF00081E08093BD0310929C039091BC03E92F68
:102C0000F0E0E456FC4F80818093BB009F5F90937F
:102C1000BC039091BC038091BD03981710F485EC20
:102C200001C085E88093BC000FC085EC8093BC0098
:102C300009C01092DF0385ED8093BC008091BC0039
:102C400084FDFCCF10927203FF91EF91BF91AF9181
:102C50009F918F917F916F915F914F913F912F91B4
:102C60000F900FBE0F901F9018951092720381E085
:102C7000809374031092750382E161E00E94900AD0
:102C800083E161E00E94900AE9EBF0E080818E7FB1
:102C9000808380818D7F808388E48093B80085E481
:102CA0008093BC0008955058BB27AA270ED0B3C10B
:102CB000A4D130F0A9D120F031F49F3F11F41EF4DB
:102CC00099C10EF4E095E7FB64C1E92FB5D180F31B
:102CD000BA17620773078407950718F071F49EF519
:102CE000E4C10EF4E0950B2EBA2FA02D0B01B90113
:102CF00090010C01CA01A0011124FF27591B99F072
:102D0000593F50F4503E68F11A16F040A22F232F7D
:102D1000342F4427585FF3CF469537952795A795CD
:102D2000F0405395C9F77EF41F16BA0B620B730B74
:102D3000840BBAF09150A1F0FF0FBB1F661F771FE5
:102D4000881FC2F70EC0BA0F621F731F841F48F49A
:102D5000879577956795B795F7959E3F08F0B3CF20
:102D60009395880F08F09927EE0F9795879508950A
:102D7000ECD008F481E008950CD04DC145D140F06D
:102D80003CD130F021F45F3F19F003C151118EC1E5
:102D900031C152D198F39923C9F35523B1F3951B4F
:102DA000550BBB27AA2762177307840738F09F5F6C
:102DB0005F4F220F331F441FAA1FA9F333D00E2EDB
:102DC0003AF0E0E830D091505040E695001CCAF748
:102DD00029D0FE2F27D0660F771F881FBB1F26170D
:102DE00037074807AB07B0E809F0BB0B802DBF01E0
:102DF000FF2793585F4F2AF09E3F510568F0C9C0E6
:102E000055C15F3FECF3983EDCF386957795679567
:102E1000B795F7959F5FC9F7880F911D9695879590
:102E200097F90895E1E0660F771F881FBB1F6217AF
:102E300073078407BA0720F0621B730B840BBA0B6D
:102E4000EE1F88F7E095089504D06894B1112EC163
:102E50000895FAD088F09F5790F0B92F9927B7516D
:102E6000A0F0D1F0660F771F881F991F1AF0BA954E
:102E7000C9F712C0B13081F018D1B1E0089515C181
:102E8000672F782F8827B85F39F0B93FCCF3869544
:102E900077956795B395D9F73EF4909580957095A1
:102EA00061957F4F8F4F9F4F0895E89409C097FB1E
:102EB0003EF490958095709561957F4F8F4F9F4F11
:102EC0009923A9F0F92F96E9BB279395F695879555
:102ED00077956795B795F111F8CFFAF4BB0F11F418
:102EE00060FF1BC06F5F7F4F8F4F9F4F16C08823BF
:102EF00011F096E911C0772321F09EE8872F762FF5
:102F000005C0662371F096E8862F70E060E02AF035
:102F10009A95660F771F881FDAF7880F9695879521
:102F200097F90895ABD080F09F3740F491110EF0DF
:102F3000BDC060E070E080E89FEB089526F41B16AA
:102F4000611D711D811D2BC045C0990F0008550FD3
:102F5000AA0BE0E8FEEF16161706E807F907C0F01F
:102F600012161306E407F50798F0621B730B840B27
:102F7000950B39F40A2661F0232B242B252B21F401
:102F800008950A2609F4A140A6958FEF811D811DA1
:102F9000089597F99F6780E870E060E008958823BE
:102FA00071F4772321F09850872B762F07C0662382
:102FB00011F499270DC09051862B70E060E02AF043
:102FC0009A95660F771F881FDAF7880F9695879571
:102FD00097F908959F3F49F0915028F48695779589
:102FE0006795B7959F5F80389F4F880F9695879517
:102FF00097F908959FEF80EC089500240A9416161F
:10300000170618060906089500240A9412161306D6
:10301000140605060895092E0394000C11F4882364
:1030200052F0BB0F40F4BF2B11F460FF04C06F5F80
:103030007F4F8F4F9F4F089557FD9058440F551F56
:1030400059F05F3F71F04795880F97FB991F61F02A
:103050009F3F79F087950895121613061406551FA1
:10306000F2CF4695F1DF08C0161617061806991F0D
:10307000F1CF86957105610508940895E5DFA0F00C
:10308000BEE7B91788F4BB279F3860F41616B11D48
:10309000672F782F8827985FF7CF86957795679564
:1030A000B11D93959639C8F30895E894BB27662718
:1030B0007727CB0197F9089548DF08F48FEF08953B
:1030C0000BD0A9CF9ADF28F09FDF18F0952309F0E5
:1030D00060CF90CF1124EACFAFDFA0F3959FD1F35B
:1030E000950F50E0551F629FF001729FBB27F00DB6
:1030F000B11D639FAA27F00DB11DAA1F649F66270B
:10310000B00DA11D661F829F2227B00DA11D621F59
:10311000739FB00DA11D621F839FA00D611D221F13
:10312000749F3327A00D611D231F849F600D211DF7
:10313000822F762F6A2F11249F5750408AF0E1F09A
:1031400088234AF0EE0FFF1FBB1F661F771F881FE3
:1031500091505040A9F79E3F510570F01ACFA6CF6D
:103160005F3FECF3983EDCF3869577956795B795CE
:10317000F795E7959F5FC1F7FE2B880F911D9695F8
:10318000879597F90895E1DE880B990B0895629F62
:10319000D001739FF001829FE00DF11D649FE00D4F
:1031A000F11D929FF00D839FF00D749FF00D659FB0
:1031B000F00D9927729FB00DE11DF91F639FB00DAF
:1031C000E11DF91FBD01CF0111240895A1E21A2EBE
:1031D000AA1BBB1BFD010DC0AA1FBB1FEE1FFF1FBB
:1031E000A217B307E407F50720F0A21BB30BE40B0B
:1031F000F50B661F771F881F991F1A9469F7609552
:103200007095809590959B01AC01BD01CF0108950B
:10321000EE0FFF1F0590F491E02D099410E0C2ED30
:10322000D0E004C0FE010E940A192296C43DD107D5
:06323000C9F7F894FFCF7E
:103236004D5052313231206E6F7420666F756E6458
:103246002C20636865636B20776972696E673F003F
:103256004D505231323120666F756E642100436CD9
:10326600656172204C6F6F7073004E6577204869F8
:103276007473004F6C64204869747300506F7374E4
:10328600204D65726765006E616E00696E66006F3F
:103296007666002E00018000E403000000000000B6
:1032A600B20C480D480C790C590CA20C0000000019
:0C32B60088135713101319132E133F1325
:00000001FF
