:100000000C946A000C9492000C9492000C94920050
:100010000C9492000C9492000C9492000C94920018
:100020000C9492000C9492000C9441110C94920048
:100030000C9492000C9492000C9492000C949200F8
:100040000C9420090C9492000C94E70B0C94350C42
:100050000C9492000C9492000C9492000C949200D8
:100060000C9441140C94920000000000240027001E
:100070002A0000000000250028002B0000000000DE
:1000800023002600290004040404040404040202DA
:100090000202020203030303030301020408102007
:1000A0004080010204081020010204081020000012
:1000B0000007000201000003040600000000000029
:1000C000000099003101A3039508C408A10D951201
:1000D000DD12BD0811241FBECFEFD8E0DEBFCDBFBB
:1000E00012E0A0E0B1E0E0E7F1E302C005900D927C
:1000F000A032B107D9F714E0A0E2B2E001C01D922E
:10010000A032B107E1F710E0C2EDD0E004C02297C1
:10011000FE010E94A718C23CD107C9F70E9411092D
:100120000C94AB180C94000081E090E0F8940C94CF
:10013000AB1880E292E00E94201008951F93162FC2
:100140000E94951021E030E002C0220F331F1A9563
:10015000E2F728233923C9011F9108950F931F93B4
:10016000DF93CF930F92CDB7DEB78C01CE0101960E
:100170000E9420108981F801808386E093E060E08E
:1001800071E00E940710C8016AE50E94C810882328
:1001900039F486E093E06DE271E00E940710FFCF32
:1001A00086E093E06DE471E00E9407100F90CF911C
:1001B000DF911F910F910895862F60E00E945D0AE4
:1001C0000895862F61E00E945D0A0895FC018581F3
:1001D00060E00E945D0A089581E292E00E94E600DC
:1001E00088E293E064E170E04CEE50E00E947A1205
:1001F0000895FC01858161E00E945D0A089581E215
:1002000092E00E94F90088E293E064E170E04CEE35
:1002100050E00E94C71108950E94FF00089580E2F7
:1002200092E070E00E949E000895FC0184810E948B
:10023000FC0908950F931F938C018EE0F8018483CD
:1002400087E0858361E00E941E0A88E090E0F80163
:100250009183808384EF91E0938382831F910F9138
:10026000089581E292E00E941A0108950F931F936E
:100270008C0181E292E0F80166810E94DC00F801C5
:100280001082118610861F910F910895FC018081C4
:10029000882329F1209121023091220280859185C5
:1002A000280F391F318720874381548181819281B2
:1002B000840F951F8217930724F4CF010E94360103
:1002C00008954217530734F481E292E066810E9458
:1002D000DC00089581E292E066810E94E1000895C9
:1002E0000F931F938C0181E292E0F80166810E94D6
:1002F000E100F80180859185209121023091220250
:10030000820F931F9187808781E080831F910F91D7
:100310000895FC0181E292E067810E940F0120E0D4
:10032000892B09F021E0822F0895CF92DF92EF927E
:10033000FF920F931F93CF93DF93EC0180913402D0
:10034000882321F0CE010A960E94B706CE010E94B2
:10035000460188818823F1F584E392E00E94BD067E
:100360007B018C01CE010E9489018823D9F0CE0146
:100370000E94700184E392E00E94C506882351F137
:100380009AE0C92ED12CCC0EDD1EC601B801A70102
:100390000E9409048823F1F4C601B801A7010E9454
:1003A000740518C084E392E00E94C506882391F08A
:1003B0008AE0C82ED12CCC0EDD1EC601B801A701E3
:1003C0000E940904882331F0CE010E947001C60109
:1003D0000E94F60380913502882329F0CE010A9607
:1003E0000E94600408C080913602882321F0CE016B
:1003F0000A960E944E04DF91CF911F910F91FF90BA
:10040000EF90DF90CF9008950A960E94BA04089565
:10041000AF92BF92CF92DF92EF92FF920F931F9312
:10042000CF93DF938C017B016817790709F4A9C08A
:10043000DB0114962D913C911597FC0182819381EB
:100440008217930788F5D080C18033832283C90146
:10045000880F991F880F991F0E941D10D8018C9337
:1004600011969C93119714964D915C911597EC0100
:100470002D2D3C2DC901FC0120E030E00EC020975D
:1004800041F080819181A281B38188839983AA837D
:10049000BB832F5F3F4F249634962417350778F39C
:1004A0008D2D9C2D0E941A10F80164817581D70151
:1004B0001496CD91DC9115976E016C177D0708F4A9
:1004C0006B0140E050E020E030E018C0F801A0806F
:1004D000B180A20EB31EF701A081B181A20FB31F9C
:1004E0008D919D910D90BC91A02DF50180839183FC
:1004F000A283B3834F5F5F4F2C5F3F4F4C155D0569
:1005000028F36C177D0768F59B01220F331F220F1C
:10051000331FAB011EC0D801CD91DC91C20FD31F98
:10052000D701ED91FC91209751F0E20FF31F8081EC
:100530009181A281B38188839983AA83BB83F801C7
:10054000848195810196958384834F5F5F4F2C5FF3
:100550003F4FD70114968D919C91159748175907D5
:10056000D0F2F80184819581D70114966D917C9128
:1005700015976817790728F46817790710F47583B9
:100580006483C801DF91CF911F910F91FF90EF908D
:10059000DF90CF90BF90AF900895EF92FF920F93AE
:1005A000DF93CF93CDB7DEB765970FB6F894DEBF74
:1005B0000FBECDBF7C01802FF7017283618354830E
:1005C000438310821582068327831186108661E09B
:1005D0000E941E0AF701878160E00E941E0ACE0178
:1005E00001960E94BA0489819A81F70193878287D4
:1005F0008B819C8195878487C7010E96BE016B5FB6
:100600007F4F0E940802C7014596BE01645F7F4F7D
:100610000E9408028B899C89F701958F848F8D89B0
:10062000868F8C859D850E941A108D819E810E94E7
:100630001A10C7010A960E94960565960FB6F8949F
:10064000DEBF0FBECDBFCF91DF910F91FF90EF9036
:1006500008954F925F926F927F928F929F92AF9286
:10066000BF92CF92DF92EF92FF920F931F936C0194
:1006700081E292E00E9415017C01F60163817481A0
:10068000882777FD8095982F0E94F4162B013C0156
:10069000F60165817681882777FD8095982F0E94E5
:1006A000F4164B015C010027F7FC0095102FC801E0
:1006B000B7010E94F4167B018C01F60167817085F9
:1006C000882777FD8095982F0E94F4169B01AC0136
:1006D000C801B7010E9459169B01AC01C501B401C4
:1006E0000E94FD179B01AC01C301B2010E94F015ED
:1006F0001F910F91FF90EF90DF90CF90BF90AF9040
:100700009F908F907F906F905F904F9008950E9480
:1007100029039B01AC0160E070E08AE794E40E9449
:10072000591620E030E040E752E40E94FD1720E037
:1007300030E040E05FE30E94F1150E942F170E9415
:10074000C116CB01089580EF90E090932B02809327
:100750002A0288E290E0909329028093280288EC94
:1007600090E090932D0280932C028CEF93E0909375
:100770002F0280932E02E7E2F2E01082CF010E9466
:10078000870390933302809332020895CF93DF93CF
:100790008091300290913102209121023091220209
:1007A000820F931F909331028093300210922702A0
:1007B00087E292E00E948703EC01809130029091E1
:1007C0003102C817D9075CF481E292E00E940C0163
:1007D00081E0809327021092310210923002D09370
:1007E0003302C0933202DF91CF910895FC01228938
:1007F00033898085918501972817390728F08FEF75
:100800009FEF938B828B08952F5F3F4F338B228B0B
:100810000895AF92BF92CF92DF92FF920F931F93F2
:10082000CF93DF938C015A016B01DC015296CD917D
:10083000DC915397D7FD26C018968D919C911997FE
:10084000009701F1C817D90720F08BE591E00E94CD
:100850003F11FF24CC0FDD1FCC0FDD1FD8011496F4
:10086000ED91FC911597EC0FFD1F608171818281E4
:100870009381A60195010E945516882324F4FF2434
:10088000F39401C0FF248F2DDF91CF911F910F9121
:10089000FF90DF90CF90BF90AF900895CF93DF93FC
:1008A000EC0186E093E06DE671E00E9407108F8511
:1008B0009889892B11F0188A1F86DF91CF910895AE
:1008C000CF93DF93EC0186E093E06BE771E00E9449
:1008D000071088859985892B11F0198618868F85D0
:1008E0009889892B11F0188A1F86DF91CF9108957E
:1008F0000F931F93CF93DF938C0186E093E06CE915
:1009000071E00E940710F801C481D5810AC04991A5
:1009100059916991799186E093E022E030E00E945C
:10092000F40FF80120853185220F331F220F331F6A
:1009300084819581820F931FC817D90741F7DF91F2
:10094000CF911F910F9108950F931F938C01FC017C
:100950001182108288E090E0938382831582148252
:1009600080E290E00E941D10F801918380831F9126
:100970000F9108950F931F93DF93CF9300D0CDB7BE
:10098000DEB78C010496BE016F5F7F4F0E94A40406
:10099000C8010B96BE016E5F7F4F0E94A4040F90AA
:1009A0000F90CF91DF911F910F910895EF92FF92D9
:1009B0000F931F93CF93DF938C01FC01828193816E
:1009C0008617970790F5E080F18073836283CB01EF
:1009D000880F991F880F991F0E941D10F80191839D
:1009E000808340E050E020E030E016C0F801C08194
:1009F000D181C20FD31F209759F0F701E20FF31FE7
:100A000080819181A281B38188839983AA83BB83EA
:100A10004F5F5F4F2C5F3F4FF801848195814817EE
:100A2000590720F3C7010E941A10DF91CF911F913F
:100A30000F91FF90EF900895AF92BF92CF92DF9207
:100A4000EF92FF920F931F93CF93DF938C01EB01F3
:100A50007A01DC0114968D919C9115978617970762
:100A600080F512968D919C9113978617970728F41D
:100A7000685F7F4FC8010E94D604F8012481358148
:100A8000A901440F551F440F551F14C0D801ED9103
:100A9000FC91E40FF51F309749F0D701AD90BD9060
:100AA000CD90DC90A082B182C282D3822F5F3F4F73
:100AB0004C5F5F4F2C173D0748F3F801D583C48383
:100AC00008C06817790728F4D80115967C936E93AF
:100AD0001497DF91CF911F910F91FF90EF90DF90CE
:100AE000CF90BF90AF900895DF93CF9300D000D008
:100AF000CDB7DEB7FC0149835A836B837C8367855E
:100B00007089808191818617970748F06F5F7F4FCA
:100B1000CF010B96AE014F5F5F4F0E941C050F90F7
:100B20000F900F900F90CF91DF9108950F931F9327
:100B30008C01FC01138A128A148A82E390E091836B
:100B4000808384E690E093838283C8010B9662E3FE
:100B500070E00E94D604F80162817381C801049696
:100B60000E94D6041F910F9108952F923F924F92A9
:100B70005F926F927F928F929F92AF92BF92CF922D
:100B8000DF92EF92FF920F931F93DF93CF93CDB736
:100B9000DEB760970FB6F894DEBF0FBECDBF2C0155
:100BA000DC011F968D919C915097009709F4C6C067
:100BB00018960D911C911997080F191F12968D9177
:100BC0009C9113978017910740F4B201655F7F4FA6
:100BD000C20104960E940802A6C080E090E0A0E056
:100BE000B0E08A839B83AC83BD831F821E821B86F9
:100BF0001A86C801089699878887880F991F880FD9
:100C0000991F0E941D109F838E83CE010696B80106
:100C1000AE014E5F5F4F0E941C05F201648075803B
:100C200080859185880F991F880F991F860D971DC4
:100C3000988B8F8783849484A785B089AA0FBB1F64
:100C4000AA0FBB1FA80DB91DBE87AD872E803F80A0
:100C50002AC0F401A080B180C280D380D301ED907E
:100C6000FD900D911C91C601B501A80197010E944C
:100C70005516882354F4F101A082B182C282D38236
:100C800084E090E0880E991E0AC0D101ED92FD9299
:100C90000D931C931397E4E0F0E06E0E7F1E84E04A
:100CA00090E0280E391EAF85B8896A167B0619F4C4
:100CB000F301910110C0ED85FE858E169F0649F661
:100CC000F7CF4191519161917191D9014D935D930C
:100CD0006D937D939D018F859889E817F90789F7B2
:100CE000E619F709EC7FE20DF31D0AC0D4012D913E
:100CF0003D914D915D914D012193319341935193DC
:100D00008D859E858816990689F7C2010496BE01D5
:100D10006A5F7F4F0E940802C2010E9478048E81A0
:100D20009F810E941A10D2011F968D919C9150971D
:100D3000892B21F050961C921E921F9760960FB639
:100D4000F894DEBF0FBECDBFCF91DF911F910F9101
:100D5000FF90EF90DF90CF90BF90AF909F908F90DB
:100D60007F906F905F904F903F902F900895FC017F
:100D7000138A128A0E94B5050895FC01248D358DD1
:100D8000468D578DB901CA010895FC0183810895EC
:100D9000CF93DF93EC018E859F85892B29F581E226
:100DA00092E06C850E940F01892BF1F08E859F8562
:100DB0002091210230912202820F931F9F878E87FC
:100DC00081E00FC01F861E860BC01216130644F466
:100DD0008091210290912202820F931F9F878E871C
:100DE00080E0DF91CF9108952E853F858091230289
:100DF000909124022817390744F3E4CFCF93DF936F
:100E0000EC018A899B89892B29F581E292E0688926
:100E10000E940F01892BF1F08A899B892091210280
:100E200030912202820F931F9B8B8A8B81E00FC02F
:100E30001B8A1A8A0BC01216130644F480912102F1
:100E400090912202820F931F9B8B8A8B80E0DF910F
:100E5000CF9108952A893B898091230290912402A1
:100E60002817390744F3E4CFCF93DF93EC018A8549
:100E70009B85892B29F581E292E068850E940F010C
:100E8000892BF1F08A859B852091210230912202E5
:100E9000820F931F9B878A8781E00FC01B861A866B
:100EA0000BC01216130644F4809121029091220285
:100EB000820F931F9B878A8780E0DF91CF910895EF
:100EC0002A853B85809123029091240228173907B7
:100ED00044F3E4CF0F931F938C0186E093E066EA1E
:100EE00071E00E94071081E0F8018183178A118E5A
:100EF000108E1F910F9108950F931F938C0186E020
:100F000093E061EB71E00E940710F801168A81E01E
:100F1000878B1F910F910895CF93DF93EC018E89FA
:100F2000882371F48F89882371F481E08E8B86E0A9
:100F300093E061EC71E00E9407101D8A1C8A03C0D7
:100F4000CE010E947C07DF91CF910895CF92DF926E
:100F5000EF92FF920F931F93CF93DF93EC018B815E
:100F6000882391F187E292E00E9487036C016091EF
:100F7000210270912202882777FD8095982F0E9488
:100F8000F4167B018C01888D998DC89EB001C99E95
:100F9000700DD89E700D1124882777FD8095982FAD
:100FA0000E94F4169B01AC01C801B7010E945916BA
:100FB0009B01AC016C8D7D8D8E8D9F8D0E94F115F6
:100FC0006C8F7D8F8E8F9F8FDF91CF911F910F91AF
:100FD000FF90EF90DF90CF900895FC0110828689FA
:100FE000882351F080912702882331F0808D918DE4
:100FF0000196918F808F23C0809127028823F9F07A
:1010000087898823E1F081E08383228D338D808D71
:10101000918D2817390711F037FF0CC0138E128EEF
:1010200080E090E0A0E0B0E0848F958FA68FB78F2E
:1010300081E08083828D938D0196938F828F878943
:10104000882319F0CF010E94A6070895CF93DF935C
:10105000EC018E898823A1F08091210290912202D7
:101060002C893D89820F931F9D8B8C8B28A139A1E0
:10107000281739072CF4CE010E947C071D8A1C8A90
:10108000CE010E943407882319F0CE010E948C07FC
:101090001982CE010E94C806882319F0CE010E9451
:1010A0006A071A82CE010E94FE06882341F086E07C
:1010B00093E06BED71E00E94071081E08A83CE011E
:1010C0000E94ED07DF91CF9108950F931F938C013C
:1010D000862FF8016087718755874487318B208B75
:1010E00060E00E941E0AF801848560E00E941E0AEA
:1010F000F80117861686138A128A13861286178AB3
:10110000118E108E8FEF9FEF938F828F80E090E093
:10111000A0E0B0E0848F958FA68FB78F80E49FE129
:1011200091A380A31F910F91089584E392E06AE058
:1011300070E04BE050E029E030E00E94650808953F
:101140008130910541F46F5F7F4FB1F486E592E005
:101150000E9404020895892B79F46F5F7F4F61F438
:1011600080916B0290916C020E941A10809164022F
:10117000909165020E941A10089580E090E06FEF50
:101180007FEF0E94A008089581E090E06FEF7FEF6D
:101190000E94A008089588E293E00E947A110895C1
:1011A00086E592E00E94950108950E94C60384E3BB
:1011B00092E00E94260808950F931F9386E093E023
:1011C00040E855E260E070E00E94700C80E292E03E
:1011D0000E94AE0086E592E060E570E040E550E0F8
:1011E00028E009E00E94CD0208E213E0C8010E9455
:1011F0005F116091210270912202C80145ED58E013
:101200000E94C7116091210270912202C80140ED35
:1012100058E00E94C711C8010E9474111F910F91DC
:101220000895CF93DF930E94C1090E94DC08C2E2B7
:10123000DCE00E94CB082097E1F30E94220CF9CF5A
:101240001F920F920FB60F9211242F933F938F93FB
:101250009F93AF93BF938091790290917A02A0916E
:101260007B02B0917C0230917D020196A11DB11DDF
:10127000232F2D5F2D3720F02D570196A11DB11D75
:1012800020937D028093790290937A02A0937B024F
:10129000B0937C028091750290917602A0917702C2
:1012A000B09178020196A11DB11D809375029093B3
:1012B0007602A0937702B0937802BF91AF919F918D
:1012C0008F913F912F910F900FBE0F901F90189507
:1012D0009B01AC017FB7F8948091750290917602E2
:1012E000A0917702B091780266B5A89B05C06F3FC8
:1012F00019F00196A11DB11D7FBFBA2FA92F982FFC
:101300008827860F911DA11DB11D62E0880F991FCE
:10131000AA1FBB1F6A95D1F7BC012DC0FFB7F89477
:101320008091750290917602A0917702B091780237
:10133000E6B5A89B05C0EF3F19F00196A11DB11DB0
:10134000FFBFBA2FA92F982F88278E0F911DA11D9F
:10135000B11DE2E0880F991FAA1FBB1FEA95D1F7C4
:10136000861B970B885E9340C8F221503040404066
:10137000504068517C4F211531054105510571F6EA
:101380000895789484B5826084BD84B5816084BDFD
:1013900085B5826085BD85B5816085BDEEE6F0E0EE
:1013A000808181608083E1E8F0E01082808182604A
:1013B0008083808181608083E0E8F0E080818160CB
:1013C0008083E1EBF0E0808184608083E0EBF0E0FB
:1013D000808181608083EAE7F0E08081846080839F
:1013E0008081826080838081816080838081806849
:1013F00080831092C1000895982F8E3008F09E507F
:1014000097708091F8018295880F880F807C892BD6
:1014100080937C0080917A00806480937A00809130
:101420007A0086FDFCCF2091780040917900942FBE
:1014300080E030E0282B392BC9010895CF93DF934A
:10144000482F50E0CA0186569F4FFC0134914A57FD
:101450005F4FFA018491882369F190E0880F991F0A
:10146000FC01E859FF4FA591B491FC01EE58FF4FE4
:10147000C591D491662351F42FB7F8948C91932F92
:10148000909589238C93888189230BC0623061F405
:101490002FB7F8948C91932F909589238C93888102
:1014A000832B88832FBF06C09FB7F8948C91832B22
:1014B0008C939FBFDF91CF910895482F50E0CA01D0
:1014C00082559F4FFC012491CA0186569F4FFC0113
:1014D00094914A575F4FFA013491332309F440C085
:1014E000222351F1233071F0243028F42130A1F06F
:1014F000223011F514C02630B1F02730C1F024306D
:10150000D9F404C0809180008F7703C0809180005F
:101510008F7D8093800010C084B58F7702C084B522
:101520008F7D84BD09C08091B0008F7703C080910A
:10153000B0008F7D8093B000E32FF0E0EE0FFF1F2F
:10154000EE58FF4FA591B4912FB7F894662321F47C
:101550008C919095892302C08C91892B8C932FBFFD
:1015600008950F931F93CF93DF93BC0182309105B1
:1015700010F462E070E0E0911E04F0911F04A0E01E
:10158000B0E040E050E024C0808191818617970749
:10159000D0F08617970771F482819381109729F014
:1015A00013969C938E9312972CC090931F04809354
:1015B0001E0427C04115510519F08417950718F42A
:1015C000EF018D01AC01DF01828193819C01F90162
:1015D0003097D1F641155105F9F0CA01861B970BDA
:1015E0008430910580F48A819B810115110521F0D9
:1015F000F8019383828304C090931F0480931E0498
:10160000FE01329645C0FE01E80FF91F6193719308
:101610000297998388833CC080911C0490911D049B
:10162000892B41F48091FB019091FC0190931D0462
:1016300080931C044091FD015091FE01411551051C
:1016400041F44DB75EB78091F9019091FA01481BC2
:10165000590B20911C0430911D0424173507B0F458
:10166000CA01821B930B8617970780F0AB014E5F70
:101670005F4F8417950750F0420F531F50931D047E
:1016800040931C04F9016193719302C0E0E0F0E023
:10169000CF01DF91CF911F910F910895CF93DF93E9
:1016A0009C01009709F48FC0EC0122971B821A82DB
:1016B00060911E0470911F046115710581F4888189
:1016C0009981820F931F20911C0430911D042817CB
:1016D000390739F5D0931D04C0931C0474C0DB0195
:1016E00040E050E0AC17BD0708F1BB83AA83FE01C0
:1016F00021913191E20FF31FAE17BF0779F48D915D
:101700009C911197280F391F2E5F3F4F39832883F3
:1017100012968D919C9113979B838A834115510555
:1017200071F4D0931F04C0931E044DC012968D9186
:101730009C911397AD01009711F0DC01D3CFDA0132
:101740001396DC93CE931297FA0121913191E20F17
:10175000F31FCE17DF0769F488819981280F391F9D
:101760002E5F3F4FFA01318320838A819B819383CF
:101770008283E0E0F0E0DB0112968D919C9113975B
:10178000009719F0BC01FD01F6CFAB014E5F5F4F32
:10179000DB018D919C91840F951F20911C04309149
:1017A0001D042817390779F4309729F410921F0483
:1017B00010921E0402C01382128242505040509375
:1017C0001D0440931C04DF91CF91089508951F924A
:1017D0000F920FB60F9211242F933F934F938F9335
:1017E0009F93EF93FF938091C00082FD1DC04091B5
:1017F000C6002091BE023091BF022F5F3F4F2F7372
:1018000030708091C0029091C1022817390771F0A1
:10181000E091BE02F091BF02E258FD4F4083309349
:10182000BF022093BE0202C08091C600FF91EF91DB
:101830009F918F914F913F912F910F900FBE0F90DD
:101840001F901895E0911203F0911303E05CFF4F95
:101850008191919120813181821B930B8F739070C4
:10186000892B11F00E94E60B08951F920F920FB67C
:101870000F9211242F933F938F939F93EF93FF9396
:10188000209102033091030380910403909105039A
:101890002817390731F48091C1008F7D8093C100F2
:1018A00014C0E0910403F0910503EE53FD4F208135
:1018B000809104039091050301968F73907090932B
:1018C0000503809304032093C600FF91EF919F913D
:1018D0008F913F912F910F900FBE0F901F901895F1
:1018E000AF92BF92DF92EF92FF920F931F93CF932D
:1018F000DF93EC017A018B01DD24403081EE580743
:1019000080E0680780E0780711F0DD24D39491E04F
:10191000A92EB12CEC89FD89DD2069F0C50108A054
:1019200002C0880F991F0A94E2F7808360E079E093
:101930008DE390E005C0108260E874E88EE190E0ED
:10194000A80197010E948318215030404040504028
:10195000569547953795279580E12030380720F038
:10196000DD2011F0DD24D6CFE889F9893083EA89BA
:10197000FB89208319A2EE89FF89408121E030E0B4
:10198000C9010C8C02C0880F991F0A94E2F7482BFA
:101990004083EE89FF894081C9010D8C02C0880F08
:1019A000991F0A94E2F7482B4083EE89FF89408112
:1019B000C9010E8C02C0880F991F0A94E2F7482BC8
:1019C0004083EE89FF8980810F8C02C0220F331F74
:1019D0000A94E2F7209528232083DF91CF911F916D
:1019E0000F91FF90EF90DF90BF90AF900895DC01D2
:1019F0001C96ED91FC911D97E05CFF4F2191319178
:101A000080819181281B390B2F733070C901089593
:101A1000DC011C96ED91FC911D97E05CFF4F20814D
:101A20003181E054F040DF01AE5BBF4F8D919C915E
:101A300011972817390719F42FEF3FEF07C08D9141
:101A40009C91E80FF91F8081282F30E0C90108958B
:101A5000DC011C96ED91FC911D97E05CFF4F20810D
:101A60003181E054F040DF01AE5BBF4F8D919C911E
:101A700011972817390719F42FEF3FEF10C08D91F8
:101A80009C911197E80FF91F20818D919C911197DE
:101A900001968F73907011969C938E9330E0C901DC
:101AA0000895DC0191968C919197882339F0549692
:101AB000ED91FC915597808186FFF9CF91961C920C
:101AC0000895CF93DF93EC01EE85FF85E05CFF4F37
:101AD00020813181E054F0402F5F3F4F2F733070F1
:101AE000DF01AE5BBF4F8D919C911197281739078D
:101AF000D1F3E05CFF4F80819181E054F040E80F2A
:101B0000F91F6083EE85FF85E05CFF4F3183208302
:101B1000EE89FF89208181E090E00F8C02C0880F60
:101B2000991F0A94E2F7282B208381E089A3EC898E
:101B3000FD8980818064808381E090E0DF91CF9196
:101B40000895109209031092080388EE93E0A0E034
:101B5000B0E080930A0390930B03A0930C03B0931F
:101B60000D0383E092E090930703809306038EE7D2
:101B700092E0909313038093120382EC92E090938F
:101B800015038093140385EC90E0909317038093E2
:101B9000160384EC90E0909319038093180380EC73
:101BA00090E090931B0380931A0381EC90E0909354
:101BB0001D0380931C0382EC90E090931F0380939D
:101BC0001E0386EC90E0909321038093200384E031
:101BD0008093220383E08093230387E08093240390
:101BE00085E08093250381E0809326030895CF92BA
:101BF000DF92EF92FF920F931F93CF93DF937C01BD
:101C00006B018A01C0E0D0E00FC0D6016D916D017B
:101C1000D701ED91FC910190F081E02DC70109956C
:101C2000C80FD91F015010400115110571F7CE01E1
:101C3000DF91CF911F910F91FF90EF90DF90CF90A8
:101C40000895EF92FF920F931F938C01DC01ED91A9
:101C5000FC910190F081E02D6DE009957C01D801A7
:101C6000ED91FC910190F081E02DC8016AE00995A9
:101C70009C012E0D3F1DC9011F910F91FF90EF9008
:101C80000895CF93DF93EC016115710519F420E0FD
:101C900030E00FC0DB010D900020E9F71197A61B83
:101CA000B70BE881F9810280F381E02DAD01099540
:101CB0009C01C901DF91CF9108954F925F927F926D
:101CC0008F929F92AF92BF92CF92DF92EF92FF924C
:101CD0000F931F93DF93CF93CDB7DEB7A1970FB6C6
:101CE000F894DEBF0FBECDBF2C01742ECB01223085
:101CF00008F42AE019A231E2C32ED12CCC0EDD1E4D
:101D0000822E9924AA24BB24672D752FA501940146
:101D10000E94831879018A01C801B701A5019401C5
:101D20000E946418472D461B0894C108D1084A3008
:101D300014F4405D01C0495CF6014083E114F104F4
:101D40000105110521F07E2C5F2DC801DDCFC201F8
:101D5000B6010E94410EA1960FB6F894DEBF0FBEE9
:101D6000CDBFCF91DF911F910F91FF90EF90DF904A
:101D7000CF90BF90AF909F908F907F905F904F904B
:101D80000895DC012115310541F4ED91FC9101909C
:101D9000F081E02D642F099508950E945D0E08954D
:101DA000CF92DF92EF92FF920F931F93CF93DF9327
:101DB000EC016A017B012115310541F4E881F981CB
:101DC0000190F081E02D642F09951FC02A30310564
:101DD000D1F477FF17C0E881F9810190F081E02DFF
:101DE0006DE209958C0144275527BA014C195D090C
:101DF0006E097F09CE012AE00E945D0E9801280F2E
:101E0000391F04C02AE00E945D0E9C01C901DF91C8
:101E1000CF911F910F91FF90EF90DF90CF90089599
:101E20007F928F929F92AF92BF92CF92DF92EF926A
:101E3000FF920F931F93CF93DF934C017A018B0195
:101E4000722ECB01BA01A80197010E946018882365
:101E500021F0C4016AEE71E021C0C0E0D0E057017A
:101E60006801E894D7F8C601B5012FEF3FEF4FE7BF
:101E70005FE70E946018882351F4C601B5012FEF77
:101E80003FEF4FE75FE70E945516181614F0C1E0C8
:101E9000D0E0219739F0C4016EEE71E00E94410E4E
:101EA000EC0193C0C801B7012FEF3FEF4FE75FE4AC
:101EB0000E94F917181654F0C801B7012FEF3FEF31
:101EC0004FE75FEC0E945516882324F4C40162EFAB
:101ED00071E0E4CFC801B70120E030E040E050E01D
:101EE0000E94551687FD03C0C0E0D0E00EC0D401AB
:101EF000ED91FC910190F081E02DC4016DE2099516
:101F0000EC0117FB109517F9109520E030E040E048
:101F10005FE3DD240BC0CA01B90120E030E040E2FC
:101F200051E40E9459169B01AC01D394D71498F345
:101F3000C801B7010E94F1155B016C010E94C61631
:101F40007B018C01C401B801A7012AE030E00E94A6
:101F5000C10EC80FD91F772039F0C40166EF71E0B8
:101F60000E94410EC80FD91FC801B7010E94F21686
:101F70009B01AC01C601B5010E94F01524C020E010
:101F800030E040E251E40E94FD177B018C010E9489
:101F9000C1165B016C01CC24B7FCC094DC2CC401DD
:101FA000B601A5012AE030E00E94D00EC80FD91F6B
:101FB000C601B5010E94F4169B01AC01C801B7012E
:101FC0000E94F0157A947720D1F6CE01DF91CF915F
:101FD0001F910F91FF90EF90DF90CF90BF90AF9047
:101FE0009F908F907F900895EF92FF920F931F9391
:101FF0007C010E94100F8C01C7010E94210E080F66
:10200000191FC8011F910F91FF90EF900895EF9253
:10201000FF920F931F937C010E94410E8C01C70118
:102020000E94210E080F191FC8011F910F91FF90E8
:10203000EF9008950E944E0B08950E94B10A0895F2
:102040000895EF92FF920F931F93FC01F62EE42E5A
:1020500002EA13E06081772767FD7095C8010E944E
:10206000A312C8016F2D0E942513C8016E2D0E9476
:102070002513C8010E9468131F910F91FF90EF90E4
:102080000895FF920F931F93CF93DF93EC01F62EE9
:10209000042F11E4CE01612F4F2D0E9421101F5FEC
:1020A000CE01612F402F0E9421101F5F193591F73B
:1020B000DF91CF911F910F91FF900895DF92EF92E2
:1020C000FF920F931F938C01D62E82EAE82E83E0B5
:1020D000F82EF8016081772767FD7095C7010E948F
:1020E000A312C7016D2D0E942513C70160E00E9455
:1020F0005513F8016081772767FD7095C70142E0AD
:1021000050E00E947913C7010E94B6128C01C701EA
:102110000E94B612382F20E0202B312BC9011F91CD
:102120000F91FF90EF90DF90089560E00E945E10A5
:102130009C013F70C9010895DF92EF92FF920F93C7
:102140001F937C01D62E02EA13E0FC016081772701
:1021500067FD7095C8010E94A312C8016D2D0E94F1
:102160002513C80160E00E945513F70160817727AD
:1021700067FD7095C80141E050E00E947913C801E5
:102180000E94B6121F910F91FF90EF90DF9008957B
:102190001F93CF93DF93EC01162F82EA93E00E9406
:1021A0007D131883CE0160E843E60E94211061E0B0
:1021B00070E080E090E00E946809CE016EE540E0AA
:1021C0000E942110CE016DE50E949C10843211F016
:1021D00080E051C0CE016CE046E00E944110CE018B
:1021E0006BE241E00E942110CE016CE241E00E94CE
:1021F0002110CE016DE24EE00E942110CE016EE270
:1022000040E00E942110CE016FE241E00E942110C7
:10221000CE0160E345E00E942110CE0161E341E080
:102220000E942110CE0162E340E00E942110CE0105
:1022300063E340E00E942110CE0164E340E00E948D
:102240002110CE0165E340E00E942110CE016BE534
:1022500040E00E942110CE016CE540E10E94211077
:10226000CE016DE540E20E942110CE016EE54FE8FF
:102270000E94211081E0DF91CF911F9108950E946B
:1022800094001F920F920FB60F9211248F939F9379
:10229000EF93FF9380915B038F5F80935B03E8E292
:1022A000F3E080819181019691838083FF91EF918A
:1022B0009F918F910F900FBE0F901F901895F894DB
:1022C0001092800088E1809381008FE79EE39093D5
:1022D00087008093860080E280936F0010928500D3
:1022E0001092840078940895E1E8F0E080818160A4
:1022F00080830895EF92FF921F93CF93DF93EC01B9
:102300008BA98823F1F1E82EFF241BAA10E036C028
:10231000412F50E0FA01EE0FFF1FE40FF51FDF0120
:10232000AA0FBB1FAC0FBD1F14962D913C911597A2
:102330002E193F0915963C932E93149712161306E7
:10234000E4F03196EE0FFF1FEC0FFD1F80819181AD
:10235000280F391F15963C932E931497CA010196A6
:10236000FC01EE0FFF1FE80FF91FEE0FFF1FEC0F30
:10237000FD1F0190F081E02D09951F5F8AA91817B4
:1023800038F2DF91CF911F91FF90EF9008950F9356
:102390001F93CF93DF93EC018A014AA910C0F90182
:1023A000EE0FFF1FE20FF31F3196EE0FFF1FEC0F32
:1023B000FD1F86E00D9001928150E1F741504423CA
:1023C000A1F0242F30E0C9010197DC01AA0FBB1F47
:1023D000A80FB91F1196AA0FBB1FAC0FBD1F8D917F
:1023E0009C91119768177907D4F28AA98F5F8AABFD
:1023F000242F30E0C9010196FC01EE0FFF1FE80F0A
:10240000F91FEE0FFF1FEC0FFD1F11830083F90171
:10241000EE0FFF1FE20FF31FDF01AA0FBB1FAC0F70
:10242000BD1F15967C936E9314973196EE0FFF1F88
:10243000EC0FFD1F71836083DF91CF911F910F918E
:102440000895CF93DF93EC01DB017AA960E0462F7A
:1024500050E0FA01EE0FFF1FE40FF51F3196EE0F6B
:10246000FF1FEC0FFD1F2D913C91119780819181F1
:1024700028173907A1F4CA010196FC01EE0FFF1FCE
:10248000E80FF91FEE0FFF1FEC0FFD1F14962D91A3
:102490003C911597808191812817390719F06F5F5A
:1024A0007617A8F6671718F571507AAB1DC0862FFE
:1024B00090E0DC01AA0FBB1FA80FB91F1196AA0F4D
:1024C000BB1F0196FC01EE0FFF1FE80FF91F3196AD
:1024D000EE0FFF1FAC0FBD1FEC0FFD1F86E001903C
:1024E0000D928150E1F76F5F8AA9681700F3DF91C1
:1024F000CF910895DF93CF9300D000D000D0CDB717
:10250000DEB77A8369837C836B835E834D83BE01F0
:102510006F5F7F4F0E94211226960FB6F894DEBFA0
:102520000FBECDBFCF91DF910895EAE2F3E01182B3
:1025300010821382128215821482369683E0EA3565
:10254000F807A9F7089581E08093A10360937E03C3
:1025500010929F031092A003089520917D0330E014
:1025600080917C03281B3109C901089540917C03A7
:1025700080917D03481718F02FEF3FEF0AC0E42F3A
:10258000F0E0E45AFC4F8081282F30E04F5F409309
:102590007C03C9010895E0917C0380917D03E817D5
:1025A00018F0EFEFFFEF06C0F0E0E45AFC4F808137
:1025B000E82FF0E0CF01089508951092A50310923E
:1025C000A40388EE93E0A0E0B0E08093A60390938C
:1025D000A703A093A803B093A90383E192E090938B
:1025E000A3038093A2030895CF92DF92EF92FF920C
:1025F0000F931F93CF93DF937C016B018A0180912E
:10260000A1038823A1F0C0E0D0E00DC0D701ED9177
:10261000FC91D601AC0FBD1F0190F081E02DC701E8
:102620006C9109952196C017D10780F304C0CB01A6
:10263000642F0E942614C801DF91CF911F910F9142
:10264000FF90EF90DF90CF900895DF93CF930F929C
:10265000CDB7DEB7FC0169838091A1038823C9F05F
:102660008091A003803238F081E090E093838283F0
:1026700020E030E015C080919F03E82FF0E0E158A2
:10268000FC4F998190838F5F80939F038093A00379
:1026900005C0CE01019661E00E94261421E030E0E1
:1026A000C9010F90CF91DF9108950F93062F80916C
:1026B0007E036FE773E04091A00321E00E94D113F5
:1026C00010929F031092A0031092A1030F910895FE
:1026D00061E00E9455130895413208F040E2862FD0
:1026E0006CE573E00E94881310927C0380937D0355
:1026F000089521E00E946C13089510927C031092BB
:102700007D0310929F031092A0030E94D21508959A
:10271000382F413210F040E042C08091AE03882350
:10272000E1F791E09093AE032093B0038FEF809395
:102730001B041092D60341504093D7034F5F9093F0
:10274000AF038091AF03330F832B8093AF0380914E
:10275000B103813041F41092B1038091AF038093B3
:10276000BB0085EC01C085EE8093BC008091AE0378
:102770008130E1F38091D603841710F44091D603A1
:1027800020E030E00AC0FB01E20FF31FD901AA5498
:10279000BC4F8C9180832F5F3F4F2417A0F3842F71
:1027A00008950F931F93582F122F413210F081E09C
:1027B0004AC08091AE038823E1F782E08093AE03A4
:1027C0000093B0038FEF80931B041092D6034093C5
:1027D000D703A6EBB3E0FB0102C081918D938E2F4E
:1027E000861B8417D0F31092AF038091AF03550F6F
:1027F000852B8093AF038091B103813041F4109217
:10280000B1038091AF038093BB0085EC01C085EEDE
:102810008093BC00112321F08091AE038230E1F35C
:1028200080911B048F3F11F480E00DC080911B0448
:10283000803211F482E007C080911B04803311F0D4
:1028400084E001C083E01F910F910895482F613209
:1028500010F081E008958091AE03843011F082E0A1
:1028600008956093F903A8EDB3E0842F9C01F9016A
:1028700002C081918D938E2F841B8617D0F380E048
:1028800008951F920F920FB60F9211242F933F932A
:102890004F935F936F937F938F939F93AF93BF9368
:1028A000EF93FF938091B90090E0887F907080361D
:1028B000910509F4F2C081369105CCF58832910575
:1028C00009F47BC089329105B4F48031910509F493
:1028D0006FC0813191053CF4009709F447C1089716
:1028E00009F04FC165C08831910509F466C0809731
:1028F00009F047C182C08034910509F4A4C0813435
:10290000910544F48033910509F482C0C89709F019
:1029100038C189C08035910509F489C08835910591
:1029200009F496C08834910509F02BC1AEC08839EE
:10293000910509F413C189399105ECF488379105A3
:1029400009F4ABC0893791054CF48836910509F438
:10295000A4C08037910509F014C19FC08838910543
:1029600009F4FCC08039910509F49DC080389105B7
:1029700009F007C198C0803B910509F4C6C0813BAE
:1029800091054CF4803A910509F49FC0883A91056D
:1029900009F0F7C0BAC0803C910509F4E3C0883C57
:1029A000910509F4DFC0883B910509F0EAC0C2C077
:1029B0008091AF038093BB00CFC09091D6038091EC
:1029C000D703981768F49091D603E92FF0E0EA5402
:1029D000FC4F80818093BB009F5F9093D603BCC067
:1029E0008091B003882309F44BC085ED8093BC002F
:1029F0008091BC0084FDFCCFC2C080E280931B04A8
:102A000085ED8093BC008091BC0084FDFCCFB7C0F5
:102A100080E380931B0485ED8093BC008091BC0013
:102A200084FDFCCFACC088E380931B049BC08091E5
:102A3000D6039091BB00E82FF0E0EA54FC4F90835E
:102A40008F5F8093D6039091D6038091D70382C085
:102A50008091D6039091BB00E82FF0E0EA54FC4F40
:102A600090838F5F8093D6038091B003882341F0D9
:102A700085ED8093BC008091BC0084FDFCCF7FC0BD
:102A800081E08093B10384EA6EC085ED8093BC0041
:102A90008091BC0084FDFCCF72C083E08093AE03C4
:102AA00010921A0459C080911A04803208F056C05E
:102AB00080911A049091BB00E82FF0E0E650FC4FA3
:102AC00090838F5F80931A0447C080911A048032EC
:102AD00030F4E0911A04F0E0E650FC4F108285EDEE
:102AE0008093BC008091BC0084FDFCCF1092AE03AB
:102AF00060911A04E091B403F091B5038AEF93E07A
:102B000070E0099510921A042DC084E08093AE0302
:102B10001092F8031092F903E091B203F091B3031D
:102B200009958091F903882329F481E08093F903C2
:102B30001092D8039091F803E92FF0E0E852FC4F8F
:102B400080818093BB009F5F9093F8039091F8037E
:102B50008091F903981710F485EC01C085E8809303
:102B6000BC000FC085EC8093BC0009C010921B0410
:102B700085ED8093BC008091BC0084FDFCCF109259
:102B8000AE03FF91EF91BF91AF919F918F917F9194
:102B90006F915F914F913F912F910F900FBE0F90CA
:102BA0001F9018951092AE0381E08093B0031092AD
:102BB000B10382E161E00E945D0A83E161E00E946D
:102BC0005D0AE9EBF0E080818E7F808380818D7FDC
:102BD000808388E48093B80085E48093BC000895E6
:102BE0005058BB27AA270ED0B3C1A4D130F0A9D129
:102BF00020F031F49F3F11F41EF499C10EF4E095DA
:102C0000E7FB64C1E92FB5D180F3BA1762077307F8
:102C10008407950718F071F49EF5E4C10EF4E09571
:102C20000B2EBA2FA02D0B01B90190010C01CA0186
:102C3000A0011124FF27591B99F0593F50F4503E31
:102C400068F11A16F040A22F232F342F4427585F23
:102C5000F3CF469537952795A795F0405395C9F73B
:102C60007EF41F16BA0B620B730B840BBAF09150F3
:102C7000A1F0FF0FBB1F661F771F881FC2F70EC092
:102C8000BA0F621F731F841F48F487957795679565
:102C9000B795F7959E3F08F0B3CF9395880F08F04E
:102CA0009927EE0F979587950895ECD008F481E069
:102CB00008950CD04DC145D140F03CD130F021F405
:102CC0005F3F19F003C151118EC131C152D198F348
:102CD0009923C9F35523B1F3951B550BBB27AA279D
:102CE00062177307840738F09F5F5F4F220F331F0F
:102CF000441FAA1FA9F333D00E2E3AF0E0E830D0DB
:102D000091505040E695001CCAF729D0FE2F27D0DD
:102D1000660F771F881FBB1F261737074807AB07AB
:102D2000B0E809F0BB0B802DBF01FF2793585F4F20
:102D30002AF09E3F510568F0C9C055C15F3FECF3D2
:102D4000983EDCF3869577956795B795F7959F5FE5
:102D5000C9F7880F911D9695879597F90895E1E039
:102D6000660F771F881FBB1F621773078407BA0798
:102D700020F0621B730B840BBA0BEE1F88F7E095F3
:102D8000089504D06894B1112EC10895FAD088F046
:102D90009F5790F0B92F9927B751A0F0D1F0660F47
:102DA000771F881F991F1AF0BA95C9F712C0B13062
:102DB00081F018D1B1E0089515C1672F782F8827C9
:102DC000B85F39F0B93FCCF3869577956795B395A1
:102DD000D9F73EF490958095709561957F4F8F4F10
:102DE0009F4F0895E89409C097FB3EF49095809515
:102DF000709561957F4F8F4F9F4F9923A9F0F92FC1
:102E000096E9BB279395F695879577956795B7953E
:102E1000F111F8CFFAF4BB0F11F460FF1BC06F5F24
:102E20007F4F8F4F9F4F16C0882311F096E911C036
:102E3000772321F09EE8872F762F05C0662371F057
:102E400096E8862F70E060E02AF09A95660F771F6B
:102E5000881FDAF7880F9695879597F90895ABD074
:102E600080F09F3740F491110EF0BDC060E070E03B
:102E700080E89FEB089526F41B16611D711D811DCE
:102E80002BC045C0990F0008550FAA0BE0E8FEEFD4
:102E900016161706E807F907C0F012161306E4071E
:102EA000F50798F0621B730B840B950B39F40A2617
:102EB00061F0232B242B252B21F408950A2609F4F5
:102EC000A140A6958FEF811D811D089597F99F67F9
:102ED00080E870E060E00895882371F4772321F0A2
:102EE0009850872B762F07C0662311F499270DC0C1
:102EF0009051862B70E060E02AF09A95660F771F5C
:102F0000881FDAF7880F9695879597F908959F3F60
:102F100049F0915028F4869577956795B7959F5F0E
:102F200080389F4F880F9695879597F908959FEF62
:102F300080EC089500240A94161617061806090650
:102F4000089500240A94121613061406050608951F
:102F5000092E0394000C11F4882352F0BB0F40F4A7
:102F6000BF2B11F460FF04C06F5F7F4F8F4F9F4FE7
:102F7000089557FD9058440F551F59F05F3F71F069
:102F80004795880F97FB991F61F09F3F79F08795D0
:102F90000895121613061406551FF2CF4695F1DF59
:102FA00008C0161617061806991FF1CF86957105E9
:102FB000610508940895E5DFA0F0BEE7B91788F42D
:102FC000BB279F3860F41616B11D672F782F88270E
:102FD000985FF7CF869577956795B11D939596394C
:102FE000C8F30895E894BB2766277727CB0197F9A4
:102FF000089548DF08F48FEF08950BD0A9CF9ADF2A
:1030000028F09FDF18F0952309F060CF90CF1124AE
:10301000EACFAFDFA0F3959FD1F3950F50E0551F96
:10302000629FF001729FBB27F00DB11D639FAA271D
:10303000F00DB11DAA1F649F6627B00DA11D661F6C
:10304000829F2227B00DA11D621F739FB00DA11D8D
:10305000621F839FA00D611D221F749F3327A00D47
:10306000611D231F849F600D211D822F762F6A2FE3
:1030700011249F5750408AF0E1F088234AF0EE0F68
:10308000FF1FBB1F661F771F881F91505040A9F775
:103090009E3F510570F01ACFA6CF5F3FECF3983EEC
:1030A000DCF3869577956795B795F795E7959F5FDC
:1030B000C1F7FE2B880F911D9695879597F9089576
:1030C000E1DE880B990B0895629FD001739FF00198
:1030D000829FE00DF11D649FE00DF11D929FF00DA8
:1030E000839FF00D749FF00D659FF00D9927729FDF
:1030F000B00DE11DF91F639FB00DE11DF91FBD016A
:10310000CF0111240895A1E21A2EAA1BBB1BFD01B9
:103110000DC0AA1FBB1FEE1FFF1FA217B307E407B6
:10312000F50720F0A21BB30BE40BF50B661F771F0E
:10313000881F991F1A9469F76095709580959095EE
:103140009B01AC01BD01CF010895EE0FFF1F05905B
:10315000F491E02D099410E0C2EDD0E004C0FE012E
:103160000E94A7182296C43DD107C9F7F894FFCF53
:103170004164616672756974204D5052313231205C
:103180004361706163697469766520546F75636823
:103190002073656E736F722074657374004D5052A6
:1031A000313231206E6F7420666F756E642C20632F
:1031B0006865636B20776972696E673F004D505296
:1031C00031323120666F756E642100496E76616C14
:1031D0006964207375627363726970740052656309
:1031E0006F72646572206261696C005265636F7210
:1031F00064657220636C65617220616C6C20686923
:103200007473004E65772048697473004C6F6F705B
:10321000204869747300436C656172204C6F6F7055
:10322000004C6F6F70204C656E6774682053657436
:103230000053746172742053657474696E67204C16
:103240006F6F70204C656E677468004261696C2016
:10325000547269676765726564006E616E00696EBD
:1032600066006F7666002E000180002004000000DA
:10327000000000610DF70DF70C280D080D510D0031
:103280000000002513F412AD12B612CB12DC1200AE
:00000001FF
