:100000000C946A000C9492000C9492000C94920050
:100010000C9492000C9492000C9492000C94920018
:100020000C9492000C9492000C9405110C94920084
:100030000C9492000C9492000C9492000C949200F8
:100040000C94C9080C9492000C94900B0C94DE0B49
:100050000C9492000C9492000C9492000C949200D8
:100060000C9405140C94920000000000240027005A
:100070002A0000000000250028002B0000000000DE
:1000800023002600290004040404040404040202DA
:100090000202020203030303030301020408102007
:1000A0004080010204081020010204081020000012
:1000B0000007000201000003040600000000000029
:1000C000000094002C013C03340861084A0D5912C9
:1000D000A1125A0811241FBECFEFD8E0DEBFCDBF5A
:1000E00011E0A0E0B1E0E8EFF0E302C005900D926E
:1000F000A23CB107D9F713E0A2ECB1E001C01D9218
:10010000A23BB107E1F710E0C2EDD0E004C02297B6
:10011000FE010E946B18C23CD107C9F70E94BA08C1
:100120000C946F180C94000082EC91E00E94E60F92
:1001300008951F93162F0E945B1021E030E002C04B
:10014000220F331F1A95E2F728233923C9011F9183
:1001500008950F931F93DF93CF930F92CDB7DEB720
:100160008C01CE0101960E94E60F8981F8018083FF
:1001700088E992E060E071E00E94CD0FC8016AE575
:100180000E948E10882339F488E992E06DE271E0D4
:100190000E94CD0FFFCF88E992E06DE471E00E94EC
:1001A000CD0F0F90CF91DF911F910F910895862F62
:1001B00060E00E94060A0895862F61E00E94060A08
:1001C0000895FC01858160E00E94060A089583EC91
:1001D00091E00E94E1008AEB92E064E170E047EE7A
:1001E00050E00E943E120895FC01858161E00E946A
:1001F000060A089583EC91E00E94F4008AEB92E0F5
:1002000064E170E047EE50E00E948B1108950E9477
:10021000FA00089582EC91E070E00E949900089540
:10022000FC0184810E94A50908950F931F938C01FE
:100230008EE0F801848387E0858361E00E94C7092E
:1002400088E090E0F8019183808388EC90E09383CC
:1002500082831F910F91089583EC91E00E94150114
:1002600008950F931F93CF93DF93EC018881882328
:1002700071F48E01085F1F4FC8010E948F0388230D
:1002800019F0C8010E94630481E08B838883DF91A9
:10029000CF911F910F9108950F931F938C0183ECC1
:1002A00091E0F80164810E94DC00F801138217825A
:1002B00016821F910F910895CF93DF93EC0183EC89
:1002C00091E06D810E940A01892B19F0CE010E94F4
:1002D00031018B81882349F4CE0108960E9456068D
:1002E000882321F18881882309F5CE010E944C01E1
:1002F00021C083EC91E06C810E94DC008091C301FD
:100300009091C4012E813F81820F931F9F838E8322
:1003100029813A81821793076CF018821F821E820E
:1003200083EC91E06C810E94D70004C0888188230F
:1003300001F7F6CFDF91CF91089508960E94AA03A6
:100340000895CF92DF92EF92FF920F931F93CF9376
:10035000DF938C017B016817790709F4AEC0DB01DC
:1003600014962D913C911597EC018A819B818217FF
:10037000930798F5C880D9803B832A83C901880FE9
:10038000991F880F991F0E94E30F9983888340E08B
:1003900050E020E030E016C0F801C081D181C20FEA
:1003A000D31F209759F0F601E20FF31F808191814E
:1003B000A281B38188839983AA83BB834F5F5F4FF8
:1003C0002C5F3F4FD80114968D919C91159748173B
:1003D000590710F3C6010E94E00FE8018C819D814E
:1003E000F701648175818617970708F4BC0140E026
:1003F00050E020E030E017C0D801ED91FC91E20F11
:10040000F31FE701A881B981A20FB31F8D919D91C0
:100410000D90BC91A02D80839183A283B3834F5F05
:100420005F4F2C5F3F4F4617570730F3F801448169
:100430005581D70114968D919C91159748175907AE
:1004400050F59A01220F331F220F331F1EC0F801EF
:10045000C081D181C20FD31FD701ED91FC912097AC
:1004600051F0E20FF31F80819181A281B3818883D3
:100470009983AA83BB83E8018C819D8101969D832A
:100480008C834F5F5F4F2C5F3F4FF70184819581D5
:1004900048175907E0F2D80114968D919C91159751
:1004A000E7016C817D816817790738F4681779074F
:1004B00020F415967C936E931497C801DF91CF9129
:1004C0001F910F91FF90EF90DF90CF900895CF9202
:1004D000DF92EF92FF920F931F93DF93CF93CDB7ED
:1004E000DEB761970FB6F894DEBF0FBECDBF8C01AB
:1004F000822FF801728361831082138224834583E3
:100500001782168261E00E94C709F801858160E0C8
:100510000E94C7097E010894E11CF11CC7010E94DA
:10052000AA0338E0C32ED12CC00ED11EC601B701DC
:100530000E94A101C8010F96BE01685F7F4F0E9413
:10054000A1018F859889F801978B868B8989808F87
:10055000888599850E94E00F89819A810E94E00F29
:10056000C6010E94A80661960FB6F894DEBF0FBEC2
:10057000CDBFCF91DF911F910F91FF90EF90DF9052
:10058000CF9008954F925F926F927F928F929F9239
:10059000AF92BF92CF92DF92EF92FF920F931F9391
:1005A0006C0183EC91E00E9410017C01F6016381F3
:1005B0007481882777FD8095982F0E94B8162B01AB
:1005C0003C01F60165817681882777FD8095982F1B
:1005D0000E94B8164B015C010027F7FC0095102F14
:1005E000C801B7010E94B8167B018C01F601678132
:1005F0007085882777FD8095982F0E94B8169B01FB
:10060000AC01C801B7010E941D169B01AC01C501D8
:10061000B4010E94C1179B01AC01C301B2010E9449
:10062000B4151F910F91FF90EF90DF90CF90BF9086
:10063000AF909F908F907F906F905F904F900895B4
:100640000E94C2029B01AC0160E070E08AE794E482
:100650000E941D1620E030E040E752E40E94C117DE
:1006600020E030E040E05FE30E94B5150E94F31601
:100670000E948516CB01089580EF90E09093CD0104
:100680008093CC0188E290E09093CB018093CA01E3
:1006900088EC90E09093CF018093CE018CEF93E0B3
:1006A0009093D1018093D001E9ECF1E01082CF0169
:1006B0000E9420039093D5018093D4010895CF9395
:1006C000DF938091D2019091D3012091C3013091A9
:1006D000C401820F931F9093D3018093D201109293
:1006E000C90189EC91E00E942003EC018091D201C4
:1006F0009091D301C817D9075CF483EC91E00E9474
:10070000070181E08093C9011092D3011092D201B8
:10071000D093D501C093D401DF91CF91089586ED98
:1007200091E00E94FC0608950F931F938C01FC0139
:100730001182108288E090E0938382831582148274
:1007400080E290E00E94E30FF801918380831F9183
:100750000F9108950F931F93DF93CF9300D0CDB7E0
:10076000DEB78C01BE016F5F7F4F0E949403C8010A
:100770000796BE016E5F7F4F0E9494030F900F900B
:10078000CF91DF911F910F910895EF92FF920F93F8
:100790001F93CF93DF938C01FC0182819381861795
:1007A000970790F5E080F18073836283CB01880F17
:1007B000991F880F991F0E94E30FF801918380838E
:1007C00040E050E020E030E016C0F801C081D18167
:1007D000C20FD31F209759F0F701E20FF31F80815A
:1007E0009181A281B38188839983AA83BB834F5F60
:1007F0005F4F2C5F3F4FF80184819581481759075F
:1008000020F3C7010E94E00FDF91CF911F910F915C
:10081000FF90EF900895AF92BF92CF92DF92EF9248
:10082000FF920F931F93CF93DF938C01EB017A011B
:10083000DC0114968D919C9115978617970780F58A
:1008400012968D919C9113978617970728F4685FED
:100850007F4FC8010E94C503F80124813581A90199
:10086000440F551F440F551F14C0D801ED91FC9142
:10087000E40FF51F309749F0D701AD90BD90CD90B2
:10088000DC90A082B182C282D3822F5F3F4F4C5F47
:100890005F4F2C173D0748F3F801D583C48308C088
:1008A0006817790728F4D80115967C936E931497EE
:1008B000DF91CF911F910F91FF90EF90DF90CF903C
:1008C000BF90AF9008950F931F93DF93CF9300D005
:1008D00000D0CDB7DEB78C0186ED91E00E94F40622
:1008E00069837A838B839C83F801638574856F5F4A
:1008F0007F4FC8010796AE014F5F5F4F0E940B0408
:100900000F900F900F900F90CF91DF911F910F914B
:1009100008952F923F924F925F926F927F928F92A3
:100920009F92AF92BF92CF92DF92EF92FF920F937E
:100930001F93DF93CF93CDB7DEB760970FB6F894D0
:10094000DEBF0FBECDBF2C01DC011B968D919C91AB
:100950001C97009709F491C114960D911C9115975D
:10096000080F191F80E090E0A0E0B0E08A839B832D
:10097000AC83BD831F821E821B861A86C80108961F
:1009800099878887880F991F880F991F0E94E30F06
:100990009F838E83CE010696B801AE014E5F5F4FF6
:1009A0000E940B04F2016080718084819581880F20
:1009B000991F880F991F860D971D988B8F878780A9
:1009C0009084A385B485AA0FBB1FAA0FBB1FA80DD7
:1009D000B91DBE87AD872E803F802AC0F401A0805C
:1009E000B180C280D380D301ED90FD900D911C9118
:1009F000C601B501A80197010E941916882354F475
:100A0000F101A082B182C282D38284E090E0880E9C
:100A1000991E0AC0D101ED92FD920D931C9313977C
:100A2000E4E0F0E06E0E7F1E84E090E0280E391EB8
:100A3000AF85B8896A167B0619F4F301910110C0DD
:100A4000ED85FE858E169F0649F6F7CF41915191AF
:100A500061917191D9014D935D936D937D939D014A
:100A60008F859889E817F90789F7E619F709EC7F68
:100A7000E20DF31D0AC0D4012D913D914D915D9180
:100A80004D0121933193419351938D859E85881615
:100A9000990689F788E992E06BE571E00E94CD0F35
:100AA000D20117960D911C9118970CC0F801419135
:100AB0005191619171918F0188E992E022E030E0DB
:100AC0000E94BA0FD2011B962D913C911C97220FC8
:100AD000331F220F331F17968D919C911897820F09
:100AE000931F0817190711F788E992E064E671E08F
:100AF0000E94CD0FF201008111810CC0D8014D91EF
:100B00005D916D917D918D0188E992E022E030E068
:100B10000E94BA0FF20124813581220F331F220F68
:100B2000331F80819181820F931F0817190731F7B6
:100B300088E992E06DE671E00E94CD0F0E811F8181
:100B40000CC0D8014D915D916D917D918D0188E929
:100B500092E022E030E00E94BA0F6A857B859B011B
:100B6000220F331F220F331F8E819F81820F931F0D
:100B70000817190731F7CE0106964816590609F4E9
:100B80006DC0C2010E94C503F201848195816A850E
:100B90007B858617970708F4BC0140E050E020E011
:100BA00030E016C0D201ED91FC91E20FF31FAE814F
:100BB000BF81A20FB31F8D919D910D90BC91A02D6F
:100BC00080839183A283B3834F5F5F4F2C5F3F4F3E
:100BD0004617570738F3F201648175818A859B8532
:100BE0006817790770F5AB01440F551F440F551F67
:100BF00023C0D2012D913C91240F351FEE81FF813E
:100C00002115310559F0E40FF51F80819181A281F2
:100C1000B381F90180839183A283B383D2011496B7
:100C20008D919C911597019615969C938E93149790
:100C30006F5F7F4F4C5F5F4F8A859B856817790791
:100C4000C0F2F201248135818A859B858217930742
:100C500028F48217930710F495838483D2011B969E
:100C60008D919C911C97892B21F01C961C921E92B1
:100C70001B978E819F810E94E00F60960FB6F894BB
:100C8000DEBF0FBECDBFCF91DF911F910F91FF90BF
:100C9000EF90DF90CF90BF90AF909F908F907F901C
:100CA0006F905F904F903F902F900895CF92DF927A
:100CB000EF92FF920F931F93CF93DF93EC0186ED9A
:100CC00091E00E94FC068823C9F186ED91E00E9424
:100CD000F4066B017C018E859F8597FF09C080918A
:100CE000D601882359F11F861E86CE010E948904F1
:100CF0000E851F85C801880F991F880F991FE881ED
:100D0000F981E80FF91FC701B601208131814281C5
:100D100053810E94BD1788238CF08C819D8101979F
:100D20000817190728F08FEF9FEF9F878E8704C061
:100D30000F5F1F4F1F870E8781E001C080E0DF91AA
:100D4000CF911F910F91FF90EF90DF90CF9008957A
:100D50000F931F93DF93CF93CDB7DEB728970FB6CE
:100D6000F894DEBF0FBECDBF8C0180E090E0A0E024
:100D7000B0E089839A83AB83BC83F8016481758179
:100D80006F5F7F4FC801AE014F5F5F4F0E940B0442
:100D900080E090E0A0E0BFE38D839E83AF83B887BF
:100DA000F801648175816F5F7F4FC801AE014B5FB1
:100DB0005F4F0E940B048FEF9FEFF80197878687A4
:100DC000108A6481758188E992E04AE050E00E94CF
:100DD000790E28960FB6F894DEBF0FBECDBFCF9127
:100DE000DF911F910F910895FC012489358946896F
:100DF0005789B901CA010895FC0181810895CF93F3
:100E0000DF93EC018C859D85892B29F583EC91E09E
:100E10006A850E940A01892BF1F08C859D852091BD
:100E2000C3013091C401820F931F9D878C8781E09D
:100E30000FC01D861C860BC01216130644F4809149
:100E4000C3019091C401820F931F9D878C8780E01E
:100E5000DF91CF9108952C853D858091C5019091BA
:100E6000C6012817390744F3E4CFCF93DF93EC0191
:100E700088859985892B29F583EC91E06E810E9404
:100E80000A01892BF1F0888599852091C301309161
:100E9000C401820F931F9987888781E00FC019864C
:100EA00018860BC01216130644F48091C30190916A
:100EB000C401820F931F9987888780E0DF91CF91CB
:100EC0000895288539858091C5019091C60128171C
:100ED000390744F3E4CFCF92DF92EF92FF920F9362
:100EE0001F93CF93DF93EC018981882391F189ECE3
:100EF00091E00E9420036C016091C3017091C401D4
:100F0000882777FD8095982F0E94B8167B018C0169
:100F100088899989C89EB001C99E700DD89E700DB0
:100F20001124882777FD8095982F0E94B8169B0181
:100F3000AC01C801B7010E941D169B01AC016C8970
:100F40007D898E899F890E94B5156C8B7D8B8E8BD8
:100F50009F8BDF91CF911F910F91FF90EF90DF90CA
:100F6000CF900895FC0110828685882351F08091EE
:100F7000C901882331F0808991890196918B808BFA
:100F800023C08091C9018823F9F087858823E1F087
:100F900081E08183228933898089918928173907E3
:100FA00011F037FF0CC0138A128A80E090E0A0E0B5
:100FB000B0E0848B958BA68BB78B81E08083828990
:100FC00093890196938B828B8785882319F0CF01B3
:100FD0000E946B070895CF93DF93EC010E943507C1
:100FE000882361F08E85882331F48F85882331F43E
:100FF00081E08E8703C01E8681E08F87CE010E942C
:10100000FF06882319F01F86198A188ACE010E94CC
:10101000B207DF91CF9108950F931F938C01862F14
:10102000F801668377835387428760E00E94C7098F
:10103000F801828560E00E94C709F80115861486D0
:10104000118610861786118A108A8FEF9FEF938B77
:10105000828B80E090E0A0E0B0E0848B958BA68B43
:10106000B78B1F910F91089586ED91E06AE070E0D3
:101070004BE050E00E940C0808958130910541F446
:101080006F5F7F4FB1F48EEE91E00E949D01089555
:10109000892B79F46F5F7F4F61F48091FD0190910E
:1010A000FE010E94E00F8091F6019091F7010E94ED
:1010B000E00F089580E090E06FEF7FEF0E943D0821
:1010C000089581E090E06FEF7FEF0E943D08089562
:1010D00082EC91E06AE070E00E949900892B31F087
:1010E00088E992E068E771E00E94CD0F8AEB92E018
:1010F0000E943E1108958EEE91E00E945C010895D9
:101100000E945F0386ED91E00E94EB0708950F9324
:101110001F9388E992E040E855E260E070E00E94A9
:10112000190C82EC91E00E94A9008EEE91E064E639
:1011300070E048E029E00E9467020AEB12E0C80173
:101140000E9423116091C3017091C401C80140E85D
:1011500058E00E948B116091C3017091C401C801D5
:101160004BE758E00E948B11C8010E9438111F9173
:101170000F910895CF93DF930E946A090E94870818
:10118000CBECDBE00E9468082097E1F30E94CB0BD8
:10119000F9CF1F920F920FB60F9211242F933F9306
:1011A0008F939F93AF93BF9380910B0290910C020A
:1011B000A0910D02B0910E0230910F020196A11D77
:1011C000B11D232F2D5F2D3720F02D570196A11D26
:1011D000B11D20930F0280930B0290930C02A093F9
:1011E0000D02B0930E028091070290910802A09127
:1011F0000902B0910A020196A11DB11D8093070258
:1012000090930802A0930902B0930A02BF91AF9194
:101210009F918F913F912F910F900FBE0F901F9034
:1012200018959B01AC017FB7F894809107029091CB
:101230000802A0910902B0910A0266B5A89B05C0F8
:101240006F3F19F00196A11DB11D7FBFBA2FA92FC5
:10125000982F8827860F911DA11DB11D62E0880F70
:10126000991FAA1FBB1F6A95D1F7BC012DC0FFB7FC
:10127000F8948091070290910802A0910902B09120
:101280000A02E6B5A89B05C0EF3F19F00196A11D23
:10129000B11DFFBFBA2FA92F982F88278E0F911D40
:1012A000A11DB11DE2E0880F991FAA1FBB1FEA957F
:1012B000D1F7861B970B885E9340C8F221503040CF
:1012C0004040504068517C4F211531054105510582
:1012D00071F60895789484B5826084BD84B5816088
:1012E00084BD85B5826085BD85B5816085BDEEE62E
:1012F000F0E0808181608083E1E8F0E0108280810D
:1013000082608083808181608083E0E8F0E080817A
:1013100081608083E1EBF0E0808184608083E0EB9A
:10132000F0E0808181608083EAE7F0E08081846082
:1013300080838081826080838081816080838081DE
:10134000806880831092C1000895982F8E3008F035
:101350009E50977080919B018295880F880F807CAA
:10136000892B80937C0080917A00806480937A003E
:1013700080917A0086FDFCCF209178004091790021
:10138000942F80E030E0282B392BC9010895CF93AA
:10139000DF93482F50E0CA0186569F4FFC013491DD
:1013A0004A575F4FFA018491882369F190E0880FD2
:1013B000991FFC01E859FF4FA591B491FC01EE582B
:1013C000FF4FC591D491662351F42FB7F8948C91B7
:1013D000932F909589238C93888189230BC0623049
:1013E00061F42FB7F8948C91932F909589238C9367
:1013F0008881832B88832FBF06C09FB7F8948C9178
:10140000832B8C939FBFDF91CF910895482F50E09D
:10141000CA0182559F4FFC012491CA0186569F4FF5
:10142000FC0194914A575F4FFA013491332309F438
:1014300040C0222351F1233071F0243028F42130B0
:10144000A1F0223011F514C02630B1F02730C1F0E0
:101450002430D9F404C0809180008F7703C080913C
:1014600080008F7D8093800010C084B58F7702C08C
:1014700084B58F7D84BD09C08091B0008F7703C093
:101480008091B0008F7D8093B000E32FF0E0EE0FED
:10149000FF1FEE58FF4FA591B4912FB7F894662324
:1014A00021F48C919095892302C08C91892B8C9387
:1014B0002FBF08950F931F93CF93DF93BC0182300A
:1014C000910510F462E070E0E091B003F091B10397
:1014D000A0E0B0E040E050E024C080819181861718
:1014E0009707D0F08617970771F482819381109740
:1014F00029F013969C938E9312972CC09093B1036E
:101500008093B00327C04115510519F08417950742
:1015100018F4EF018D01AC01DF01828193819C0100
:10152000F9013097D1F641155105F9F0CA01861B32
:10153000970B8430910580F48A819B8101151105F8
:1015400021F0F8019383828304C09093B1038093C8
:10155000B003FE01329645C0FE01E80FF91F61930A
:1015600071930297998388833CC08091AE039091D8
:10157000AF03892B41F480919E0190919F0190933C
:10158000AF038093AE034091A0015091A10141159A
:10159000510541F44DB75EB780919C0190919D013A
:1015A000481B590B2091AE033091AF032417350728
:1015B000B0F4CA01821B930B8617970780F0AB012A
:1015C0004E5F5F4F8417950750F0420F531F5093A3
:1015D000AF034093AE03F9016193719302C0E0E061
:1015E000F0E0CF01DF91CF911F910F910895CF933C
:1015F000DF939C01009709F48FC0EC0122971B82B6
:101600001A826091B0037091B1036115710581F484
:1016100088819981820F931F2091AE033091AF038F
:101620002817390739F5D093AF03C093AE0374C0C0
:10163000DB0140E050E0AC17BD0708F1BB83AA8393
:10164000FE0121913191E20FF31FAE17BF0779F42C
:101650008D919C911197280F391F2E5F3F4F398331
:10166000288312968D919C9113979B838A834115B1
:10167000510571F4D093B103C093B0034DC01296DD
:101680008D919C911397AD01009711F0DC01D3CFA0
:10169000DA011396DC93CE931297FA0121913191DE
:1016A000E20FF31FCE17DF0769F488819981280FB5
:1016B000391F2E5F3F4FFA01318320838A819B813E
:1016C00093838283E0E0F0E0DB0112968D919C91A0
:1016D0001397009719F0BC01FD01F6CFAB014E5FE7
:1016E0005F4FDB018D919C91840F951F2091AE037C
:1016F0003091AF032817390779F4309729F4109205
:10170000B1031092B00302C01382128242505040C3
:101710005093AF034093AE03DF91CF9108950895A6
:101720001F920F920FB60F9211242F933F934F9356
:101730008F939F93EF93FF938091C00082FD1DC014
:101740004091C60020915002309151022F5F3F4FCF
:101750002F733070809152029091530228173907ED
:1017600071F0E0915002F0915102E05FFD4F408333
:10177000309351022093500202C08091C600FF9125
:10178000EF919F918F914F913F912F910F900FBEAD
:101790000F901F901895E091A402F091A502E05CD3
:1017A000FF4F8191919120813181821B930B8F7327
:1017B0009070892B11F00E948F0B08951F920F9249
:1017C0000FB60F9211242F933F938F939F93EF9314
:1017D000FF9320919402309195028091960290910E
:1017E00097022817390731F48091C1008F7D8093CB
:1017F000C10014C0E0919602F0919702EC5AFD4F9F
:101800002081809196029091970201968F7390703B
:1018100090939702809396022093C600FF91EF91D8
:101820009F918F913F912F910F900FBE0F901F901E
:101830001895AF92BF92DF92EF92FF920F931F9392
:10184000CF93DF93EC017A018B01DD24403081EEF0
:10185000580780E0680780E0780711F0DD24D39412
:1018600091E0A92EB12CEC89FD89DD2069F0C5013C
:1018700008A002C0880F991F0A94E2F7808360E0F5
:1018800079E08DE390E005C0108260E874E88EE1B5
:1018900090E0A80197010E94471821503040404035
:1018A0005040569547953795279580E12030380769
:1018B00020F0DD2011F0DD24D6CFE889F9893083CE
:1018C000EA89FB89208319A2EE89FF89408121E002
:1018D00030E0C9010C8C02C0880F991F0A94E2F70E
:1018E000482B4083EE89FF894081C9010D8C02C0DD
:1018F000880F991F0A94E2F7482B4083EE89FF89ED
:101900004081C9010E8C02C0880F991F0A94E2F72A
:10191000482B4083EE89FF8980810F8C02C0220F03
:10192000331F0A94E2F7209528232083DF91CF917B
:101930001F910F91FF90EF90DF90BF90AF900895AF
:10194000DC011C96ED91FC911D97E05CFF4F21910D
:10195000319180819181281B390B2F733070C9011F
:101960000895DC011C96ED91FC911D97E05CFF4F02
:1019700020813181E054F040DF01AE5BBF4F8D919B
:101980009C9111972817390719F42FEF3FEF07C0E3
:101990008D919C91E80FF91F8081282F30E0C901BB
:1019A0000895DC011C96ED91FC911D97E05CFF4FC2
:1019B00020813181E054F040DF01AE5BBF4F8D915B
:1019C0009C9111972817390719F42FEF3FEF10C09A
:1019D0008D919C911197E80FF91F20818D919C9119
:1019E000119701968F73907011969C938E9330E0AF
:1019F000C9010895DC0191968C919197882339F063
:101A00005496ED91FC915597808186FFF9CF919680
:101A10001C920895CF93DF93EC01EE85FF85E05C87
:101A2000FF4F20813181E054F0402F5F3F4F2F73F3
:101A30003070DF01AE5BBF4F8D919C9111972817DD
:101A40003907D1F3E05CFF4F80819181E054F04091
:101A5000E80FF91F6083EE85FF85E05CFF4F31835F
:101A60002083EE89FF89208181E090E00F8C02C005
:101A7000880F991F0A94E2F7282B208381E089A31D
:101A8000EC89FD8980818064808381E090E0DF9132
:101A9000CF91089510929B0210929A0288EE93E0E3
:101AA000A0E0B0E080939C0290939D02A0939E02E0
:101AB000B0939F0286EA91E09093990280939802F6
:101AC00080E192E09093A5028093A40284E592E0E5
:101AD0009093A7028093A60285EC90E09093A902D0
:101AE0008093A80284EC90E09093AB028093AA02CA
:101AF00080EC90E09093AD028093AC0281EC90E09A
:101B00009093AF028093AE0282EC90E09093B1028A
:101B10008093B00286EC90E09093B3028093B2027F
:101B200084E08093B40283E08093B50287E08093E1
:101B3000B60285E08093B70281E08093B8020895F1
:101B4000CF92DF92EF92FF920F931F93CF93DF9389
:101B50007C016B018A01C0E0D0E00FC0D6016D911D
:101B60006D01D701ED91FC910190F081E02DC7014D
:101B70000995C80FD91F015010400115110571F7C3
:101B8000CE01DF91CF911F910F91FF90EF90DF90E9
:101B9000CF900895EF92FF920F931F938C01DC0179
:101BA000ED91FC910190F081E02D6DE009957C01B3
:101BB000D801ED91FC910190F081E02DC8016AE01F
:101BC00009959C012E0D3F1DC9011F910F91FF909A
:101BD000EF900895CF93DF93EC016115710519F42F
:101BE00020E030E00FC0DB010D900020E9F71197F5
:101BF000A61BB70BE881F9810280F381E02DAD01CE
:101C000009959C01C901DF91CF9108954F925F9290
:101C10007F928F929F92AF92BF92CF92DF92EF927C
:101C2000FF920F931F93DF93CF93CDB7DEB7A197AA
:101C30000FB6F894DEBF0FBECDBF2C01742ECB01C2
:101C4000223008F42AE019A231E2C32ED12CCC0EA6
:101C5000DD1E822E9924AA24BB24672D752FA50191
:101C600094010E94471879018A01C801B701A501B2
:101C700094010E942818472D461B0894C108D108DA
:101C80004A3014F4405D01C0495CF6014083E11420
:101C9000F1040105110521F07E2C5F2DC801DDCF77
:101CA000C201B6010E94EA0DA1960FB6F894DEBFFC
:101CB0000FBECDBFCF91DF911F910F91FF90EF909D
:101CC000DF90CF90BF90AF909F908F907F905F906C
:101CD0004F900895DC012115310541F4ED91FC91FF
:101CE0000190F081E02D642F099508950E94060E61
:101CF0000895CF92DF92EF92FF920F931F936C01A2
:101D00007B019A0100E010E0B801A7010E946A0E71
:101D10008C01C6010E94CA0D080F191FC8011F912E
:101D20000F91FF90EF90DF90CF900895CF92DF92C8
:101D3000EF92FF920F931F93CF93DF93EC016A0111
:101D40007B012115310541F4E881F9810190F08191
:101D5000E02D642F09951FC02A303105D1F477FF9B
:101D600017C0E881F9810190F081E02D6DE20995BD
:101D70008C0144275527BA014C195D096E097F096A
:101D8000CE012AE00E94060E9801280F391F04C0D8
:101D90002AE00E94060E9C01C901DF91CF911F919C
:101DA0000F91FF90EF90DF90CF9008957F928F92E8
:101DB0009F92AF92BF92CF92DF92EF92FF920F93DA
:101DC0001F93CF93DF934C017A018B01722ECB01CD
:101DD000BA01A80197010E942418882321F0C401A8
:101DE0006DE871E021C0C0E0D0E057016801E894DF
:101DF000D7F8C601B5012FEF3FEF4FE75FE70E942D
:101E00002418882351F4C601B5012FEF3FEF4FE7A7
:101E10005FE70E941916181614F0C1E0D0E0219770
:101E200039F0C40161E971E00E94EA0DEC0193C050
:101E3000C801B7012FEF3FEF4FE75FE40E94BD17E6
:101E4000181654F0C801B7012FEF3FEF4FE75FECD2
:101E50000E941916882324F4C40165E971E0E4CFD7
:101E6000C801B70120E030E040E050E00E941916C0
:101E700087FD03C0C0E0D0E00EC0D401ED91FC911D
:101E80000190F081E02DC4016DE20995EC0117FB92
:101E9000109517F9109520E030E040E05FE3DD2475
:101EA0000BC0CA01B90120E030E040E251E40E94D9
:101EB0001D169B01AC01D394D71498F3C801B70148
:101EC0000E94B5155B016C010E948A167B018C0192
:101ED000C401B801A7012AE030E00E946A0EC80FD1
:101EE000D91F772039F0C40169E971E00E94EA0D39
:101EF000C80FD91FC801B7010E94B6169B01AC01DB
:101F0000C601B5010E94B41524C020E030E040E2D3
:101F100051E40E94C1177B018C010E9485165B0170
:101F20006C01CC24B7FCC094DC2CC401B601A50123
:101F30002AE030E00E94960EC80FD91FC601B501F5
:101F40000E94B8169B01AC01C801B7010E94B415EC
:101F50007A947720D1F6CE01DF91CF911F910F9126
:101F6000FF90EF90DF90CF90BF90AF909F908F90B9
:101F70007F900895EF92FF920F931F937C010E9430
:101F8000D60E8C01C7010E94CA0D080F191FC80187
:101F90001F910F91FF90EF900895EF92FF920F9392
:101FA0001F937C010E94EA0D8C01C7010E94CA0D9B
:101FB000080F191FC8011F910F91FF90EF9008950E
:101FC0000E94F70A08950E945A0A08950895EF9210
:101FD000FF920F931F93FC01F62EE42E04E313E00F
:101FE0006081772767FD7095C8010E946712C8015C
:101FF0006F2D0E94E912C8016E2D0E94E912C801DE
:102000000E942C131F910F91FF90EF900895FF9263
:102010000F931F93CF93DF93EC01F62E042F11E45F
:10202000CE01612F4F2D0E94E70F1F5FCE01612F60
:10203000402F0E94E70F1F5F193591F7DF91CF9175
:102040001F910F91FF900895DF92EF92FF920F93EF
:102050001F938C01D62E84E3E82E83E0F82EF8013E
:102060006081772767FD7095C7010E946712C701DD
:102070006D2D0E94E912C70160E00E941913F8015A
:102080006081772767FD7095C70142E050E00E94AC
:102090003D13C7010E947A128C01C7010E947A1277
:1020A000382F20E0202B312BC9011F910F91FF9079
:1020B000EF90DF90089560E00E9424109C013F7033
:1020C000C9010895DF92EF92FF920F931F937C0155
:1020D000D62E04E313E0FC016081772767FD70953D
:1020E000C8010E946712C8016D2D0E94E912C80143
:1020F00060E00E941913F7016081772767FD7095F2
:10210000C80141E050E00E943D13C8010E947A12CC
:102110001F910F91FF90EF90DF9008951F93CF9341
:10212000DF93EC01162F84E393E00E9441131883A0
:10213000CE0160E843E60E94E70F61E070E080E0D6
:1021400090E00E941109CE016EE540E00E94E70F89
:10215000CE016DE50E946210843211F080E051C022
:10216000CE016CE046E00E940710CE016BE241E038
:102170000E94E70FCE016CE241E00E94E70FCE0122
:102180006DE24EE00E94E70FCE016EE240E00E9459
:10219000E70FCE016FE241E00E94E70FCE0160E35E
:1021A00045E00E94E70FCE0161E341E00E94E70FA6
:1021B000CE0162E340E00E94E70FCE0163E340E01E
:1021C0000E94E70FCE0164E340E00E94E70FCE01DA
:1021D00065E340E00E94E70FCE016BE540E00E941E
:1021E000E70FCE016CE540E10E94E70FCE016DE5FF
:1021F00040E20E94E70FCE016EE54FE80E94E70F34
:1022000081E0DF91CF911F9108951F920F920FB639
:102210000F9211248F939F93EF93FF938091ED0280
:102220008F5F8093ED02EAEBF2E08081918101966D
:1022300091838083FF91EF919F918F910F900FBEBB
:102240000F901F901895F8941092800088E1809369
:1022500081008FE79EE3909387008093860080E261
:1022600080936F00109285001092840078940895F6
:10227000E1E8F0E08081816080830895EF92FF9231
:102280001F93CF93DF93EC018BA98823F1F1E82E04
:10229000FF241BAA10E036C0412F50E0FA01EE0FD8
:1022A000FF1FE40FF51FDF01AA0FBB1FAC0FBD1FFF
:1022B00014962D913C9115972E193F0915963C9334
:1022C0002E93149712161306E4F03196EE0FFF1FAB
:1022D000EC0FFD1F80819181280F391F15963C93CB
:1022E0002E931497CA010196FC01EE0FFF1FE80F11
:1022F000F91FEE0FFF1FEC0FFD1F0190F081E02D85
:1023000009951F5F8AA9181738F2DF91CF911F91A5
:10231000FF90EF9008950F931F93CF93DF93EC01FD
:102320008A014AA910C0F901EE0FFF1FE20FF31F47
:102330003196EE0FFF1FEC0FFD1F86E00D9001920E
:102340008150E1F741504423A1F0242F30E0C9012E
:102350000197DC01AA0FBB1FA80FB91F1196AA0F86
:10236000BB1FAC0FBD1F8D919C911197681779070A
:10237000D4F28AA98F5F8AAB242F30E0C90101967D
:10238000FC01EE0FFF1FE80FF91FEE0FFF1FEC0F10
:10239000FD1F11830083F901EE0FFF1FE20FF31FF2
:1023A000DF01AA0FBB1FAC0FBD1F15967C936E9368
:1023B00014973196EE0FFF1FEC0FFD1F71836083A2
:1023C000DF91CF911F910F910895CF93DF93EC018F
:1023D000DB017AA960E0462F50E0FA01EE0FFF1F03
:1023E000E40FF51F3196EE0FFF1FEC0FFD1F2D912F
:1023F0003C9111978081918128173907A1F4CA0176
:102400000196FC01EE0FFF1FE80FF91FEE0FFF1FF3
:10241000EC0FFD1F14962D913C91159780819181B1
:102420002817390719F06F5F7617A8F6671718F5A0
:1024300071507AAB1DC0862F90E0DC01AA0FBB1F44
:10244000A80FB91F1196AA0FBB1F0196FC01EE0F32
:10245000FF1FE80FF91F3196EE0FFF1FAC0FBD1FD6
:10246000EC0FFD1F86E001900D928150E1F76F5F48
:102470008AA9681700F3DF91CF910895DF93CF9376
:1024800000D000D000D0CDB7DEB77A8369837C83DB
:102490006B835E834D83BE016F5F7F4F0E94E511AA
:1024A00026960FB6F894DEBF0FBECDBFCF91DF9159
:1024B0000895ECEBF2E011821082138212821582F1
:1024C0001482369682E0EC3EF807A9F7089581E081
:1024D0008093330360931003109231031092320300
:1024E000089520910F0330E080910E03281B3109DD
:1024F000C901089540910E0380910F03481718F009
:102500002FEF3FEF0AC0E42FF0E0E251FD4F808152
:10251000282F30E04F5F40930E03C9010895E091EA
:102520000E0380910F03E81718F0EFEFFFEF06C0DE
:10253000F0E0E251FD4F8081E82FF0E0CF010895F7
:102540000895109237031092360388EE93E0A0E0CE
:10255000B0E08093380390933903A0933A03B0938B
:102560003B0386EB91E09093350380933403089509
:10257000CF92DF92EF92FF920F931F93CF93DF934F
:102580007C016B018A01809133038823A1F0C0E0B4
:10259000D0E00DC0D701ED91FC91D601AC0FBD1F6D
:1025A0000190F081E02DC7016C9109952196C0172B
:1025B000D10780F304C0CB01642F0E94EA13C80145
:1025C000DF91CF911F910F91FF90EF90DF90CF900F
:1025D0000895DF93CF930F92CDB7DEB7FC016983E7
:1025E000809133038823C9F080913203803238F020
:1025F00081E090E09383828320E030E015C08091F9
:102600003103E82FF0E0EF5EFC4F998190838F5FFC
:10261000809331038093320305C0CE01019661E0BF
:102620000E94EA1321E030E0C9010F90CF91DF91C1
:1026300008950F93062F8091100361E173E040919C
:10264000320321E00E94951310923103109232035D
:10265000109233030F91089561E00E9419130895B9
:10266000413208F040E2862F6EEE72E00E944C1379
:1026700010920E0380930F03089521E00E943013FF
:10268000089510920E0310920F03109231031092CE
:1026900032030E9496150895382F413210F040E021
:1026A00042C0809140038823E1F791E0909340037A
:1026B000209342038FEF8093AD0310926803415043
:1026C000409369034F5F9093410380914103330F1F
:1026D000832B8093410380914303813041F4109216
:1026E0004303809141038093BB0085EC01C085EEDC
:1026F0008093BC00809140038130E1F380916803B6
:10270000841710F44091680320E030E00AC0FB0118
:10271000E20FF31FD901A85BBC4F8C9180832F5F20
:102720003F4F2417A0F3842F08950F931F93582F22
:10273000122F413210F081E04AC08091400388237B
:10274000E1F782E080934003009342038FEF809390
:10275000AD031092680340936903A8E4B3E0FB0162
:1027600002C081918D938E2F861B8417D0F3109217
:10277000410380914103550F852B80934103809144
:102780004303813041F410924303809141038093CD
:10279000BB0085EC01C085EE8093BC00112321F0C5
:1027A000809140038230E1F38091AD038F3F11F4BB
:1027B00080E00DC08091AD03803211F482E007C04B
:1027C0008091AD03803311F084E001C083E01F915C
:1027D0000F910895482F613210F081E008958091A3
:1027E0004003843011F082E0089560938B03AAE6E1
:1027F000B3E0842F9C01F90102C081918D938E2F4B
:10280000841B8617D0F380E008951F920F920FB6B5
:102810000F9211242F933F934F935F936F937F9366
:102820008F939F93AF93BF93EF93FF938091B900E2
:1028300090E0887F90708036910509F4F2C081366F
:102840009105CCF58832910509F47BC08932910558
:10285000B4F48031910509F46FC0813191053CF4E5
:10286000009709F447C1089709F04FC165C0883146
:10287000910509F466C0809709F047C182C0803491
:10288000910509F4A4C08134910544F48033910585
:1028900009F482C0C89709F038C189C08035910514
:1028A00009F489C08835910509F496C088349105EA
:1028B00009F02BC1AEC08839910509F413C18939DB
:1028C0009105ECF48837910509F4ABC0893791057F
:1028D0004CF48836910509F4A4C08037910509F0BD
:1028E00014C19FC08838910509F4FCC08039910556
:1028F00009F49DC08038910509F007C198C0803B5C
:10290000910509F4C6C0813B91054CF4803A9105CC
:1029100009F49FC0883A910509F0F7C0BAC0803C1D
:10292000910509F4E3C0883C910509F4DFC0883BB8
:10293000910509F0EAC0C2C0809141038093BB00B9
:10294000CFC09091680380916903981768F49091C3
:102950006803E92FF0E0E85BFC4F80818093BB00C7
:102960009F5F90936803BCC080914203882309F461
:102970004BC085ED8093BC008091BC0084FDFCCFF2
:10298000C2C080E28093AD0385ED8093BC0080914E
:10299000BC0084FDFCCFB7C080E38093AD0385ED20
:1029A0008093BC008091BC0084FDFCCFACC088E368
:1029B0008093AD039BC0809168039091BB00E82F8A
:1029C000F0E0E85BFC4F90838F5F80936803909109
:1029D00068038091690382C0809168039091BB0075
:1029E000E82FF0E0E85BFC4F90838F5F80936803F3
:1029F00080914203882341F085ED8093BC00809153
:102A0000BC0084FDFCCF7FC081E08093430384EA57
:102A10006EC085ED8093BC008091BC0084FDFCCF2E
:102A200072C083E0809340031092AC0359C0809140
:102A3000AC03803208F056C08091AC039091BB008B
:102A4000E82FF0E0E457FC4F90838F5F8093AC0356
:102A500047C08091AC03803230F4E091AC03F0E0E9
:102A6000E457FC4F108285ED8093BC008091BC0040
:102A700084FDFCCF109240036091AC03E0914603CB
:102A8000F09147038CE893E070E009951092AC0355
:102A90002DC084E08093400310928A0310928B0330
:102AA000E0914403F0914503099580918B038823BD
:102AB00029F481E080938B0310926A0390918A033A
:102AC000E92FF0E0E659FC4F80818093BB009F5FC7
:102AD00090938A0390918A0380918B03981710F446
:102AE00085EC01C085E88093BC000FC085EC809325
:102AF000BC0009C01092AD0385ED8093BC008091AD
:102B0000BC0084FDFCCF10924003FF91EF91BF9178
:102B1000AF919F918F917F916F915F914F913F9175
:102B20002F910F900FBE0F901F9018951092400399
:102B300081E0809342031092430382E161E00E94AE
:102B4000060A83E161E00E94060AE9EBF0E0808179
:102B50008E7F808380818D7F808388E48093B8001E
:102B600085E48093BC0008955058BB27AA270ED057
:102B7000B3C1A4D130F0A9D120F031F49F3F11F4BA
:102B80001EF499C10EF4E095E7FB64C1E92FB5D1BD
:102B900080F3BA17620773078407950718F071F47A
:102BA0009EF5E4C10EF4E0950B2EBA2FA02D0B017B
:102BB000B90190010C01CA01A0011124FF27591B82
:102BC00099F0593F50F4503E68F11A16F040A22F88
:102BD000232F342F4427585FF3CF469537952795F9
:102BE000A795F0405395C9F77EF41F16BA0B620BF8
:102BF000730B840BBAF09150A1F0FF0FBB1F661F3F
:102C0000771F881FC2F70EC0BA0F621F731F841F81
:102C100048F4879577956795B795F7959E3F08F0A7
:102C2000B3CF9395880F08F09927EE0F9795879566
:102C30000895ECD008F481E008950CD04DC145D141
:102C400040F03CD130F021F45F3F19F003C1511145
:102C50008EC131C152D198F39923C9F35523B1F3F1
:102C6000951B550BBB27AA2762177307840738F0FB
:102C70009F5F5F4F220F331F441FAA1FA9F333D05A
:102C80000E2E3AF0E0E830D091505040E695001C0E
:102C9000CAF729D0FE2F27D0660F771F881FBB1FCA
:102CA000261737074807AB07B0E809F0BB0B802DA4
:102CB000BF01FF2793585F4F2AF09E3F510568F0F0
:102CC000C9C055C15F3FECF3983EDCF3869577951C
:102CD0006795B795F7959F5FC9F7880F911D9695F2
:102CE000879597F90895E1E0660F771F881FBB1F4E
:102CF000621773078407BA0720F0621B730B840BFB
:102D0000BA0BEE1F88F7E095089504D06894B111CE
:102D10002EC10895FAD088F09F5790F0B92F9927C7
:102D2000B751A0F0D1F0660F771F881F991F1AF0D6
:102D3000BA95C9F712C0B13081F018D1B1E0089549
:102D400015C1672F782F8827B85F39F0B93FCCF3CA
:102D5000869577956795B395D9F73EF490958095CC
:102D6000709561957F4F8F4F9F4F0895E89409C0EC
:102D700097FB3EF490958095709561957F4F8F4FAE
:102D80009F4F9923A9F0F92F96E9BB279395F695C4
:102D9000879577956795B795F111F8CFFAF4BB0F42
:102DA00011F460FF1BC06F5F7F4F8F4F9F4F16C0A6
:102DB000882311F096E911C0772321F09EE8872F30
:102DC000762F05C0662371F096E8862F70E060E0EC
:102DD0002AF09A95660F771F881FDAF7880F969565
:102DE000879597F90895ABD080F09F3740F4911103
:102DF0000EF0BDC060E070E080E89FEB089526F41F
:102E00001B16611D711D811D2BC045C0990F000847
:102E1000550FAA0BE0E8FEEF16161706E807F907AC
:102E2000C0F012161306E407F50798F0621B730B47
:102E3000840B950B39F40A2661F0232B242B252BC8
:102E400021F408950A2609F4A140A6958FEF811D6B
:102E5000811D089597F99F6780E870E060E008950C
:102E6000882371F4772321F09850872B762F07C0A1
:102E7000662311F499270DC09051862B70E060E015
:102E80002AF09A95660F771F881FDAF7880F9695B4
:102E9000879597F908959F3F49F0915028F48695BA
:102EA00077956795B7959F5F80389F4F880F969568
:102EB000879597F908959FEF80EC089500240A9470
:102EC0001616170618060906089500240A94121605
:102ED0001306140605060895092E0394000C11F438
:102EE000882352F0BB0F40F4BF2B11F460FF04C0E5
:102EF0006F5F7F4F8F4F9F4F089557FD9058440F3E
:102F0000551F59F05F3F71F04795880F97FB991F48
:102F100061F09F3F79F08795089512161306140605
:102F2000551FF2CF4695F1DF08C016161706180692
:102F3000991FF1CF86957105610508940895E5DF25
:102F4000A0F0BEE7B91788F4BB279F3860F41616C7
:102F5000B11D672F782F8827985FF7CF86957795D3
:102F60006795B11D93959639C8F30895E894BB27EA
:102F700066277727CB0197F9089548DF08F48FEF8C
:102F800008950BD0A9CF9ADF28F09FDF18F0952382
:102F900009F060CF90CF1124EACFAFDFA0F3959F67
:102FA000D1F3950F50E0551F629FF001729FBB2730
:102FB000F00DB11D639FAA27F00DB11DAA1F649FDC
:102FC0006627B00DA11D661F829F2227B00DA11D8F
:102FD000621F739FB00DA11D621F839FA00D611D15
:102FE000221F749F3327A00D611D231F849F600D36
:102FF000211D822F762F6A2F11249F5750408AF06F
:10300000E1F088234AF0EE0FFF1FBB1F661F771FFA
:10301000881F91505040A9F79E3F510570F01ACF7C
:10302000A6CF5F3FECF3983EDCF3869577956795E6
:10303000B795F795E7959F5FC1F7FE2B880F911D18
:103040009695879597F90895E1DE880B990B089579
:10305000629FD001739FF001829FE00DF11D649F7C
:10306000E00DF11D929FF00D839FF00D749FF00D08
:10307000659FF00D9927729FB00DE11DF91F639FA9
:10308000B00DE11DF91FBD01CF0111240895A1E28A
:103090001A2EAA1BBB1BFD010DC0AA1FBB1FEE1FD2
:1030A000FF1FA217B307E407F50720F0A21BB30B1D
:1030B000E40BF50B661F771F881F991F1A9469F799
:1030C00060957095809590959B01AC01BD01CF01F5
:1030D0000895EE0FFF1F0590F491E02D099410E084
:1030E000C2EDD0E004C0FE010E946B182296C43DE0
:0830F000D107C9F7F894FFCFE6
:1030F8004164616672756974204D505231323120D5
:103108004361706163697469766520546F7563689B
:103118002073656E736F722074657374004D50521E
:10312800313231206E6F7420666F756E642C2063A7
:103138006865636B20776972696E673F004D50520E
:1031480031323120666F756E6421004E65772048F4
:10315800697473004F6C64204869747300506F730E
:1031680074204D6572676500546F756368656420E7
:10317800313000465245452052414D3A006E616E4D
:1031880000696E66006F7666002E00018000B2034B
:103198000000000000000A0DA00DA00CD10CB10C1D
:1031A800FA0C00000000E912B81271127A128F129C
:0231B800A01263
:00000001FF
