:100000000C946A000C9492000C9492000C94920050
:100010000C9492000C9492000C9492000C94920018
:100020000C9492000C9492000C948B100C949200FF
:100030000C9492000C9492000C9492000C949200F8
:100040000C946A080C9492000C94310B0C947F0B66
:100050000C9492000C9492000C9492000C949200D8
:100060000C948B130C9492000000000024002700D5
:100070002A0000000000250028002B0000000000DE
:1000800023002600290004040404040404040202DA
:100090000202020203030303030301020408102007
:1000A0004080010204081020010204081020000012
:1000B0000007000201000003040600000000000029
:1000C0000000990031019603E1070E08EB0CDF11E7
:1000D0002712070811241FBECFEFD8E0DEBFCDBF27
:1000E00011E0A0E0B1E0E4E0F0E302C005900D9281
:1000F000AA3FB107D9F713E0AAEFB1E001C01D9202
:10010000A03FB107E1F710E0C2EDD0E004C02297B4
:10011000FE010E94F117C23CD107C9F70E945B089B
:100120000C94F5170C94000081E090E0F8940C9486
:10013000F5178AEF91E00E946A0F08951F93162F1A
:100140000E94DF0F21E030E002C0220F331F1A951A
:10015000E2F728233923C9011F9108950F931F93B4
:10016000DF93CF930F92CDB7DEB78C01CE0101960E
:100170000E946A0F8981F801808386ED92E060E039
:1001800071E00E94510FC8016AE50E941210882395
:1001900039F486ED92E06DE271E00E94510FFFCFDD
:1001A00086ED92E06DE471E00E94510F0F90CF91C7
:1001B000DF911F910F910895862F60E00E94A7099B
:1001C0000895862F61E00E94A7090895FC018581AA
:1001D00060E00E94A70908958BEF91E00E94E6007D
:1001E00088EF92E064E170E04CEE50E00E94C411B0
:1001F0000895FC01858161E00E94A70908958BEFB5
:1002000091E00E94F90088EF92E064E170E04CEE2A
:1002100050E00E94111108950E94FF0008958AEF96
:1002200091E070E00E949E000895FC0184810E948C
:10023000460908950F931F938C018EE0F801848383
:1002400087E0858361E00E94680988E090E0F8011A
:100250009183808384EF91E0938382831F910F9138
:1002600008958BEF91E00E941A0108950F931F9358
:100270008C018BEF91E0F80166810E94DC00F801AF
:100280001082118610861F910F910895FC018081C4
:10029000882329F12091FB013091FC018085918513
:1002A000280F391F318720874381548181819281B2
:1002B000840F951F8217930724F4CF010E94360103
:1002C00008954217530734F48BEF91E066810E9442
:1002D000DC0008958BEF91E066810E94E1000895B3
:1002E0000F931F938C018BEF91E0F80166810E94C0
:1002F000E100F801808591852091FB013091FC019E
:10030000820F931F9187808781E080831F910F91D7
:100310000895FC018BEF91E067810E940F0120E0BE
:10032000892B09F021E0822F0895CF92DF92EF927E
:10033000FF920F931F93CF93DF93EC0180910E02F6
:10034000882321F0CE010A960E948006CE010E94E9
:1003500046018881882309F040C08EE092E00E9427
:1003600086067B018C01CE010E9489018823B9F0A9
:10037000CE010E9470018EE092E00E948E068823DA
:1003800061F12A96CE01B801A7010E94FC038823DF
:1003900021F5CE01B801A7010E943D051EC08EE0E7
:1003A00092E00E948E068823C1F08AE0C82ED12CEC
:1003B000CC0EDD1EC601B801A7010E94FC038823F4
:1003C00061F086ED92E06BE571E00E94510FCE0185
:1003D0000E947001C6010E94E903DF91CF911F9135
:1003E0000F91FF90EF90DF90CF9008950A960E94B2
:1003F00083040895CF92DF92EF92FF920F931F93A1
:10040000CF93DF938C017B016817790709F4AEC0A5
:10041000DB0114962D913C911597EC018A819B810B
:100420008217930798F5C880D9803B832A83C90136
:10043000880F991F880F991F0E94670F99838883DF
:1004400040E050E020E030E016C0F801C081D181EA
:10045000C20FD31F209759F0F601E20FF31F8081DE
:100460009181A281B38188839983AA83BB834F5FE3
:100470005F4F2C5F3F4FD80114968D919C9115973B
:100480004817590710F3C6010E94640FE8018C81D8
:100490009D81F701648175818617970708F4BC0177
:1004A00040E050E020E030E017C0D801ED91FC9131
:1004B000E20FF31FE701A881B981A20FB31F8D914D
:1004C0009D910D90BC91A02D80839183A283B383D5
:1004D0004F5F5F4F2C5F3F4F4617570730F3F801D0
:1004E00044815581D70114968D919C911597481799
:1004F000590750F59A01220F331F220F331F1EC0D8
:10050000F801C081D181C20FD31FD701ED91FC91B9
:10051000209751F0E20FF31F80819181A281B38176
:1005200088839983AA83BB83E8018C819D8101968E
:100530009D838C834F5F5F4F2C5F3F4FF70184811A
:10054000958148175907E0F2D80114968D919C9136
:100550001597E7016C817D816817790738F4681772
:10056000790720F415967C936E931497C801DF9158
:10057000CF911F910F91FF90EF90DF90CF90089552
:10058000EF92FF920F93DF93CF93CDB7DEB76597CE
:100590000FB6F894DEBF0FBECDBF7C01802FF701F0
:1005A0007283618354834383108215820683278379
:1005B0001186108661E00E946809F701878160E07A
:1005C0000E946809CE0101960E94830489819A8164
:1005D000F701938782878B819C8195878487C701E8
:1005E0000E96BE016B5F7F4F0E94FA01C7014596D0
:1005F000BE01645F7F4F0E94FA018B899C89F701DD
:10060000958F848F8D89868F8C859D850E94640F40
:100610008D819E810E94640FC7010A960E945F052A
:1006200065960FB6F894DEBF0FBECDBFCF91DF91B8
:100630000F91FF90EF9008954F925F926F927F928B
:100640008F929F92AF92BF92CF92DF92EF92FF92E2
:100650000F931F936C018BEF91E00E9415017C01B9
:10066000F60163817481882777FD8095982F0E9419
:100670003E162B013C01F60165817681882777FDC6
:100680008095982F0E943E164B015C010027F7FCD5
:100690000095102FC801B7010E943E167B018C0106
:1006A000F60167817085882777FD8095982F0E94D5
:1006B0003E169B01AC01C801B7010E94A3159B0126
:1006C000AC01C501B4010E9447179B01AC01C301F5
:1006D000B2010E943A151F910F91FF90EF90DF90A9
:1006E000CF90BF90AF909F908F907F906F905F90D2
:1006F0004F9008950E941C039B01AC0160E070E0E4
:100700008AE794E40E94A31520E030E040E752E439
:100710000E94471720E030E040E05FE30E943B1575
:100720000E9479160E940B16CB01089580EF90E08D
:10073000909305028093040288E290E09093030274
:100740008093020288EC90E0909307028093060267
:100750008CEF93E09093090280930802E1E0F2E0CD
:100760001082CF010E947A0390930D0280930C02B5
:100770000895CF93DF9380910A0290910B0220910C
:10078000FB013091FC01820F931F90930B02809329
:100790000A021092010281E092E00E947A03EC01C9
:1007A00080910A0290910B02C817D9075CF48BEF75
:1007B00091E00E940C0181E08093010210920B02F3
:1007C00010920A02D0930D02C0930C02DF91CF91D8
:1007D0000895FC0122893389808591850197281726
:1007E000390728F08FEF9FEF938B828B08952F5F4F
:1007F0003F4F338B228B0895AF92BF92CF92DF92FF
:10080000FF920F931F93CF93DF938C015A016B01DB
:10081000DC015296CD91DC915397D7FD26C01896F6
:100820008D919C911997009701F1C817D90720F075
:100830008DE691E00E948910FF24CC0FDD1FCC0FC4
:10084000DD1FD8011496ED91FC911597EC0FFD1F5B
:100850006081718182819381A60195010E949F151B
:10086000882324F4FF24F39401C0FF248F2DDF910B
:10087000CF911F910F91FF90DF90CF90BF90AF90DD
:1008800008950F931F93CF93DF938C0186ED92E031
:1008900068E871E00E94510FF801C481D5810AC057
:1008A000499159916991799186ED92E022E030E089
:1008B0000E943E0FF80120853185220F331F220F41
:1008C000331F84819581820F931FC817D90741F781
:1008D000DF91CF911F910F9108950F931F938C017A
:1008E000FC011182108288E090E09383828315825C
:1008F000148280E290E00E94670FF8019183808368
:100900001F910F9108950F931F93DF93CF9300D002
:10091000CDB7DEB78C010496BE016F5F7F4F0E949A
:100920006D04C8010B96BE016E5F7F4F0E946D047F
:100930000F900F90CF91DF911F910F910895EF923B
:10094000FF920F931F93CF93DF938C01FC01828161
:1009500093818617970790F5E080F1807383628317
:10096000CB01880F991F880F991F0E94670FF8010C
:100970009183808340E050E020E030E016C0F80131
:10098000C081D181C20FD31F209759F0F701E20F28
:10099000F31F80819181A281B38188839983AA8387
:1009A000BB834F5F5F4F2C5F3F4FF8018481958180
:1009B0004817590720F3C7010E94640FDF91CF91B8
:1009C0001F910F91FF90EF900895AF92BF92CF9239
:1009D000DF92EF92FF920F931F93CF93DF938C01DF
:1009E000EB017A01DC0114968D919C911597861785
:1009F000970780F512968D919C911397861797070C
:100A000028F4685F7F4FC8010E949F04F801248189
:100A10003581A901440F551F440F551F14C0D8013B
:100A2000ED91FC91E40FF51F309749F0D701AD909F
:100A3000BD90CD90DC90A082B182C282D3822F5F24
:100A40003F4F4C5F5F4F2C173D0748F3F801D583AC
:100A5000C48308C06817790728F4D80115967C93D9
:100A60006E931497DF91CF911F910F91FF90EF90AC
:100A7000DF90CF90BF90AF900895DF93CF9300D0D9
:100A800000D0CDB7DEB7FC0149835A836B837C83EA
:100A900067857089808191818617970748F06F5F1D
:100AA0007F4FCF010B96AE014F5F5F4F0E94E50471
:100AB0000F900F900F900F90CF91DF9108950F93AB
:100AC0001F938C01FC01138A128A148A82E390E03E
:100AD0009183808384E690E093838283C8010B96A0
:100AE00062E370E00E949F04F80162817381C80193
:100AF00004960E949F041F910F9108952F923F9298
:100B00004F925F926F927F928F929F92AF92BF921D
:100B1000CF92DF92EF92FF920F931F93DF93CF93C9
:100B2000CDB7DEB760970FB6F894DEBF0FBECDBF6E
:100B30002C01DC011F968D919C915097009709F430
:100B4000C6C018960D911C911997080F191F12967F
:100B50008D919C9113978017910740F4B201655FC6
:100B60007F4FC20104960E94FA01A6C080E090E087
:100B7000A0E0B0E08A839B83AC83BD831F821E828A
:100B80001B861A86C801089699878887880F991F3F
:100B9000880F991F0E94670F9F838E83CE01069650
:100BA000B801AE014E5F5F4F0E94E504F201648020
:100BB000758080859185880F991F880F991F860DF4
:100BC000971D988B8F8783849484A785B089AA0FFB
:100BD000BB1FAA0FBB1FA80DB91DBE87AD872E80F6
:100BE0003F802AC0F401A080B180C280D380D301AD
:100BF000ED90FD900D911C91C601B501A8019701E2
:100C00000E949F15882354F4F101A082B182C28210
:100C1000D38284E090E0880E991E0AC0D101ED9243
:100C2000FD920D931C931397E4E0F0E06E0E7F1E8F
:100C300084E090E0280E391EAF85B8896A167B06DD
:100C400019F4F301910110C0ED85FE858E169F0603
:100C500049F6F7CF4191519161917191D9014D932D
:100C60005D936D937D939D018F859889E817F907B2
:100C700089F7E619F709EC7FE20DF31D0AC0D401EC
:100C80002D913D914D915D914D0121933193419372
:100C900051938D859E858816990689F7C201049621
:100CA000BE016A5F7F4F0E94FA01C2010E944104A7
:100CB0008E819F810E94640FD2011F968D919C911D
:100CC0005097892B21F050961C921E921F97609688
:100CD0000FB6F894DEBF0FBECDBFCF91DF911F914D
:100CE0000F91FF90EF90DF90CF90BF90AF909F90CB
:100CF0008F907F906F905F904F903F902F900895CE
:100D0000FC01138A128A0E947E050895FC01248941
:100D1000358946895789B901CA010895FC01818145
:100D20000895CF93DF93EC018C859D85892B29F560
:100D30008BEF91E06A850E940F01892BF1F08C8581
:100D40009D852091FB013091FC01820F931F9D87AF
:100D50008C8781E00FC01D861C860BC012161306FF
:100D600044F48091FB019091FC01820F931F9D87B9
:100D70008C8780E0DF91CF9108952C853D8580910F
:100D8000FD019091FE012817390744F3E4CFCF937A
:100D9000DF93EC0188859985892B29F58BEF91E00C
:100DA0006E810E940F01892BF1F088859985209131
:100DB000FB013091FC01820F931F9987888781E0A6
:100DC0000FC0198618860BC01216130644F48091C2
:100DD000FB019091FC01820F931F9987888780E027
:100DE000DF91CF910895288539858091FD019091FB
:100DF000FE012817390744F3E4CF0F931F938C01AA
:100E000086ED92E067EA71E00E94510FF8011786C3
:100E1000118A108A1F910F910895FC0186858823FD
:100E200061F48785882361F481E0868786ED92E00E
:100E300062EB71E00E94510F0895168681E087876A
:100E40000895CF92DF92EF92FF920F931F93CF936B
:100E5000DF93EC018981882391F181E092E00E9487
:100E60007A036C016091FB017091FC01882777FD8A
:100E70008095982F0E943E167B018C018889998964
:100E8000C89EB001C99E700DD89E700D1124882790
:100E900077FD8095982F0E943E169B01AC01C801FA
:100EA000B7010E94A3159B01AC016C897D898E89D5
:100EB0009F890E943B156C8B7D8B8E8B9F8BDF9166
:100EC000CF911F910F91FF90EF90DF90CF900895F9
:100ED000FC0110828685882351F0809101028823CD
:100EE00031F0808991890196918B808B23C080910C
:100EF00001028823F9F087858823E1F081E081836E
:100F000022893389808991892817390711F037FFA1
:100F10000CC0138A128A80E090E0A0E0B0E0848BDD
:100F2000958BA68BB78B81E080838289938901960C
:100F3000938B828B8785882319F0CF010E9421072C
:100F40000895CF93DF93EC010E94C706882319F020
:100F5000CE010E940D07CE010E949106882319F050
:100F6000CE010E94FD06CE010E946807DF91CF915D
:100F700008950F931F938C01862FF8016683778362
:100F80005387428760E00E946809F801828560E02B
:100F90000E946809F8011586148611861086178646
:100FA000118A108A8FEF9FEF938B828B80E090E005
:100FB000A0E0B0E0848B958BA68BB78B1F910F912F
:100FC00008958EE092E06AE070E04BE050E00E940D
:100FD000B90708958130910541F46F5F7F4FB1F4F7
:100FE00086E292E00E94F6010895892B79F46F5F02
:100FF0007F4F61F480913B0290913C020E94640F0C
:1010000080913402909135020E94640F089580E02F
:1010100090E06FEF7FEF0E94EA07089581E090E093
:101020006FEF7FEF0E94EA07089588EF92E00E9439
:10103000C410089586E292E00E94950108950E94EE
:10104000B9038EE092E00E94A10708950F931F93C9
:1010500086ED92E040E855E260E070E00E94BA0B55
:101060008AEF91E00E94AE0086E292E060E570E0D7
:1010700040E550E028E009E00E94C00208EF12E0DD
:10108000C8010E94A9106091FB017091FC01C80188
:101090004FE158E00E9411116091FB017091FC0139
:1010A000C8014AE158E00E941111C8010E94BE1017
:1010B0001F910F910895CF93DF930E940B090E9417
:1010C0002608CCE6DBE00E9415082097E1F30E9499
:1010D0006C0BF9CF1F920F920FB60F9211242F9322
:1010E0003F938F939F93AF93BF93809149029091C9
:1010F0004A02A0914B02B0914C0230914D020196F0
:10110000A11DB11D232F2D5F2D3720F02D570196E6
:10111000A11DB11D20934D028093490290934A0274
:10112000A0934B02B0934C028091450290914602ED
:10113000A0914702B09148020196A11DB11D809374
:10114000450290934602A0934702B0934802BF9194
:10115000AF919F918F913F912F910F900FBE0F9064
:101160001F9018959B01AC017FB7F89480914502C0
:1011700090914602A0914702B091480266B5A89BA3
:1011800005C06F3F19F00196A11DB11D7FBFBA2F99
:10119000A92F982F8827860F911DA11DB11D62E0F0
:1011A000880F991FAA1FBB1F6A95D1F7BC012DC0DC
:1011B000FFB7F8948091450290914602A0914702B2
:1011C000B0914802E6B5A89B05C0EF3F19F0019623
:1011D000A11DB11DFFBFBA2FA92F982F88278E0FF1
:1011E000911DA11DB11DE2E0880F991FAA1FBB1F11
:1011F000EA95D1F7861B970B885E9340C8F2215081
:1012000030404040504068517C4F21153105410528
:10121000510571F60895789484B5826084BD84B5D3
:10122000816084BD85B5826085BD85B5816085BDE1
:10123000EEE6F0E0808181608083E1E8F0E01082FA
:10124000808182608083808181608083E0E8F0E03B
:10125000808181608083E1EBF0E080818460808325
:10126000E0EBF0E0808181608083EAE7F0E080815C
:1012700084608083808182608083808181608083BC
:101280008081806880831092C1000895982F8E30ED
:1012900008F09E5097708091D3018295880F880F37
:1012A000807C892B80937C0080917A00806480937D
:1012B0007A0080917A0086FDFCCF209178004091E1
:1012C0007900942F80E030E0282B392BC901089554
:1012D000CF93DF93482F50E0CA0186569F4FFC0101
:1012E00034914A575F4FFA018491882369F190E065
:1012F000880F991FFC01E859FF4FA591B491FC019B
:10130000EE58FF4FC591D491662351F42FB7F8944E
:101310008C91932F909589238C93888189230BC07E
:10132000623061F42FB7F8948C91932F90958923B4
:101330008C938881832B88832FBF06C09FB7F89436
:101340008C91832B8C939FBFDF91CF910895482F71
:1013500050E0CA0182559F4FFC012491CA01865674
:101360009F4FFC0194914A575F4FFA013491332308
:1013700009F440C0222351F1233071F0243028F4C5
:101380002130A1F0223011F514C02630B1F0273001
:10139000C1F02430D9F404C0809180008F7703C05D
:1013A000809180008F7D8093800010C084B58F77FE
:1013B00002C084B58F7D84BD09C08091B0008F7755
:1013C00003C08091B0008F7D8093B000E32FF0E0E8
:1013D000EE0FFF1FEE58FF4FA591B4912FB7F89471
:1013E000662321F48C919095892302C08C91892BDE
:1013F0008C932FBF08950F931F93CF93DF93BC015E
:101400008230910510F462E070E0E091EE03F0911B
:10141000EF03A0E0B0E040E050E024C08081918183
:1014200086179707D0F08617970771F4828193810A
:10143000109729F013969C938E9312972CC090933B
:10144000EF038093EE0327C04115510519F084176F
:10145000950718F4EF018D01AC01DF0182819381C2
:101460009C01F9013097D1F641155105F9F0CA01F7
:10147000861B970B8430910580F48A819B8101152E
:10148000110521F0F8019383828304C09093EF0348
:101490008093EE03FE01329645C0FE01E80FF91F6E
:1014A000619371930297998388833CC08091EC0388
:1014B0009091ED03892B41F48091D6019091D70151
:1014C0009093ED038093EC034091D8015091D901A2
:1014D0004115510541F44DB75EB78091D40190910B
:1014E000D501481B590B2091EC033091ED032417D3
:1014F0003507B0F4CA01821B930B8617970780F05B
:10150000AB014E5F5F4F8417950750F0420F531F9A
:101510005093ED034093EC03F9016193719302C082
:10152000E0E0F0E0CF01DF91CF911F910F9108959E
:10153000CF93DF939C01009709F48FC0EC012297B1
:101540001B821A826091EE037091EF0361157105A1
:1015500081F488819981820F931F2091EC0330914F
:10156000ED032817390739F5D093ED03C093EC0349
:1015700074C0DB0140E050E0AC17BD0708F1BB834D
:10158000AA83FE0121913191E20FF31FAE17BF072D
:1015900079F48D919C911197280F391F2E5F3F4F41
:1015A0003983288312968D919C9113979B838A830C
:1015B0004115510571F4D093EF03C093EE034DC074
:1015C00012968D919C911397AD01009711F0DC015B
:1015D000D3CFDA011396DC93CE931297FA012191BF
:1015E0003191E20FF31FCE17DF0769F488819981EB
:1015F000280F391F2E5F3F4FFA01318320838A81E4
:101600009B8193838283E0E0F0E0DB0112968D9171
:101610009C911397009719F0BC01FD01F6CFAB0127
:101620004E5F5F4FDB018D919C91840F951F209140
:10163000EC033091ED032817390779F4309729F43A
:101640001092EF031092EE0302C0138212824250F6
:1016500050405093ED034093EC03DF91CF910895F8
:1016600008951F920F920FB60F9211242F933F935C
:101670004F938F939F93EF93FF938091C00082FDD0
:101680001DC04091C60020918E0230918F022F5FC5
:101690003F4F2F73307080919002909191022817E4
:1016A000390771F0E0918E02F0918F02E25BFD4FFD
:1016B000408330938F0220938E0202C08091C60037
:1016C000FF91EF919F918F914F913F912F910F90AB
:1016D0000FBE0F901F901895E091E202F091E30287
:1016E000E05CFF4F8191919120813181821B930BAE
:1016F0008F739070892B11F00E94300B08951F9208
:101700000F920FB60F9211242F933F938F939F93B5
:10171000EF93FF932091D2023091D3028091D402B3
:101720009091D5022817390731F48091C1008F7D3F
:101730008093C10014C0E091D402F091D502EE561E
:10174000FD4F20818091D4029091D50201968F7334
:1017500090709093D5028093D4022093C600FF919D
:10176000EF919F918F913F912F910F900FBE0F900E
:101770001F901895AF92BF92DF92EF92FF920F9356
:101780001F93CF93DF93EC017A018B01DD2440306E
:1017900081EE580780E0680780E0780711F0DD24CB
:1017A000D39491E0A92EB12CEC89FD89DD2069F05C
:1017B000C50108A002C0880F991F0A94E2F7808330
:1017C00060E079E08DE390E005C0108260E874E8A5
:1017D0008EE190E0A80197010E94CD172150304082
:1017E00040405040569547953795279580E12030E9
:1017F000380720F0DD2011F0DD24D6CFE889F98903
:101800003083EA89FB89208319A2EE89FF89408110
:1018100021E030E0C9010C8C02C0880F991F0A94A6
:10182000E2F7482B4083EE89FF894081C9010D8C86
:1018300002C0880F991F0A94E2F7482B4083EE8973
:10184000FF894081C9010E8C02C0880F991F0A943C
:10185000E2F7482B4083EE89FF8980810F8C02C01C
:10186000220F331F0A94E2F7209528232083DF916B
:10187000CF911F910F91FF90EF90DF90BF90AF90AD
:101880000895DC011C96ED91FC911D97E05CFF4FE3
:101890002191319180819181281B390B2F733070F8
:1018A000C9010895DC011C96ED91FC911D97E05C47
:1018B000FF4F20813181E054F040DF01AE5BBF4F2C
:1018C0008D919C9111972817390719F42FEF3FEF4D
:1018D00007C08D919C91E80FF91F8081282F30E07F
:1018E000C9010895DC011C96ED91FC911D97E05C07
:1018F000FF4F20813181E054F040DF01AE5BBF4FEC
:101900008D919C9111972817390719F42FEF3FEF0C
:1019100010C08D919C911197E80FF91F20818D9136
:101920009C91119701968F73907011969C938E9352
:1019300030E0C9010895DC0191968C91919788233C
:1019400039F05496ED91FC915597808186FFF9CF3F
:1019500091961C920895CF93DF93EC01EE85FF855D
:10196000E05CFF4F20813181E054F0402F5F3F4F1A
:101970002F733070DF01AE5BBF4F8D919C9111973B
:1019800028173907D1F3E05CFF4F80819181E05443
:10199000F040E80FF91F6083EE85FF85E05CFF4FA4
:1019A00031832083EE89FF89208181E090E00F8CD4
:1019B00002C0880F991F0A94E2F7282B208381E048
:1019C00089A3EC89FD8980818064808381E090E037
:1019D000DF91CF9108951092D9021092D80288EE2B
:1019E00093E0A0E0B0E08093DA029093DB02A09352
:1019F000DC02B093DD028EED91E09093D7028093EC
:101A0000D6028EE492E09093E3028093E20282E9B0
:101A100092E09093E5028093E40285EC90E090934D
:101A2000E7028093E60284EC90E09093E9028093D1
:101A3000E80280EC90E09093EB028093EA0281EC64
:101A400090E09093ED028093EC0282EC90E0909312
:101A5000EF028093EE0286EC90E09093F102809387
:101A6000F00284E08093F20283E08093F30287E047
:101A70008093F40285E08093F50281E08093F60282
:101A80000895CF92DF92EF92FF920F931F93CF931F
:101A9000DF937C016B018A01C0E0D0E00FC0D6016A
:101AA0006D916D01D701ED91FC910190F081E02DD8
:101AB000C7010995C80FD91F015010400115110524
:101AC00071F7CE01DF91CF911F910F91FF90EF90B1
:101AD000DF90CF900895EF92FF920F931F938C01A8
:101AE000DC01ED91FC910190F081E02D6DE0099514
:101AF0007C01D801ED91FC910190F081E02DC801AD
:101B00006AE009959C012E0D3F1DC9011F910F919F
:101B1000FF90EF900895CF93DF93EC01611571056D
:101B200019F420E030E00FC0DB010D900020E9F750
:101B30001197A61BB70BE881F9810280F381E02D94
:101B4000AD0109959C01C901DF91CF9108954F9294
:101B50005F927F928F929F92AF92BF92CF92DF92CD
:101B6000EF92FF920F931F93DF93CF93CDB7DEB722
:101B7000A1970FB6F894DEBF0FBECDBF2C01742E17
:101B8000CB01223008F42AE019A231E2C32ED12C75
:101B9000CC0EDD1E822E9924AA24BB24672D752F1E
:101BA000A50194010E94CD1779018A01C801B701EE
:101BB000A50194010E94AE17472D461B0894C10849
:101BC000D1084A3014F4405D01C0495CF6014083FD
:101BD000E114F1040105110521F07E2C5F2DC801EF
:101BE000DDCFC201B6010E948B0DA1960FB6F8940D
:101BF000DEBF0FBECDBFCF91DF911F910F91FF9040
:101C0000EF90DF90CF90BF90AF909F908F907F909C
:101C10005F904F900895DC012115310541F4ED915D
:101C2000FC910190F081E02D642F099508950E94A8
:101C3000A70D0895CF92DF92EF92FF920F931F931B
:101C4000CF93DF93EC016A017B012115310541F44B
:101C5000E881F9810190F081E02D642F09951FC082
:101C60002A303105D1F477FF17C0E881F98101905E
:101C7000F081E02D6DE209958C0144275527BA01CA
:101C80004C195D096E097F09CE012AE00E94A70D5B
:101C90009801280F391F04C02AE00E94A70D9C015B
:101CA000C901DF91CF911F910F91FF90EF90DF90CD
:101CB000CF9008957F928F929F92AF92BF92CF92D2
:101CC000DF92EF92FF920F931F93CF93DF934C011C
:101CD0007A018B01722ECB01BA01A80197010E94F3
:101CE000AA17882321F0C40165EC71E021C0C0E08F
:101CF000D0E057016801E894D7F8C601B5012FEF8D
:101D00003FEF4FE75FE70E94AA17882351F4C6010F
:101D1000B5012FEF3FEF4FE75FE70E949F151816C1
:101D200014F0C1E0D0E0219739F0C40169EC71E012
:101D30000E948B0DEC0193C0C801B7012FEF3FEF5C
:101D40004FE75FE40E944317181654F0C801B7012B
:101D50002FEF3FEF4FE75FEC0E949F15882324F49D
:101D6000C4016DEC71E0E4CFC801B70120E030E0C0
:101D700040E050E00E949F1587FD03C0C0E0D0E026
:101D80000EC0D401ED91FC910190F081E02DC401D1
:101D90006DE20995EC0117FB109517F9109520E0FD
:101DA00030E040E05FE3DD240BC0CA01B90120E070
:101DB00030E040E251E40E94A3159B01AC01D394B2
:101DC000D71498F3C801B7010E943B155B016C0161
:101DD0000E9410167B018C01C401B801A7012AE002
:101DE00030E00E940B0EC80FD91F772039F0C401D4
:101DF00061ED71E00E948B0DC80FD91FC801B701BA
:101E00000E943C169B01AC01C601B5010E943A1527
:101E100024C020E030E040E251E40E9447177B01FB
:101E20008C010E940B165B016C01CC24B7FCC094A2
:101E3000DC2CC401B601A5012AE030E00E941A0E94
:101E4000C80FD91FC601B5010E943E169B01AC0107
:101E5000C801B7010E943A157A947720D1F6CE01D5
:101E6000DF91CF911F910F91FF90EF90DF90CF9076
:101E7000BF90AF909F908F907F900895EF92FF92C8
:101E80000F931F937C010E945A0E8C01C7010E9480
:101E90006B0D080F191FC8011F910F91FF90EF9054
:101EA0000895EF92FF920F931F937C010E948B0D78
:101EB0008C01C7010E946B0D080F191FC8011F91EB
:101EC0000F91FF90EF9008950E94980A08950E9444
:101ED000FB0908950895EF92FF920F931F93FC0161
:101EE000F62EE42E02E713E06081772767FD7095F8
:101EF000C8010E94ED11C8016F2D0E946F12C80128
:101F00006E2D0E946F12C8010E94B2121F910F9194
:101F1000FF90EF900895FF920F931F93CF93DF935D
:101F2000EC01F62E042F11E4CE01612F4F2D0E94FB
:101F30006B0F1F5FCE01612F402F0E946B0F1F5F41
:101F4000193591F7DF91CF911F910F91FF9008956F
:101F5000DF92EF92FF920F931F938C01D62E82E7B0
:101F6000E82E83E0F82EF8016081772767FD7095F1
:101F7000C7010E94ED11C7016D2D0E946F12C701AC
:101F800060E00E949F12F8016081772767FD7095DD
:101F9000C70142E050E00E94C312C7010E94001234
:101FA0008C01C7010E940012382F20E0202B312B1A
:101FB000C9011F910F91FF90EF90DF90089560E0AD
:101FC0000E94A80F9C013F70C9010895DF92EF9213
:101FD000FF920F931F937C01D62E02E713E0FC01C2
:101FE0006081772767FD7095C8010E94ED11C801D7
:101FF0006D2D0E946F12C80160E00E949F12F701D0
:102000006081772767FD7095C80141E050E00E942C
:10201000C312C8010E9400121F910F91FF90EF9010
:10202000DF9008951F93CF93DF93EC01162F82E783
:1020300093E00E94C7121883CE0160E843E60E9435
:102040006B0F61E070E080E090E00E94B208CE018A
:102050006EE540E00E946B0FCE016DE50E94E60F39
:10206000843211F080E051C0CE016CE046E00E9465
:102070008B0FCE016BE241E00E946B0FCE016CE250
:1020800041E00E946B0FCE016DE24EE00E946B0FAB
:10209000CE016EE240E00E946B0FCE016FE241E0A4
:1020A0000E946B0FCE0160E345E00E946B0FCE01F2
:1020B00061E341E00E946B0FCE0162E340E00E94C9
:1020C0006B0FCE0163E340E00E946B0FCE0164E32F
:1020D00040E00E946B0FCE0165E340E00E946B0F71
:1020E000CE016BE540E00E946B0FCE016CE540E154
:1020F0000E946B0FCE016DE540E20E946B0FCE0196
:102100006EE54FE80E946B0F81E0DF91CF911F9148
:1021100008950E9494001F920F920FB60F921124FF
:102120008F939F93EF93FF9380912B038F5F809307
:102130002B03E8EFF2E08081918101969183808307
:10214000FF91EF919F918F910F900FBE0F901F9075
:102150001895F8941092800088E1809381008FE7B1
:102160009EE3909387008093860080E280936F00C7
:10217000109285001092840078940895E1E8F0E0D0
:102180008081816080830895EF92FF921F93CF93A7
:10219000DF93EC018BA98823F1F1E82EFF241BAA21
:1021A00010E036C0412F50E0FA01EE0FFF1FE40FA0
:1021B000F51FDF01AA0FBB1FAC0FBD1F14962D9199
:1021C0003C9115972E193F0915963C932E93149721
:1021D00012161306E4F03196EE0FFF1FEC0FFD1FF1
:1021E00080819181280F391F15963C932E93149767
:1021F000CA010196FC01EE0FFF1FE80FF91FEE0F59
:10220000FF1FEC0FFD1F0190F081E02D09951F5F6E
:102210008AA9181738F2DF91CF911F91FF90EF90A4
:1022200008950F931F93CF93DF93EC018A014AA97E
:1022300010C0F901EE0FFF1FE20FF31F3196EE0FF2
:10224000FF1FEC0FFD1F86E00D9001928150E1F71A
:1022500041504423A1F0242F30E0C9010197DC0153
:10226000AA0FBB1FA80FB91F1196AA0FBB1FAC0F57
:10227000BD1F8D919C91119768177907D4F28AA997
:102280008F5F8AAB242F30E0C9010196FC01EE0F6D
:10229000FF1FE80FF91FEE0FFF1FEC0FFD1F11834B
:1022A0000083F901EE0FFF1FE20FF31FDF01AA0FFA
:1022B000BB1FAC0FBD1F15967C936E931497319680
:1022C000EE0FFF1FEC0FFD1F71836083DF91CF9135
:1022D0001F910F910895CF93DF93EC01DB017AA951
:1022E00060E0462F50E0FA01EE0FFF1FE40FF51FEC
:1022F0003196EE0FFF1FEC0FFD1F2D913C911197B2
:102300008081918128173907A1F4CA010196FC0147
:10231000EE0FFF1FE80FF91FEE0FFF1FEC0FFD1F61
:1023200014962D913C91159780819181281739073A
:1023300019F06F5F7617A8F6671718F571507AAB2A
:102340001DC0862F90E0DC01AA0FBB1FA80FB91F8C
:102350001196AA0FBB1F0196FC01EE0FFF1FE80F9D
:10236000F91F3196EE0FFF1FAC0FBD1FEC0FFD1FC5
:1023700086E001900D928150E1F76F5F8AA968179E
:1023800000F3DF91CF910895DF93CF9300D000D079
:1023900000D0CDB7DEB77A8369837C836B835E839D
:1023A0004D83BE016F5F7F4F0E946B1126960FB663
:1023B000F894DEBF0FBECDBFCF91DF910895EAEF55
:1023C000F2E01182108213821282158214823696F4
:1023D00083E0EA32F807A9F7089581E0809371035A
:1023E00060934E0310926F03109270030895209132
:1023F0004D0330E080914C03281B3109C901089539
:1024000040914C0380914D03481718F02FEF3FEF98
:102410000AC0E42FF0E0E45DFC4F8081282F30E01B
:102420004F5F40934C03C9010895E0914C038091A4
:102430004D03E81718F0EFEFFFEF06C0F0E0E45DA2
:10244000FC4F8081E82FF0E0CF01089508951092AD
:1024500075031092740388EE93E0A0E0B0E08093DF
:10246000760390937703A0937803B09379038EEE6D
:1024700091E090937303809372030895CF92DF925B
:10248000EF92FF920F931F93CF93DF937C016B0129
:102490008A01809171038823A1F0C0E0D0E00DC0D3
:1024A000D701ED91FC91D601AC0FBD1F0190F081D9
:1024B000E02DC7016C9109952196C017D10780F3D3
:1024C00004C0CB01642F0E947013C801DF91CF912B
:1024D0001F910F91FF90EF90DF90CF900895DF93C1
:1024E000CF930F92CDB7DEB7FC0169838091710362
:1024F0008823C9F080917003803238F081E090E049
:102500009383828320E030E015C080916F03E82F31
:10251000F0E0E15BFC4F998190838F5F80936F03C4
:102520008093700305C0CE01019661E00E94701394
:1025300021E030E0C9010F90CF91DF9108950F9312
:10254000062F80914E036FE473E04091700321E009
:102550000E941B1310926F0310927003109271036C
:102560000F91089561E00E949F120895413208F092
:1025700040E2862F6CE273E00E94D21210924C036C
:1025800080934D03089521E00E94B61208951092A1
:102590004C0310924D0310926F03109270030E942F
:1025A0001C150895382F413210F040E042C0809150
:1025B0007E038823E1F791E090937E0320938003CC
:1025C0008FEF8093EB031092A60341504093A70333
:1025D0004F5F90937F0380917F03330F832B809312
:1025E0007F0380918103813041F4109281038091B7
:1025F0007F038093BB0085EC01C085EE8093BC0017
:1026000080917E038130E1F38091A603841710F45A
:102610004091A60320E030E00AC0FB01E20FF31F67
:10262000D901AA57BC4F8C9180832F5F3F4F24174D
:10263000A0F3842F08950F931F93582F122F413228
:1026400010F081E04AC080917E038823E1F782E0A8
:1026500080937E03009380038FEF8093EB031092AF
:10266000A6034093A703A6E8B3E0FB0102C0819153
:102670008D938E2F861B8417D0F310927F03809149
:102680007F03550F852B80937F03809181038130D9
:1026900041F41092810380917F038093BB0085EC0D
:1026A00001C085EE8093BC00112321F080917E0350
:1026B0008230E1F38091EB038F3F11F480E00DC095
:1026C0008091EB03803211F482E007C08091EB032C
:1026D000803311F084E001C083E01F910F910895D1
:1026E000482F613210F081E0089580917E0384309C
:1026F00011F082E008956093C903A8EAB3E0842F43
:102700009C01F90102C081918D938E2F841B861745
:10271000D0F380E008951F920F920FB60F9211240C
:102720002F933F934F935F936F937F938F939F93D9
:10273000AF93BF93EF93FF938091B90090E0887FB0
:1027400090708036910509F4F2C081369105CCF580
:102750008832910509F47BC089329105B4F4803147
:10276000910509F46FC0813191053CF4009709F49B
:1027700047C1089709F04FC165C08831910509F438
:1027800066C0809709F047C182C08034910509F482
:10279000A4C08134910544F48033910509F482C0CA
:1027A000C89709F038C189C08035910509F489C0FE
:1027B0008835910509F496C08834910509F02BC13C
:1027C000AEC08839910509F413C189399105ECF43B
:1027D0008837910509F4ABC0893791054CF48836E8
:1027E000910509F4A4C08037910509F014C19FC078
:1027F0008838910509F4FCC08039910509F49DC021
:102800008038910509F007C198C0803B910509F413
:10281000C6C0813B91054CF4803A910509F49FC0F4
:10282000883A910509F0F7C0BAC0803C910509F4D7
:10283000E3C0883C910509F4DFC0883B910509F0AD
:10284000EAC0C2C080917F038093BB00CFC090914B
:10285000A6038091A703981768F49091A603E92F27
:10286000F0E0EA57FC4F80818093BB009F5F90931C
:10287000A603BCC080918003882309F44BC085ED7A
:102880008093BC008091BC0084FDFCCFC2C080E27C
:102890008093EB0385ED8093BC008091BC0084FDA8
:1028A000FCCFB7C080E38093EB0385ED8093BC0041
:1028B0008091BC0084FDFCCFACC088E38093EB0327
:1028C0009BC08091A6039091BB00E82FF0E0EA57EF
:1028D000FC4F90838F5F8093A6039091A603809115
:1028E000A70382C08091A6039091BB00E82FF0E07F
:1028F000EA57FC4F90838F5F8093A60380918003FB
:10290000882341F085ED8093BC008091BC0084FD5C
:10291000FCCF7FC081E08093810384EA6EC085EDA7
:102920008093BC008091BC0084FDFCCF72C083E02A
:1029300080937E031092EA0359C08091EA038032AB
:1029400008F056C08091EA039091BB00E82FF0E0B8
:10295000E653FC4F90838F5F8093EA0347C08091DA
:10296000EA03803230F4E091EA03F0E0E653FC4FF2
:10297000108285ED8093BC008091BC0084FDFCCF6B
:1029800010927E036091EA03E0918403F091850345
:102990008AEC93E070E009951092EA032DC084E080
:1029A00080937E031092C8031092C903E0918203C2
:1029B000F091830309958091C903882329F481E06C
:1029C0008093C9031092A8039091C803E92FF0E007
:1029D000E855FC4F80818093BB009F5F9093C803B4
:1029E0009091C8038091C903981710F485EC01C039
:1029F00085E88093BC000FC085EC8093BC0009C0C3
:102A00001092EB0385ED8093BC008091BC0084FDA7
:102A1000FCCF10927E03FF91EF91BF91AF919F91F8
:102A20008F917F916F915F914F913F912F910F9077
:102A30000FBE0F901F90189510927E0381E0809337
:102A400080031092810382E161E00E94A70983E183
:102A500061E00E94A709E9EBF0E080818E7F80832E
:102A600080818D7F808388E48093B80085E48093A3
:102A7000BC0008955058BB27AA270ED0B3C1A4D1DB
:102A800030F0A9D120F031F49F3F11F41EF499C128
:102A90000EF4E095E7FB64C1E92FB5D180F3BA17D6
:102AA000620773078407950718F071F49EF5E4C177
:102AB0000EF4E0950B2EBA2FA02D0B01B901900159
:102AC0000C01CA01A0011124FF27591B99F0593F9D
:102AD00050F4503E68F11A16F040A22F232F342FE5
:102AE0004427585FF3CF469537952795A795F04033
:102AF0005395C9F77EF41F16BA0B620B730B840B48
:102B0000BAF09150A1F0FF0FBB1F661F771F881FFF
:102B1000C2F70EC0BA0F621F731F841F48F4879557
:102B200077956795B795F7959E3F08F0B3CF939546
:102B3000880F08F09927EE0F979587950895ECD0A8
:102B400008F481E008950CD04DC145D140F03CD14E
:102B500030F021F45F3F19F003C151118EC131C132
:102B600052D198F39923C9F35523B1F3951B550B13
:102B7000BB27AA2762177307840738F09F5F5F4F50
:102B8000220F331F441FAA1FA9F333D00E2E3AF091
:102B9000E0E830D091505040E695001CCAF729D0AB
:102BA000FE2F27D0660F771F881FBB1F26173707FA
:102BB0004807AB07B0E809F0BB0B802DBF01FF272A
:102BC00093585F4F2AF09E3F510568F0C9C055C128
:102BD0005F3FECF3983EDCF3869577956795B79564
:102BE000F7959F5FC9F7880F911D9695879597F97F
:102BF0000895E1E0660F771F881FBB1F62177307F8
:102C00008407BA0720F0621B730B840BBA0BEE1F0C
:102C100088F7E095089504D06894B1112EC1089505
:102C2000FAD088F09F5790F0B92F9927B751A0F0AC
:102C3000D1F0660F771F881F991F1AF0BA95C9F750
:102C400012C0B13081F018D1B1E0089515C1672FDD
:102C5000782F8827B85F39F0B93FCCF38695779500
:102C60006795B395D9F73EF49095809570956195E9
:102C70007F4F8F4F9F4F0895E89409C097FB3EF414
:102C800090958095709561957F4F8F4F9F4F9923B9
:102C9000A9F0F92F96E9BB279395F6958795779537
:102CA0006795B795F111F8CFFAF4BB0F11F460FFF7
:102CB0001BC06F5F7F4F8F4F9F4F16C0882311F04F
:102CC00096E911C0772321F09EE8872F762F05C063
:102CD000662371F096E8862F70E060E02AF09A95FE
:102CE000660F771F881FDAF7880F9695879597F9F3
:102CF0000895ABD080F09F3740F491110EF0BDC025
:102D000060E070E080E89FEB089526F41B16611DDB
:102D1000711D811D2BC045C0990F0008550FAA0BCE
:102D2000E0E8FEEF16161706E807F907C0F01216DE
:102D30001306E407F50798F0621B730B840B950BE1
:102D400039F40A2661F0232B242B252B21F4089536
:102D50000A2609F4A140A6958FEF811D811D0895D3
:102D600097F99F6780E870E060E00895882371F428
:102D7000772321F09850872B762F07C0662311F414
:102D800099270DC09051862B70E060E02AF09A954B
:102D9000660F771F881FDAF7880F9695879597F942
:102DA00008959F3F49F0915028F48695779567954F
:102DB000B7959F5F80389F4F880F9695879597F9B5
:102DC00008959FEF80EC089500240A9416161706C4
:102DD00018060906089500240A941216130614060C
:102DE00005060895092E0394000C11F4882352F06F
:102DF000BB0F40F4BF2B11F460FF04C06F5F7F4F27
:102E00008F4F9F4F089557FD9058440F551F59F00D
:102E10005F3F71F04795880F97FB991F61F09F3FC7
:102E200079F087950895121613061406551FF2CFF0
:102E30004695F1DF08C0161617061806991FF1CF40
:102E400086957105610508940895E5DFA0F0BEE759
:102E5000B91788F4BB279F3860F41616B11D672F89
:102E6000782F8827985FF7CF869577956795B11D5E
:102E700093959639C8F30895E894BB27662777277A
:102E8000CB0197F9089548DF08F48FEF08950BD030
:102E9000A9CF9ADF28F09FDF18F0952309F060CFC3
:102EA00090CF1124EACFAFDFA0F3959FD1F3950F18
:102EB00050E0551F629FF001729FBB27F00DB11DBE
:102EC000639FAA27F00DB11DAA1F649F6627B00D4E
:102ED000A11D661F829F2227B00DA11D621F739F37
:102EE000B00DA11D621F839FA00D611D221F749F45
:102EF0003327A00D611D231F849F600D211D822F8C
:102F0000762F6A2F11249F5750408AF0E1F08823D2
:102F10004AF0EE0FFF1FBB1F661F771F881F9150DF
:102F20005040A9F79E3F510570F01ACFA6CF5F3FE2
:102F3000ECF3983EDCF3869577956795B795F79512
:102F4000E7959F5FC1F7FE2B880F911D969587959A
:102F500097F90895E1DE880B990B0895629FD001DF
:102F6000739FF001829FE00DF11D649FE00DF11D44
:102F7000929FF00D839FF00D749FF00D659FF00DF3
:102F80009927729FB00DE11DF91F639FB00DE11DE0
:102F9000F91FBD01CF0111240895A1E21A2EAA1B29
:102FA000BB1BFD010DC0AA1FBB1FEE1FFF1FA217F9
:102FB000B307E407F50720F0A21BB30BE40BF50BF6
:102FC000661F771F881F991F1A9469F7609570957F
:102FD000809590959B01AC01BD01CF010895EE0F46
:102FE000FF1F0590F491E02D099410E0C2EDD0E0B0
:102FF00004C0FE010E94F1172296C43DD107C9F713
:04300000F894FFCF72
:103004004164616672756974204D505231323120C9
:103014004361706163697469766520546F75636890
:103024002073656E736F722074657374004D505213
:10303400313231206E6F7420666F756E642C20639C
:103044006865636B20776972696E673F004D505203
:1030540031323120666F756E6421005265636F7280
:103064006465642048697420506C617900496E7607
:10307400616C696420737562736372697074004E65
:1030840065772048697473004C6F6F7020486974C9
:10309400730054726967676572205265636F726466
:1030A40065642048697400436C656172204C6F6FDD
:1030B400700053746172742073657474696E672050
:1030C4006C6F6F70006E616E00696E66006F76667D
:1030D400002E00018000F003000000000000AB0C93
:1030E400410D410C720C520C9B0C000000006F123D
:0A30F4003E12F71100121512261209
:00000001FF
