:100000000C9468000C9490000C9490000C94900058
:100010000C9490000C9490000C9490000C94900020
:100020000C9490000C9490000C94CE0E0C949000C4
:100030000C9490000C9490000C9490000C94900000
:100040000C94EC080C9490000C94780A0C94C60A5A
:100050000C9490000C9490000C9490000C949000E0
:100060000C9490000C9490000000000024002700E5
:100070002A0000000000250028002B0000000000DE
:1000800023002600290004040404040404040202DA
:100090000202020203030303030301020408102007
:1000A0004080010204081020010204081020000012
:1000B0000007000201000003040600000000000029
:1000C0000000E5000E033E088008320C221079087B
:1000D00011241FBECFEFD8E0DEBFCDBF11E0A0E0FE
:1000E000B1E0EAE5F8E202C005900D92AE34B10746
:1000F000D9F712E0AEE4B1E001C01D92A53AB10714
:10010000E1F710E0CEECD0E004C02297FE010E949F
:100110001C14C23CD107C9F70E94DD080C942014BE
:100120000C940000862F60E00E94D0090895862F6D
:1001300061E00E94D0090895FC01858160E00E9481
:10014000D00908958EE491E00E949C008DE692E033
:1001500064E170E042EA50E00E9407100895FC015B
:10016000858161E00E94D00908958EE491E00E94AB
:10017000AF008DE692E064E170E042EA50E00E9458
:10018000540F08950E94B5000895862F0E94240AF6
:100190000895FC0184810E946F0908950F931F93B5
:1001A0008C018EE0F801848387E0858361E00E9402
:1001B000910988E090E0F8019183808388EC90E0D9
:1001C000938382831F910F9108958EE491E00E94A2
:1001D000CE0008950F931F93CF93DF93EC01888196
:1001E000882371F48E01085F1F4FC8010E946103CC
:1001F000882319F0C8010E943E0481E08B83888324
:10020000DF91CF911F910F9108950F931F938C0150
:100210008EE491E0F80164810E949700F801138256
:10022000178216821F910F910895CF93DF93EC01EF
:1002300080916301882351F08BE492E060E071E0EB
:100240000E94B50ECE0108960E9464048EE491E0EF
:100250006D810E94C500892B19F4CE010E94EA002D
:100260008B81882349F4CE0108960E94600688237A
:1002700021F18881882309F5CE010E94050121C062
:100280008EE491E06C810E94970080914E019091E4
:100290004F012E813F81820F931F9F838E8329817F
:1002A0003A81821793076CF018821F821E828EE4B7
:1002B00091E06C810E94920004C08881882301F73C
:1002C000F6CFDF91CF91089508960E947C030895A0
:1002D000CF92DF92EF92FF920F931F93CF93DF9312
:1002E0008C017B016817790709F4AEC0DB01149615
:1002F0002D913C911597EC018A819B818217930780
:1003000098F5C880D9803B832A83C901880F991F3B
:10031000880F991F0E94CB0E9983888340E050E09C
:1003200020E030E016C0F801C081D181C20FD31F98
:10033000209759F0F601E20FF31F80819181A2818D
:10034000B38188839983AA83BB834F5F5F4F2C5F00
:100350003F4FD80114968D919C91159748175907D6
:1003600010F3C6010E94C80EE8018C819D81F7013F
:10037000648175818617970708F4BC0140E050E05E
:1003800020E030E017C0D801ED91FC91E20FF31F9F
:10039000E701A881B981A20FB31F8D919D910D90A6
:1003A000BC91A02D80839183A283B3834F5F5F4F65
:1003B0002C5F3F4F4617570730F3F80144815581B2
:1003C000D70114968D919C9115974817590750F5B0
:1003D0009A01220F331F220F331F1EC0F801C08164
:1003E000D181C20FD31FD701ED91FC91209751F01D
:1003F000E20FF31F80819181A281B3818883998369
:10040000AA83BB83E8018C819D8101969D838C83A7
:100410004F5F5F4F2C5F3F4FF701848195814817F5
:100420005907E0F2D80114968D919C911597E70138
:100430006C817D816817790738F46817790720F493
:1004400015967C936E931497C801DF91CF911F91FD
:100450000F91FF90EF90DF90CF900895CF92DF92B1
:10046000EF92FF920F931F93DF93CF93CDB7DEB739
:1004700068970FB6F894DEBF0FBECDBF8C01822FF8
:10048000F80172836183108213822483458317826B
:10049000168261E00E949109F801858160E00E9466
:1004A00091097E010894E11CF11CC7010E947C03A4
:1004B00038E0C32ED12CC00ED11EC601B7010E9458
:1004C0006801C8010F96BE01685F7F4F0E946801F6
:1004D000C8014696BE01615F7F4F0E9468018E8908
:1004E0009F89F801968F858F888D878F8F85988952
:1004F0000E94C80E888599850E94C80E89819A81BC
:100500000E94C80EC6010E94C80668960FB6F894ED
:10051000DEBF0FBECDBFCF91DF911F910F91FF9036
:10052000EF90DF90CF9008954F925F926F927F92FD
:100530008F929F92AF92BF92CF92DF92EF92FF92F3
:100540000F931F936C018EE491E00E94C9007C011F
:10055000F60163817481882777FD8095982F0E942A
:1005600069122B013C01F60165817681882777FDB0
:100570008095982F0E9469124B015C010027F7FCBF
:100580000095102FC801B7010E9469127B018C01F0
:10059000F60167817085882777FD8095982F0E94E6
:1005A00069129B01AC01C801B7010E94CE119B01E9
:1005B000AC01C501B4010E9472139B01AC01C301DF
:1005C000B2010E9465111F910F91FF90EF90DF9093
:1005D000CF90BF90AF909F908F907F906F905F90E3
:1005E0004F9008950E9494029B01AC0160E070E07E
:1005F0008AE794E40E94CE1120E030E040E752E424
:100600000E94721320E030E040E05FE30E94661138
:100610000E94A4120E943612CB01089580EF90E050
:10062000909358018093570188E290E0909356018F
:100630008093550188EC90E090935A018093590182
:100640008CEF93E090935C0180935B01E4E5F1E033
:100650001082CF010E94F2029093600180935F01AB
:100660000895CF93DF9380915D0190915E01209179
:100670004E0130914F01820F931F90935E01809342
:100680005D011092540184E591E00E94F202EC01B8
:1006900080915D0190915E01C817D9075CF48EE4EA
:1006A00091E00E94C20081E08093540110925E01AB
:1006B00010925D01D0936001C0935F01DF91CF91F3
:1006C000089581E691E00E94030708950F931F9318
:1006D0008C01FC011182108288E090E09383828378
:1006E0001582148280E290E00E94CB0EF801918383
:1006F00080831F910F9108950F931F93DF93CF93E2
:1007000000D00F92CDB7DEB78C01BE016F5F7F4F77
:100710000E946603C8010796BE016E5F7F4F0E946C
:100720006603C8010E96BE016D5F7F4F0E9466038F
:100730000F900F900F90CF91DF911F910F9108951F
:10074000EF92FF920F931F93CF93DF938C01FC01E5
:10075000828193818617970790F5E080F1807383FB
:100760006283CB01880F991F880F991F0E94CB0EBF
:10077000F8019183808340E050E020E030E016C033
:10078000F801C081D181C20FD31F209759F0F70122
:10079000E20FF31F80819181A281B38188839983C5
:1007A000AA83BB834F5F5F4F2C5F3F4FF80184816B
:1007B00095814817590720F3C7010E94C80EDF91A1
:1007C000CF911F910F91FF90EF900895AF92BF923C
:1007D000CF92DF92EF92FF920F931F93CF93DF930D
:1007E0008C01EB017A01DC0114968D919C91159797
:1007F0008617970780F512968D919C91139786170F
:10080000970728F4685F7F4FC8010E94A003F80192
:1008100024813581A901440F551F440F551F14C071
:10082000D801ED91FC91E40FF51F309749F0D70105
:10083000AD90BD90CD90DC90A082B182C282D38277
:100840002F5F3F4F4C5F5F4F2C173D0748F3F80178
:10085000D583C48308C06817790728F4D801159692
:100860007C936E931497DF91CF911F910F91FF901E
:10087000EF90DF90CF90BF90AF9008950F931F93AC
:10088000DF93CF9300D000D0CDB7DEB78C0181E6E7
:1008900091E00E94FB0669837A838B839C83F80135
:1008A000628973896F5F7F4FC8010E96AE014F5FFB
:1008B0005F4F0E94E6030F900F900F900F90CF9123
:1008C000DF911F910F9108950F931F93DF93CF93A3
:1008D00000D000D0CDB7DEB78C01FC0184819581BA
:1008E000892B11F01582148280E090E0A0E8BFEB24
:1008F00089839A83AB83BC83F801648175816F5FC0
:100900007F4FC801AE014F5F5F4F0E94E603F801C1
:1009100082899389892B11F0138A128A0F900F9084
:100920000F900F90CF91DF911F910F9108952F920B
:100930003F924F925F926F927F928F929F92AF926F
:10094000BF92CF92DF92EF92FF920F931F93DF93AC
:10095000CF93CDB7DEB760970FB6F894DEBF0FBE6A
:10096000CDBF2C01DC0152968D919C91539700973D
:1009700009F48DC114960D911C911597080F191F3C
:1009800080E090E0A0E0B0E08A839B83AC83BD83ED
:100990001F821E821B861A86C8010896998788873F
:1009A000880F991F880F991F0E94CB0E9F838E83FB
:1009B000CE010696B801AE014E5F5F4F0E94E6037E
:1009C000F2016080718084819581880F991F880F62
:1009D000991F860D971D988B8F8786849784A2898F
:1009E000B389AA0FBB1FAA0FBB1FA80DB91DBE87D5
:1009F000AD872E803F802AC0F401A080B180C280E4
:100A0000D380D301ED90FD900D911C91C601B501ED
:100A1000A80197010E94CA11882354F4F101A08211
:100A2000B182C282D38284E090E0880E991E0AC00F
:100A3000D101ED92FD920D931C931397E4E0F0E049
:100A40006E0E7F1E84E090E0280E391EAF85B889B7
:100A50006A167B0619F4F301910110C0ED85FE853D
:100A60008E169F0649F6F7CF419151916191719190
:100A7000D9014D935D936D937D939D018F859889E9
:100A8000E817F90789F7E619F709EC7FE20DF31D7E
:100A90000AC0D4012D913D914D915D914D0121935D
:100AA0003193419351938D859E858816990689F7D8
:100AB0008BE492E06CE071E00E94B50ED2011E96CC
:100AC0000D911C911F970CC0F801419151916191BA
:100AD00071918F018BE492E022E030E00E94A20E3F
:100AE000D20152962D913C915397220F331F220F22
:100AF000331F1E968D919C911F97820F931F08178D
:100B0000190711F78BE492E065E171E00E94B50EE0
:100B1000F201008111810CC0D8014D915D916D9160
:100B20007D918D018BE492E022E030E00E94A20EE4
:100B3000F20124813581220F331F220F331F808160
:100B40009181820F931F0817190731F78BE492E008
:100B50006EE171E00E94B50E0E811F810CC0D801BC
:100B60004D915D916D917D918D018BE492E022E03C
:100B700030E00E94A20E6A857B859B01220F331F05
:100B8000220F331F8E819F81820F931F0817190731
:100B900031F7CE0106964816590609F46DC0C20118
:100BA0000E94A003F201848195816A857B858B0177
:100BB0008617970708F48C01EE80FF8040E050E034
:100BC00020E030E015C0D201ED91FC91E20FF31F5F
:100BD000D701A20FB31F8D919D910D90BC91A02DB7
:100BE00080839183A283B3834F5F5F4F2C5F3F4F1E
:100BF0004017510740F3F20124813581261737074A
:100C000050F5A901440F551F440F551FB701640F3C
:100C1000751F1CC0D201ED91FC91E40FF51F3097B8
:100C200049F0DB01ED90FD900D911C91E082F18285
:100C300002831383F20184819581019695838483D5
:100C40002F5F3F4F4C5F5F4F6C5F7F4F8A859B8567
:100C500028173907F8F2D20114962D913C91159777
:100C60008A859B858217930738F48217930720F4AF
:100C700015969C938E931497F20182899389892B00
:100C800011F0138A128A8E819F810E94C80E60968D
:100C90000FB6F894DEBF0FBECDBFCF91DF911F918D
:100CA0000F91FF90EF90DF90CF90BF90AF909F900B
:100CB0008F907F906F905F904F903F902F9008950E
:100CC0008F929F92AF92BF92CF92DF92EF92FF925C
:100CD0000F931F93CF93DF93EC0181E691E00E9485
:100CE0000307882309F446C081E691E00E94FB06D1
:100CF0004B015C018D899E8997FF09C0809161013C
:100D00008823C1F11E8A1D8ACE010E949704CD88D6
:100D1000DE88C601880F991F880F991FE881F98125
:100D2000E80FF91FE080F18002811381C501B40151
:100D3000A80197010E946E138823E4F0C801B7014F
:100D400020E030E040E85FEB0E946E13882394F0CF
:100D50008C819D810197C816D90628F08FEF9FEFEF
:100D60009E8B8D8B05C00894C11CD11CDE8ACD8A58
:100D700081E001C080E0DF91CF911F910F91FF9042
:100D8000EF90DF90CF90BF90AF909F908F9008959D
:100D90000F931F93DF93CF9300D000D0CDB7DEB772
:100DA0008C0180E090E0A0E8BFEB89839A83AB835D
:100DB000BC83F801648175816F5F7F4FC801AE010C
:100DC0004F5F5F4F0E94E6038FEF9FEFF801968B16
:100DD000858B178A648175818BE492E04AE050E04C
:100DE0000E94610D0F900F900F900F90CF91DF91A7
:100DF0001F910F910895FC01258936894789508DEF
:100E0000B901CA010895FC0183810895CF93DF934E
:100E1000EC018E859F85892B29F58EE491E06C8508
:100E20000E94C500892BF1F48E859F8520914E018B
:100E300030914F01820F931F9F878E8781E00FC0F3
:100E40001F861E860BC01216130644F480914E01B5
:100E500090914F01820F931F9F878E8780E0DF91D3
:100E6000CF9108952E853F85809150019091510139
:100E70002817390744F3E4CFCF93DF93EC018A8539
:100E80009B85892B29F58EE491E068850E94C50039
:100E9000892BF1F48A859B8520914E0130914F0179
:100EA000820F931F9B878A8781E00FC01B861A865B
:100EB0000BC01216130644F480914E0190914F011D
:100EC000820F931F9B878A8780E0DF91CF910895DF
:100ED0002A853B858091500190915101281739074F
:100EE00044F3E4CFCF92DF92EF92FF920F931F93E0
:100EF000CF93DF93EC018B81882391F184E591E01E
:100F00000E94F2026C0160914E0170914F0188279E
:100F100077FD8095982F0E9469127B018C01898949
:100F20009A89C89EB001C99E700DD89E700D11247B
:100F3000882777FD8095982F0E9469129B01AC014C
:100F4000C801B7010E94CE119B01AC016D897E8959
:100F50008F89988D0E9466116D8B7E8B8F8B988FF9
:100F6000DF91CF911F910F91FF90EF90DF90CF9085
:100F70000895FC0110828089882351F080915401EA
:100F8000882331F0818992890196928B818B23C0CD
:100F9000809154018823F9F081818823E1F081E078
:100FA000838323893489818992892817390711F02D
:100FB00037FF0CC0148A138A80E090E0A0E0B0E014
:100FC000858B968BA78BB08F81E0808383899489F2
:100FD0000196948B838B8181882319F0CF010E9425
:100FE00072070895CF93DF93EC011A820E943C07A9
:100FF000882361F08889882331F48981882331F43A
:1010000081E0888B03C0188A81E08983CE010E9429
:101010000607882329F019821A8A198A81E08A83AF
:10102000CE010E94B907DF91CF9108950F931F93CE
:101030008C01862FF801608771875587448760E0AF
:101040000E949109F801848560E00E949109F801ED
:1010500017861686138612861182128A118A8FEFDE
:101060009FEF948B838B80E090E0A0E0B0E0858BD5
:10107000968BA78BB08F1F910F91089581E691E019
:1010800066E070E045E050E00E94160808950F9376
:101090001F938C01FC01868997890E94C80EF80174
:1010A000878590890E94C80EF801808591850E94ED
:1010B000C80E1F910F9108958130910561F46F5F03
:1010C0007F4FB1F48AE791E00E9464018AE991E0E0
:1010D0000E9464010895892B59F46F5F7F4F41F49A
:1010E0008AE991E00E9447088AE791E00E94470858
:1010F000089580E090E06FEF7FEF0E945C08089514
:1011000081E090E06FEF7FEF0E945C0808958DE62C
:1011100092E00E94070F08958AE991E00E9415016C
:1011200008958AE791E00E94150108950E94310315
:1011300081E691E00E94F20708950F931F938BE4DC
:1011400092E040E855E260E070E00E94010B8AE71F
:1011500091E064E670E04AE029E00E942E028AE90C
:1011600091E064E670E04DE02CE00E942E020DE676
:1011700012E0C8010E94EC0E60914E0170914F0187
:10118000C80146E958E00E94540F60914E017091E9
:101190004F01C80141E958E00E94540F60914E018F
:1011A00070914F01C8014CE858E00E94540FC801EB
:1011B0000E94010F1F910F910895CF93DF930E941A
:1011C00034090E949D08C3EBDAE00E94870820974B
:1011D000E1F30E94B30AF9CF1F920F920FB60F925C
:1011E00011242F933F938F939F93AF93BF9380913D
:1011F000BE019091BF01A091C001B091C101309199
:10120000C2010196A11DB11D232F2D5F2D3720F0A6
:101210002D570196A11DB11D2093C2018093BE01DF
:101220009093BF01A093C001B093C1018091BA0116
:101230009091BB01A091BC01B091BD010196A11D8F
:10124000B11D8093BA019093BB01A093BC01B093F0
:10125000BD01BF91AF919F918F913F912F910F90C1
:101260000FBE0F901F901895789484B5826084BD4E
:1012700084B5816084BD85B5826085BD85B581609A
:1012800085BDEEE6F0E0808181608083E1E8F0E0FA
:101290001082808182608083808181608083E0E829
:1012A000F0E0808181608083E1EBF0E08081846008
:1012B0008083E0EBF0E0808181608083EAE7F0E00A
:1012C000808184608083808182608083808181606E
:1012D00080838081806880831092C1000895982F58
:1012E0008E3008F09E509770809137018295880F5C
:1012F000880F807C892B80937C0080917A008064A9
:1013000080937A0080917A0086FDFCCF209178004E
:1013100040917900942F80E030E0282B392BC901CF
:101320000895CF93DF93482F50E0CA0186569F4F10
:10133000FC0134914A575F4FFA018491882369F187
:1013400090E0880F991FFC01E859FF4FA591B491D7
:10135000FC01EE58FF4FC591D491662351F42FB78D
:10136000F8948C91932F909589238C93888189236D
:101370000BC0623061F42FB7F8948C91932F909545
:1013800089238C938881832B88832FBF06C09FB7C6
:10139000F8948C91832B8C939FBFDF91CF9108950C
:1013A000482F50E0CA0182559F4FFC012491CA0189
:1013B00086569F4FFC0194914A575F4FFA01349132
:1013C000332309F440C0222351F1233071F024303B
:1013D00028F42130A1F0223011F514C02630B1F0EC
:1013E0002730C1F02430D9F404C0809180008F7779
:1013F00003C0809180008F7D8093800010C084B5F1
:101400008F7702C084B58F7D84BD09C08091B00004
:101410008F7703C08091B0008F7D8093B000E32F61
:10142000F0E0EE0FFF1FEE58FF4FA591B4912FB7DC
:10143000F894662321F48C919095892302C08C91B5
:10144000892B8C932FBF0895682F70E0CB018255B4
:101450009F4FFC012491CB0186569F4FFC01449184
:101460006A577F4FFB019491992319F420E030E0F3
:101470003CC0222351F1233071F0243028F4213074
:10148000A1F0223011F514C02630B1F02730C1F0A0
:101490002430D9F404C0809180008F7703C08091FC
:1014A00080008F7D8093800010C084B58F7702C04C
:1014B00084B58F7D84BD09C08091B0008F7703C053
:1014C0008091B0008F7D8093B000892F90E0880FCD
:1014D000991F84589F4FFC01A591B4918C9120E0F5
:1014E00030E0842311F021E030E0C901089508952F
:1014F0001F920F920FB60F9211242F933F934F9389
:101500008F939F93EF93FF938091C00082FD1DC046
:101510004091C60020910302309104022F5F3F4F9B
:101520002F733070809105029091060228173907B9
:1015300071F0E0910302F0910402ED53FE4F4083FD
:10154000309304022093030202C08091C600FF91F1
:10155000EF919F918F914F913F912F910F900FBEDF
:101560000F901F901895E0915702F0915802E05C9F
:10157000FF4F8191919120813181821B930B8F7359
:101580009070892B11F00E94770A08951F920F9294
:101590000FB60F9211242F933F938F939F93EF9346
:1015A000FF93209147023091480280914902909127
:1015B0004A022817390731F48091C1008F7D80934A
:1015C000C10014C0E0914902F0914A02E95FFD4F69
:1015D00020818091490290914A0201968F73907008
:1015E00090934A02809349022093C600FF91EF91A5
:1015F0009F918F913F912F910F900FBE0F901F9051
:101600001895AF92BF92DF92EF92FF920F931F93C4
:10161000CF93DF93EC017A018B01DD24403081EE22
:10162000580780E0680780E0780711F0DD24D39444
:1016300091E0A92EB12CEC89FD89DD2069F0C5016E
:1016400008A002C0880F991F0A94E2F7808360E027
:1016500079E08DE390E005C0108260E874E88EE1E7
:1016600090E0A80197010E94F813215030404040BB
:101670005040569547953795279580E1203038079B
:1016800020F0DD2011F0DD24D6CFE889F989308300
:10169000EA89FB89208319A2EE89FF89408121E034
:1016A00030E0C9010C8C02C0880F991F0A94E2F740
:1016B000482B4083EE89FF894081C9010D8C02C00F
:1016C000880F991F0A94E2F7482B4083EE89FF891F
:1016D0004081C9010E8C02C0880F991F0A94E2F75D
:1016E000482B4083EE89FF8980810F8C02C0220F36
:1016F000331F0A94E2F7209528232083DF91CF91AE
:101700001F910F91FF90EF90DF90BF90AF900895E1
:10171000DC011C96ED91FC911D97E05CFF4F21913F
:10172000319180819181281B390B2F733070C90151
:101730000895DC011C96ED91FC911D97E05CFF4F34
:1017400020813181E054F040DF01AE5BBF4F8D91CD
:101750009C9111972817390719F42FEF3FEF07C015
:101760008D919C91E80FF91F8081282F30E0C901ED
:101770000895DC011C96ED91FC911D97E05CFF4FF4
:1017800020813181E054F040DF01AE5BBF4F8D918D
:101790009C9111972817390719F42FEF3FEF10C0CC
:1017A0008D919C911197E80FF91F20818D919C914B
:1017B000119701968F73907011969C938E9330E0E1
:1017C000C9010895DC0191968C919197882339F095
:1017D0005496ED91FC915597808186FFF9CF9196B3
:1017E0001C920895CF93DF93EC01EE85FF85E05CBA
:1017F000FF4F20813181E054F0402F5F3F4F2F7326
:101800003070DF01AE5BBF4F8D919C91119728170F
:101810003907D1F3E05CFF4F80819181E054F040C3
:10182000E80FF91F6083EE85FF85E05CFF4F318391
:101830002083EE89FF89208181E090E00F8C02C037
:10184000880F991F0A94E2F7282B208381E089A34F
:10185000EC89FD8980818064808381E090E0DF9164
:10186000CF91089510924E0210924D0288EE93E0AF
:10187000A0E0B0E080934F0290935002A0935102F9
:10188000B093520282E491E090934C0280934B0219
:1018900083EC91E0909358028093570287E092E0A6
:1018A00090935A028093590285EC90E090935C02E9
:1018B00080935B0284EC90E090935E0280935D02E3
:1018C00080EC90E09093600280935F0281EC90E066
:1018D000909362028093610282EC90E090936402A4
:1018E0008093630286EC90E0909366028093650299
:1018F00084E08093670283E08093680287E08093AE
:10190000690285E080936A0281E080936B0208950A
:10191000CF92DF92EF92FF920F931F93CF93DF93BB
:101920007C016B018A01C0E0D0E00FC0D6016D914F
:101930006D01D701ED91FC910190F081E02DC7017F
:101940000995C80FD91F015010400115110571F7F5
:10195000CE01DF91CF911F910F91FF90EF90DF901B
:10196000CF900895EF92FF920F931F938C01DC01AB
:10197000ED91FC910190F081E02D6DE009957C01E5
:10198000D801ED91FC910190F081E02DC8016AE051
:1019900009959C012E0D3F1DC9011F910F91FF90CC
:1019A000EF900895CF93DF93EC016115710519F461
:1019B00020E030E00FC0DB010D900020E9F7119727
:1019C000A61BB70BE881F9810280F381E02DAD0100
:1019D00009959C01C901DF91CF9108954F925F92C3
:1019E0007F928F929F92AF92BF92CF92DF92EF92AF
:1019F000FF920F931F93DF93CF93CDB7DEB7A197DD
:101A00000FB6F894DEBF0FBECDBF2C01742ECB01F4
:101A1000223008F42AE019A231E2C32ED12CCC0ED8
:101A2000DD1E822E9924AA24BB24672D752FA501C3
:101A300094010E94F81379018A01C801B701A50138
:101A400094010E94D913472D461B0894C108D10860
:101A50004A3014F4405D01C0495CF6014083E11452
:101A6000F1040105110521F07E2C5F2DC801DDCFA9
:101A7000C201B6010E94D20CA1960FB6F894DEBF47
:101A80000FBECDBFCF91DF911F910F91FF90EF90CF
:101A9000DF90CF90BF90AF909F908F907F905F909E
:101AA0004F900895DC012115310541F4ED91FC9131
:101AB0000190F081E02D642F099508950E94EE0CAD
:101AC0000895CF92DF92EF92FF920F931F936C01D4
:101AD0007B019A0100E010E0B801A7010E94520DBD
:101AE0008C01C6010E94B20C080F191FC8011F917A
:101AF0000F91FF90EF90DF90CF900895CF92DF92FB
:101B0000EF92FF920F931F93CF93DF93EC016A0143
:101B10007B012115310541F4E881F9810190F081C3
:101B2000E02D642F09951FC02A303105D1F477FFCD
:101B300017C0E881F9810190F081E02D6DE20995EF
:101B40008C0144275527BA014C195D096E097F099C
:101B5000CE012AE00E94EE0C9801280F391F04C024
:101B60002AE00E94EE0C9C01C901DF91CF911F91E8
:101B70000F91FF90EF90DF90CF9008957F928F921A
:101B80009F92AF92BF92CF92DF92EF92FF920F930C
:101B90001F93CF93DF934C017A018B01722ECB01FF
:101BA000BA01A80197010E94D513882321F0C4012E
:101BB00069E271E021C0C0E0D0E057016801E8941B
:101BC000D7F8C601B5012FEF3FEF4FE75FE70E945F
:101BD000D513882351F4C601B5012FEF3FEF4FE72E
:101BE0005FE70E94CA11181614F0C1E0D0E02197F7
:101BF00039F0C4016DE271E00E94D20CEC0193C097
:101C0000C801B7012FEF3FEF4FE75FE40E946E136B
:101C1000181654F0C801B7012FEF3FEF4FE75FEC04
:101C20000E94CA11882324F4C40161E371E0E4CF67
:101C3000C801B70120E030E040E050E00E94CA1146
:101C400087FD03C0C0E0D0E00EC0D401ED91FC914F
:101C50000190F081E02DC4016DE20995EC0117FBC4
:101C6000109517F9109520E030E040E05FE3DD24A7
:101C70000BC0CA01B90120E030E040E251E40E940B
:101C8000CE119B01AC01D394D71498F3C801B701CE
:101C90000E9466115B016C010E943B127B018C016A
:101CA000C401B801A7012AE030E00E94520DC80F1C
:101CB000D91F772039F0C40165E371E00E94D20C8E
:101CC000C80FD91FC801B7010E9467129B01AC0160
:101CD000C601B5010E94651124C020E030E040E259
:101CE00051E40E9472137B018C010E9436125B0149
:101CF0006C01CC24B7FCC094DC2CC401B601A50156
:101D00002AE030E00E947E0DC80FD91FC601B50140
:101D10000E9469129B01AC01C801B7010E946511C4
:101D20007A947720D1F6CE01DF91CF911F910F9158
:101D3000FF90EF90DF90CF90BF90AF909F908F90EB
:101D40007F900895EF92FF920F931F937C010E9462
:101D5000BE0D8C01C7010E94B20C080F191FC801EB
:101D60001F910F91FF90EF900895EF92FF920F93C4
:101D70001F937C010E94D20C8C01C7010E94B20CFF
:101D8000080F191FC8011F910F91FF90EF90089540
:101D90000E94CD1008950E94301008951F920F9256
:101DA0000FB60F9211248F939F93EF93FF9380911F
:101DB000A0028F5F8093A002EDE6F2E08081918126
:101DC000019691838083FF91EF919F918F910F9066
:101DD0000FBE0F901F901895F8941092800088E124
:101DE000809381008FE79EE3909387008093860025
:101DF00080E280936F0010928500109284007894A6
:101E00000895E1E8F0E08081816080830895EF9299
:101E1000FF921F93CF93DF93EC018BA98823F1F1FD
:101E2000E82EFF241BAA10E036C0412F50E0FA0133
:101E3000EE0FFF1FE40FF51FDF01AA0FBB1FAC0F52
:101E4000BD1F14962D913C9115972E193F0915969B
:101E50003C932E93149712161306E4F03196EE0F6E
:101E6000FF1FEC0FFD1F80819181280F391F1596F0
:101E70003C932E931497CA010196FC01EE0FFF1FAD
:101E8000E80FF91FEE0FFF1FEC0FFD1F0190F0810F
:101E9000E02D09951F5F8AA9181738F2DF91CF91BD
:101EA0001F91FF90EF9008950F931F93CF93DF93AF
:101EB000EC018A014AA910C0F901EE0FFF1FE20FE1
:101EC000F31F3196EE0FFF1FEC0FFD1F86E00D9004
:101ED00001928150E1F741504423A1F0242F30E0DA
:101EE000C9010197DC01AA0FBB1FA80FB91F1196EA
:101EF000AA0FBB1FAC0FBD1F8D919C911197681746
:101F00007907D4F28AA98F5F8AAB242F30E0C90108
:101F10000196FC01EE0FFF1FE80FF91FEE0FFF1FE8
:101F2000EC0FFD1F11830083F901EE0FFF1FE20F7D
:101F3000F31FDF01AA0FBB1FAC0FBD1F15967C93CB
:101F40006E9314973196EE0FFF1FEC0FFD1F7183F8
:101F50006083DF91CF911F910F910895CF93DF930D
:101F6000EC01DB017AA960E0462F50E0FA01EE0FA8
:101F7000FF1FE40FF51F3196EE0FFF1FEC0FFD1F43
:101F80002D913C9111978081918128173907A1F4F7
:101F9000CA010196FC01EE0FFF1FE80FF91FEE0FBB
:101FA000FF1FEC0FFD1F14962D913C91159780811A
:101FB00091812817390719F06F5F7617A8F6671710
:101FC00018F571507AAB1DC0862F90E0DC01AA0F86
:101FD000BB1FA80FB91F1196AA0FBB1F0196FC01CA
:101FE000EE0FFF1FE80FF91F3196EE0FFF1FAC0F2A
:101FF000BD1FEC0FFD1F86E001900D928150E1F7AF
:102000006F5F8AA9681700F3DF91CF910895DF937E
:10201000CF9300D000D000D0CDB7DEB77A836983EC
:102020007C836B835E834D83BE016F5F7F4F0E9415
:10203000AE0F26960FB6F894DEBF0FBECDBFCF9180
:10204000DF910895EFE6F2E011821082138212828E
:1020500015821482369682E0EF39F807A9F70895C1
:102060000F931F93CF93DF93BC018230910510F43F
:1020700062E070E0E091A302F091A402A0E0B0E081
:1020800040E050E024C08081918186179707D0F00E
:102090008617970771F482819381109729F0139620
:1020A0009C938E9312972CC09093A4028093A302CA
:1020B00027C04115510519F08417950718F4EF0151
:1020C0008D01AC01DF01828193819C01F901309780
:1020D000D1F641155105F9F0CA01861B970B8430E2
:1020E000910580F48A819B810115110521F0F80189
:1020F0009383828304C09093A4028093A302FE0181
:10210000329645C0FE01E80FF91F61937193029763
:10211000998388833CC08091A1029091A202892B6F
:1021200041F480913A0190913B019093A2028093F7
:10213000A10240913C0150913D014115510541F4EE
:102140004DB75EB78091380190913901481B590B0A
:102150002091A1023091A20224173507B0F4CA01E0
:10216000821B930B8617970780F0AB014E5F5F4F82
:102170008417950750F0420F531F5093A2024093CB
:10218000A102F9016193719302C0E0E0F0E0CF0198
:10219000DF91CF911F910F910895CF93DF939C0111
:1021A000009709F48FC0EC0122971B821A8260917C
:1021B000A3027091A4026115710581F4888199814F
:1021C000820F931F2091A1023091A2022817390794
:1021D00039F5D093A202C093A10274C0DB0140E0A4
:1021E00050E0AC17BD0708F1BB83AA83FE01219123
:1021F0003191E20FF31FAE17BF0779F48D919C91D7
:102200001197280F391F2E5F3F4F3983288312966D
:102210008D919C9113979B838A834115510571F48D
:10222000D093A402C093A3024DC012968D919C91AD
:102230001397AD01009711F0DC01D3CFDA011396AB
:10224000DC93CE931297FA0121913191E20FF31FA3
:10225000CE17DF0769F488819981280F391F2E5F17
:102260003F4FFA01318320838A819B81938382834C
:10227000E0E0F0E0DB0112968D919C9113970097BE
:1022800019F0BC01FD01F6CFAB014E5F5F4FDB01E2
:102290008D919C91840F951F2091A1023091A202F3
:1022A0002817390779F4309729F41092A402109274
:1022B000A30202C013821282425050405093A202E5
:1022C0004093A102DF91CF9108955058BB27AA27D0
:1022D0000ED0B3C1A4D130F0A9D120F031F49F3F8A
:1022E00011F41EF499C10EF4E095E7FB64C1E92FE7
:1022F000B5D180F3BA17620773078407950718F002
:1023000071F49EF5E4C10EF4E0950B2EBA2FA02DCA
:102310000B01B90190010C01CA01A0011124FF2792
:10232000591B99F0593F50F4503E68F11A16F0408D
:10233000A22F232F342F4427585FF3CF469537958C
:102340002795A795F0405395C9F77EF41F16BA0B51
:10235000620B730B840BBAF09150A1F0FF0FBB1FFF
:10236000661F771F881FC2F70EC0BA0F621F731F48
:10237000841F48F4879577956795B795F7959E3FA5
:1023800008F0B3CF9395880F08F09927EE0F979533
:1023900087950895ECD008F481E008950CD04DC1E4
:1023A00045D140F03CD130F021F45F3F19F003C13A
:1023B00051118EC131C152D198F39923C9F35523DC
:1023C000B1F3951B550BBB27AA2762177307840728
:1023D00038F09F5F5F4F220F331F441FAA1FA9F3DE
:1023E00033D00E2E3AF0E0E830D091505040E695D0
:1023F000001CCAF729D0FE2F27D0660F771F881F31
:10240000BB1F261737074807AB07B0E809F0BB0B1F
:10241000802DBF01FF2793585F4F2AF09E3F510543
:1024200068F0C9C055C15F3FECF3983EDCF3869578
:1024300077956795B795F7959F5FC9F7880F911DB9
:102440009695879597F90895E1E0660F771F881FA5
:10245000BB1F621773078407BA0720F0621B730B58
:10246000840BBA0BEE1F88F7E095089504D06894AA
:10247000B1112EC10895FAD088F09F5790F0B92F6E
:102480009927B751A0F0D1F0660F771F881F991FC9
:102490001AF0BA95C9F712C0B13081F018D1B1E085
:1024A000089515C1672F782F8827B85F39F0B93F95
:1024B000CCF3869577956795B395D9F73EF49095CB
:1024C0008095709561957F4F8F4F9F4F0895E89449
:1024D00009C097FB3EF490958095709561957F4F6C
:1024E0008F4F9F4F9923A9F0F92F96E9BB2793951A
:1024F000F695879577956795B795F111F8CFFAF42A
:10250000BB0F11F460FF1BC06F5F7F4F8F4F9F4F5A
:1025100016C0882311F096E911C0772321F09EE8B8
:10252000872F762F05C0662371F096E8862F70E01E
:1025300060E02AF09A95660F771F881FDAF7880FF8
:102540009695879597F90895ABD080F09F3740F422
:1025500091110EF0BDC060E070E080E89FEB08953F
:1025600026F41B16611D711D811D2BC045C0990FDE
:102570000008550FAA0BE0E8FEEF16161706E8074D
:10258000F907C0F012161306E407F50798F0621B6E
:10259000730B840B950B39F40A2661F0232B242B43
:1025A000252B21F408950A2609F4A140A6958FEF62
:1025B000811D811D089597F99F6780E870E060E0B4
:1025C0000895882371F4772321F09850872B762F74
:1025D00007C0662311F499270DC09051862B70E037
:1025E00060E02AF09A95660F771F881FDAF7880F48
:1025F0009695879597F908959F3F49F0915028F453
:10260000869577956795B7959F5F80389F4F880F20
:102610009695879597F908959FEF80EC089500248B
:102620000A941616170618060906089500240A9437
:1026300012161306140605060895092E0394000CBD
:1026400011F4882352F0BB0F40F4BF2B11F460FF4C
:1026500004C06F5F7F4F8F4F9F4F089557FD905875
:10266000440F551F59F05F3F71F04795880F97FB56
:10267000991F61F09F3F79F0879508951216130610
:102680001406551FF2CF4695F1DF08C0161617063F
:102690001806991FF1CF8695710561050894089574
:1026A000E5DFA0F0BEE7B91788F4BB279F3860F4D8
:1026B0001616B11D672F782F8827985FF7CF86955C
:1026C00077956795B11D93959639C8F30895E89469
:1026D000BB2766277727CB0197F9089548DF08F4D1
:1026E0008FEF08950BD0A9CF9ADF28F09FDF18F065
:1026F000952309F060CF90CF1124EACFAFDFA0F38C
:10270000959FD1F3950F50E0551F629FF001729F86
:10271000BB27F00DB11D639FAA27F00DB11DAA1FA5
:10272000649F6627B00DA11D661F829F2227B00DF2
:10273000A11D621F739FB00DA11D621F839FA00D7D
:10274000611D221F749F3327A00D611D231F849FCD
:10275000600D211D822F762F6A2F11249F57504024
:102760008AF0E1F088234AF0EE0FFF1FBB1F661FBF
:10277000771F881F91505040A9F79E3F510570F078
:102780001ACFA6CF5F3FECF3983EDCF386957795A2
:102790006795B795F795E7959F5FC1F7FE2B880F73
:1027A000911D9695879597F90895E1DE880B990B11
:1027B0000895629FD001739FF001829FE00DF11D8B
:1027C000649FE00DF11D929FF00D839FF00D749FAB
:1027D000F00D659FF00D9927729FB00DE11DF91F57
:1027E000639FB00DE11DF91FBD01CF0111240895B4
:1027F000A1E21A2EAA1BBB1BFD010DC0AA1FBB1F05
:10280000EE1FFF1FA217B307E407F50720F0A21B76
:10281000B30BE40BF50B661F771F881F991F1A94E3
:1028200069F760957095809590959B01AC01BD010D
:10283000CF010895EE0FFF1F0590F491E02D09944C
:1028400010E0CEECD0E004C0FE010E941C142296E1
:0A285000C03DD107C9F7F894FFCF8F
:10285A00436C656172204C6F6F7073004E65772010
:10286A0048697473004F6C64204869747300506F30
:10287A007374204D65726765006E616E00696E66DD
:10288A00006F7666002E00018000A502000000009D
:0E289A000000F20B880C880BB90B990BE20BB7
:00000001FF
