:100000000C9464000C948C000C948C000C948C0068
:100010000C948C000C948C000C948C000C948C0030
:100020000C948C000C948C000C948C000C948C0020
:100030000C948C000C948C000C948C000C948C0010
:100040000C94B2010C948C000C9444030C94920315
:100050000C948C000C948C000C948C000C948C00F0
:100060000C948C000C948C000000000024002700ED
:100070002A0000000000250028002B0000000000DE
:1000800023002600290004040404040404040202DA
:100090000202020203030303030301020408102007
:1000A0004080010204081020010204081020000012
:1000B0000007000201000003040600000000000029
:1000C0000000A800AD00FE0411241FBECFEFD8E051
:1000D000DEBFCDBF11E0A0E0B1E0E8E8F2E102C090
:1000E00005900D92AC31B107D9F711E0ACE1B1E068
:1000F00001C01D92A93DB107E1F710E0C8ECD0E0C6
:1001000004C02297FE010E943E09C23CD107C9F7F4
:100110000E94A3010C9442090C940000FC0181810F
:1001200060E00E94EF020895FC01818161E00E947D
:10013000EF020895FC0180810E948E020895FC0167
:100140008EE0808387E0818361E00E94B0020895A1
:100150008CE191E00E949F00089580EF90E09093E1
:1001600021018093200188E290E090931F01809309
:100170001E0188EC90E090932301809322018CEF84
:1001800093E0909325018093240108954F925F920C
:100190006F927F928F929F92AF92BF92CF92DF9297
:1001A000EF92FF920F931F936C018CE191E00E94FC
:1001B0009A007C01F60162817381882777FD809522
:1001C000982F0E9490072B013C01F60164817581F4
:1001D000882777FD8095982F0E9490074B015C013E
:1001E0000027F7FC0095102FC801B7010E94900767
:1001F0007B018C01F60166817781882777FD8095E8
:10020000982F0E9490079B01AC01C801B7010E9482
:10021000F5069B01AC01C501B4010E9471089B0168
:10022000AC01C301B2010E9490061F910F91FF9093
:10023000EF90DF90CF90BF90AF909F908F907F9086
:100240006F905F904F9008950E94C6009B01AC0193
:1002500060E070E08AE794E40E94F50620E030E078
:1002600040E752E40E94710820E030E040E05FE3A4
:100270000E9491060E94CB070E945D07CB01089562
:100280008F929F92AF92BF92CF92DF92EF92FF92A6
:100290000F931F930EE111E0C8010E94C6004B01AD
:1002A0005C01C8010E94240162E070E00E94F30832
:1002B0007B0197EBC92E91E0D92EC60160E071E079
:1002C0000E947D06C501B4010E945D079B01AC013F
:1002D000C601B9014AE050E00E945E06C60164E032
:1002E00071E00E947D06C601B7014AE050E00E941D
:1002F0005E068CE1C82E81E0D82EC6010E949400D3
:100300000027F7FC0095102FC801B7010E94FA01E1
:10031000C6010E948E00C801B7010E94FA011F9118
:100320000F91FF90EF90DF90CF90BF90AF909F9094
:100330008F90089587EB91E040E855E260E070E02F
:100340000E94CD030895CF93DF930E9453020E9431
:100350009A01CFE7D3E00E9440012097E1F30E9489
:100360007F03F9CF1F920F920FB60F9211242F9394
:100370003F938F939F93AF93BF9380912A01909166
:100380002B01A0912C01B0912D0130912E010196ED
:10039000A11DB11D232F2D5F2D3720F02D57019664
:1003A000A11DB11D20932E0180932A0190932B0152
:1003B000A0932C01B0932D018091260190912701EB
:1003C000A0912801B09129010196A11DB11D809332
:1003D000260190932701A0932801B0932901BF9192
:1003E000AF919F918F913F912F910F900FBE0F90E2
:1003F0001F9018959B01AC017FB7F894809126015E
:1004000090912701A0912801B091290166B5A89B80
:1004100005C06F3F19F00196A11DB11D7FBFBA2F16
:10042000A92F982F8827860F911DA11DB11D62E06D
:10043000880F991FAA1FBB1F6A95D1F7BC012DC059
:10044000FFB7F8948091260190912701A09128018F
:10045000B0912901E6B5A89B05C0EF3F19F00196C0
:10046000A11DB11DFFBFBA2FA92F982F88278E0F6E
:10047000911DA11DB11DE2E0880F991FAA1FBB1F8E
:10048000EA95D1F7861B970B885E9340C8F22150FE
:1004900030404040504068517C4F211531054105A6
:1004A000510571F60895789484B5826084BD84B551
:1004B000816084BD85B5826085BD85B5816085BD5F
:1004C000EEE6F0E0808181608083E1E8F0E0108278
:1004D000808182608083808181608083E0E8F0E0B9
:1004E000808181608083E1EBF0E0808184608083A3
:1004F000E0EBF0E0808181608083EAE7F0E08081DA
:100500008460808380818260808380818160808339
:100510008081806880831092C1000895982F8E306A
:1005200008F09E50977080910A018295880F880F7D
:10053000807C892B80937C0080917A0080648093FA
:100540007A0080917A0086FDFCCF2091780040915E
:100550007900942F80E030E0282B392BC9010895D1
:10056000CF93DF93482F50E0CA0186569F4FFC017E
:1005700034914A575F4FFA018491882369F190E0E2
:10058000880F991FFC01E859FF4FA591B491FC0118
:10059000EE58FF4FC591D491662351F42FB7F894CC
:1005A0008C91932F909589238C93888189230BC0FC
:1005B000623061F42FB7F8948C91932F9095892332
:1005C0008C938881832B88832FBF06C09FB7F894B4
:1005D0008C91832B8C939FBFDF91CF910895482FEF
:1005E00050E0CA0182559F4FFC012491CA018656F2
:1005F0009F4FFC0194914A575F4FFA013491332386
:1006000009F440C0222351F1233071F0243028F442
:100610002130A1F0223011F514C02630B1F027307E
:10062000C1F02430D9F404C0809180008F7703C0DA
:10063000809180008F7D8093800010C084B58F777B
:1006400002C084B58F7D84BD09C08091B0008F77D2
:1006500003C08091B0008F7D8093B000E32FF0E065
:10066000EE0FFF1FEE58FF4FA591B4912FB7F894EE
:10067000662321F48C919095892302C08C91892B5B
:100680008C932FBF089508951F920F920FB60F926B
:1006900011242F933F934F938F939F93EF93FF9347
:1006A0008091C00082FD1DC04091C60020916F0165
:1006B000309170012F5F3F4F2F7330708091710127
:1006C000909172012817390771F0E0916F01F09154
:1006D0007001E15DFE4F40833093700120936F0104
:1006E00002C08091C600FF91EF919F918F914F9131
:1006F0003F912F910F900FBE0F901F901895E09192
:10070000C301F091C401E05CFF4F81919191208180
:100710003181821B930B8F739070892B11F00E9493
:10072000430308951F920F920FB60F9211242F9337
:100730003F938F939F93EF93FF932091B301309159
:10074000B4018091B5019091B6012817390731F4B1
:100750008091C1008F7D8093C10014C0E091B501EC
:10076000F091B601ED58FE4F20818091B501909136
:10077000B60101968F7390709093B6018093B50186
:100780002093C600FF91EF919F918F913F912F9100
:100790000F900FBE0F901F901895AF92BF92DF92EF
:1007A000EF92FF920F931F93CF93DF93EC017A01A7
:1007B0008B01DD24403081EE580780E0680780E03F
:1007C000780711F0DD24D39491E0A92EB12CEC89A7
:1007D000FD89DD2069F0C50108A002C0880F991FBE
:1007E0000A94E2F7808360E079E08DE390E005C051
:1007F000108260E874E88EE190E0A80197010E9401
:100800000609215030404040504056954795379555
:10081000279580E12030380720F0DD2011F0DD241D
:10082000D6CFE889F9893083EA89FB89208319A228
:10083000EE89FF89408121E030E0C9010C8C02C0C3
:10084000880F991F0A94E2F7482B4083EE89FF89AD
:100850004081C9010D8C02C0880F991F0A94E2F7EC
:10086000482B4083EE89FF894081C9010E8C02C06C
:10087000880F991F0A94E2F7482B4083EE89FF897D
:1008800080810F8C02C0220F331F0A94E2F720955B
:1008900028232083DF91CF911F910F91FF90EF903C
:1008A000DF90BF90AF900895DC011C96ED91FC9114
:1008B0001D97E05CFF4F2191319180819181281B30
:1008C000390B2F733070C9010895DC011C96ED912E
:1008D000FC911D97E05CFF4F20813181E054F04096
:1008E000DF01AE5BBF4F8D919C911197281739079F
:1008F00019F42FEF3FEF07C08D919C91E80FF91F7E
:100900008081282F30E0C9010895DC011C96ED910B
:10091000FC911D97E05CFF4F20813181E054F04055
:10092000DF01AE5BBF4F8D919C911197281739075E
:1009300019F42FEF3FEF10C08D919C911197E80FA4
:10094000F91F20818D919C91119701968F73907062
:1009500011969C938E9330E0C9010895DC01919625
:100960008C919197882339F05496ED91FC9155978D
:10097000808186FFF9CF91961C920895CF93DF93E3
:10098000EC01EE85FF85E05CFF4F20813181E05472
:10099000F0402F5F3F4F2F733070DF01AE5BBF4FD2
:1009A0008D919C91119728173907D1F3E05CFF4F87
:1009B00080819181E054F040E80FF91F6083EE855B
:1009C000FF85E05CFF4F31832083EE89FF89208122
:1009D00081E090E00F8C02C0880F991F0A94E2F723
:1009E000282B208381E089A3EC89FD8980818064A4
:1009F000808381E090E0DF91CF9108951092BA0159
:100A00001092B90188EE93E0A0E0B0E08093BB01C2
:100A10009093BC01A093BD01B093BE018FE091E023
:100A20009093B8018093B7018FE291E09093C40155
:100A30008093C30183E791E09093C6018093C50141
:100A400085EC90E09093C8018093C70184EC90E01E
:100A50009093CA018093C90180EC90E09093CC01FF
:100A60008093CB0181EC90E09093CE018093CD01F7
:100A700082EC90E09093D0018093CF0186EC90E0DF
:100A80009093D2018093D10184E08093D30183E0DD
:100A90008093D40187E08093D50185E08093D601CF
:100AA00081E08093D7010895CF92DF92EF92FF9279
:100AB0000F931F93CF93DF937C016B018A01C0E0FA
:100AC000D0E00FC0D6016D916D01D701ED91FC9181
:100AD0000190F081E02DC7010995C80FD91F015081
:100AE00010400115110571F7CE01DF91CF911F91D3
:100AF0000F91FF90EF90DF90CF900895EF92FF92CB
:100B00000F931F938C01DC01ED91FC910190F0811A
:100B1000E02D6DE009957C01D801ED91FC910190EB
:100B2000F081E02DC8016AE009959C012E0D3F1D62
:100B3000C9011F910F91FF90EF900895CF93DF931C
:100B4000EC016115710519F420E030E00FC0DB0104
:100B50000D900020E9F71197A61BB70BE881F981EA
:100B60000280F381E02DAD0109959C01C901DF915F
:100B7000CF9108954F925F927F928F929F92AF9202
:100B8000BF92CF92DF92EF92FF920F931F93DF936A
:100B9000CF93CDB7DEB7A1970FB6F894DEBF0FBEE7
:100BA000CDBF2C01742ECB01223008F42AE019A20B
:100BB00031E2C32ED12CCC0EDD1E822E9924AA2424
:100BC000BB24672D752FA50194010E9406097901A8
:100BD0008A01C801B701A50194010E94D408472DDC
:100BE000461B0894C108D1084A3014F4405D01C086
:100BF000495CF6014083E114F1040105110521F07F
:100C00007E2C5F2DC801DDCFC201B6010E949E057A
:100C1000A1960FB6F894DEBF0FBECDBFCF91DF9186
:100C20001F910F91FF90EF90DF90CF90BF90AF900A
:100C30009F908F907F905F904F900895CF92DF921A
:100C4000EF92FF920F931F93CF93DF93EC016A0112
:100C50007B012115310541F4E881F9810190F08192
:100C6000E02D642F09951FC02A303105D1F477FF9C
:100C700017C0E881F9810190F081E02D6DE20995BE
:100C80008C0144275527BA014C195D096E097F096B
:100C9000CE012AE00E94BA059801280F391F04C02E
:100CA0002AE00E94BA059C01C901DF91CF911F91F2
:100CB0000F91FF90EF90DF90CF900895CF92DF9249
:100CC000EF92FF920F931F936C017B019A01002713
:100CD000F7FC0095102FB801A7010E941E068C0199
:100CE000C6010E947E05080F191FC8011F910F91B0
:100CF000FF90EF90DF90CF900895EF92FF920F93C7
:100D00001F937C010E949E058C01C7010E947E05F5
:100D1000080F191FC8011F910F91FF90EF900895C0
:100D20005058BB27AA270ED08BC17CD130F081D17F
:100D300020F031F49F3F11F41EF471C10EF4E095E0
:100D4000E7FB3CC1E92F8DD180F3BA176207730727
:100D50008407950718F071F49EF5BCC10EF4E09578
:100D60000B2EBA2FA02D0B01B90190010C01CA0165
:100D7000A0011124FF27591B99F0593F50F4503E10
:100D800068F11A16F040A22F232F342F4427585F02
:100D9000F3CF469537952795A795F0405395C9F71A
:100DA0007EF41F16BA0B620B730B840BBAF09150D2
:100DB000A1F0FF0FBB1F661F771F881FC2F70EC071
:100DC000BA0F621F731F841F48F487957795679544
:100DD000B795F7959E3F08F0B3CF9395880F08F02D
:100DE0009927EE0F9795879508950CD029C121D1A9
:100DF00040F018D130F021F45F3F19F0DFC05111FD
:100E00006AC10DC12ED198F39923C9F35523B1F3CB
:100E1000951B550BBB27AA2762177307840738F069
:100E20009F5F5F4F220F331F441FAA1FA9F333D0C8
:100E30000E2E3AF0E0E830D091505040E695001C7C
:100E4000CAF729D0FE2F27D0660F771F881FBB1F38
:100E5000261737074807AB07B0E809F0BB0B802D12
:100E6000BF01FF2793585F4F2AF09E3F510568F05E
:100E7000A5C031C15F3FECF3983EDCF386957795D2
:100E80006795B795F7959F5FC9F7880F911D969560
:100E9000879597F90895E1E0660F771F881FBB1FBC
:100EA000621773078407BA0720F0621B730B840B69
:100EB000BA0BEE1F88F7E095089504D06894B1113D
:100EC0000AC10895D6D088F09F5790F0B92F99277E
:100ED000B751A0F0D1F0660F771F881F991F1AF045
:100EE000BA95C9F712C0B13081F0F4D0B1E00895DD
:100EF000F1C0672F782F8827B85F39F0B93FCCF35E
:100F0000869577956795B395D9F73EF4909580953A
:100F1000709561957F4F8F4F9F4F0895E89409C05A
:100F200097FB3EF490958095709561957F4F8F4F1C
:100F30009F4F9923A9F0F92F96E9BB279395F69532
:100F4000879577956795B795F111F8CFFAF4BB0FB0
:100F500011F460FF1BC06F5F7F4F8F4F9F4F16C014
:100F6000882311F096E911C0772321F09EE8872F9E
:100F7000762F05C0662371F096E8862F70E060E05A
:100F80002AF09A95660F771F881FDAF7880F9695D3
:100F9000879597F9089587D080F09F3740F4911195
:100FA0000EF099C060E070E080E89FEB089526F4B1
:100FB0001B16611D711D811D07C021C097F99F6718
:100FC00080E870E060E00895882371F4772321F0D1
:100FD0009850872B762F07C0662311F499270DC0F0
:100FE0009051862B70E060E02AF09A95660F771F8B
:100FF000881FDAF7880F9695879597F908959F3F90
:1010000049F0915028F4869577956795B7959F5F3D
:1010100080389F4F880F9695879597F908959FEF91
:1010200080EC089500240A9416161706180609067F
:10103000089500240A94121613061406050608954E
:10104000092E0394000C11F4882352F0BB0F40F4D6
:10105000BF2B11F460FF04C06F5F7F4F8F4F9F4F16
:10106000089557FD9058440F551F59F05F3F71F098
:101070004795880F97FB991F61F09F3F79F08795FF
:101080000895121613061406551FF2CF4695F1DF88
:1010900008C0161617061806991FF1CF8695710518
:1010A000610508940895E5DFA0F0BEE7B91788F45C
:1010B000BB279F3860F41616B11D672F782F88273D
:1010C000985FF7CF869577956795B11D939596397B
:1010D000C8F30895E894BB2766277727CB0197F9D3
:1010E00008950BD0ADCF9EDF28F0A3DF18F0952335
:1010F00009F064CF94CF1124EECFB3DFA0F3959F16
:10110000D1F3950F50E0551F629FF001729FBB27EE
:10111000F00DB11D639FAA27F00DB11DAA1F649F9A
:101120006627B00DA11D661F829F2227B00DA11D4D
:10113000621F739FB00DA11D621F839FA00D611DD3
:10114000221F749F3327A00D611D231F849F600DF4
:10115000211D822F762F6A2F11249F5750408AF02D
:10116000E1F088234AF0EE0FFF1FBB1F661F771FB9
:10117000881F91505040A9F79E3F510570F01ECF37
:10118000AACF5F3FECF3983EDCF3869577956795A1
:10119000B795F795E7959F5FC1F7FE2B880F911DD7
:1011A0009695879597F90895629FD001739FF001F6
:1011B000829FE00DF11D649FE00DF11D929FF00DE7
:1011C000839FF00D749FF00D659FF00D9927729F1E
:1011D000B00DE11DF91F639FB00DE11DF91FBD01A9
:1011E000CF011124089597FB092E07260AD077FD19
:1011F00004D02ED006D000201AF4709561957F4F50
:101200000895F6F7909581959F4F0895A1E21A2EC3
:10121000AA1BBB1BFD010DC0AA1FBB1FEE1FFF1F9A
:10122000A217B307E407F50720F0A21BB30BE40BEA
:10123000F50B661F771F881F991F1A9469F7609531
:101240007095809590959B01AC01BD01CF010895EB
:10125000AA1BBB1B51E107C0AA1FBB1FA617B707DC
:1012600010F0A61BB70B881F991F5A95A9F78095F8
:101270009095BC01CD010895EE0FFF1F0590F491EC
:08128000E02D0994F894FFCF62
:1012880042504D0044656C6179000100000000BEC9
:0C129800045405540485046504AE0400F1
:00000001FF
