:100000000C9467000C948F000C948F000C948F005C
:100010000C948F000C948F000C948F000C948F0024
:100020000C948F000C948F000C943D080C948F005E
:100030000C948F000C948F000C948F000C948F0004
:100040000C9465030C948F000C94F1040C943F0500
:100050000C948F000C948F000C948F000C948F00E4
:100060000C948F000C948F000000000024002700E7
:100070002A0000000000250028002B0000000000DE
:1000800023002600290004040404040404040202DA
:100090000202020203030303030301020408102007
:1000A0004080010204081020010204081020000012
:1000B0000007000201000003040600000000000029
:1000C0000000E400BA01EE02F702AB069109112428
:1000D0001FBECFEFD8E0DEBFCDBF11E0A0E0B1E0A2
:1000E000E8E5F8E102C005900D92A835B107D9F70F
:1000F00012E0A8E5B1E001C01D92A237B107E1F717
:1001000010E0CEECD0E004C02297FE010E94260C45
:10011000C23CD107C9F70E9456030C942A0C0C94D8
:100120000000862F60E00E9449040895862F61E058
:100130000E9449040895FC01858160E00E94490401
:10014000089588E591E00E949B008EE392E064E1CF
:1001500070E041EA50E00E9476090895FC01858133
:1001600061E00E944904089588E591E00E94AE0094
:100170008EE392E064E170E041EA50E00E94C3083F
:1001800008950E94B4000895862F0E949D0408954A
:10019000FC0184810E94E80308950F931F938C0152
:1001A0008EE0F801848387E0858361E00E940A0481
:1001B00088E090E0F8019183808388EC90E093835D
:1001C00082831F910F91089588E591E00E94CD00F0
:1001D00008950895CF93DF93EC0188E591E06D8158
:1001E0000E94C400892B31F48881882319F481E0AE
:1001F0008B8388838B81882349F088E591E06C812B
:100200000E9496001B821F821E821FC08881882345
:10021000B9F088E591E06C810E94960080915801C8
:10022000909159012E813F81820F931F9F838E836E
:1002300029813A818217930744F018821F821E8217
:1002400088E591E06C810E949100DF91CF91089543
:100250000F931F938C01822FF801728361831082A8
:100260001382248345831782168261E00E940A0468
:10027000F801858160E00E940A041F910F910895A2
:100280004F925F926F927F928F929F92AF92BF92A6
:10029000CF92DF92EF92FF920F931F936C0188E54C
:1002A00091E00E94C8007C01F60163817481882777
:1002B00077FD8095982F0E949F0A2B013C01F60143
:1002C00065817681882777FD8095982F0E949F0A07
:1002D0004B015C010027F7FC0095102FC801B70106
:1002E0000E949F0A7B018C01F60167817085882737
:1002F00077FD8095982F0E949F0A9B01AC01C80151
:10030000B7010E94040A9B01AC01C501B4010E941F
:10031000800B9B01AC01C301B2010E949F091F9198
:100320000F91FF90EF90DF90CF90BF90AF909F9094
:100330008F907F906F905F904F9008950E94400142
:100340009B01AC0160E070E08AE794E40E94040A3B
:1003500020E030E040E752E40E94800B20E030E0F3
:1003600040E05FE30E94A0090E94DA0A0E946C0A42
:10037000CB01089580EF90E090936201809361013A
:1003800088E290E09093600180935F0188EC90E0B8
:1003900090936401809363018CEF93E090936601E6
:1003A00080936501EEE5F1E01082CF010E949E018D
:1003B00090936A01809369010895CF93DF938091B0
:1003C0006701909168012091580130915901820F85
:1003D000931F909368018093670110925E018EE5F0
:1003E00091E00E949E01EC0180916701909168016B
:1003F000C817D9075CF488E591E00E94C10081E04C
:1004000080935E011092680110926701D0936A0197
:10041000C0936901DF91CF910895CF93DF93EC01F1
:100420008A859B85892B29F588E591E068850E945E
:10043000C400892BF1F48A859B8520915801309165
:100440005901820F931F9B878A8781E00FC01B860B
:100450001A860BC01216130644F48091580190912D
:100460005901820F931F9B878A8780E0DF91CF918C
:1004700008952A853B8580915A0190915B01281748
:10048000390744F3E4CFCF93DF93EC018E819F8152
:10049000892B29F588E591E06C810E94C400892BA5
:1004A000F1F48E819F812091580130915901820F82
:1004B000931F9F838E8381E00FC01F821E820BC01B
:1004C0001216130644F48091580190915901820F3D
:1004D000931F9F838E8380E0DF91CF9108952E81BB
:1004E0003F8180915A0190915B012817390744F3AD
:1004F000E4CFFC011586178616868CE192E060E059
:1005000071E00E942A080895FC01148681E0858725
:100510008CE192E06FE071E00E942A080895FC01EE
:100520008485882361F48585882361F481E084874C
:100530008CE192E062E271E00E942A080895CF0106
:100540000E9484020895CF93DF93EC010E9443023E
:10055000882319F0CE010E948F02CE010E940D0265
:10056000882319F0CE010E9479028C858823B9F086
:1005700080915E01882399F08E859F8501969F87E3
:100580008E878CE192E066E371E00E942A086E8516
:100590007F858CE192E04AE050E00E940B08DF91F9
:1005A000CF9108950F931F938C01862FF8016483D8
:1005B00075835187408760E00E940A04F8018085B6
:1005C00060E00E940A04F8011386128617821682E0
:1005D0001586178616861F910F9108958BE691E078
:1005E00066E070E045E050E00E94D20208958BE79B
:1005F00091E00E94E90083E891E00E94E9000895FB
:100600008EE392E00E947608089583E891E00E94CC
:10061000EA0008958BE791E00E94EA0008950E94A5
:10062000DD018BE691E00E94A30208950F931F93D2
:100630008CE192E040E855E260E070E00E947A05CB
:100640008BE791E064E670E04AE029E00E9428012F
:1006500083E891E064E670E04DE02CE00E94280120
:100660000EE312E0C8010E945B086091580170918E
:100670005901C8014FE053E00E94C308609158013E
:1006800070915901C8014AE053E00E94C30860918B
:10069000580170915901C80145E053E00E94C30818
:1006A000C8010E9470081F910F910895CF93DF93A6
:1006B0000E94AD030E941603CCE2D5E00E94000325
:1006C0002097E1F30E942C05F9CF1F920F920FB6ED
:1006D0000F9211242F933F938F939F93AF93BF93C8
:1006E00080918F0190919001A0919101B091920120
:1006F000309193010196A11DB11D232F2D5F2D3740
:1007000020F02D570196A11DB11D209393018093D8
:100710008F0190939001A0939101B09392018091E9
:100720008B0190918C01A0918D01B0918E01019669
:10073000A11DB11D80938B0190938C01A0938D011D
:10074000B0938E01BF91AF919F918F913F912F9167
:100750000F900FBE0F901F901895789484B582600B
:1007600084BD84B5816084BD85B5826085BD85B555
:10077000816085BDEEE6F0E0808181608083E1E804
:10078000F0E010828081826080838081816080833C
:10079000E0E8F0E0808181608083E1EBF0E080813F
:1007A00084608083E0EBF0E0808181608083EAE711
:1007B000F0E080818460808380818260808380819A
:1007C000816080838081806880831092C100089559
:1007D000982F8E3008F09E50977080914601829538
:1007E000880F880F807C892B80937C0080917A0011
:1007F000806480937A0080917A0086FDFCCF2091FE
:10080000780040917900942F80E030E0282B392B3C
:10081000C9010895CF93DF93482F50E0CA0186564F
:100820009F4FFC0134914A575F4FFA01849188230E
:1008300069F190E0880F991FFC01E859FF4FA591DD
:10084000B491FC01EE58FF4FC591D491662351F449
:100850002FB7F8948C91932F909589238C9388814E
:1008600089230BC0623061F42FB7F8948C91932FD9
:10087000909589238C938881832B88832FBF06C012
:100880009FB7F8948C91832B8C939FBFDF91CF916E
:100890000895482F50E0CA0182559F4FFC012491D2
:1008A000CA0186569F4FFC0194914A575F4FFA0147
:1008B0003491332309F440C0222351F1233071F0E5
:1008C000243028F42130A1F0223011F514C0263054
:1008D000B1F02730C1F02430D9F404C080918000F9
:1008E0008F7703C0809180008F7D8093800010C03F
:1008F00084B58F7702C084B58F7D84BD09C0809197
:10090000B0008F7703C08091B0008F7D8093B000DE
:10091000E32FF0E0EE0FFF1FEE58FF4FA591B491CB
:100920002FB7F894662321F48C919095892302C007
:100930008C91892B8C932FBF0895682F70E0CB0189
:1009400082559F4FFC012491CB0186569F4FFC019D
:1009500044916A577F4FFB019491992319F420E049
:1009600030E03CC0222351F1233071F0243028F4D0
:100970002130A1F0223011F514C02630B1F027301B
:10098000C1F02430D9F404C0809180008F7703C077
:10099000809180008F7D8093800010C084B58F7718
:1009A00002C084B58F7D84BD09C08091B0008F776F
:1009B00003C08091B0008F7D8093B000892F90E0BC
:1009C000880F991F84589F4FFC01A591B4918C9179
:1009D00020E030E0842311F021E030E0C9010895E7
:1009E00008951F920F920FB60F9211242F933F93E9
:1009F0004F938F939F93EF93FF938091C00082FD5D
:100A00001DC04091C6002091D4013091D5012F5FC7
:100A10003F4F2F7330708091D6019091D7012817E6
:100A2000390771F0E091D401F091D501EC56FE4FF9
:100A300040833093D5012093D40102C08091C60039
:100A4000FF91EF919F918F914F913F912F910F9037
:100A50000FBE0F901F901895E0912802F091290287
:100A6000E05CFF4F8191919120813181821B930B3A
:100A70008F739070892B11F00E94F00408951F92DB
:100A80000F920FB60F9211242F933F938F939F9342
:100A9000EF93FF93209118023091190280911A026E
:100AA00090911B022817390731F48091C1008F7D86
:100AB0008093C10014C0E0911A02F0911B02E85229
:100AC000FE4F208180911A0290911B0201968F7334
:100AD000907090931B0280931A022093C600FF919E
:100AE000EF919F918F913F912F910F900FBE0F909B
:100AF0001F901895AF92BF92DF92EF92FF920F93E3
:100B00001F93CF93DF93EC017A018B01DD244030FA
:100B100081EE580780E0680780E0780711F0DD2457
:100B2000D39491E0A92EB12CEC89FD89DD2069F0E8
:100B3000C50108A002C0880F991F0A94E2F78083BC
:100B400060E079E08DE390E005C0108260E874E831
:100B50008EE190E0A80197010E94020C21503040E4
:100B600040405040569547953795279580E1203075
:100B7000380720F0DD2011F0DD24D6CFE889F9898F
:100B80003083EA89FB89208319A2EE89FF8940819D
:100B900021E030E0C9010C8C02C0880F991F0A9433
:100BA000E2F7482B4083EE89FF894081C9010D8C13
:100BB00002C0880F991F0A94E2F7482B4083EE8900
:100BC000FF894081C9010E8C02C0880F991F0A94C9
:100BD000E2F7482B4083EE89FF8980810F8C02C0A9
:100BE000220F331F0A94E2F7209528232083DF91F8
:100BF000CF911F910F91FF90EF90DF90BF90AF903A
:100C00000895DC011C96ED91FC911D97E05CFF4F6F
:100C10002191319180819181281B390B2F73307084
:100C2000C9010895DC011C96ED91FC911D97E05CD3
:100C3000FF4F20813181E054F040DF01AE5BBF4FB8
:100C40008D919C9111972817390719F42FEF3FEFD9
:100C500007C08D919C91E80FF91F8081282F30E00B
:100C6000C9010895DC011C96ED91FC911D97E05C93
:100C7000FF4F20813181E054F040DF01AE5BBF4F78
:100C80008D919C9111972817390719F42FEF3FEF99
:100C900010C08D919C911197E80FF91F20818D91C3
:100CA0009C91119701968F73907011969C938E93DF
:100CB00030E0C9010895DC0191968C9191978823C9
:100CC00039F05496ED91FC915597808186FFF9CFCC
:100CD00091961C920895CF93DF93EC01EE85FF85EA
:100CE000E05CFF4F20813181E054F0402F5F3F4FA7
:100CF0002F733070DF01AE5BBF4F8D919C911197C8
:100D000028173907D1F3E05CFF4F80819181E054CF
:100D1000F040E80FF91F6083EE85FF85E05CFF4F30
:100D200031832083EE89FF89208181E090E00F8C60
:100D300002C0880F991F0A94E2F7282B208381E0D4
:100D400089A3EC89FD8980818064808381E090E0C3
:100D5000DF91CF91089510921F0210921E0288EE2B
:100D600093E0A0E0B0E08093200290932102A09352
:100D70002202B09323028BE491E090931D028093B2
:100D80001C0284E991E0909329028093280288ED67
:100D900091E090932B0280932A0285EC90E090934F
:100DA0002D0280932C0284EC90E090932F0280938C
:100DB0002E0280EC90E0909331028093300281EC1F
:100DC00090E0909333028093320282EC90E0909313
:100DD00035028093340286EC90E090933702809342
:100DE000360284E08093380283E08093390287E002
:100DF00080933A0285E080933B0281E080933C023D
:100E00000895CF92DF92EF92FF920F931F93CF93AB
:100E1000DF937C016B018A01C0E0D0E00FC0D601F6
:100E20006D916D01D701ED91FC910190F081E02D64
:100E3000C7010995C80FD91F0150104001151105B0
:100E400071F7CE01DF91CF911F910F91FF90EF903D
:100E5000DF90CF900895EF92FF920F931F938C0134
:100E6000DC01ED91FC910190F081E02D6DE00995A0
:100E70007C01D801ED91FC910190F081E02DC80139
:100E80006AE009959C012E0D3F1DC9011F910F912C
:100E9000FF90EF900895CF93DF93EC0161157105FA
:100EA00019F420E030E00FC0DB010D900020E9F7DD
:100EB0001197A61BB70BE881F9810280F381E02D21
:100EC000AD0109959C01C901DF91CF9108954F9221
:100ED0005F927F928F929F92AF92BF92CF92DF925A
:100EE000EF92FF920F931F93DF93CF93CDB7DEB7AF
:100EF000A1970FB6F894DEBF0FBECDBF2C01742EA4
:100F0000CB01223008F42AE019A231E2C32ED12C01
:100F1000CC0EDD1E822E9924AA24BB24672D752FAA
:100F2000A50194010E94020C79018A01C801B70150
:100F3000A50194010E94E30B472D461B0894C108AC
:100F4000D1084A3014F4405D01C0495CF601408389
:100F5000E114F1040105110521F07E2C5F2DC8017B
:100F6000DDCFC201B6010E944B07A1960FB6F894DF
:100F7000DEBF0FBECDBFCF91DF911F910F91FF90CC
:100F8000EF90DF90CF90BF90AF909F908F907F9029
:100F90005F904F900895CF92DF92EF92FF920F9360
:100FA0001F93CF93DF93EC016A017B01211531057B
:100FB00041F4E881F9810190F081E02D642F0995D9
:100FC0001FC02A303105D1F477FF17C0E881F981BD
:100FD0000190F081E02D6DE209958C0144275527A1
:100FE000BA014C195D096E097F09CE012AE00E9401
:100FF00067079801280F391F04C02AE00E9467077D
:101000009C01C901DF91CF911F910F91FF90EF904B
:10101000DF90CF900895CF92DF92EF92FF920F93DF
:101020001F936C017B019A010027F7FC0095102F9C
:10103000B801A7010E94CB078C01C6010E942B07B3
:10104000080F191FC8011F910F91FF90EF90DF90BB
:10105000CF900895EF92FF920F931F937C010E940F
:101060004B078C01C7010E942B07080F191FC801ED
:101070001F910F91FF90EF9008951F920F920FB65E
:101080000F9211248F939F93EF93FF93809171029E
:101090008F5F80937102EEE3F2E08081918101968F
:1010A00091838083FF91EF919F918F910F900FBE5D
:1010B0000F901F901895F8941092800088E180930B
:1010C00081008FE79EE3909387008093860080E203
:1010D00080936F0010928500109284007894089598
:1010E000E1E8F0E08081816080830895EF92FF92D3
:1010F0001F93CF93DF93EC018BA98823F1F1E82EA6
:10110000FF241BAA10E036C0412F50E0FA01EE0F79
:10111000FF1FE40FF51FDF01AA0FBB1FAC0FBD1FA0
:1011200014962D913C9115972E193F0915963C93D5
:101130002E93149712161306E4F03196EE0FFF1F4C
:10114000EC0FFD1F80819181280F391F15963C936C
:101150002E931497CA010196FC01EE0FFF1FE80FB2
:10116000F91FEE0FFF1FEC0FFD1F0190F081E02D26
:1011700009951F5F8AA9181738F2DF91CF911F9147
:10118000FF90EF9008950F931F93CF93DF93EC019F
:101190008A014AA910C0F901EE0FFF1FE20FF31FE9
:1011A0003196EE0FFF1FEC0FFD1F86E00D900192B0
:1011B0008150E1F741504423A1F0242F30E0C901D0
:1011C0000197DC01AA0FBB1FA80FB91F1196AA0F28
:1011D000BB1FAC0FBD1F8D919C91119768177907AC
:1011E000D4F28AA98F5F8AAB242F30E0C90101961F
:1011F000FC01EE0FFF1FE80FF91FEE0FFF1FEC0FB2
:10120000FD1F11830083F901EE0FFF1FE20FF31F93
:10121000DF01AA0FBB1FAC0FBD1F15967C936E9309
:1012200014973196EE0FFF1FEC0FFD1F7183608343
:10123000DF91CF911F910F910895CF93DF93EC0130
:10124000DB017AA960E0462F50E0FA01EE0FFF1FA4
:10125000E40FF51F3196EE0FFF1FEC0FFD1F2D91D0
:101260003C9111978081918128173907A1F4CA0117
:101270000196FC01EE0FFF1FE80FF91FEE0FFF1F95
:10128000EC0FFD1F14962D913C9115978081918153
:101290002817390719F06F5F7617A8F6671718F542
:1012A00071507AAB1DC0862F90E0DC01AA0FBB1FE6
:1012B000A80FB91F1196AA0FBB1F0196FC01EE0FD4
:1012C000FF1FE80FF91F3196EE0FFF1FAC0FBD1F78
:1012D000EC0FFD1F86E001900D928150E1F76F5FEA
:1012E0008AA9681700F3DF91CF910895DF93CF9318
:1012F00000D000D000D0CDB7DEB77A8369837C837D
:101300006B835E834D83BE016F5F7F4F0E941D091B
:1013100026960FB6F894DEBF0FBECDBFCF91DF91FA
:101320000895E0E4F2E011821082138212821582A5
:101330001482369682E0E037F807A9F708955058EE
:10134000BB27AA270ED08BC17CD130F081D120F0F1
:1013500031F49F3F11F41EF471C10EF4E095E7FBE8
:101360003CC1E92F8DD180F3BA1762077307840758
:10137000950718F071F49EF5BCC10EF4E0950B2EA4
:10138000BA2FA02D0B01B90190010C01CA01A001D7
:101390001124FF27591B99F0593F50F4503E68F132
:1013A0001A16F040A22F232F342F4427585FF3CF73
:1013B000469537952795A795F0405395C9F77EF444
:1013C0001F16BA0B620B730B840BBAF09150A1F08D
:1013D000FF0FBB1F661F771F881FC2F70EC0BA0F13
:1013E000621F731F841F48F4879577956795B7959B
:1013F000F7959E3F08F0B3CF9395880F08F0992793
:10140000EE0F9795879508950CD029C121D140F012
:1014100018D130F021F45F3F19F0DFC051116AC1DB
:101420000DC12ED198F39923C9F35523B1F3951B20
:10143000550BBB27AA2762177307840738F09F5FF5
:101440005F4F220F331F441FAA1FA9F333D00E2E64
:101450003AF0E0E830D091505040E695001CCAF7D1
:1014600029D0FE2F27D0660F771F881FBB1F261796
:1014700037074807AB07B0E809F0BB0B802DBF0169
:10148000FF2793585F4F2AF09E3F510568F0A5C093
:1014900031C15F3FECF3983EDCF386957795679515
:1014A000B795F7959F5FC9F7880F911D969587951A
:1014B00097F90895E1E0660F771F881FBB1F621739
:1014C00073078407BA0720F0621B730B840BBA0BF7
:1014D000EE1F88F7E095089504D06894B1110AC111
:1014E0000895D6D088F09F5790F0B92F9927B7511B
:1014F000A0F0D1F0660F771F881F991F1AF0BA95D8
:10150000C9F712C0B13081F0F4D0B1E00895F1C054
:10151000672F782F8827B85F39F0B93FCCF38695CD
:1015200077956795B395D9F73EF49095809570952A
:1015300061957F4F8F4F9F4F0895E89409C097FBA7
:101540003EF490958095709561957F4F8F4F9F4F9A
:101550009923A9F0F92F96E9BB279395F6958795DE
:1015600077956795B795F111F8CFFAF4BB0F11F4A1
:1015700060FF1BC06F5F7F4F8F4F9F4F16C0882348
:1015800011F096E911C0772321F09EE8872F762F7E
:1015900005C0662371F096E8862F70E060E02AF0BF
:1015A0009A95660F771F881FDAF7880F96958795AB
:1015B00097F9089587D080F09F3740F491110EF08D
:1015C00099C060E070E080E89FEB089526F41B1658
:1015D000611D711D811D07C021C097F99F6780E8BB
:1015E00070E060E00895882371F4772321F098502B
:1015F000872B762F07C0662311F499270DC09051D1
:10160000862B70E060E02AF09A95660F771F881F9E
:10161000DAF7880F9695879597F908959F3F49F0D7
:10162000915028F4869577956795B7959F5F803898
:101630009F4F880F9695879597F908959FEF80ECB7
:10164000089500240A941616170618060906089528
:1016500000240A9412161306140605060895092E8E
:101660000394000C11F4882352F0BB0F40F4BF2BFD
:1016700011F460FF04C06F5F7F4F8F4F9F4F08953D
:1016800057FD9058440F551F59F05F3F71F0479533
:10169000880F97FB991F61F09F3F79F08795089518
:1016A000121613061406551FF2CF4695F1DF08C037
:1016B000161617061806991FF1CF86957105610554
:1016C00008940895E5DFA0F0BEE7B91788F4BB27BA
:1016D0009F3860F41616B11D672F782F8827985F02
:1016E000F7CF869577956795B11D93959639C8F391
:1016F0000895E894BB2766277727CB0197F90895CB
:101700000BD0ADCF9EDF28F0A3DF18F0952309F0B2
:1017100064CF94CF1124EECFB3DFA0F3959FD1F324
:10172000950F50E0551F629FF001729FBB27F00D8F
:10173000B11D639FAA27F00DB11DAA1F649F6627E4
:10174000B00DA11D661F829F2227B00DA11D621F33
:10175000739FB00DA11D621F839FA00D611D221FED
:10176000749F3327A00D611D231F849F600D211DD1
:10177000822F762F6A2F11249F5750408AF0E1F074
:1017800088234AF0EE0FFF1FBB1F661F771F881FBD
:1017900091505040A9F79E3F510570F01ECFAACF3F
:1017A0005F3FECF3983EDCF3869577956795B795A8
:1017B000F795E7959F5FC1F7FE2B880F911D9695D2
:1017C000879597F90895629FD001739FF001829FDA
:1017D000E00DF11D649FE00DF11D929FF00D839FC0
:1017E000F00D749FF00D659FF00D9927729FB00D5D
:1017F000E11DF91F639FB00DE11DF91FBD01CF0170
:1018000011240895A1E21A2EAA1BBB1BFD010DC0D5
:10181000AA1FBB1FEE1FFF1FA217B307E407F507A0
:1018200020F0A21BB30BE40BF50B661F771F881F7C
:10183000991F1A9469F760957095809590959B0112
:10184000AC01BD01CF010895EE0FFF1F0590F4918B
:08185000E02D0994F894FFCF8C
:1018580054696D656C696E6520436C6561720054EE
:10186800696D656C696E65204C6F6F70204C6F6395
:101878006B0054696D656C696E6520537461727490
:10188800204C6F6F70004C6F6F7020426561742040
:10189800436F756E740001000000006B06010701BC
:0818A80006320612065B060081
:00000001FF
