:100000000C9465000C948D000C948D000C948D0064
:100010000C948D000C948D000C948D000C948D002C
:100020000C948D000C948D000C9442050C948D0062
:100030000C948D000C948D000C948D000C948D000C
:100040000C94CF010C948D000C9408030C9456036F
:100050000C948D000C948D000C948D000C948D00EC
:100060000C948D000C948D000000000024002700EB
:100070002A0000000000250028002B0000000000DE
:1000800023002600290004040404040404040202DA
:100090000202020203030303030301020408102007
:1000A0004080010204081020010204081020000012
:1000B0000007000201000003040600000000000029
:1000C0000000D0004F01C204960611241FBECFEFDE
:1000D000D8E0DEBFCDBF11E0A0E0B1E0E4E2F2E1A4
:1000E00002C005900D92A231B107D9F712E0A2E14A
:1000F000B1E001C01D92A930B107E1F710E0CAECF0
:10010000D0E004C02297FE010E940C09C23CD10736
:10011000C9F70E94C0010C9410090C940000FC0166
:10012000838160E00E94B302089582E191E00E9421
:100130008F0085ED91E064E170E045E950E00E94B8
:100140007B060895FC01838161E00E94B30208955B
:1001500082E191E00E94A20085ED91E064E170E00F
:1001600045E950E00E94C80508950E94A80008953E
:10017000FC0182810E94520208950F931F938C010B
:100180008EE0F801828387E0838361E00E9474023D
:1001900088E090E0F801918380831F910F9108958A
:1001A00082E191E00E94BD0008954F925F926F92AC
:1001B0007F928F929F92AF92BF92CF92DF92EF92F7
:1001C000FF920F931F936C0182E191E00E94B800AF
:1001D0007C01F60162817381882777FD8095982FD5
:1001E0000E94A4072B013C01F601648175818827D8
:1001F00077FD8095982F0E94A4074B015C01002792
:10020000F7FC0095102FC801B7010E94A4077B01DD
:100210008C01F60166817781882777FD8095982F7C
:100220000E94A4079B01AC01C801B7010E94090705
:100230009B01AC01C501B4010E9485089B01AC0182
:10024000C301B2010E94A4061F910F91FF90EF908D
:10025000DF90CF90BF90AF909F908F907F906F90E6
:100260005F904F9008950E94D5009B01AC0160E023
:1002700070E08AE794E40E94090720E030E040E75C
:1002800052E40E94850820E030E040E05FE30E94F5
:10029000A5060E94DF070E947107CB01089580EF39
:1002A00090E09093190180931801E8E1F1E088E271
:1002B00090E09293829388EC90E090931B0180935E
:1002C0001A018CEF93E090931D0180931C01CF01E4
:1002D0000E94330190932101809320010895CF93D0
:1002E000DF9380911E0190911F01209112013091A6
:1002F0001301820F931F90931F0180931E0186E1CB
:1003000091E00E943301EC0180911E0190911F0148
:10031000C817D90744F482E191E00E94B500109219
:100320001F0110921E01D0932101C0932001DF9183
:10033000CF91089585ED91E00E947B0508950E947C
:100340006F0108950F931F9383EB91E040E855E20E
:1003500060E070E00E94910305ED11E0C8010E9489
:1003600060056091120170911301C8014FE951E0DD
:100370000E94C805C8010E9475051F910F9108953C
:10038000CF93DF930E9417020E94A201C3E4D3E03F
:100390000E949A012097E1F30E944303F9CF1F9234
:1003A0000F920FB60F9211242F933F938F939F9329
:1003B000AF93BF938091260190912701A0912801CE
:1003C000B091290130912A010196A11DB11D232F61
:1003D0002D5F2D3720F02D570196A11DB11D2093C3
:1003E0002A018093260190932701A0932801B093BE
:1003F00029018091220190912301A0912401B091C3
:1004000025010196A11DB11D809322019093230126
:10041000A0932401B0932501BF91AF919F918F913B
:100420003F912F910F900FBE0F901F9018957894C9
:1004300084B5826084BD84B5816084BD85B58260E9
:1004400085BD85B5816085BDEEE6F0E08081816087
:100450008083E1E8F0E01082808182608083808187
:1004600081608083E0E8F0E0808181608083E1EB5F
:10047000F0E0808184608083E0EBF0E08081816047
:100480008083EAE7F0E080818460808380818260FD
:1004900080838081816080838081806880831092E6
:1004A000C1000895982F8E3008F09E50977080916B
:1004B00000018295880F880F807C892B80937C00B7
:1004C00080917A00806480937A0080917A0086FD22
:1004D000FCCF2091780040917900942F80E030E0AB
:1004E000282B392BC9010895CF93DF93482F50E073
:1004F000CA0186569F4FFC0134914A575F4FFA015B
:100500008491882369F190E0880F991FFC01E859D4
:10051000FF4FA591B491FC01EE58FF4FC591D491C6
:10052000662351F42FB7F8948C91932F90958923DB
:100530008C93888189230BC0623061F42FB7F894C3
:100540008C91932F909589238C938881832B88831A
:100550002FBF06C09FB7F8948C91832B8C939FBFBD
:10056000DF91CF910895482F50E0CA0182559F4FE7
:10057000FC012491CA0186569F4FFC0194914A5771
:100580005F4FFA013491332309F440C0222351F123
:10059000233071F0243028F42130A1F0223011F5FD
:1005A00014C02630B1F02730C1F02430D9F404C093
:1005B000809180008F7703C0809180008F7D809331
:1005C000800010C084B58F7702C084B58F7D84BD54
:1005D00009C08091B0008F7703C08091B0008F7DFB
:1005E0008093B000E32FF0E0EE0FFF1FEE58FF4FB7
:1005F000A591B4912FB7F894662321F48C9190952E
:10060000892302C08C91892B8C932FBF0895089564
:100610001F920F920FB60F9211242F933F934F9377
:100620008F939F93EF93FF938091C00082FD1DC035
:100630004091C60020916B0130916C012F5F3F4FBC
:100640002F73307080916D0190916E0128173907DA
:1006500071F0E0916B01F0916C01E55DFE4F40831C
:1006600030936C0120936B0102C08091C600FF9112
:10067000EF919F918F914F913F912F910F900FBECE
:100680000F901F901895E091BF01F091C001E05CC0
:10069000FF4F8191919120813181821B930B8F7348
:1006A0009070892B11F00E94070308951F920F92FA
:1006B0000FB60F9211242F933F938F939F93EF9335
:1006C000FF932091AF013091B0018091B1019091E1
:1006D000B2012817390731F48091C1008F7D8093D2
:1006E000C10014C0E091B101F091B201E159FE4F97
:1006F00020818091B1019091B20101968F73907029
:100700009093B2018093B1012093C600FF91EF91C5
:100710009F918F913F912F910F900FBE0F901F903F
:100720001895AF92BF92DF92EF92FF920F931F93B3
:10073000CF93DF93EC017A018B01DD24403081EE11
:10074000580780E0680780E0780711F0DD24D39433
:1007500091E0A92EB12CEC89FD89DD2069F0C5015D
:1007600008A002C0880F991F0A94E2F7808360E016
:1007700079E08DE390E005C0108260E874E88EE1D6
:1007800090E0A80197010E94E808215030404040C5
:100790005040569547953795279580E1203038078A
:1007A00020F0DD2011F0DD24D6CFE889F9893083EF
:1007B000EA89FB89208319A2EE89FF89408121E023
:1007C00030E0C9010C8C02C0880F991F0A94E2F72F
:1007D000482B4083EE89FF894081C9010D8C02C0FE
:1007E000880F991F0A94E2F7482B4083EE89FF890E
:1007F0004081C9010E8C02C0880F991F0A94E2F74C
:10080000482B4083EE89FF8980810F8C02C0220F24
:10081000331F0A94E2F7209528232083DF91CF919C
:100820001F910F91FF90EF90DF90BF90AF900895D0
:10083000DC011C96ED91FC911D97E05CFF4F21912E
:10084000319180819181281B390B2F733070C90140
:100850000895DC011C96ED91FC911D97E05CFF4F23
:1008600020813181E054F040DF01AE5BBF4F8D91BC
:100870009C9111972817390719F42FEF3FEF07C004
:100880008D919C91E80FF91F8081282F30E0C901DC
:100890000895DC011C96ED91FC911D97E05CFF4FE3
:1008A00020813181E054F040DF01AE5BBF4F8D917C
:1008B0009C9111972817390719F42FEF3FEF10C0BB
:1008C0008D919C911197E80FF91F20818D919C913A
:1008D000119701968F73907011969C938E9330E0D0
:1008E000C9010895DC0191968C919197882339F084
:1008F0005496ED91FC915597808186FFF9CF9196A2
:100900001C920895CF93DF93EC01EE85FF85E05CA8
:10091000FF4F20813181E054F0402F5F3F4F2F7314
:100920003070DF01AE5BBF4F8D919C9111972817FE
:100930003907D1F3E05CFF4F80819181E054F040B2
:10094000E80FF91F6083EE85FF85E05CFF4F318380
:100950002083EE89FF89208181E090E00F8C02C026
:10096000880F991F0A94E2F7282B208381E089A33E
:10097000EC89FD8980818064808381E090E0DF9153
:10098000CF9108951092B6011092B50188EE93E0D0
:10099000A0E0B0E08093B7019093B801A093B901B3
:1009A000B093BA0185E091E09093B4018093B301D4
:1009B0008BE291E09093C0018093BF018FE691E0BC
:1009C0009093C2018093C10185EC90E09093C401A3
:1009D0008093C30184EC90E09093C6018093C5019D
:1009E00080EC90E09093C8018093C70181EC90E087
:1009F0009093CA018093C90182EC90E09093CC015E
:100A00008093CB0186EC90E09093CE018093CD0152
:100A100084E08093CF0183E08093D00187E08093CE
:100A2000D10185E08093D20181E08093D3010895C4
:100A3000CF92DF92EF92FF920F931F93CF93DF93AA
:100A40007C016B018A01C0E0D0E00FC0D6016D913E
:100A50006D01D701ED91FC910190F081E02DC7016E
:100A60000995C80FD91F015010400115110571F7E4
:100A7000CE01DF91CF911F910F91FF90EF90DF900A
:100A8000CF9008951F920F920FB60F9211248F935B
:100A90009F93EF93FF93809108028F5F80930802EA
:100AA000E5EDF1E080819181019691838083FF9152
:100AB000EF919F918F910F900FBE0F901F901895FF
:100AC000F8941092800088E1809381008FE79EE384
:100AD000909387008093860080E280936F0010924D
:100AE00085001092840078940895E1E8F0E0808118
:100AF000816080830895EF92FF921F93CF93DF93DD
:100B0000EC018BA98823F1F1E82EFF241BAA10E049
:100B100036C0412F50E0FA01EE0FFF1FE40FF51F22
:100B2000DF01AA0FBB1FAC0FBD1F14962D913C9186
:100B300015972E193F0915963C932E93149712166C
:100B40001306E4F03196EE0FFF1FEC0FFD1F8081BE
:100B50009181280F391F15963C932E931497CA0143
:100B60000196FC01EE0FFF1FE80FF91FEE0FFF1FAC
:100B7000EC0FFD1F0190F081E02D09951F5F8AA900
:100B8000181738F2DF91CF911F91FF90EF900895E1
:100B90000F931F93CF93DF93EC018A014AA910C0F2
:100BA000F901EE0FFF1FE20FF31F3196EE0FFF1F4B
:100BB000EC0FFD1F86E00D9001928150E1F741504E
:100BC0004423A1F0242F30E0C9010197DC01AA0FD2
:100BD000BB1FA80FB91F1196AA0FBB1FAC0FBD1FDB
:100BE0008D919C91119768177907D4F28AA98F5F2C
:100BF0008AAB242F30E0C9010196FC01EE0FFF1FE4
:100C0000E80FF91FEE0FFF1FEC0FFD1F118300838C
:100C1000F901EE0FFF1FE20FF31FDF01AA0FBB1F49
:100C2000AC0FBD1F15967C936E9314973196EE0F03
:100C3000FF1FEC0FFD1F71836083DF91CF911F9128
:100C40000F910895CF93DF93EC01DB017AA960E067
:100C5000462F50E0FA01EE0FFF1FE40FF51F31960B
:100C6000EE0FFF1FEC0FFD1F2D913C91119780811E
:100C7000918128173907A1F4CA010196FC01EE0FF2
:100C8000FF1FE80FF91FEE0FFF1FEC0FFD1F14965B
:100C90002D913C911597808191812817390719F082
:100CA0006F5F7617A8F6671718F571507AAB1DC0FD
:100CB000862F90E0DC01AA0FBB1FA80FB91F119669
:100CC000AA0FBB1F0196FC01EE0FFF1FE80FF91FD3
:100CD0003196EE0FFF1FAC0FBD1FEC0FFD1F86E01E
:100CE00001900D928150E1F76F5F8AA9681700F3B8
:100CF000DF91CF910895DF93CF9300D000D000D043
:100D0000CDB7DEB77A8369837C836B835E834D8343
:100D1000BE016F5F7F4F0E94220626960FB6F894A1
:100D2000DEBF0FBECDBFCF91DF910895E7EDF1E0BB
:100D3000118210821382128215821482369682E00A
:100D4000E730F807A9F708955058BB27AA270ED017
:100D50008BC17CD130F081D120F031F49F3F11F470
:100D60001EF471C10EF4E095E7FB3CC1E92F8DD173
:100D700080F3BA17620773078407950718F071F4B8
:100D80009EF5BCC10EF4E0950B2EBA2FA02D0B01E1
:100D9000B90190010C01CA01A0011124FF27591BC0
:100DA00099F0593F50F4503E68F11A16F040A22FC6
:100DB000232F342F4427585FF3CF46953795279537
:100DC000A795F0405395C9F77EF41F16BA0B620B36
:100DD000730B840BBAF09150A1F0FF0FBB1F661F7D
:100DE000771F881FC2F70EC0BA0F621F731F841FC0
:100DF00048F4879577956795B795F7959E3F08F0E6
:100E0000B3CF9395880F08F09927EE0F97958795A4
:100E100008950CD029C121D140F018D130F021F42F
:100E20005F3F19F0DFC051116AC10DC12ED198F397
:100E30009923C9F35523B1F3951B550BBB27AA275B
:100E400062177307840738F09F5F5F4F220F331FCD
:100E5000441FAA1FA9F333D00E2E3AF0E0E830D099
:100E600091505040E695001CCAF729D0FE2F27D09C
:100E7000660F771F881FBB1F261737074807AB076A
:100E8000B0E809F0BB0B802DBF01FF2793585F4FDF
:100E90002AF09E3F510568F0A5C031C15F3FECF3D9
:100EA000983EDCF3869577956795B795F7959F5FA4
:100EB000C9F7880F911D9695879597F90895E1E0F8
:100EC000660F771F881FBB1F621773078407BA0757
:100ED00020F0621B730B840BBA0BEE1F88F7E095B2
:100EE000089504D06894B1110AC10895D6D088F04D
:100EF0009F5790F0B92F9927B751A0F0D1F0660F06
:100F0000771F881F991F1AF0BA95C9F712C0B13020
:100F100081F0F4D0B1E00895F1C0672F782F8827D1
:100F2000B85F39F0B93FCCF3869577956795B3955F
:100F3000D9F73EF490958095709561957F4F8F4FCE
:100F40009F4F0895E89409C097FB3EF490958095D3
:100F5000709561957F4F8F4F9F4F9923A9F0F92F7F
:100F600096E9BB279395F695879577956795B795FD
:100F7000F111F8CFFAF4BB0F11F460FF1BC06F5FE3
:100F80007F4F8F4F9F4F16C0882311F096E911C0F5
:100F9000772321F09EE8872F762F05C0662371F016
:100FA00096E8862F70E060E02AF09A95660F771F2A
:100FB000881FDAF7880F9695879597F9089587D057
:100FC00080F09F3740F491110EF099C060E070E01E
:100FD00080E89FEB089526F41B16611D711D811D8D
:100FE00007C021C097F99F6780E870E060E008952E
:100FF000882371F4772321F09850872B762F07C030
:10100000662311F499270DC09051862B70E060E0A3
:101010002AF09A95660F771F881FDAF7880F969542
:10102000879597F908959F3F49F0915028F4869548
:1010300077956795B7959F5F80389F4F880F9695F6
:10104000879597F908959FEF80EC089500240A94FE
:101050001616170618060906089500240A94121693
:101060001306140605060895092E0394000C11F4C6
:10107000882352F0BB0F40F4BF2B11F460FF04C073
:101080006F5F7F4F8F4F9F4F089557FD9058440FCC
:10109000551F59F05F3F71F04795880F97FB991FD7
:1010A00061F09F3F79F08795089512161306140694
:1010B000551FF2CF4695F1DF08C016161706180621
:1010C000991FF1CF86957105610508940895E5DFB4
:1010D000A0F0BEE7B91788F4BB279F3860F4161656
:1010E000B11D672F782F8827985FF7CF8695779562
:1010F0006795B11D93959639C8F30895E894BB2779
:1011000066277727CB0197F908950BD0ADCF9EDFE7
:1011100028F0A3DF18F0952309F064CF94CF1124B1
:10112000EECFB3DFA0F3959FD1F3950F50E0551F9D
:10113000629FF001729FBB27F00DB11D639FAA272C
:10114000F00DB11DAA1F649F6627B00DA11D661F7B
:10115000829F2227B00DA11D621F739FB00DA11D9C
:10116000621F839FA00D611D221F749F3327A00D56
:10117000611D231F849F600D211D822F762F6A2FF2
:1011800011249F5750408AF0E1F088234AF0EE0F77
:10119000FF1FBB1F661F771F881F91505040A9F784
:1011A0009E3F510570F01ECFAACF5F3FECF3983EF3
:1011B000DCF3869577956795B795F795E7959F5FEB
:1011C000C1F7FE2B880F911D9695879597F9089585
:1011D000A1E21A2EAA1BBB1BFD010DC0AA1FBB1F3B
:1011E000EE1FFF1FA217B307E407F50720F0A21BAD
:1011F000B30BE40BF50B661F771F881F991F1A941A
:1012000069F760957095809590959B01AC01BD0143
:10121000CF010895EE0FFF1F0590F491E02D099482
:04122000F894FFCF70
:10122400010000000082041805180449042904720E
:021234000400B4
:00000001FF
