:100000000C946A000C9492000C9492000C94920050
:100010000C9492000C9492000C9492000C94920018
:100020000C9492000C9492000C948A100C94920000
:100030000C9492000C9492000C9492000C949200F8
:100040000C9469080C9492000C94300B0C947E0B69
:100050000C9492000C9492000C9492000C949200D8
:100060000C948A130C9492000000000024002700D6
:100070002A0000000000250028002B0000000000DE
:1000800023002600290004040404040404040202DA
:100090000202020203030303030301020408102007
:1000A0004080010204081020010204081020000012
:1000B0000007000201000003040600000000000029
:1000C0000000990031019503E0070D08EA0CDE11EC
:1000D0002612060811241FBECFEFD8E0DEBFCDBF29
:1000E00011E0A0E0B1E0E2E0F0E302C005900D9283
:1000F000A63EB107D9F713E0A6EEB1E001C01D920C
:10010000AC3DB107E1F710E0C2EDD0E004C02297AA
:10011000FE010E94F017C23CD107C9F70E945A089D
:100120000C94F4170C94000081E090E0F8940C9487
:10013000F41786EE91E00E94690F08951F93162F21
:100140000E94DE0F21E030E002C0220F331F1A951B
:10015000E2F728233923C9011F9108950F931F93B4
:10016000DF93CF930F92CDB7DEB78C01CE0101960E
:100170000E94690F8981F801808382EC92E060E03F
:1001800071E00E94500FC8016AE50E941110882397
:1001900039F482EC92E06DE271E00E94500FFFCFE3
:1001A00082EC92E06DE471E00E94500F0F90CF91CD
:1001B000DF911F910F910895862F60E00E94A6099C
:1001C0000895862F61E00E94A6090895FC018581AB
:1001D00060E00E94A609089587EE91E00E94E60083
:1001E00084EE92E064E170E04CEE50E00E94C311B6
:1001F0000895FC01858161E00E94A609089587EEBB
:1002000091E00E94F90084EE92E064E170E04CEE2F
:1002100050E00E94101108950E94FF00089586EE9C
:1002200091E070E00E949E000895FC0184810E948C
:10023000450908950F931F938C018EE0F801848384
:1002400087E0858361E00E94670988E090E0F8011B
:100250009183808384EF91E0938382831F910F9138
:10026000089587EE91E00E941A0108950F931F935D
:100270008C0187EE91E0F80166810E94DC00F801B4
:100280001082118610861F910F910895FC018081C4
:10029000882329F12091E7013091E801808591853B
:1002A000280F391F318720874381548181819281B2
:1002B000840F951F8217930724F4CF010E94360103
:1002C00008954217530734F487EE91E066810E9447
:1002D000DC00089587EE91E066810E94E1000895B8
:1002E0000F931F938C0187EE91E0F80166810E94C5
:1002F000E100F801808591852091E7013091E801C6
:10030000820F931F9187808781E080831F910F91D7
:100310000895FC0187EE91E067810E940F0120E0C3
:10032000892B09F021E0822F0895CF92DF92EF927E
:10033000FF920F931F93CF93DF93EC018091FA010B
:10034000882321F0CE010A960E947F06CE010E94EA
:1003500046018881882309F040C08AEF91E00E941D
:1003600085067B018C01CE010E9489018823B9F0AA
:10037000CE010E9470018AEF91E00E948D068823D1
:1003800061F12A96CE01B801A7010E94FB038823E0
:1003900021F5CE01B801A7010E943C051EC08AEFDD
:1003A00091E00E948D068823C1F08AE0C82ED12CEE
:1003B000CC0EDD1EC601B801A7010E94FB038823F5
:1003C00061F082EC92E06BE571E00E94500FCE018B
:1003D0000E947001C6010E94E803DF91CF911F9136
:1003E0000F91FF90EF90DF90CF9008950A960E94B2
:1003F00082040895AF92BF92CF92DF92EF92FF9264
:100400000F931F93CF93DF938C017B0168177907BC
:1004100009F4A9C0DB0114962D913C911597FC01BC
:10042000828193818217930788F5D080C1803383BE
:100430002283C901880F991F880F991F0E94660F98
:10044000D8018C9311969C93119714964D915C91C1
:100450001597EC012D2D3C2DC901FC0120E030E069
:100460000EC0209741F080819181A281B381888361
:100470009983AA83BB832F5F3F4F2496349624171A
:10048000350778F38D2D9C2D0E94630FF801648150
:100490007581D7011496CD91DC9115976E016C177B
:1004A0007D0708F46B0140E050E020E030E018C028
:1004B000F801A080B180A20EB31EF701A081B18126
:1004C000A20FB31F8D919D910D90BC91A02DF501B0
:1004D00080839183A283B3834F5F5F4F2C5F3F4F35
:1004E0004C155D0528F36C177D0768F59B01220FFD
:1004F000331F220F331FAB011EC0D801CD91DC91F9
:10050000C20FD31FD701ED91FC91209751F0E20F5C
:10051000F31F80819181A281B38188839983AA830B
:10052000BB83F801848195810196958384834F5F15
:100530005F4F2C5F3F4FD70114968D919C9115977B
:1005400048175907D0F2F80184819581D701149694
:100550006D917C9115976817790728F468177907CA
:1005600010F475836483C801DF91CF911F910F91BF
:10057000FF90EF90DF90CF90BF90AF900895EF92F3
:10058000FF920F93DF93CF93CDB7DEB765970FB68A
:10059000F894DEBF0FBECDBF7C01802FF7017283C0
:1005A00061835483438310821582068327831186D7
:1005B000108661E00E946709F701878160E00E9470
:1005C0006709CE0101960E94820489819A81F70110
:1005D000938782878B819C8195878487C7010E963C
:1005E000BE016B5F7F4F0E94FA01C7014596BE01B5
:1005F000645F7F4F0E94FA018B899C89F701958F78
:10060000848F8D89868F8C859D850E94630F8D8157
:100610009E810E94630FC7010A960E945E0565963F
:100620000FB6F894DEBF0FBECDBFCF91DF910F9113
:10063000FF90EF9008954F925F926F927F928F920A
:100640009F92AF92BF92CF92DF92EF92FF920F9361
:100650001F936C0187EE91E00E9415017C01F60169
:1006600063817481882777FD8095982F0E943D16BD
:100670002B013C01F60165817681882777FD809505
:10068000982F0E943D164B015C010027F7FC009556
:10069000102FC801B7010E943D167B018C01F601A5
:1006A00067817085882777FD8095982F0E943D1679
:1006B0009B01AC01C801B7010E94A2159B01AC01CE
:1006C000C501B4010E9446179B01AC01C301B201F0
:1006D0000E9439151F910F91FF90EF90DF90CF90FE
:1006E000BF90AF909F908F907F906F905F904F9052
:1006F00008950E941B039B01AC0160E070E08AE753
:1007000094E40E94A21520E030E040E752E40E9409
:10071000461720E030E040E05FE30E943A150E9477
:1007200078160E940A16CB01089580EF90E090930E
:10073000F1018093F00188E290E09093EF018093C3
:10074000EE0188EC90E09093F3018093F2018CEF3E
:1007500093E09093F5018093F401EDEEF1E01082C7
:10076000CF010E9479039093F9018093F8010895D5
:10077000CF93DF938091F6019091F7012091E701EB
:100780003091E801820F931F9093F7018093F60157
:100790001092ED018DEE91E00E947903EC018091C1
:1007A000F6019091F701C817D9075CF487EE91E044
:1007B0000E940C0181E08093ED011092F7011092EC
:1007C000F601D093F901C093F801DF91CF9108951C
:1007D000FC01228933898085918501972817390783
:1007E00028F08FEF9FEF938B828B08952F5F3F4F01
:1007F000338B228B0895AF92BF92CF92DF92FF92FC
:100800000F931F93CF93DF938C015A016B01DC018F
:100810005296CD91DC915397D7FD26C018968D91B5
:100820009C911997009701F1C817D90720F08DE620
:1008300091E00E948810FF24CC0FDD1FCC0FDD1F3C
:10084000D8011496ED91FC911597EC0FFD1F608176
:10085000718182819381A60195010E949E15882352
:1008600024F4FF24F39401C0FF248F2DDF91CF9156
:100870001F910F91FF90DF90CF90BF90AF900895A0
:100880000F931F93CF93DF938C0182EC92E068E883
:1008900071E00E94500FF801C481D5810AC04991CE
:1008A00059916991799182EC92E022E030E00E94C6
:1008B0003D0FF80120853185220F331F220F331F92
:1008C00084819581820F931FC817D90741F7DF9163
:1008D000CF911F910F9108950F931F938C01FC01ED
:1008E0001182108288E090E09383828315821482C3
:1008F00080E290E00E94660FF801918380831F914F
:100900000F9108950F931F93DF93CF9300D0CDB72E
:10091000DEB78C010496BE016F5F7F4F0E946C04AE
:10092000C8010B96BE016E5F7F4F0E946C040F9052
:100930000F90CF91DF911F910F910895EF92FF9249
:100940000F931F93CF93DF938C01FC0182819381DE
:100950008617970790F5E080F18073836283CB015F
:10096000880F991F880F991F0E94660FF8019183C5
:10097000808340E050E020E030E016C0F801C08104
:10098000D181C20FD31F209759F0F701E20FF31F57
:1009900080819181A281B38188839983AA83BB835B
:1009A0004F5F5F4F2C5F3F4FF8018481958148175F
:1009B000590720F3C7010E94630FDF91CF911F9168
:1009C0000F91FF90EF900895AF92BF92CF92DF9278
:1009D000EF92FF920F931F93CF93DF938C01EB0164
:1009E0007A01DC0114968D919C91159786179707D3
:1009F00080F512968D919C9113978617970728F48E
:100A0000685F7F4FC8010E949E04F80124813581F0
:100A1000A901440F551F440F551F14C0D801ED9173
:100A2000FC91E40FF51F309749F0D701AD90BD90D0
:100A3000CD90DC90A082B182C282D3822F5F3F4FE3
:100A40004C5F5F4F2C173D0748F3F801D583C483F3
:100A500008C06817790728F4D80115967C936E931F
:100A60001497DF91CF911F910F91FF90EF90DF903E
:100A7000CF90BF90AF900895DF93CF9300D000D078
:100A8000CDB7DEB7FC0149835A836B837C836785CE
:100A90007089808191818617970748F06F5F7F4F3B
:100AA000CF010B96AE014F5F5F4F0E94E4040F90A1
:100AB0000F900F900F90CF91DF9108950F931F9398
:100AC0008C01FC01138A128A148A82E390E09183DC
:100AD000808384E690E093838283C8010B9662E36F
:100AE00070E00E949E04F80162817381C80104963F
:100AF0000E949E041F910F9108952F923F924F9252
:100B00005F926F927F928F929F92AF92BF92CF929D
:100B1000DF92EF92FF920F931F93DF93CF93CDB7A6
:100B2000DEB760970FB6F894DEBF0FBECDBF2C01C5
:100B3000DC011F968D919C915097009709F4C6C0D7
:100B400018960D911C911997080F191F12968D91E7
:100B50009C9113978017910740F4B201655F7F4F16
:100B6000C20104960E94FA01A6C080E090E0A0E0D5
:100B7000B0E08A839B83AC83BD831F821E821B8669
:100B80001A86C801089699878887880F991F880F49
:100B9000991F0E94660F9F838E83CE010696B8012F
:100BA000AE014E5F5F4F0E94E404F20164807580E5
:100BB00080859185880F991F880F991F860D971D35
:100BC000988B8F8783849484A785B089AA0FBB1FD5
:100BD000AA0FBB1FA80DB91DBE87AD872E803F8011
:100BE0002AC0F401A080B180C280D380D301ED90EF
:100BF000FD900D911C91C601B501A80197010E94BD
:100C00009E15882354F4F101A082B182C282D3825E
:100C100084E090E0880E991E0AC0D101ED92FD9209
:100C20000D931C931397E4E0F0E06E0E7F1E84E0BA
:100C300090E0280E391EAF85B8896A167B0619F434
:100C4000F301910110C0ED85FE858E169F0649F6D1
:100C5000F7CF4191519161917191D9014D935D937C
:100C60006D937D939D018F859889E817F90789F722
:100C7000E619F709EC7FE20DF31D0AC0D4012D91AE
:100C80003D914D915D914D0121933193419351934C
:100C90008D859E858816990689F7C2010496BE0146
:100CA0006A5F7F4F0E94FA01C2010E9440048E8158
:100CB0009F810E94630FD2011F968D919C91509746
:100CC000892B21F050961C921E921F9760960FB6AA
:100CD000F894DEBF0FBECDBFCF91DF911F910F9172
:100CE000FF90EF90DF90CF90BF90AF909F908F904C
:100CF0007F906F905F904F903F902F900895FC01F0
:100D0000138A128A0E947D050895FC012489358981
:100D100046895789B901CA010895FC018181089566
:100D2000CF93DF93EC018C859D85892B29F587EE88
:100D300091E06A850E940F01892BF1F08C859D85D9
:100D40002091E7013091E801820F931F9D878C87E6
:100D500081E00FC01D861C860BC01216130644F4DA
:100D60008091E7019091E801820F931F9D878C8706
:100D700080E0DF91CF9108952C853D858091E90138
:100D80009091EA012817390744F3E4CFCF93DF931A
:100D9000EC0188859985892B29F587EE91E06E8194
:100DA0000E940F01892BF1F0888599852091E70138
:100DB0003091E801820F931F9987888781E00FC0E7
:100DC000198618860BC01216130644F48091E701A9
:100DD0009091E801820F931F9987888780E0DF91C7
:100DE000CF910895288539858091E9019091EA0194
:100DF0002817390744F3E4CF0F931F938C0182EC3B
:100E000092E062E971E00E94500FF8011786118AA2
:100E1000108A1F910F910895FC018685882361F443
:100E20008785882361F481E0868782EC92E06DE912
:100E300071E00E94500F0895168681E0878708951B
:100E4000CF92DF92EF92FF920F931F93CF93DF9396
:100E5000EC018981882391F18DEE91E00E94790364
:100E60006C016091E7017091E801882777FD80951A
:100E7000982F0E943D167B018C0188899989C89E14
:100E8000B001C99E700DD89E700D1124882777FD82
:100E90008095982F0E943D169B01AC01C801B701B7
:100EA0000E94A2159B01AC016C897D898E899F8966
:100EB0000E943A156C8B7D8B8E8B9F8BDF91CF912F
:100EC0001F910F91FF90EF90DF90CF900895FC015C
:100ED00010828685882351F08091ED01882331F0BE
:100EE000808991890196918B808B23C08091ED013F
:100EF0008823F9F087858823E1F081E081832289C6
:100F00003389808991892817390711F037FF0CC080
:100F1000138A128A80E090E0A0E0B0E0848B958B89
:100F2000A68BB78B81E08083828993890196938B0E
:100F3000828B8785882319F0CF010E9420070895AE
:100F4000CF93DF93EC010E94C606882319F0CE01EF
:100F50000E940C07CE010E949006882319F0CE0152
:100F60000E94FC06CE010E946707DF91CF91089591
:100F70000F931F938C01862FF80166837783538725
:100F8000428760E00E946709F801828560E00E9464
:100F90006709F80115861486118610861786118A4E
:100FA000108A8FEF9FEF938B828B80E090E0A0E020
:100FB000B0E0848B958BA68BB78B1F910F91089512
:100FC0008AEF91E06AE070E04BE050E00E94B807E1
:100FD00008958130910541F46F5F7F4FB1F482E154
:100FE00092E00E94F6010895892B79F46F5F7F4F9C
:100FF00061F480912702909128020E94630F8091F2
:101000002002909121020E94630F089580E090E0F9
:101010006FEF7FEF0E94E907089581E090E06FEFA6
:101020007FEF0E94E907089584EE92E00E94C310CA
:10103000089582E192E00E94950108950E94B8030C
:101040008AEF91E00E94A00708950F931F9382EC0E
:1010500092E040E855E260E070E00E94B90B86EE55
:1010600091E00E94AE0082E192E060E570E040E530
:1010700050E028E009E00E94BF0204EE12E0C8013F
:101080000E94A8106091E7017091E801C8014EE14B
:1010900058E00E9410116091E7017091E801C801C9
:1010A00049E158E00E941011C8010E94BD101F9133
:1010B0000F910895CF93DF930E940A090E9425089B
:1010C000CBE6DBE00E9414082097E1F30E946B0B53
:1010D000F9CF1F920F920FB60F9211242F933F93C7
:1010E0008F939F93AF93BF93809135029091360277
:1010F000A0913702B0913802309139020196A11DBA
:10110000B11D232F2D5F2D3720F02D570196A11DE6
:10111000B11D209339028093350290933602A0933B
:101120003702B09338028091310290913202A0913F
:101130003302B09134020196A11DB11D809331029A
:1011400090933202A0933302B0933402BF91AF91D7
:101150009F918F913F912F910F900FBE0F901F90F5
:1011600018959B01AC017FB7F89480913102909162
:101170003202A0913302B091340266B5A89B05C03B
:101180006F3F19F00196A11DB11D7FBFBA2FA92F86
:10119000982F8827860F911DA11DB11D62E0880F31
:1011A000991FAA1FBB1F6A95D1F7BC012DC0FFB7BD
:1011B000F8948091310290913202A0913302B09163
:1011C0003402E6B5A89B05C0EF3F19F00196A11DBA
:1011D000B11DFFBFBA2FA92F982F88278E0F911D01
:1011E000A11DB11DE2E0880F991FAA1FBB1FEA9540
:1011F000D1F7861B970B885E9340C8F22150304090
:101200004040504068517C4F211531054105510542
:1012100071F60895789484B5826084BD84B5816048
:1012200084BD85B5826085BD85B5816085BDEEE6EE
:10123000F0E0808181608083E1E8F0E010828081CD
:1012400082608083808181608083E0E8F0E080813B
:1012500081608083E1EBF0E0808184608083E0EB5B
:10126000F0E0808181608083EAE7F0E08081846043
:10127000808380818260808380818160808380819F
:10128000806880831092C1000895982F8E3008F0F6
:101290009E5097708091BE018295880F880F807C48
:1012A000892B80937C0080917A00806480937A00FF
:1012B00080917A0086FDFCCF2091780040917900E2
:1012C000942F80E030E0282B392BC9010895CF936B
:1012D000DF93482F50E0CA0186569F4FFC0134919E
:1012E0004A575F4FFA018491882369F190E0880F93
:1012F000991FFC01E859FF4FA591B491FC01EE58EC
:10130000FF4FC591D491662351F42FB7F8948C9177
:10131000932F909589238C93888189230BC0623009
:1013200061F42FB7F8948C91932F909589238C9327
:101330008881832B88832FBF06C09FB7F8948C9138
:10134000832B8C939FBFDF91CF910895482F50E05E
:10135000CA0182559F4FFC012491CA0186569F4FB6
:10136000FC0194914A575F4FFA013491332309F4F9
:1013700040C0222351F1233071F0243028F4213071
:10138000A1F0223011F514C02630B1F02730C1F0A1
:101390002430D9F404C0809180008F7703C08091FD
:1013A00080008F7D8093800010C084B58F7702C04D
:1013B00084B58F7D84BD09C08091B0008F7703C054
:1013C0008091B0008F7D8093B000E32FF0E0EE0FAE
:1013D000FF1FEE58FF4FA591B4912FB7F8946623E5
:1013E00021F48C919095892302C08C91892B8C9348
:1013F0002FBF08950F931F93CF93DF93BC018230CB
:10140000910510F462E070E0E091DA03F091DB0303
:10141000A0E0B0E040E050E024C0808191818617D8
:101420009707D0F08617970771F482819381109700
:1014300029F013969C938E9312972CC09093DB0304
:101440008093DA0327C04115510519F084179507D9
:1014500018F4EF018D01AC01DF01828193819C01C1
:10146000F9013097D1F641155105F9F0CA01861BF3
:10147000970B8430910580F48A819B8101151105B9
:1014800021F0F8019383828304C09093DB0380935F
:10149000DA03FE01329645C0FE01E80FF91F6193A1
:1014A00071930297998388833CC08091D80390916F
:1014B000D903892B41F48091C1019091C20190938D
:1014C000D9038093D8034091C3015091C4014115C1
:1014D000510541F44DB75EB78091BF019091C001B5
:1014E000481B590B2091D8033091D9032417350795
:1014F000B0F4CA01821B930B8617970780F0AB01EB
:101500004E5F5F4F8417950750F0420F531F509363
:10151000D9034093D803F9016193719302C0E0E0CD
:10152000F0E0CF01DF91CF911F910F910895CF93FC
:10153000DF939C01009709F48FC0EC0122971B8276
:101540001A826091DA037091DB036115710581F4F1
:1015500088819981820F931F2091D8033091D903FC
:101560002817390739F5D093D903C093D80374C02D
:10157000DB0140E050E0AC17BD0708F1BB83AA8354
:10158000FE0121913191E20FF31FAE17BF0779F4ED
:101590008D919C911197280F391F2E5F3F4F3983F2
:1015A000288312968D919C9113979B838A83411572
:1015B000510571F4D093DB03C093DA034DC012964A
:1015C0008D919C911397AD01009711F0DC01D3CF61
:1015D000DA011396DC93CE931297FA01219131919F
:1015E000E20FF31FCE17DF0769F488819981280F76
:1015F000391F2E5F3F4FFA01318320838A819B81FF
:1016000093838283E0E0F0E0DB0112968D919C9160
:101610001397009719F0BC01FD01F6CFAB014E5FA7
:101620005F4FDB018D919C91840F951F2091D80312
:101630003091D9032817390779F4309729F410929B
:10164000DB031092DA0302C0138212824250504030
:101650005093D9034093D803DF91CF910895089513
:101660001F920F920FB60F9211242F933F934F9317
:101670008F939F93EF93FF938091C00082FD1DC0D5
:101680004091C60020917A0230917B022F5F3F4F3C
:101690002F73307080917C0290917D02281739075A
:1016A00071F0E0917A02F0917B02E65CFD4F40839D
:1016B00030937B0220937A0202C08091C600FF9192
:1016C000EF919F918F914F913F912F910F900FBE6E
:1016D0000F901F901895E091CE02F091CF02E05C40
:1016E000FF4F8191919120813181821B930B8F73E8
:1016F0009070892B11F00E942F0B08951F920F926A
:101700000FB60F9211242F933F938F939F93EF93D4
:10171000FF932091BE023091BF028091C002909150
:10172000C1022817390731F48091C1008F7D809361
:10173000C10014C0E091C002F091C102E258FD4F17
:1017400020818091C0029091C10201968F739070A8
:101750009093C1028093C0022093C600FF91EF9145
:101760009F918F913F912F910F900FBE0F901F90DF
:101770001895AF92BF92DF92EF92FF920F931F9353
:10178000CF93DF93EC017A018B01DD24403081EEB1
:10179000580780E0680780E0780711F0DD24D394D3
:1017A00091E0A92EB12CEC89FD89DD2069F0C501FD
:1017B00008A002C0880F991F0A94E2F7808360E0B6
:1017C00079E08DE390E005C0108260E874E88EE176
:1017D00090E0A80197010E94CC1721503040404072
:1017E0005040569547953795279580E1203038072A
:1017F00020F0DD2011F0DD24D6CFE889F98930838F
:10180000EA89FB89208319A2EE89FF89408121E0C2
:1018100030E0C9010C8C02C0880F991F0A94E2F7CE
:10182000482B4083EE89FF894081C9010D8C02C09D
:10183000880F991F0A94E2F7482B4083EE89FF89AD
:101840004081C9010E8C02C0880F991F0A94E2F7EB
:10185000482B4083EE89FF8980810F8C02C0220FC4
:10186000331F0A94E2F7209528232083DF91CF913C
:101870001F910F91FF90EF90DF90BF90AF90089570
:10188000DC011C96ED91FC911D97E05CFF4F2191CE
:10189000319180819181281B390B2F733070C901E0
:1018A0000895DC011C96ED91FC911D97E05CFF4FC3
:1018B00020813181E054F040DF01AE5BBF4F8D915C
:1018C0009C9111972817390719F42FEF3FEF07C0A4
:1018D0008D919C91E80FF91F8081282F30E0C9017C
:1018E0000895DC011C96ED91FC911D97E05CFF4F83
:1018F00020813181E054F040DF01AE5BBF4F8D911C
:101900009C9111972817390719F42FEF3FEF10C05A
:101910008D919C911197E80FF91F20818D919C91D9
:10192000119701968F73907011969C938E9330E06F
:10193000C9010895DC0191968C919197882339F023
:101940005496ED91FC915597808186FFF9CF919641
:101950001C920895CF93DF93EC01EE85FF85E05C48
:10196000FF4F20813181E054F0402F5F3F4F2F73B4
:101970003070DF01AE5BBF4F8D919C91119728179E
:101980003907D1F3E05CFF4F80819181E054F04052
:10199000E80FF91F6083EE85FF85E05CFF4F318320
:1019A0002083EE89FF89208181E090E00F8C02C0C6
:1019B000880F991F0A94E2F7282B208381E089A3DE
:1019C000EC89FD8980818064808381E090E0DF91F3
:1019D000CF9108951092C5021092C40288EE93E050
:1019E000A0E0B0E08093C6029093C702A093C80223
:1019F000B093C90289EC91E09093C3028093C20234
:101A00008AE392E09093CF028093CE028EE792E039
:101A10009093D1028093D00285EC90E09093D30212
:101A20008093D20284EC90E09093D5028093D4020C
:101A300080EC90E09093D7028093D60281EC90E006
:101A40009093D9028093D80282EC90E09093DB02CD
:101A50008093DA0286EC90E09093DD028093DC02C2
:101A600084E08093DE0283E08093DF0287E080934E
:101A7000E00285E08093E10281E08093E202089534
:101A8000CF92DF92EF92FF920F931F93CF93DF934A
:101A90007C016B018A01C0E0D0E00FC0D6016D91DE
:101AA0006D01D701ED91FC910190F081E02DC7010E
:101AB0000995C80FD91F015010400115110571F784
:101AC000CE01DF91CF911F910F91FF90EF90DF90AA
:101AD000CF900895EF92FF920F931F938C01DC013A
:101AE000ED91FC910190F081E02D6DE009957C0174
:101AF000D801ED91FC910190F081E02DC8016AE0E0
:101B000009959C012E0D3F1DC9011F910F91FF905A
:101B1000EF900895CF93DF93EC016115710519F4EF
:101B200020E030E00FC0DB010D900020E9F71197B5
:101B3000A61BB70BE881F9810280F381E02DAD018E
:101B400009959C01C901DF91CF9108954F925F9251
:101B50007F928F929F92AF92BF92CF92DF92EF923D
:101B6000FF920F931F93DF93CF93CDB7DEB7A1976B
:101B70000FB6F894DEBF0FBECDBF2C01742ECB0183
:101B8000223008F42AE019A231E2C32ED12CCC0E67
:101B9000DD1E822E9924AA24BB24672D752FA50152
:101BA00094010E94CC1779018A01C801B701A501EF
:101BB00094010E94AD17472D461B0894C108D10817
:101BC0004A3014F4405D01C0495CF6014083E114E1
:101BD000F1040105110521F07E2C5F2DC801DDCF38
:101BE000C201B6010E948A0DA1960FB6F894DEBF1D
:101BF0000FBECDBFCF91DF911F910F91FF90EF905E
:101C0000DF90CF90BF90AF909F908F907F905F902C
:101C10004F900895DC012115310541F4ED91FC91BF
:101C20000190F081E02D642F099508950E94A60D82
:101C30000895CF92DF92EF92FF920F931F93CF936D
:101C4000DF93EC016A017B012115310541F4E88144
:101C5000F9810190F081E02D642F09951FC02A3091
:101C60003105D1F477FF17C0E881F9810190F08147
:101C7000E02D6DE209958C0144275527BA014C19D6
:101C80005D096E097F09CE012AE00E94A60D980128
:101C9000280F391F04C02AE00E94A60D9C01C9012B
:101CA000DF91CF911F910F91FF90EF90DF90CF9038
:101CB00008957F928F929F92AF92BF92CF92DF92C0
:101CC000EF92FF920F931F93CF93DF934C017A0112
:101CD0008B01722ECB01BA01A80197010E94A917AE
:101CE000882321F0C40160EB71E021C0C0E0D0E0A6
:101CF00057016801E894D7F8C601B5012FEF3FEF0F
:101D00004FE75FE70E94A917882351F4C601B50188
:101D10002FEF3FEF4FE75FE70E949E15181614F074
:101D2000C1E0D0E0219739F0C40164EB71E00E947A
:101D30008A0DEC0193C0C801B7012FEF3FEF4FE7C9
:101D40005FE40E944217181654F0C801B7012FEF44
:101D50003FEF4FE75FEC0E949E15882324F4C401F7
:101D600068EB71E0E4CFC801B70120E030E040E06B
:101D700050E00E949E1587FD03C0C0E0D0E00EC079
:101D8000D401ED91FC910190F081E02DC4016DE250
:101D90000995EC0117FB109517F9109520E030E03C
:101DA00040E05FE3DD240BC0CA01B90120E030E070
:101DB00040E251E40E94A2159B01AC01D394D714D8
:101DC00098F3C801B7010E943A155B016C010E94AB
:101DD0000F167B018C01C401B801A7012AE030E095
:101DE0000E940A0EC80FD91F772039F0C4016CEB8E
:101DF00071E00E948A0DC80FD91FC801B7010E9467
:101E00003B169B01AC01C601B5010E94391524C0E7
:101E100020E030E040E251E40E9446177B018C0153
:101E20000E940A165B016C01CC24B7FCC094DC2C28
:101E3000C401B601A5012AE030E00E94190EC80FC6
:101E4000D91FC601B5010E943D169B01AC01C80116
:101E5000B7010E9439157A947720D1F6CE01DF912F
:101E6000CF911F910F91FF90EF90DF90CF90BF9097
:101E7000AF909F908F907F900895EF92FF920F9375
:101E80001F937C010E94590E8C01C7010E946A0DAC
:101E9000080F191FC8011F910F91FF90EF9008952F
:101EA000EF92FF920F931F937C010E948A0D8C0189
:101EB000C7010E946A0D080F191FC8011F910F91D9
:101EC000FF90EF9008950E94970A08950E94FA09E2
:101ED00008950895EF92FF920F931F93FC01F62E41
:101EE000E42E0EE513E06081772767FD7095C80149
:101EF0000E94EC11C8016F2D0E946E12C8016E2D58
:101F00000E946E12C8010E94B1121F910F91FF90A2
:101F1000EF900895FF920F931F93CF93DF93EC01FF
:101F2000F62E042F11E4CE01612F4F2D0E946A0F6F
:101F30001F5FCE01612F402F0E946A0F1F5F19356E
:101F400091F7DF91CF911F910F91FF900895DF924C
:101F5000EF92FF920F931F938C01D62E8EE5E82E01
:101F600083E0F82EF8016081772767FD7095C7013F
:101F70000E94EC11C7016D2D0E946E12C70160E036
:101F80000E949E12F8016081772767FD7095C70156
:101F900042E050E00E94C212C7010E94FF118C0172
:101FA000C7010E94FF11382F20E0202B312BC901DF
:101FB0001F910F91FF90EF90DF90089560E00E94D5
:101FC000A70F9C013F70C9010895DF92EF92FF9225
:101FD0000F931F937C01D62E0EE513E0FC01608168
:101FE000772767FD7095C8010E94EC11C8016D2D1F
:101FF0000E946E12C80160E00E949E12F70160818B
:10200000772767FD7095C80141E050E00E94C21239
:10201000C8010E94FF111F910F91FF90EF90DF9078
:1020200008951F93CF93DF93EC01162F8EE593E075
:102030000E94C6121883CE0160E843E60E946A0F30
:1020400061E070E080E090E00E94B108CE016EE5B2
:1020500040E00E946A0FCE016DE50E94E50F8432D8
:1020600011F080E051C0CE016CE046E00E948A0F82
:10207000CE016BE241E00E946A0FCE016CE241E0CA
:102080000E946A0FCE016DE24EE00E946A0FCE01FF
:102090006EE240E00E946A0FCE016FE241E00E94D2
:1020A0006A0FCE0160E345E00E946A0FCE0161E352
:1020B00041E00E946A0FCE0162E340E00E946A0F95
:1020C000CE0163E340E00E946A0FCE0164E340E08A
:1020D0000E946A0FCE0165E340E00E946A0FCE01C4
:1020E0006BE540E00E946A0FCE016CE540E10E9482
:1020F0006A0FCE016DE540E20E946A0FCE016EE5E7
:102100004FE80E946A0F81E0DF91CF911F910895FF
:102110000E9494001F920F920FB60F9211248F937A
:102120009F93EF93FF93809117038F5F8093170323
:10213000E4EEF2E080819181019691838083FF91AA
:10214000EF919F918F910F900FBE0F901F90189558
:10215000F8941092800088E1809381008FE79EE3DD
:10216000909387008093860080E280936F001092A6
:1021700085001092840078940895E1E8F0E0808171
:10218000816080830895EF92FF921F93CF93DF9336
:10219000EC018BA98823F1F1E82EFF241BAA10E0A3
:1021A00036C0412F50E0FA01EE0FFF1FE40FF51F7C
:1021B000DF01AA0FBB1FAC0FBD1F14962D913C91E0
:1021C00015972E193F0915963C932E9314971216C6
:1021D0001306E4F03196EE0FFF1FEC0FFD1F808118
:1021E0009181280F391F15963C932E931497CA019D
:1021F0000196FC01EE0FFF1FE80FF91FEE0FFF1F06
:10220000EC0FFD1F0190F081E02D09951F5F8AA959
:10221000181738F2DF91CF911F91FF90EF9008953A
:102220000F931F93CF93DF93EC018A014AA910C04B
:10223000F901EE0FFF1FE20FF31F3196EE0FFF1FA4
:10224000EC0FFD1F86E00D9001928150E1F74150A7
:102250004423A1F0242F30E0C9010197DC01AA0F2B
:10226000BB1FA80FB91F1196AA0FBB1FAC0FBD1F34
:102270008D919C91119768177907D4F28AA98F5F85
:102280008AAB242F30E0C9010196FC01EE0FFF1F3D
:10229000E80FF91FEE0FFF1FEC0FFD1F11830083E6
:1022A000F901EE0FFF1FE20FF31FDF01AA0FBB1FA3
:1022B000AC0FBD1F15967C936E9314973196EE0F5D
:1022C000FF1FEC0FFD1F71836083DF91CF911F9182
:1022D0000F910895CF93DF93EC01DB017AA960E0C1
:1022E000462F50E0FA01EE0FFF1FE40FF51F319665
:1022F000EE0FFF1FEC0FFD1F2D913C911197808178
:10230000918128173907A1F4CA010196FC01EE0F4B
:10231000FF1FE80FF91FEE0FFF1FEC0FFD1F1496B4
:102320002D913C911597808191812817390719F0DB
:102330006F5F7617A8F6671718F571507AAB1DC056
:10234000862F90E0DC01AA0FBB1FA80FB91F1196C2
:10235000AA0FBB1F0196FC01EE0FFF1FE80FF91F2C
:102360003196EE0FFF1FAC0FBD1FEC0FFD1F86E077
:1023700001900D928150E1F76F5F8AA9681700F311
:10238000DF91CF910895DF93CF9300D000D000D09C
:10239000CDB7DEB77A8369837C836B835E834D839D
:1023A000BE016F5F7F4F0E946A1126960FB6F894A8
:1023B000DEBF0FBECDBFCF91DF910895E6EEF2E014
:1023C000118210821382128215821482369683E063
:1023D000E631F807A9F7089581E080935D036093E3
:1023E0003A0310925B0310925C0308952091390325
:1023F00030E080913803281B3109C90108954091CC
:10240000380380913903481718F02FEF3FEF0AC0C7
:10241000E42FF0E0E85EFC4F8081282F30E04F5F32
:1024200040933803C9010895E0913803809139033E
:10243000E81718F0EFEFFFEF06C0F0E0E85EFC4FA2
:102440008081E82FF0E0CF01089508951092610394
:102450001092600388EE93E0A0E0B0E08093620306
:1024600090936303A0936403B093650389ED91E0B7
:1024700090935F0380935E030895CF92DF92EF9273
:10248000FF920F931F93CF93DF937C016B018A011F
:1024900080915D038823A1F0C0E0D0E00DC0D7019A
:1024A000ED91FC91D601AC0FBD1F0190F081E02DA4
:1024B000C7016C9109952196C017D10780F304C01C
:1024C000CB01642F0E946F13C801DF91CF911F9140
:1024D0000F91FF90EF90DF90CF900895DF93CF930F
:1024E0000F92CDB7DEB7FC01698380915D0388232D
:1024F000C9F080915C03803238F081E090E09383F2
:10250000828320E030E015C080915B03E82FF0E08B
:10251000E55CFC4F998190838F5F80935B03809390
:102520005C0305C0CE01019661E00E946F1321E0BB
:1025300030E0C9010F90CF91DF9108950F93062FDE
:1025400080913A036BE373E040915C0321E00E94C9
:102550001A1310925B0310925C0310925D030F91AB
:10256000089561E00E949E120895413208F040E211
:10257000862F68E173E00E94D11210923803809395
:102580003903089521E00E94B5120895109238038E
:102590001092390310925B0310925C030E941B158A
:1025A0000895382F413210F040E042C080916A0314
:1025B0008823E1F791E090936A0320936C038FEFF7
:1025C0008093D703109292034150409393034F5F3F
:1025D00090936B0380916B03330F832B80936B037A
:1025E00080916D03813041F410926D0380916B03F3
:1025F0008093BB0085EC01C085EE8093BC00809188
:102600006A038130E1F380919203841710F44091C2
:10261000920320E030E00AC0FB01E20FF31FD90172
:10262000AE58BC4F8C9180832F5F3F4F2417A0F38F
:10263000842F08950F931F93582F122F413210F0BB
:1026400081E04AC080916A038823E1F782E08093A9
:102650006A0300936C038FEF8093D7031092920369
:1026600040939303A2E7B3E0FB0102C081918D93F5
:102670008E2F861B8417D0F310926B0380916B030F
:10268000550F852B80936B0380916D03813041F44E
:1026900010926D0380916B038093BB0085EC01C0A9
:1026A00085EE8093BC00112321F080916A03823073
:1026B000E1F38091D7038F3F11F480E00DC080914A
:1026C000D703803211F482E007C08091D7038033B2
:1026D00011F084E001C083E01F910F910895482F0D
:1026E000613210F081E0089580916A03843011F026
:1026F00082E008956093B503A4E9B3E0842F9C01C0
:10270000F90102C081918D938E2F841B8617D0F31F
:1027100080E008951F920F920FB60F9211242F930D
:102720003F934F935F936F937F938F939F93AF9359
:10273000BF93EF93FF938091B90090E0887F9070F2
:102740008036910509F4F2C081369105CCF58832C6
:10275000910509F47BC089329105B4F4803191056B
:1027600009F46FC0813191053CF4009709F447C129
:10277000089709F04FC165C08831910509F466C01A
:10278000809709F047C182C08034910509F4A4C044
:102790008134910544F48033910509F482C0C897CF
:1027A00009F038C189C08035910509F489C08835A0
:1027B000910509F496C08834910509F02BC1AEC08B
:1027C0008839910509F413C189399105ECF48837EA
:1027D000910509F4ABC0893791054CF48836910511
:1027E00009F4A4C08037910509F014C19FC088384E
:1027F000910509F4FCC08039910509F49DC0803829
:10280000910509F007C198C0803B910509F4C6C045
:10281000813B91054CF4803A910509F49FC0883AB8
:10282000910509F0F7C0BAC0803C910509F4E3C0F6
:10283000883C910509F4DFC0883B910509F0EAC0A6
:10284000C2C080916B038093BB00CFC09091920374
:1028500080919303981768F490919203E92FF0E028
:10286000EE58FC4F80818093BB009F5F9093920352
:10287000BCC080916C03882309F44BC085ED809324
:10288000BC008091BC0084FDFCCFC2C080E280937C
:10289000D70385ED8093BC008091BC0084FDFCCF04
:1028A000B7C080E38093D70385ED8093BC0080910F
:1028B000BC0084FDFCCFACC088E38093D7039BC0F1
:1028C000809192039091BB00E82FF0E0EE58FC4F0E
:1028D00090838F5F809392039091920380919303F2
:1028E00082C0809192039091BB00E82FF0E0EE58F7
:1028F000FC4F90838F5F8093920380916C038823B9
:1029000041F085ED8093BC008091BC0084FDFCCF3C
:102910007FC081E080936D0384EA6EC085ED809373
:10292000BC008091BC0084FDFCCF72C083E080932A
:102930006A031092D60359C08091D603803208F002
:1029400056C08091D6039091BB00E82FF0E0EA5486
:10295000FC4F90838F5F8093D60347C08091D6034E
:10296000803230F4E091D603F0E0EA54FC4F10825C
:1029700085ED8093BC008091BC0084FDFCCF10925B
:102980006A036091D603E0917003F091710386EBC6
:1029900093E070E009951092D6032DC084E08093F7
:1029A0006A031092B4031092B503E0916E03F091A4
:1029B0006F0309958091B503882329F481E0809302
:1029C000B503109294039091B403E92FF0E0EC5614
:1029D000FC4F80818093BB009F5F9093B4039091E4
:1029E000B4038091B503981710F485EC01C085E815
:1029F0008093BC000FC085EC8093BC0009C010928E
:102A0000D70385ED8093BC008091BC0084FDFCCF92
:102A100010926A03FF91EF91BF91AF919F918F91B7
:102A20007F916F915F914F913F912F910F900FBECA
:102A30000F901F90189510926A0381E080936C03A9
:102A400010926D0382E161E00E94A60983E161E0DA
:102A50000E94A609E9EBF0E080818E7F808380816F
:102A60008D7F808388E48093B80085E48093BC00E8
:102A700008955058BB27AA270ED0B3C1A4D130F077
:102A8000A9D120F031F49F3F11F41EF499C10EF446
:102A9000E095E7FB64C1E92FB5D180F3BA1762076F
:102AA00073078407950718F071F49EF5E4C10EF4DE
:102AB000E0950B2EBA2FA02D0B01B90190010C014E
:102AC000CA01A0011124FF27591B99F0593F50F466
:102AD000503E68F11A16F040A22F232F342F4427BE
:102AE000585FF3CF469537952795A795F0405395B6
:102AF000C9F77EF41F16BA0B620B730B840BBAF086
:102B00009150A1F0FF0FBB1F661F771F881FC2F7F0
:102B10000EC0BA0F621F731F841F48F48795779504
:102B20006795B795F7959E3F08F0B3CF9395880FBB
:102B300008F09927EE0F979587950895ECD008F443
:102B400081E008950CD04DC145D140F03CD130F02A
:102B500021F45F3F19F003C151118EC131C152D12F
:102B600098F39923C9F35523B1F3951B550BBB2754
:102B7000AA2762177307840738F09F5F5F4F220F01
:102B8000331F441FAA1FA9F333D00E2E3AF0E0E8FA
:102B900030D091505040E695001CCAF729D0FE2F46
:102BA00027D0660F771F881FBB1F261737074807D8
:102BB000AB07B0E809F0BB0B802DBF01FF2793588E
:102BC0005F4F2AF09E3F510568F0C9C055C15F3F75
:102BD000ECF3983EDCF3869577956795B795F79576
:102BE0009F5FC9F7880F911D9695879597F908956E
:102BF000E1E0660F771F881FBB1F6217730784070A
:102C0000BA0720F0621B730B840BBA0BEE1F88F718
:102C1000E095089504D06894B1112EC10895FAD0BA
:102C200088F09F5790F0B92F9927B751A0F0D1F0B5
:102C3000660F771F881F991F1AF0BA95C9F712C03F
:102C4000B13081F018D1B1E0089515C1672F782F08
:102C50008827B85F39F0B93FCCF3869577956795AB
:102C6000B395D9F73EF490958095709561957F4F17
:102C70008F4F9F4F0895E89409C097FB3EF49095BD
:102C80008095709561957F4F8F4F9F4F9923A9F045
:102C9000F92F96E9BB279395F695879577956795D4
:102CA000B795F111F8CFFAF4BB0F11F460FF1BC018
:102CB0006F5F7F4F8F4F9F4F16C0882311F096E9AB
:102CC00011C0772321F09EE8872F762F05C0662359
:102CD00071F096E8862F70E060E02AF09A95660F12
:102CE000771F881FDAF7880F9695879597F90895CB
:102CF000ABD080F09F3740F491110EF0BDC060E082
:102D000070E080E89FEB089526F41B16611D711D8D
:102D1000811D2BC045C0990F0008550FAA0BE0E894
:102D2000FEEF16161706E807F907C0F0121613068D
:102D3000E407F50798F0621B730B840B950B39F4CD
:102D40000A2661F0232B242B252B21F408950A2633
:102D500009F4A140A6958FEF811D811D089597F973
:102D60009F6780E870E060E00895882371F477231E
:102D700021F09850872B762F07C0662311F49927EE
:102D80000DC09051862B70E060E02AF09A95660F96
:102D9000771F881FDAF7880F9695879597F908951A
:102DA0009F3F49F0915028F4869577956795B795A0
:102DB0009F5F80389F4F880F9695879597F9089564
:102DC0009FEF80EC089500240A9416161706180643
:102DD0000906089500240A9412161306140605061F
:102DE0000895092E0394000C11F4882352F0BB0FB0
:102DF00040F4BF2B11F460FF04C06F5F7F4F8F4F13
:102E00009F4F089557FD9058440F551F59F05F3F4D
:102E100071F04795880F97FB991F61F09F3F79F0FC
:102E200087950895121613061406551FF2CF46957E
:102E3000F1DF08C0161617061806991FF1CF869500
:102E40007105610508940895E5DFA0F0BEE7B917A4
:102E500088F4BB279F3860F41616B11D672F782FB2
:102E60008827985FF7CF869577956795B11D9395DD
:102E70009639C8F30895E894BB2766277727CB01D6
:102E800097F9089548DF08F48FEF08950BD0A9CF84
:102E90009ADF28F09FDF18F0952309F060CF90CFDC
:102EA0001124EACFAFDFA0F3959FD1F3950F50E047
:102EB000551F629FF001729FBB27F00DB11D639FEC
:102EC000AA27F00DB11DAA1F649F6627B00DA11D92
:102ED000661F829F2227B00DA11D621F739FB00D38
:102EE000A11D621F839FA00D611D221F749F3327A8
:102EF000A00D611D231F849F600D211D822F762F41
:102F00006A2F11249F5750408AF0E1F088234AF03D
:102F1000EE0FFF1FBB1F661F771F881F9150504089
:102F2000A9F79E3F510570F01ACFA6CF5F3FECF393
:102F3000983EDCF3869577956795B795F795E79575
:102F40009F5FC1F7FE2B880F911D9695879597F986
:102F50000895E1DE880B990B0895629FD001739F5D
:102F6000F001829FE00DF11D649FE00DF11D929F25
:102F7000F00D839FF00D749FF00D659FF00D992764
:102F8000729FB00DE11DF91F639FB00DE11DF91F88
:102F9000BD01CF0111240895A1E21A2EAA1BBB1B6B
:102FA000FD010DC0AA1FBB1FEE1FFF1FA217B30715
:102FB000E407F50720F0A21BB30BE40BF50B661F2B
:102FC000771F881F991F1A9469F7609570958095EF
:102FD00090959B01AC01BD01CF010895EE0FFF1F3D
:102FE0000590F491E02D099410E0C2EDD0E004C00A
:102FF000FE010E94F0172296C43DD107C9F7F8944C
:02300000FFCF00
:103002004164616672756974204D505231323120CB
:103012004361706163697469766520546F75636892
:103022002073656E736F722074657374004D505215
:10303200313231206E6F7420666F756E642C20639E
:103042006865636B20776972696E673F004D505205
:1030520031323120666F756E6421005265636F7282
:103062006465642048697420506C617900496E7609
:10307200616C696420737562736372697074004E67
:1030820065772048697473004C6F6F7020486974CB
:103092007300436C656172204C6F6F7000537461F2
:1030A20072742073657474696E67206C6F6F700040
:1030B2006E616E00696E66006F7666002E0001809A
:1030C20000DC03000000000000AA0C400D400C715F
:1030D2000C510C9A0C000000006E123D12F611FF0A
:0630E2001114122512007A
:00000001FF
