:100000000C9467000C948F000C948F000C948F005C
:100010000C948F000C948F000C948F000C948F0024
:100020000C948F000C948F000C9454070C948F0048
:100030000C948F000C948F000C948F000C948F0004
:100040000C943F030C948F000C94CB040C94190572
:100050000C948F000C948F000C948F000C948F00E4
:100060000C948F000C948F000000000024002700E7
:100070002A0000000000250028002B0000000000DE
:1000800023002600290004040404040404040202DA
:100090000202020203030303030301020408102007
:1000A0004080010204081020010204081020000012
:1000B0000007000201000003040600000000000029
:1000C0000000E400BA01C802D1028506A808112484
:1000D0001FBECFEFD8E0DEBFCDBF11E0A0E0B1E0A2
:1000E000E8E4F6E102C005900D92A834B107D9F713
:1000F00012E0A8E4B1E001C01D92AF35B107E1F70D
:1001000010E0CEECD0E004C02297FE010E941E0B4E
:10011000C23CD107C9F70E9430030C94220B0C9407
:100120000000862F60E00E9423040895862F61E07E
:100130000E9423040895FC01858160E00E9423044D
:10014000089588E491E00E949B008BE292E064E1D4
:1001500070E041EA50E00E948D080895FC0185811D
:1001600061E00E942304089588E491E00E94AE00BB
:100170008BE292E064E170E041EA50E00E94DA072D
:1001800008950E94B4000895862F0E947704089570
:10019000FC0184810E94C20308950F931F938C0178
:1001A0008EE0F801848387E0858361E00E94E403A8
:1001B00088E090E0F8019183808388EC90E093835D
:1001C00082831F910F91089588E491E00E94CD00F1
:1001D00008950895CF93DF93EC0188E491E06D8159
:1001E0000E94C400892B31F48881882319F481E0AE
:1001F0008B8388838B81882349F088E491E06C812C
:100200000E9496001B821F821E821FC08881882345
:10021000B9F088E491E06C810E94960080914801D9
:10022000909149012E813F81820F931F9F838E837E
:1002300029813A818217930744F018821F821E8217
:1002400088E491E06C810E949100DF91CF91089544
:100250000F931F938C01822FF801728361831082A8
:100260001382248345831782168261E00E94E4038F
:10027000F801858160E00E94E4031F910F910895C9
:100280004F925F926F927F928F929F92AF92BF92A6
:10029000CF92DF92EF92FF920F931F936C0188E44D
:1002A00091E00E94C8007C01F60162817381882779
:1002B00077FD8095982F0E94B6092B013C01F6012D
:1002C00064817581882777FD8095982F0E94B609F3
:1002D0004B015C010027F7FC0095102FC801B70106
:1002E0000E94B6097B018C01F6016681778188271F
:1002F00077FD8095982F0E94B6099B01AC01C8013B
:10030000B7010E941B099B01AC01C501B4010E9409
:10031000970A9B01AC01C301B2010E94B6081F916C
:100320000F91FF90EF90DF90CF90BF90AF909F9094
:100330008F907F906F905F904F9008950E94400142
:100340009B01AC0160E070E08AE794E40E941B0925
:1003500020E030E040E752E40E94970A20E030E0DD
:1003600040E05FE30E94B7080E94F1090E94830900
:10037000CB01089580EF90E090935101809350015C
:10038000E0E5F1E088E290E09293829388EC90E0DF
:1003900090935301809352018CEF93E09093550119
:1003A00080935401CF010E949E0190935901809344
:1003B00058010895CF93DF93809156019091570192
:1003C0002091480130914901820F931F909357016A
:1003D000809356018EE491E00E949E01EC01809191
:1003E000560190915701C817D90744F488E491E069
:1003F0000E94C1001092570110925601D0935901EA
:10040000C0935801DF91CF910895CF93DF93EC0112
:100410008A859B85892B29F588E491E068850E946F
:10042000C400892BF1F48A859B8520914801309185
:100430004901820F931F9B878A8781E00FC01B862B
:100440001A860BC01216130644F48091480190914D
:100450004901820F931F9B878A8780E0DF91CF91AC
:1004600008952A853B8580914A0190914B01281778
:10047000390744F3E4CFCF93DF93EC018E819F8162
:10048000892B29F588E491E06C810E94C400892BB6
:10049000F1F48E819F812091480130914901820FB2
:1004A000931F9F838E8381E00FC01F821E820BC02B
:1004B0001216130644F48091480190914901820F6D
:1004C000931F9F838E8380E0DF91CF9108952E81CB
:1004D0003F8180914A0190914B012817390744F3DD
:1004E000E4CFFC01158689E092E060E071E00E94B3
:1004F00041070895FC01148681E0858789E092E038
:100500006FE071E00E9441070895FC018485882313
:1005100061F48585882361F481E0848789E092E035
:1005200062E271E00E9441070895CF010E947A02C1
:100530000895CF93DF93EC010E943B02882319F0CA
:10054000CE010E948502CE010E940502882319F087
:10055000CE010E947102DF91CF9108950F931F93F6
:100560008C01862FF801648375835187408760E092
:100570000E94E403F801808560E00E94E403F80132
:10058000138612861782168215861F910F91089581
:100590008AE591E066E070E045E050E00E94AE023E
:1005A000089588E691E00E94E90080E791E00E94CA
:1005B000E90008958BE292E00E948D07089580E79C
:1005C00091E00E94EA00089588E691E00E94EA0026
:1005D00008950E94DA018AE591E00E949902089547
:1005E0000F931F9389E092E040E855E260E070E0ED
:1005F0000E94540588E691E064E670E04AE029E054
:100600000E94280180E791E064E670E04DE02CE074
:100610000E9428010BE212E0C8010E94720760915B
:10062000480170914901C80149EE52E00E94DA0781
:100630006091480170914901C80144EE52E00E9466
:10064000DA076091480170914901C8014FED52E00D
:100650000E94DA07C8010E9487071F910F91089531
:10066000CF93DF930E9487030E94F002C6E0D5E09B
:100670000E94DA022097E1F30E940605F9CF1F924B
:100680000F920FB60F9211242F933F938F939F9346
:10069000AF93BF9380917C0190917D01A0917E01E9
:1006A000B0917F01309180010196A11DB11D232FD2
:1006B0002D5F2D3720F02D570196A11DB11D2093E0
:1006C000800180937C0190937D01A0937E01B09383
:1006D0007F018091780190917901A0917A01B09188
:1006E0007B010196A11DB11D809378019093790142
:1006F000A0937A01B0937B01BF91AF919F918F91AD
:100700003F912F910F900FBE0F901F9018957894E6
:1007100084B5826084BD84B5816084BD85B5826006
:1007200085BD85B5816085BDEEE6F0E080818160A4
:100730008083E1E8F0E010828081826080838081A4
:1007400081608083E0E8F0E0808181608083E1EB7C
:10075000F0E0808184608083E0EBF0E08081816064
:100760008083EAE7F0E0808184608083808182601A
:100770008083808181608083808180688083109203
:10078000C1000895982F8E3008F09E509770809188
:1007900036018295880F880F807C892B80937C009E
:1007A00080917A00806480937A0080917A0086FD3F
:1007B000FCCF2091780040917900942F80E030E0C8
:1007C000282B392BC9010895CF93DF93482F50E090
:1007D000CA0186569F4FFC0134914A575F4FFA0178
:1007E0008491882369F190E0880F991FFC01E859F2
:1007F000FF4FA591B491FC01EE58FF4FC591D491E4
:10080000662351F42FB7F8948C91932F90958923F8
:100810008C93888189230BC0623061F42FB7F894E0
:100820008C91932F909589238C938881832B888337
:100830002FBF06C09FB7F8948C91832B8C939FBFDA
:10084000DF91CF910895482F50E0CA0182559F4F04
:10085000FC012491CA0186569F4FFC0194914A578E
:100860005F4FFA013491332309F440C0222351F140
:10087000233071F0243028F42130A1F0223011F51A
:1008800014C02630B1F02730C1F02430D9F404C0B0
:10089000809180008F7703C0809180008F7D80934E
:1008A000800010C084B58F7702C084B58F7D84BD71
:1008B00009C08091B0008F7703C08091B0008F7D18
:1008C0008093B000E32FF0E0EE0FFF1FEE58FF4FD4
:1008D000A591B4912FB7F894662321F48C9190954B
:1008E000892302C08C91892B8C932FBF0895682F88
:1008F00070E0CB0182559F4FFC012491CB018656BD
:100900009F4FFC0144916A577F4FFB0194919923BB
:1009100019F420E030E03CC0222351F1233071F083
:10092000243028F42130A1F0223011F514C02630F3
:10093000B1F02730C1F02430D9F404C08091800098
:100940008F7703C0809180008F7D8093800010C0DE
:1009500084B58F7702C084B58F7D84BD09C0809136
:10096000B0008F7703C08091B0008F7D8093B0007E
:10097000892F90E0880F991F84589F4FFC01A59103
:10098000B4918C9120E030E0842311F021E030E03C
:10099000C901089508951F920F920FB60F92112466
:1009A0002F933F934F938F939F93EF93FF93809158
:1009B000C00082FD1DC04091C6002091C101309150
:1009C000C2012F5F3F4F2F7330708091C301909110
:1009D000C4012817390771F0E091C101F091C201FB
:1009E000EF57FE4F40833093C2012093C10102C0F4
:1009F0008091C600FF91EF919F918F914F913F9110
:100A00002F910F900FBE0F901F901895E091150237
:100A1000F0911602E05CFF4F81919191208131812C
:100A2000821B930B8F739070892B11F00E94CA0464
:100A300008951F920F920FB60F9211242F933F9398
:100A40008F939F93EF93FF932091050230910602BD
:100A500080910702909108022817390731F480919C
:100A6000C1008F7D8093C10014C0E0910702F09116
:100A70000802EB53FE4F20818091070290910802FB
:100A800001968F73907090930802809307022093D1
:100A9000C600FF91EF919F918F913F912F910F9001
:100AA0000FBE0F901F901895AF92BF92DF92EF92FA
:100AB000FF920F931F93CF93DF93EC017A018B0189
:100AC000DD24403081EE580780E0680780E0780739
:100AD00011F0DD24D39491E0A92EB12CEC89FD898D
:100AE000DD2069F0C50108A002C0880F991F0A9493
:100AF000E2F7808360E079E08DE390E005C010824A
:100B000060E874E88EE190E0A80197010E94FA0A7B
:100B10002150304040405040569547953795279595
:100B200080E12030380720F0DD2011F0DD24D6CF21
:100B3000E889F9893083EA89FB89208319A2EE8943
:100B4000FF89408121E030E0C9010C8C02C0880F90
:100B5000991F0A94E2F7482B4083EE89FF89408170
:100B6000C9010D8C02C0880F991F0A94E2F7482B27
:100B70004083EE89FF894081C9010E8C02C0880F35
:100B8000991F0A94E2F7482B4083EE89FF89808100
:100B90000F8C02C0220F331F0A94E2F720952823FE
:100BA0002083DF91CF911F910F91FF90EF90DF9005
:100BB000BF90AF900895DC011C96ED91FC911D97BC
:100BC000E05CFF4F2191319180819181281B390B8D
:100BD0002F733070C9010895DC011C96ED91FC91D2
:100BE0001D97E05CFF4F20813181E054F040DF0130
:100BF000AE5BBF4F8D919C9111972817390719F45F
:100C00002FEF3FEF07C08D919C91E80FF91F808176
:100C1000282F30E0C9010895DC011C96ED91FC916C
:100C20001D97E05CFF4F20813181E054F040DF01EF
:100C3000AE5BBF4F8D919C9111972817390719F41E
:100C40002FEF3FEF10C08D919C911197E80FF91F86
:100C500020818D919C91119701968F7390701196C0
:100C60009C938E9330E0C9010895DC0191968C919C
:100C70009197882339F05496ED91FC915597808196
:100C800086FFF9CF91961C920895CF93DF93EC01E4
:100C9000EE85FF85E05CFF4F20813181E054F0401C
:100CA0002F5F3F4F2F733070DF01AE5BBF4F8D91D1
:100CB0009C91119728173907D1F3E05CFF4F808191
:100CC0009181E054F040E80FF91F6083EE85FF85C5
:100CD000E05CFF4F31832083EE89FF89208181E032
:100CE00090E00F8C02C0880F991F0A94E2F7282B1E
:100CF000208381E089A3EC89FD89808180648083E1
:100D000081E090E0DF91CF91089510920C02109253
:100D10000B0288EE93E0A0E0B0E080930D02909388
:100D20000E02A0930F02B09310028BE391E0909318
:100D30000A028093090281E891E090931602809361
:100D4000150285EC91E0909318028093170285ECD0
:100D500090E090931A028093190284EC90E09093B3
:100D60001C0280931B0280EC90E090931E02809303
:100D70001D0281EC90E09093200280931F0282EC90
:100D800090E0909322028093210286EC90E0909371
:100D900024028093230284E08093250283E08093E1
:100DA000260287E08093270285E08093280281E075
:100DB000809329020895CF92DF92EF92FF920F93D2
:100DC0001F93CF93DF937C016B018A01C0E0D0E0D9
:100DD0000FC0D6016D916D01D701ED91FC9101908D
:100DE000F081E02DC7010995C80FD91F01501040AF
:100DF0000115110571F7CE01DF91CF911F910F9170
:100E0000FF90EF90DF90CF900895EF92FF920F93B5
:100E10001F938C01DC01ED91FC910190F081E02D9C
:100E20006DE009957C01D801ED91FC910190F08174
:100E3000E02DC8016AE009959C012E0D3F1DC901F6
:100E40001F910F91FF90EF900895CF93DF93EC01E6
:100E50006115710519F420E030E00FC0DB010D9041
:100E60000020E9F71197A61BB70BE881F9810280F2
:100E7000F381E02DAD0109959C01C901DF91CF916E
:100E80000895EF92FF920F931F937C010E94250714
:100E90008C01C7010E940507080F191FC8011F9187
:100EA0000F91FF90EF9008951F920F920FB60F923F
:100EB00011248F939F93EF93FF9380915E028F5F36
:100EC00080935E02EBE2F2E0808191810196918352
:100ED0008083FF91EF919F918F910F900FBE0F90A4
:100EE0001F901895F8941092800088E180938100FB
:100EF0008FE79EE3909387008093860080E2809343
:100F00006F00109285001092840078940895E1E8B3
:100F1000F0E08081816080830895EF92FF921F93BB
:100F2000CF93DF93EC018BA98823F1F1E82EFF2406
:100F30001BAA10E036C0412F50E0FA01EE0FFF1F50
:100F4000E40FF51FDF01AA0FBB1FAC0FBD1F1496E6
:100F50002D913C9115972E193F0915963C932E9390
:100F6000149712161306E4F03196EE0FFF1FEC0FE4
:100F7000FD1F80819181280F391F15963C932E9378
:100F80001497CA010196FC01EE0FFF1FE80FF91F2D
:100F9000EE0FFF1FEC0FFD1F0190F081E02D099572
:100FA0001F5F8AA9181738F2DF91CF911F91FF9028
:100FB000EF9008950F931F93CF93DF93EC018A0175
:100FC0004AA910C0F901EE0FFF1FE20FF31F31967F
:100FD000EE0FFF1FEC0FFD1F86E00D900192815078
:100FE000E1F741504423A1F0242F30E0C9010197DB
:100FF000DC01AA0FBB1FA80FB91F1196AA0FBB1FB8
:10100000AC0FBD1F8D919C91119768177907D4F291
:101010008AA98F5F8AAB242F30E0C9010196FC01B9
:10102000EE0FFF1FE80FF91FEE0FFF1FEC0FFD1F64
:1010300011830083F901EE0FFF1FE20FF31FDF01A1
:10104000AA0FBB1FAC0FBD1F15967C936E93149710
:101050003196EE0FFF1FEC0FFD1F71836083DF9150
:10106000CF911F910F910895CF93DF93EC01DB0196
:101070007AA960E0462F50E0FA01EE0FFF1FE40F5F
:10108000F51F3196EE0FFF1FEC0FFD1F2D913C91C8
:1010900011978081918128173907A1F4CA0101961F
:1010A000FC01EE0FFF1FE80FF91FEE0FFF1FEC0F03
:1010B000FD1F14962D913C911597808191812817E1
:1010C000390719F06F5F7617A8F6671718F5715092
:1010D0007AAB1DC0862F90E0DC01AA0FBB1FA80FC2
:1010E000B91F1196AA0FBB1F0196FC01EE0FFF1F3F
:1010F000E80FF91F3196EE0FFF1FAC0FBD1FEC0F6D
:10110000FD1F86E001900D928150E1F76F5F8AA983
:10111000681700F3DF91CF910895DF93CF9300D04C
:1011200000D000D0CDB7DEB77A8369837C836B8330
:101130005E834D83BE016F5F7F4F0E943408269609
:101140000FB6F894DEBF0FBECDBFCF91DF910895EB
:10115000EDE2F2E011821082138212821582148273
:10116000369682E0ED35F807A9F708955058BB2769
:10117000AA270ED08BC17CD130F081D120F031F480
:101180009F3F11F41EF471C10EF4E095E7FB3CC1E2
:10119000E92F8DD180F3BA1762077307840795078B
:1011A00018F071F49EF5BCC10EF4E0950B2EBA2F29
:1011B000A02D0B01B90190010C01CA01A00111245D
:1011C000FF27591B99F0593F50F4503E68F11A1609
:1011D000F040A22F232F342F4427585FF3CF46959A
:1011E00037952795A795F0405395C9F77EF41F16BC
:1011F000BA0B620B730B840BBAF09150A1F0FF0F86
:10120000BB1F661F771F881FC2F70EC0BA0F621F71
:10121000731F841F48F4879577956795B795F79561
:101220009E3F08F0B3CF9395880F08F09927EE0FF3
:101230009795879508950CD029C121D140F018D1F8
:1012400030F021F45F3F19F0DFC051116AC10DC1C8
:101250002ED198F39923C9F35523B1F3951B550B60
:10126000BB27AA2762177307840738F09F5F5F4F79
:10127000220F331F441FAA1FA9F333D00E2E3AF0BA
:10128000E0E830D091505040E695001CCAF729D0D4
:10129000FE2F27D0660F771F881FBB1F2617370723
:1012A0004807AB07B0E809F0BB0B802DBF01FF2753
:1012B00093585F4F2AF09E3F510568F0A5C031C199
:1012C0005F3FECF3983EDCF3869577956795B7958D
:1012D000F7959F5FC9F7880F911D9695879597F9A8
:1012E0000895E1E0660F771F881FBB1F6217730721
:1012F0008407BA0720F0621B730B840BBA0BEE1F36
:1013000088F7E095089504D06894B1110AC1089552
:10131000D6D088F09F5790F0B92F9927B751A0F0F9
:10132000D1F0660F771F881F991F1AF0BA95C9F779
:1013300012C0B13081F0F4D0B1E00895F1C0672F50
:10134000782F8827B85F39F0B93FCCF38695779529
:101350006795B395D9F73EF4909580957095619512
:101360007F4F8F4F9F4F0895E89409C097FB3EF43D
:1013700090958095709561957F4F8F4F9F4F9923E2
:10138000A9F0F92F96E9BB279395F6958795779560
:101390006795B795F111F8CFFAF4BB0F11F460FF20
:1013A0001BC06F5F7F4F8F4F9F4F16C0882311F078
:1013B00096E911C0772321F09EE8872F762F05C08C
:1013C000662371F096E8862F70E060E02AF09A9527
:1013D000660F771F881FDAF7880F9695879597F91C
:1013E000089587D080F09F3740F491110EF099C096
:1013F00060E070E080E89FEB089526F41B16611D05
:10140000711D811D07C021C097F99F6780E870E0BA
:1014100060E00895882371F4772321F09850872B9A
:10142000762F07C0662311F499270DC09051862BA3
:1014300070E060E02AF09A95660F771F881FDAF750
:10144000880F9695879597F908959F3F49F0915099
:1014500028F4869577956795B7959F5F80389F4F5D
:10146000880F9695879597F908959FEF80EC0895DA
:1014700000240A9416161706180609060895002473
:101480000A9412161306140605060895092E0394ED
:10149000000C11F4882352F0BB0F40F4BF2B11F461
:1014A00060FF04C06F5F7F4F8F4F9F4F089557FDC0
:1014B0009058440F551F59F05F3F71F04795880FC2
:1014C00097FB991F61F09F3F79F087950895121659
:1014D00013061406551FF2CF4695F1DF08C0161605
:1014E00017061806991FF1CF8695710561050894B6
:1014F0000895E5DFA0F0BEE7B91788F4BB279F3851
:1015000060F41616B11D672F782F8827985FF7CFE4
:10151000869577956795B11D93959639C8F308958B
:10152000E894BB2766277727CB0197F908950BD05E
:10153000ADCF9EDF28F0A3DF18F0952309F064CF2C
:1015400094CF1124EECFB3DFA0F3959FD1F3950F85
:1015500050E0551F629FF001729FBB27F00DB11D37
:10156000639FAA27F00DB11DAA1F649F6627B00DC7
:10157000A11D661F829F2227B00DA11D621F739FB0
:10158000B00DA11D621F839FA00D611D221F749FBE
:101590003327A00D611D231F849F600D211D822F05
:1015A000762F6A2F11249F5750408AF0E1F088234C
:1015B0004AF0EE0FFF1FBB1F661F771F881F915059
:1015C0005040A9F79E3F510570F01ECFAACF5F3F54
:1015D000ECF3983EDCF3869577956795B795F7958C
:1015E000E7959F5FC1F7FE2B880F911D9695879514
:1015F00097F90895A1E21A2EAA1BBB1BFD010DC08D
:10160000AA1FBB1FEE1FFF1FA217B307E407F507B2
:1016100020F0A21BB30BE40BF50B661F771F881F8E
:10162000991F1A9469F760957095809590959B0124
:10163000AC01BD01CF010895EE0FFF1F0590F4919D
:08164000E02D0994F894FFCF9E
:1016480054696D656C696E6520436C656172005400
:10165800696D656C696E65204C6F6F70204C6F63A7
:101668006B0054696D656C696E65205374617274A2
:10167800204C6F6F700001000000004506DB06DBA0
:08168800050C06EC0535060017
:00000001FF
