:100000000C946A000C9492000C9492000C94920050
:100010000C9492000C9492000C9492000C94920018
:100020000C9492000C9492000C941C0C0C94920072
:100030000C9492000C9492000C9492000C949200F8
:100040000C94A7050C9492000C946E080C94BC08B8
:100050000C9492000C9492000C9492000C949200D8
:100060000C941C0F0C949200000000002400270048
:100070002A0000000000250028002B0000000000DE
:1000800023002600290004040404040404040202DA
:100090000202020203030303030301020408102007
:1000A0004080010204081020010204081020000012
:1000B0000007000201000003040600000000000029
:1000C000000094002C0143031E054B05280A700D07
:1000D000B80D440511241FBECFEFD8E0DEBFCDBF61
:1000E00011E0A0E0B1E0E8E8F6E202C005900D9270
:1000F000A03AB107D9F713E0A0EAB1E001C01D9220
:10010000A239B107E1F710E0C2EDD0E004C02297B8
:10011000FE010E943313C23CD107C9F70E94980523
:100120000C9437130C94000080EA91E00E94FD0AC1
:1001300008951F93162F0E94720B21E030E002C039
:10014000220F331F1A95E2F728233923C9011F9183
:1001500008950F931F93DF93CF930F92CDB7DEB720
:100160008C01CE0101960E94FD0A8981F8018083ED
:1001700088E792E060E071E00E94E40AC8016AE565
:100180000E94A50B882339F488E792E06DE271E0C4
:100190000E94E40AFFCF88E792E06DE471E00E94DC
:1001A000E40A0F90CF91DF911F910F910895862F50
:1001B00060E00E94E4060895862F61E00E94E40654
:1001C0000895FC01858160E00E94E406089581EABB
:1001D00091E00E94E1008AE992E064E170E047EE7C
:1001E00050E00E94550D0895FC01858161E00E9458
:1001F000E406089581EA91E00E94F4008AE992E021
:1002000064E170E047EE50E00E94A20C08950E9465
:10021000FA00089580EA91E070E00E949900089544
:10022000FC0184810E94830608950F931F938C0123
:100230008EE0F801848387E0858361E00E94A50653
:1002400088E090E0F8019183808384EF91E09383CC
:1002500082831F910F91089581EA91E00E94150118
:1002600008950F931F938C0181EA91E0F801668154
:100270000E94D700F8011082118610861F910F91FD
:100280000895FC018081882329F12091A1013091FA
:10029000A20180859185280F391F318720874381EE
:1002A000548181819281840F951F8217930724F4D2
:1002B000CF010E94310108954217530734F481EAB7
:1002C00091E066810E94D700089581EA91E06681FD
:1002D0000E94DC0008950F931F938C0181EA91E046
:1002E000F80166810E94DC00F801808591852091EB
:1002F000A1013091A201820F931F9187808781E035
:1003000080831F910F910895FC0181EA91E067813C
:100310000E940A0120E0892B09F021E0822F089534
:10032000CF93DF93EC010E9441018881882341F43F
:10033000CE010E948401882319F0CE010E946B0136
:10034000DF91CF9108950A960E94B3030895CF924A
:10035000DF92EF92FF920F931F93CF93DF938C0165
:100360007B016817790709F4AEC0DB0114962D9163
:100370003C911597EC018A819B818217930798F530
:10038000C880D9803B832A83C901880F991F880FB1
:10039000991F0E94FA0A9983888340E050E020E088
:1003A00030E016C0F801C081D181C20FD31F209761
:1003B00059F0F601E20FF31F80819181A281B38190
:1003C00088839983AA83BB834F5F5F4F2C5F3F4F26
:1003D000D80114968D919C9115974817590710F3E1
:1003E000C6010E94F70AE8018C819D81F7016481B2
:1003F00075818617970708F4BC0140E050E020E0C3
:1004000030E017C0D801ED91FC91E20FF31FE70136
:10041000A881B981A20FB31F8D919D910D90BC91C0
:10042000A02D80839183A283B3834F5F5F4F2C5FA6
:100430003F4F4617570730F3F80144815581D701E4
:1004400014968D919C9115974817590750F59A016C
:10045000220F331F220F331F1EC0F801C081D1812C
:10046000C20FD31FD701ED91FC91209751F0E20FFD
:10047000F31F80819181A281B38188839983AA83AC
:10048000BB83E8018C819D8101969D838C834F5FA6
:100490005F4F2C5F3F4FF7018481958148175907C3
:1004A000E0F2D80114968D919C911597E7016C812B
:1004B0007D816817790738F46817790720F4159655
:1004C0007C936E931497C801DF91CF911F910F9188
:1004D000FF90EF90DF90CF900895CF92DF92EF9250
:1004E000FF920F931F93DF93CF93CDB7DEB7619742
:1004F0000FB6F894DEBF0FBECDBF7C01802FF70191
:100500007283618354834383108215820683278319
:100510001186108661E00E94A506F701878160E0E0
:100520000E94A5068E010F5F1F4FC8010E94B303F2
:100530003AE0C32ED12CCE0CDF1CC601B8010E94BC
:10054000A701C7014196BE01685F7F4F0E94A701C6
:100550008F859889F701918F808F8989828F88850F
:1005600099850E94F70A89819A810E94F70AC6013B
:100570000E94960361960FB6F894DEBF0FBECDBF02
:10058000CF91DF911F910F91FF90EF90DF90CF906F
:1005900008954F925F926F927F928F929F92AF9247
:1005A000BF92CF92DF92EF92FF920F931F936C0155
:1005B00081EA91E00E9410017C01F601638174815F
:1005C000882777FD8095982F0E94CB112B013C0145
:1005D000F60165817681882777FD8095982F0E94A6
:1005E000CB114B015C010027F7FC0095102FC801CF
:1005F000B7010E94CB117B018C01F60167817085E8
:10060000882777FD8095982F0E94CB119B01AC0124
:10061000C801B7010E9430119B01AC01C501B401B2
:100620000E94AC129B01AC01C301B2010E94CB102D
:100630001F910F91FF90EF90DF90CF90BF90AF9000
:100640009F908F907F906F905F904F9008950E9441
:10065000C9029B01AC0160E070E08AE794E40E946B
:10066000301120E030E040E752E40E94AC1220E07C
:1006700030E040E05FE30E94CC100E9406120E942E
:100680009811CB01089580EF90E09093AB01809397
:10069000AA0188E290E09093A9018093A80188ECD8
:1006A00090E09093AD018093AC018CEF93E0909338
:1006B000AF018093AE01E7EAF1E01082CF010E9422
:1006C00027039093B3018093B2010895CF93DF93F2
:1006D0008091B0019091B1012091A1013091A201CE
:1006E000820F931F9093B1018093B0011092A701E4
:1006F00087EA91E00E942703EC018091B00190917C
:10070000B101C817D9075CF481EA91E00E940701A2
:1007100081E08093A7011092B1011092B001D093B3
:10072000B301C093B201DF91CF910895FC018FEF27
:100730009FEF97878687108A08950F931F938C01E8
:10074000FC011182108288E090E0938382831582FD
:10075000148280E290E00E94FA0AF801918380837B
:100760001F910F9108950F931F93DF93CF9300D0A4
:10077000CDB7DEB78C01BE016F5F7F4F0E949D0336
:10078000C8010796BE016E5F7F4F0E949D030F90C8
:100790000F90CF91DF911F910F910895CF93DF9329
:1007A000EC018C859D85892B29F581EA91E06A858C
:1007B0000E940A01892BF1F08C859D852091A10171
:1007C0003091A201820F931F9D878C8781E00FC01B
:1007D0001D861C860BC01216130644F48091A101DD
:1007E0009091A201820F931F9D878C8780E0DF91FB
:1007F000CF9108952C853D858091A3019091A4010E
:100800002817390744F3E4CFCF93DF93EC018885B1
:100810009985892B29F581EA91E06E810E940A0170
:10082000892BF1F0888599852091A1013091A20151
:10083000820F931F9987888781E00FC019861886D9
:100840000BC01216130644F48091A1019091A201ED
:10085000820F931F9987888780E0DF91CF91089559
:10086000288539858091A3019091A4012817390723
:1008700044F3E4CF0F931F938C0188E792E06BE57C
:1008800071E00E94E40AF8011786118A108A1F910C
:100890000F910895FC018685882361F4878588235C
:1008A00061F481E0868788E792E066E671E00E9465
:1008B000E40A0895168681E087870895CF92DF9233
:1008C000EF92FF920F931F93CF93DF93EC018981F7
:1008D000882391F187EA91E00E9427036C016091DF
:1008E000A1017091A201882777FD8095982F0E9421
:1008F000CB117B018C0188899989C89EB001C99E62
:10090000700DD89E700D1124882777FD8095982F43
:100910000E94CB119B01AC01C801B7010E943011AC
:100920009B01AC016C897D898E899F890E94CC10C6
:100930006C8B7D8B8E8B9F8BDF91CF911F910F9155
:10094000FF90EF90DF90CF900895FC011082868594
:10095000882351F08091A701882331F08089918903
:100960000196918B808B23C08091A7018823F9F099
:1009700087858823E1F081E081832289338980891A
:1009800091892817390711F037FF0CC0138A128A92
:1009900080E090E0A0E0B0E0848B958BA68BB78BD5
:1009A00081E08083828993890196938B828B8785EE
:1009B000882319F0CF010E945E040895CF93DF933E
:1009C000EC010E940404882319F0CE010E944A041D
:1009D000CE010E94CE03882319F0CE010E943A0472
:1009E000CE010E94A504DF91CF9108950F931F932C
:1009F0008C01862FF801668377835387428760E0F6
:100A00000E94A506F801828560E00E94A506F80113
:100A100015861486118610861786118A108A8FEF24
:100A20009FEF938B828B80E090E0A0E0B0E0848B1E
:100A3000958BA68BB78B1F910F91089584EB91E056
:100A40006AE070E04BE050E00E94F60408958130C7
:100A5000910541F46F5F7F4FB1F48CEC91E00E94FF
:100A6000A3010895892B79F46F5F7F4F61F4809122
:100A7000DD019091DE010E94F70A8091D6019091EC
:100A8000D7010E94F70A089580E090E06FEF7FEFB2
:100A90000E942705089581E090E06FEF7FEF0E94AC
:100AA000270508958AE992E00E94550C08958CEC80
:100AB00091E00E94900108950E94660384EB91E00A
:100AC0000E94DE0408950F931F9388E792E040E8A8
:100AD00055E260E070E00E94F70880EA91E00E9431
:100AE000A9008CEC91E060E570E040E550E028E082
:100AF00009E00E946D020AE912E0C8010E943A0C66
:100B00006091A1017091A201C8014CE555E00E94DD
:100B1000A20C6091A1017091A201C80147E555E0C6
:100B20000E94A20CC8010E944F0C1F910F910895C2
:100B3000CF93DF930E9448060E946305C9EAD8E07C
:100B40000E9452052097E1F30E94A908F9CF1F9255
:100B50000F920FB60F9211242F933F938F939F9371
:100B6000AF93BF938091EB019091EC01A091ED01C7
:100B7000B091EE013091EF010196A11DB11D232F1F
:100B80002D5F2D3720F02D570196A11DB11D20930B
:100B9000EF018093EB019093EC01A093ED01B093F2
:100BA000EE018091E7019091E801A091E901B091F7
:100BB000EA010196A11DB11D8093E7019093E80120
:100BC000A093E901B093EA01BF91AF919F918F91FA
:100BD0003F912F910F900FBE0F901F9018959B0182
:100BE000AC017FB7F8948091E7019091E801A09162
:100BF000E901B091EA0166B5A89B05C06F3F19F005
:100C00000196A11DB11D7FBFBA2FA92F982F88274C
:100C1000860F911DA11DB11D62E0880F991FAA1FAB
:100C2000BB1F6A95D1F7BC012DC0FFB7F894809126
:100C3000E7019091E801A091E901B091EA01E6B5E0
:100C4000A89B05C0EF3F19F00196A11DB11DFFBF84
:100C5000BA2FA92F982F88278E0F911DA11DB11D86
:100C6000E2E0880F991FAA1FBB1FEA95D1F7861BE8
:100C7000970B885E9340C8F221503040404050406E
:100C800068517C4F211531054105510571F60895D4
:100C9000789484B5826084BD84B5816084BD85B557
:100CA000826085BD85B5816085BDEEE6F0E080811E
:100CB00081608083E1E8F0E010828081826080833F
:100CC000808181608083E0E8F0E0808181608083C2
:100CD000E1EBF0E0808184608083E0EBF0E08081F4
:100CE00081608083EAE7F0E0808184608083808196
:100CF000826080838081816080838081806880833E
:100D00001092C1000895982F8E3008F09E50977071
:100D1000809179018295880F880F807C892B809340
:100D20007C0080917A00806480937A0080917A00C0
:100D300086FDFCCF2091780040917900942F80E0CF
:100D400030E0282B392BC9010895CF93DF93482F2A
:100D500050E0CA0186569F4FFC0134914A575F4FBD
:100D6000FA018491882369F190E0880F991FFC01B2
:100D7000E859FF4FA591B491FC01EE58FF4FC59182
:100D8000D491662351F42FB7F8948C91932F9095BA
:100D900089238C93888189230BC0623061F42FB73B
:100DA000F8948C91932F909589238C938881832B31
:100DB00088832FBF06C09FB7F8948C91832B8C93A8
:100DC0009FBFDF91CF910895482F50E0CA0182550F
:100DD0009F4FFC012491CA0186569F4FFC019491BC
:100DE0004A575F4FFA013491332309F440C022235C
:100DF00051F1233071F0243028F42130A1F0223059
:100E000011F514C02630B1F02730C1F02430D9F4E8
:100E100004C0809180008F7703C0809180008F7D17
:100E20008093800010C084B58F7702C084B58F7D19
:100E300084BD09C08091B0008F7703C08091B0005D
:100E40008F7D8093B000E32FF0E0EE0FFF1FEE5890
:100E5000FF4FA591B4912FB7F894662321F48C919C
:100E60009095892302C08C91892B8C932FBF089574
:100E70000F931F93CF93DF93BC018230910510F441
:100E800062E070E0E0919003F0919103A0E0B0E0A7
:100E900040E050E024C08081918186179707D0F010
:100EA0008617970771F482819381109729F0139622
:100EB0009C938E9312972CC09093910380939003F0
:100EC00027C04115510519F08417950718F4EF0153
:100ED0008D01AC01DF01828193819C01F901309782
:100EE000D1F641155105F9F0CA01861B970B8430E4
:100EF000910580F48A819B810115110521F0F8018B
:100F00009383828304C09093910380939003FE01A6
:100F1000329645C0FE01E80FF91F61937193029765
:100F2000998388833CC080918E0390918F03892B95
:100F300041F480917C0190917D0190938F03809387
:100F40008E0340917E0150917F014115510541F47E
:100F50004DB75EB780917A0190917B01481B590B88
:100F600020918E0330918F0324173507B0F4CA0106
:100F7000821B930B8617970780F0AB014E5F5F4F84
:100F80008417950750F0420F531F50938F034093DF
:100F90008E03F9016193719302C0E0E0F0E0CF01AC
:100FA000DF91CF911F910F910895CF93DF939C0113
:100FB000009709F48FC0EC0122971B821A8260917E
:100FC0009003709191036115710581F48881998175
:100FD000820F931F20918E0330918F0328173907BA
:100FE00039F5D0938F03C0938E0374C0DB0140E0CA
:100FF00050E0AC17BD0708F1BB83AA83FE01219125
:101000003191E20FF31FAE17BF0779F48D919C91D8
:101010001197280F391F2E5F3F4F3983288312966F
:101020008D919C9113979B838A834115510571F48F
:10103000D0939103C09390034DC012968D919C91D3
:101040001397AD01009711F0DC01D3CFDA011396AD
:10105000DC93CE931297FA0121913191E20FF31FA5
:10106000CE17DF0769F488819981280F391F2E5F19
:101070003F4FFA01318320838A819B81938382834E
:10108000E0E0F0E0DB0112968D919C9113970097C0
:1010900019F0BC01FD01F6CFAB014E5F5F4FDB01E4
:1010A0008D919C91840F951F20918E0330918F0319
:1010B0002817390779F4309729F410929103109288
:1010C000900302C0138212824250504050938F030B
:1010D00040938E03DF91CF91089508951F920F9250
:1010E0000FB60F9211242F933F934F938F939F939B
:1010F000EF93FF938091C00082FD1DC04091C60018
:1011000020913002309131022F5F3F4F2F733070AA
:1011100080913202909133022817390771F0E091E3
:101120003002F0913102E051FE4F408330933102A2
:101130002093300202C08091C600FF91EF919F91F1
:101140008F914F913F912F910F900FBE0F901F9055
:101150001895E0918402F0918502E05CFF4F819147
:10116000919120813181821B930B8F739070892B19
:1011700011F00E946D0808951F920F920FB60F9202
:1011800011242F933F938F939F93EF93FF9320917D
:10119000740230917502809176029091770228173F
:1011A000390731F48091C1008F7D8093C10014C054
:1011B000E0917602F0917702EC5CFD4F2081809106
:1011C00076029091770201968F73907090937702D8
:1011D000809376022093C600FF91EF919F918F91AB
:1011E0003F912F910F900FBE0F901F901895AF92C7
:1011F000BF92DF92EF92FF920F931F93CF93DF93F3
:10120000EC017A018B01DD24403081EE580780E04B
:10121000680780E0780711F0DD24D39491E0A92ECF
:10122000B12CEC89FD89DD2069F0C50108A002C060
:10123000880F991F0A94E2F7808360E079E08DE3DC
:1012400090E005C0108260E874E88EE190E0A801AB
:1012500097010E940F132150304040405040569556
:1012600047953795279580E12030380720F0DD201D
:1012700011F0DD24D6CFE889F9893083EA89FB892A
:10128000208319A2EE89FF89408121E030E0C90165
:101290000C8C02C0880F991F0A94E2F7482B4083F8
:1012A000EE89FF894081C9010D8C02C0880F991F0A
:1012B0000A94E2F7482B4083EE89FF894081C901F7
:1012C0000E8C02C0880F991F0A94E2F7482B4083C6
:1012D000EE89FF8980810F8C02C0220F331F0A9490
:1012E000E2F7209528232083DF91CF911F910F9162
:1012F000FF90EF90DF90BF90AF900895DC011C96B7
:10130000ED91FC911D97E05CFF4F2191319180811F
:101310009181281B390B2F733070C9010895DC01AE
:101320001C96ED91FC911D97E05CFF4F208131816F
:10133000E054F040DF01AE5BBF4F8D919C9111975F
:101340002817390719F42FEF3FEF07C08D919C91B3
:10135000E80FF91F8081282F30E0C9010895DC01D2
:101360001C96ED91FC911D97E05CFF4F208131812F
:10137000E054F040DF01AE5BBF4F8D919C9111971F
:101380002817390719F42FEF3FEF10C08D919C916A
:101390001197E80FF91F20818D919C91119701966B
:1013A0008F73907011969C938E9330E0C9010895CD
:1013B000DC0191968C919197882339F05496ED91A8
:1013C000FC915597808186FFF9CF91961C920895E4
:1013D000CF93DF93EC01EE85FF85E05CFF4F20812A
:1013E0003181E054F0402F5F3F4F2F733070DF01A9
:1013F000AE5BBF4F8D919C91119728173907D1F3A0
:10140000E05CFF4F80819181E054F040E80FF91FCC
:101410006083EE85FF85E05CFF4F31832083EE899A
:10142000FF89208181E090E00F8C02C0880F991F16
:101430000A94E2F7282B208381E089A3EC89FD89B7
:1014400080818064808381E090E0DF91CF91089576
:1014500010927B0210927A0288EE93E0A0E0B0E056
:1014600080937C0290937D02A0937E02B0937F02D2
:1014700084E891E0909379028093780280EF91E084
:10148000909385028093840284E392E09093870294
:101490008093860285EC90E0909389028093880285
:1014A00084EC90E090938B0280938A0280EC90E031
:1014B00090938D0280938C0281EC90E090938F0248
:1014C00080938E0282EC90E0909391028093900240
:1014D00086EC90E0909393028093920284E0809354
:1014E000940283E08093950287E08093960285E0E2
:1014F0008093970281E0809398020895CF92DF92C3
:10150000EF92FF920F931F93CF93DF937C016B01B8
:101510008A01C0E0D0E00FC0D6016D916D01D70106
:10152000ED91FC910190F081E02DC7010995C80F64
:10153000D91F015010400115110571F7CE01DF913F
:10154000CF911F910F91FF90EF90DF90CF90089572
:10155000EF92FF920F931F938C01DC01ED91FC91B0
:101560000190F081E02D6DE009957C01D801ED91AD
:10157000FC910190F081E02DC8016AE009959C0181
:101580002E0D3F1DC9011F910F91FF90EF900895FF
:10159000CF93DF93EC016115710519F420E030E081
:1015A0000FC0DB010D900020E9F71197A61BB70BC8
:1015B000E881F9810280F381E02DAD0109959C015C
:1015C000C901DF91CF910895EF92FF920F931F937E
:1015D0007C010E94C80A8C01C7010E94A80A080F5A
:1015E000191FC8011F910F91FF90EF9008950E945D
:1015F000D50708950E94380708950895EF92FF9245
:101600000F931F93FC01F62EE42E04E113E060819A
:10161000772767FD7095C8010E947E0DC8016F2D68
:101620000E94000EC8016E2D0E94000EC8010E948B
:10163000430E1F910F91FF90EF900895FF920F932B
:101640001F93CF93DF93EC01F62E042F11E4CE010C
:10165000612F4F2D0E94FE0A1F5FCE01612F402F88
:101660000E94FE0A1F5F193591F7DF91CF911F91FC
:101670000F91FF900895DF92EF92FF920F931F93C7
:101680008C01D62E84E1E82E83E0F82EF8016081EB
:10169000772767FD7095C7010E947E0DC7016D2DEC
:1016A0000E94000EC70160E00E94300EF8016081C8
:1016B000772767FD7095C70142E050E00E94540E05
:1016C000C7010E94910D8C01C7010E94910D382F16
:1016D00020E0202B312BC9011F910F91FF90EF903B
:1016E000DF90089560E00E943B0B9C013F70C901B0
:1016F0000895DF92EF92FF920F931F937C01D62EF5
:1017000004E113E0FC016081772767FD7095C80153
:101710000E947E0DC8016D2D0E94000EC80160E080
:101720000E94300EF7016081772767FD7095C80130
:1017300041E050E00E94540EC8010E94910D1F919B
:101740000F91FF90EF90DF9008951F93CF93DF9359
:10175000EC01162F84E193E00E94580E1883CE010D
:1017600060E843E60E94FE0A61E070E080E090E0FD
:101770000E94EF05CE016EE540E00E94FE0ACE0118
:101780006DE50E94790B843211F080E051C0CE01EA
:101790006CE046E00E941E0BCE016BE241E00E942D
:1017A000FE0ACE016CE241E00E94FE0ACE016DE22B
:1017B0004EE00E94FE0ACE016EE240E00E94FE0A68
:1017C000CE016FE241E00E94FE0ACE0160E345E0F7
:1017D0000E94FE0ACE0161E341E00E94FE0ACE01B2
:1017E00062E340E00E94FE0ACE0163E340E00E9413
:1017F000FE0ACE0164E340E00E94FE0ACE0165E3EA
:1018000040E00E94FE0ACE016BE540E00E94FE0A25
:10181000CE016CE540E10E94FE0ACE016DE540E29A
:101820000E94FE0ACE016EE54FE80E94FE0A81E0AA
:10183000DF91CF911F9108951F920F920FB60F92D3
:1018400011248F939F93EF93FF938091CD028F5F2D
:101850008093CD02EAE9F2E0808191810196918343
:101860008083FF91EF919F918F910F900FBE0F900A
:101870001F901895F8941092800088E18093810061
:101880008FE79EE3909387008093860080E28093A9
:101890006F00109285001092840078940895E1E81A
:1018A000F0E08081816080830895EF92FF921F9322
:1018B000CF93DF93EC018BA98823F1F1E82EFF246D
:1018C0001BAA10E036C0412F50E0FA01EE0FFF1FB7
:1018D000E40FF51FDF01AA0FBB1FAC0FBD1F14964D
:1018E0002D913C9115972E193F0915963C932E93F7
:1018F000149712161306E4F03196EE0FFF1FEC0F4B
:10190000FD1F80819181280F391F15963C932E93DE
:101910001497CA010196FC01EE0FFF1FE80FF91F93
:10192000EE0FFF1FEC0FFD1F0190F081E02D0995D8
:101930001F5F8AA9181738F2DF91CF911F91FF908E
:10194000EF9008950F931F93CF93DF93EC018A01DB
:101950004AA910C0F901EE0FFF1FE20FF31F3196E5
:10196000EE0FFF1FEC0FFD1F86E00D9001928150DE
:10197000E1F741504423A1F0242F30E0C901019741
:10198000DC01AA0FBB1FA80FB91F1196AA0FBB1F1E
:10199000AC0FBD1F8D919C91119768177907D4F2F8
:1019A0008AA98F5F8AAB242F30E0C9010196FC0120
:1019B000EE0FFF1FE80FF91FEE0FFF1FEC0FFD1FCB
:1019C00011830083F901EE0FFF1FE20FF31FDF0108
:1019D000AA0FBB1FAC0FBD1F15967C936E93149777
:1019E0003196EE0FFF1FEC0FFD1F71836083DF91B7
:1019F000CF911F910F910895CF93DF93EC01DB01FD
:101A00007AA960E0462F50E0FA01EE0FFF1FE40FC5
:101A1000F51F3196EE0FFF1FEC0FFD1F2D913C912E
:101A200011978081918128173907A1F4CA01019685
:101A3000FC01EE0FFF1FE80FF91FEE0FFF1FEC0F69
:101A4000FD1F14962D913C91159780819181281747
:101A5000390719F06F5F7617A8F6671718F57150F8
:101A60007AAB1DC0862F90E0DC01AA0FBB1FA80F28
:101A7000B91F1196AA0FBB1F0196FC01EE0FFF1FA5
:101A8000E80FF91F3196EE0FFF1FAC0FBD1FEC0FD3
:101A9000FD1F86E001900D928150E1F76F5F8AA9EA
:101AA000681700F3DF91CF910895DF93CF9300D0B3
:101AB00000D000D0CDB7DEB77A8369837C836B8397
:101AC0005E834D83BE016F5F7F4F0E94FC0C2696A4
:101AD0000FB6F894DEBF0FBECDBFCF91DF91089552
:101AE000ECE9F2E0118210821382128215821482D4
:101AF000369682E0EC3CF807A9F7089581E08093E0
:101B000013036093F00210921103109212030895D0
:101B10002091EF0230E08091EE02281B3109C901CB
:101B200008954091EE028091EF02481718F02FEFD0
:101B30003FEF0AC0E42FF0E0E253FD4F8081282FF1
:101B400030E04F5F4093EE02C9010895E091EE024C
:101B50008091EF02E81718F0EFEFFFEF06C0F0E01A
:101B6000E253FD4F8081E82FF0E0CF010895089502
:101B7000109217031092160388EE93E0A0E0B0E0F5
:101B80008093180390931903A0931A03B0931B0337
:101B900084E991E090931503809314030895CF9204
:101BA000DF92EF92FF920F931F93CF93DF937C010D
:101BB0006B018A01809113038823A1F0C0E0D0E07B
:101BC0000DC0D701ED91FC91D601AC0FBD1F019066
:101BD000F081E02DC7016C9109952196C017D107BE
:101BE00080F304C0CB01642F0E94010FC801DF9174
:101BF000CF911F910F91FF90EF90DF90CF900895BC
:101C0000DF93CF930F92CDB7DEB7FC01698380914C
:101C100013038823C9F080911203803238F081E0E9
:101C200090E09383828320E030E015C0809111031F
:101C3000E82FF0E0EF50FD4F998190838F5F809304
:101C400011038093120305C0CE01019661E00E944A
:101C5000010F21E030E0C9010F90CF91DF9108958D
:101C60000F93062F8091F00261EF72E04091120312
:101C700021E00E94AC0E10921103109212031092F8
:101C800013030F91089561E00E94300E08954132D0
:101C900008F040E2862F6EEC72E00E94630E109214
:101CA000EE028093EF02089521E00E94470E08950E
:101CB0001092EE021092EF02109211031092120392
:101CC0000E94AD100895382F413210F040E042C01C
:101CD000809120038823E1F791E0909320032093E3
:101CE00022038FEF80938D0310924803415040935D
:101CF00049034F5F9093210380912103330F832B7E
:101D00008093210380912303813041F410922303B7
:101D1000809121038093BB0085EC01C085EE809308
:101D2000BC00809120038130E1F380914803841747
:101D300010F44091480320E030E00AC0FB01E20FBC
:101D4000F31FD901A85DBC4F8C9180832F5F3F4F5B
:101D50002417A0F3842F08950F931F93582F122F49
:101D6000413210F081E04AC0809120038823E1F7DE
:101D700082E080932003009322038FEF80938D03F2
:101D80001092480340934903A8E2B3E0FB0102C06C
:101D900081918D938E2F861B8417D0F3109221038F
:101DA00080912103550F852B80932103809123037C
:101DB000813041F410922303809121038093BB0072
:101DC00085EC01C085EE8093BC00112321F0809149
:101DD00020038230E1F380918D038F3F11F480E086
:101DE0000DC080918D03803211F482E007C0809194
:101DF0008D03803311F084E001C083E01F910F91C7
:101E00000895482F613210F081E0089580912003F9
:101E1000843011F082E0089560936B03AAE4B3E08C
:101E2000842F9C01F90102C081918D938E2F841B18
:101E30008617D0F380E008951F920F920FB60F928D
:101E400011242F933F934F935F936F937F938F93BF
:101E50009F93AF93BF93EF93FF938091B90090E06E
:101E6000887F90708036910509F4F2C08136910523
:101E7000CCF58832910509F47BC089329105B4F420
:101E80008031910509F46FC0813191053CF40097D0
:101E900009F447C1089709F04FC165C08831910521
:101EA00009F466C0809709F047C182C0803491056B
:101EB00009F4A4C08134910544F48033910509F4F8
:101EC00082C0C89709F038C189C08035910509F4EE
:101ED00089C08835910509F496C08834910509F0C8
:101EE0002BC1AEC08839910509F413C18939910518
:101EF000ECF48837910509F4ABC0893791054CF4AF
:101F00008836910509F4A4C08037910509F014C101
:101F10009FC08838910509F4FCC08039910509F407
:101F20009DC08038910509F007C198C0803B91059C
:101F300009F4C6C0813B91054CF4803A910509F43F
:101F40009FC0883A910509F0F7C0BAC0803C91055E
:101F500009F4E3C0883C910509F4DFC0883B910592
:101F600009F0EAC0C2C0809121038093BB00CFC0BA
:101F70009091480380914903981768F49091480321
:101F8000E92FF0E0E85DFC4F80818093BB009F5F0C
:101F900090934803BCC080912203882309F44BC06E
:101FA00085ED8093BC008091BC0084FDFCCFC2C055
:101FB00080E280938D0385ED8093BC008091BC000E
:101FC00084FDFCCFB7C080E380938D0385ED8093C3
:101FD000BC008091BC0084FDFCCFACC088E3809342
:101FE0008D039BC0809148039091BB00E82FF0E0E7
:101FF000E85DFC4F90838F5F809348039091480386
:102000008091490382C0809148039091BB00E82FE2
:10201000F0E0E85DFC4F90838F5F809348038091F0
:102020002203882341F085ED8093BC008091BC00A1
:1020300084FDFCCF7FC081E08093230384EA6EC0DF
:1020400085ED8093BC008091BC0084FDFCCF72C004
:1020500083E08093200310928C0359C080918C03FD
:10206000803208F056C080918C039091BB00E82F1D
:10207000F0E0E459FC4F90838F5F80938C0347C05E
:1020800080918C03803230F4E0918C03F0E0E459CD
:10209000FC4F108285ED8093BC008091BC0084FDD4
:1020A000FCCF1092200360918C03E0912603F09105
:1020B00027038CE693E070E0099510928C032DC005
:1020C00084E08093200310926A0310926B03E091E6
:1020D0002403F0912503099580916B03882329F44B
:1020E00081E080936B0310924A0390916A03E92F79
:1020F000F0E0E65BFC4F80818093BB009F5F909394
:102100006A0390916A0380916B03981710F485EC31
:1021100001C085E88093BC000FC085EC8093BC00B3
:1021200009C010928D0385ED8093BC008091BC00A6
:1021300084FDFCCF10922003FF91EF91BF91AF91EE
:102140009F918F917F916F915F914F913F912F91CF
:102150000F900FBE0F901F9018951092200381E0F2
:10216000809322031092230382E161E00E94E4063F
:1021700083E161E00E94E406E9EBF0E080818E7F7C
:10218000808380818D7F808388E48093B80085E49C
:102190008093BC0008955058BB27AA270ED08BC14E
:1021A0007CD130F081D120F031F49F3F11F41EF446
:1021B00071C10EF4E095E7FB3CC1E92F8DD180F3AE
:1021C000BA17620773078407950718F071F49EF534
:1021D000BCC10EF4E0950B2EBA2FA02D0B01B90156
:1021E00090010C01CA01A0011124FF27591B99F08D
:1021F000593F50F4503E68F11A16F040A22F232F99
:10220000342F4427585FF3CF469537952795A795E8
:10221000F0405395C9F77EF41F16BA0B620B730B8F
:10222000840BBAF09150A1F0FF0FBB1F661F771F00
:10223000881FC2F70EC0BA0F621F731F841F48F4B5
:10224000879577956795B795F7959E3F08F0B3CF3B
:102250009395880F08F09927EE0F97958795089525
:102260000CD029C121D140F018D130F021F45F3FCA
:1022700019F0DFC051116AC10DC12ED198F3992315
:10228000C9F35523B1F3951B550BBB27AA2762173A
:102290007307840738F09F5F5F4F220F331F441F7F
:1022A000AA1FA9F333D00E2E3AF0E0E830D09150B7
:1022B0005040E695001CCAF729D0FE2F27D0660FA4
:1022C000771F881FBB1F261737074807AB07B0E8E3
:1022D00009F0BB0B802DBF01FF2793585F4F2AF0F9
:1022E0009E3F510568F0A5C031C15F3FECF3983EB9
:1022F000DCF3869577956795B795F7959F5FC9F756
:10230000880F911D9695879597F90895E1E0660FDE
:10231000771F881FBB1F621773078407BA0720F057
:10232000621B730B840BBA0BEE1F88F7E0950895C0
:1023300004D06894B1110AC10895D6D088F09F578F
:1023400090F0B92F9927B751A0F0D1F0660F771F01
:10235000881F991F1AF0BA95C9F712C0B13081F0E1
:10236000F4D0B1E00895F1C0672F782F8827B85FC7
:1023700039F0B93FCCF3869577956795B395D9F742
:102380003EF490958095709561957F4F8F4F9F4F4C
:102390000895E89409C097FB3EF490958095709558
:1023A00061957F4F8F4F9F4F9923A9F0F92F96E9A1
:1023B000BB279395F695879577956795B795F11116
:1023C000F8CFFAF4BB0F11F460FF1BC06F5F7F4FB3
:1023D0008F4F9F4F16C0882311F096E911C07723C5
:1023E00021F09EE8872F762F05C0662371F096E8CE
:1023F000862F70E060E02AF09A95660F771F881F9D
:10240000DAF7880F9695879597F9089587D080F029
:102410009F3740F491110EF099C060E070E080E8C1
:102420009FEB089526F41B16611D711D811D07C0C9
:1024300021C097F99F6780E870E060E008958823E5
:1024400071F4772321F09850872B762F07C06623ED
:1024500011F499270DC09051862B70E060E02AF0AE
:102460009A95660F771F881FDAF7880F96958795DC
:1024700097F908959F3F49F0915028F486957795F4
:102480006795B7959F5F80389F4F880F9695879582
:1024900097F908959FEF80EC089500240A9416168A
:1024A000170618060906089500240A941216130642
:1024B000140605060895092E0394000C11F48823D0
:1024C00052F0BB0F40F4BF2B11F460FF04C06F5FEC
:1024D0007F4F8F4F9F4F089557FD9058440F551FC2
:1024E00059F05F3F71F04795880F97FB991F61F096
:1024F0009F3F79F087950895121613061406551F0D
:10250000F2CF4695F1DF08C0161617061806991F78
:10251000F1CF86957105610508940895E5DFA0F077
:10252000BEE7B91788F4BB279F3860F41616B11DB3
:10253000672F782F8827985FF7CF869577956795CF
:10254000B11D93959639C8F30895E894BB27662783
:102550007727CB0197F908950BD0ADCF9EDF28F0F8
:10256000A3DF18F0952309F064CF94CF1124EECFA8
:10257000B3DFA0F3959FD1F3950F50E0551F629FF5
:10258000F001729FBB27F00DB11D639FAA27F00DCC
:10259000B11DAA1F649F6627B00DA11D661F829FF3
:1025A0002227B00DA11D621F739FB00DA11D621FD8
:1025B000839FA00D611D221F749F3327A00D611DF5
:1025C000231F849F600D211D822F762F6A2F1124D7
:1025D0009F5750408AF0E1F088234AF0EE0FFF1F2A
:1025E000BB1F661F771F881F91505040A9F79E3F61
:1025F000510570F01ECFAACF5F3FECF3983EDCF39D
:10260000869577956795B795F795E7959F5FC1F79D
:10261000FE2B880F911D9695879597F90895A1E255
:102620001A2EAA1BBB1BFD010DC0AA1FBB1FEE1F4C
:10263000FF1FA217B307E407F50720F0A21BB30B97
:10264000E40BF50B661F771F881F991F1A9469F713
:1026500060957095809590959B01AC01BD01CF016F
:102660000895EE0FFF1F0590F491E02D099410E0FE
:10267000C2EDD0E004C0FE010E9433132296C43D97
:08268000D107C9F7F894FFCF60
:102688004164616672756974204D5052313231204F
:102698004361706163697469766520546F75636816
:1026A8002073656E736F722074657374004D505299
:1026B800313231206E6F7420666F756E642C206322
:1026C8006865636B20776972696E673F004D505289
:1026D80031323120666F756E642100436C6561721A
:1026E800204C6F6F7000537461727420736574743A
:1026F800696E67206C6F6F700001800092030000A4
:1027080000000000E8097E0A7E09AF098F09D80990
:1027180000000000000ECF0D880D910DA60DB70D1D
:00000001FF
